{
  "abi": [
    {
      "inputs": [],
      "stateMutability": "nonpayable",
      "type": "constructor"
    },
    {
      "inputs": [
        {
          "internalType": "string",
          "name": "_error",
          "type": "string"
        }
      ],
      "name": "InvalidSignature",
      "type": "error"
    },
    {
      "inputs": [
        {
          "internalType": "address",
          "name": "_from",
          "type": "address"
        },
        {
          "internalType": "string[]",
          "name": "_gateways",
          "type": "string[]"
        },
        {
          "internalType": "bytes",
          "name": "_data",
          "type": "bytes"
        },
        {
          "internalType": "bytes4",
          "name": "_callbackFunction",
          "type": "bytes4"
        },
        {
          "internalType": "bytes",
          "name": "_extraData",
          "type": "bytes"
        }
      ],
      "name": "OffchainLookup",
      "type": "error"
    },
    {
      "stateMutability": "payable",
      "type": "fallback"
    },
    {
      "inputs": [],
      "name": "DefaultContenthash",
      "outputs": [
        {
          "internalType": "bytes",
          "name": "",
          "type": "bytes"
        }
      ],
      "stateMutability": "view",
      "type": "function"
    },
    {
      "inputs": [],
      "name": "ENS",
      "outputs": [
        {
          "internalType": "contract iENS",
          "name": "",
          "type": "address"
        }
      ],
      "stateMutability": "view",
      "type": "function"
    },
    {
      "inputs": [],
      "name": "Owner",
      "outputs": [
        {
          "internalType": "address payable",
          "name": "",
          "type": "address"
        }
      ],
      "stateMutability": "view",
      "type": "function"
    },
    {
      "inputs": [],
      "name": "ParentContenthash",
      "outputs": [
        {
          "internalType": "bytes",
          "name": "",
          "type": "bytes"
        }
      ],
      "stateMutability": "view",
      "type": "function"
    },
    {
      "inputs": [
        {
          "internalType": "bytes",
          "name": "response",
          "type": "bytes"
        },
        {
          "internalType": "bytes",
          "name": "extraData",
          "type": "bytes"
        }
      ],
      "name": "___contenthash",
      "outputs": [
        {
          "internalType": "bytes",
          "name": "result",
          "type": "bytes"
        }
      ],
      "stateMutability": "view",
      "type": "function"
    },
    {
      "inputs": [
        {
          "internalType": "bytes",
          "name": "response",
          "type": "bytes"
        },
        {
          "internalType": "bytes",
          "name": "extraData",
          "type": "bytes"
        }
      ],
      "name": "__callback",
      "outputs": [
        {
          "internalType": "bytes",
          "name": "",
          "type": "bytes"
        }
      ],
      "stateMutability": "view",
      "type": "function"
    },
    {
      "inputs": [
        {
          "internalType": "bytes",
          "name": "_contenthash",
          "type": "bytes"
        }
      ],
      "name": "__lookup",
      "outputs": [],
      "stateMutability": "view",
      "type": "function"
    },
    {
      "inputs": [
        {
          "internalType": "bytes32",
          "name": "",
          "type": "bytes32"
        }
      ],
      "name": "approved",
      "outputs": [
        {
          "internalType": "address",
          "name": "",
          "type": "address"
        }
      ],
      "stateMutability": "view",
      "type": "function"
    },
    {
      "inputs": [
        {
          "internalType": "bytes32",
          "name": "",
          "type": "bytes32"
        }
      ],
      "name": "contenthash",
      "outputs": [
        {
          "internalType": "bytes",
          "name": "",
          "type": "bytes"
        }
      ],
      "stateMutability": "view",
      "type": "function"
    },
    {
      "inputs": [
        {
          "internalType": "bytes4",
          "name": "",
          "type": "bytes4"
        }
      ],
      "name": "funcToFile",
      "outputs": [
        {
          "internalType": "string",
          "name": "",
          "type": "string"
        }
      ],
      "stateMutability": "view",
      "type": "function"
    },
    {
      "inputs": [],
      "name": "immolate",
      "outputs": [],
      "stateMutability": "nonpayable",
      "type": "function"
    },
    {
      "inputs": [
        {
          "internalType": "bytes32",
          "name": "",
          "type": "bytes32"
        }
      ],
      "name": "isApprovedForAll",
      "outputs": [
        {
          "internalType": "address",
          "name": "",
          "type": "address"
        }
      ],
      "stateMutability": "view",
      "type": "function"
    },
    {
      "inputs": [
        {
          "internalType": "bytes32",
          "name": "digest",
          "type": "bytes32"
        },
        {
          "internalType": "bytes",
          "name": "signature",
          "type": "bytes"
        }
      ],
      "name": "isValid",
      "outputs": [
        {
          "internalType": "bool",
          "name": "",
          "type": "bool"
        }
      ],
      "stateMutability": "pure",
      "type": "function"
    },
    {
      "inputs": [],
      "name": "namehash",
      "outputs": [
        {
          "internalType": "bytes32",
          "name": "",
          "type": "bytes32"
        }
      ],
      "stateMutability": "view",
      "type": "function"
    },
    {
      "inputs": [
        {
          "internalType": "bytes",
          "name": "name",
          "type": "bytes"
        },
        {
          "internalType": "bytes",
          "name": "data",
          "type": "bytes"
        }
      ],
      "name": "resolve",
      "outputs": [
        {
          "internalType": "bytes",
          "name": "",
          "type": "bytes"
        }
      ],
      "stateMutability": "view",
      "type": "function"
    },
    {
      "inputs": [],
      "name": "roothash",
      "outputs": [
        {
          "internalType": "bytes32",
          "name": "",
          "type": "bytes32"
        }
      ],
      "stateMutability": "view",
      "type": "function"
    },
    {
      "inputs": [
        {
          "internalType": "address",
          "name": "_token",
          "type": "address"
        },
        {
          "internalType": "uint256",
          "name": "_tokenID",
          "type": "uint256"
        }
      ],
      "name": "safeWithdraw",
      "outputs": [],
      "stateMutability": "nonpayable",
      "type": "function"
    },
    {
      "inputs": [
        {
          "internalType": "bytes32",
          "name": "node",
          "type": "bytes32"
        },
        {
          "internalType": "bytes",
          "name": "_contenthash",
          "type": "bytes"
        }
      ],
      "name": "setContenthash",
      "outputs": [],
      "stateMutability": "nonpayable",
      "type": "function"
    },
    {
      "inputs": [
        {
          "internalType": "bytes32",
          "name": "node",
          "type": "bytes32"
        },
        {
          "internalType": "bytes",
          "name": "_contenthash",
          "type": "bytes"
        },
        {
          "internalType": "bytes",
          "name": "signature",
          "type": "bytes"
        }
      ],
      "name": "setSignedContenthash",
      "outputs": [],
      "stateMutability": "nonpayable",
      "type": "function"
    },
    {
      "inputs": [
        {
          "internalType": "bytes32",
          "name": "node",
          "type": "bytes32"
        },
        {
          "internalType": "string[]",
          "name": "_labels",
          "type": "string[]"
        },
        {
          "internalType": "bytes",
          "name": "_contenthash",
          "type": "bytes"
        },
        {
          "internalType": "bytes",
          "name": "signature",
          "type": "bytes"
        }
      ],
      "name": "setSignedSubContenthash",
      "outputs": [],
      "stateMutability": "nonpayable",
      "type": "function"
    },
    {
      "inputs": [
        {
          "internalType": "bytes32",
          "name": "node",
          "type": "bytes32"
        },
        {
          "internalType": "string[]",
          "name": "_labels",
          "type": "string[]"
        },
        {
          "internalType": "bytes",
          "name": "_contenthash",
          "type": "bytes"
        }
      ],
      "name": "setSubContenthash",
      "outputs": [],
      "stateMutability": "nonpayable",
      "type": "function"
    },
    {
      "inputs": [
        {
          "internalType": "bytes32",
          "name": "",
          "type": "bytes32"
        }
      ],
      "name": "signedContenthash",
      "outputs": [
        {
          "internalType": "bytes",
          "name": "",
          "type": "bytes"
        }
      ],
      "stateMutability": "view",
      "type": "function"
    },
    {
      "inputs": [
        {
          "internalType": "bytes4",
          "name": "interfaceID",
          "type": "bytes4"
        }
      ],
      "name": "supportsInterface",
      "outputs": [
        {
          "internalType": "bool",
          "name": "",
          "type": "bool"
        }
      ],
      "stateMutability": "pure",
      "type": "function"
    },
    {
      "inputs": [
        {
          "internalType": "uint256",
          "name": "value",
          "type": "uint256"
        }
      ],
      "name": "uintToNumString",
      "outputs": [
        {
          "internalType": "string",
          "name": "",
          "type": "string"
        }
      ],
      "stateMutability": "pure",
      "type": "function"
    },
    {
      "inputs": [],
      "name": "withdraw",
      "outputs": [],
      "stateMutability": "nonpayable",
      "type": "function"
    },
    {
      "inputs": [
        {
          "internalType": "address",
          "name": "_token",
          "type": "address"
        },
        {
          "internalType": "uint256",
          "name": "_balance",
          "type": "uint256"
        }
      ],
      "name": "withdraw",
      "outputs": [],
      "stateMutability": "nonpayable",
      "type": "function"
    },
    {
      "stateMutability": "payable",
      "type": "receive"
    }
  ],
  "bytecode": {
    "object": "0x60e0604081815234620002db5730608052600060208381018281527f4f5b812789fc606be1b3b16908db13fc7a9adf7ca72641f84d75b47069d3d7f0848601819052848652946200005081620002e0565b51902060a05260029362000065855462000312565b601f8111620002ad575b5060558555848352818320947fe50101720024080112203c5aba6c9b5055a5fa12281c486188ed8ae2b6ef394b865560019586690f6606c0345e92d45cd760b21b910155620000c060035462000312565b90601f821162000286575b50506004929394605560035560038552828520907fe50101720024080112206377fe7e59802cc7160886ef388d2eda7a1a6fbd48158255690c2a72ebc8875d1a008760b31b910155845182810191858352868201528581526200012e81620002e0565b51902084518281019182527f988d085b7536499449d246e8d4658bac2fe4e2dcb8897682ec60319582db9cd5868201528581526200016c81620002e0565b51902060c052631d9dabef60e11b83528181528383206200019962000192825462000312565b826200034f565b600e660616464722d36360cc1b01905563c869023360e01b83528181528383208054620001cb90620001929062000312565b600c657075626b657960d01b01905563691f343160e01b8352528181208054620001fa90620001929062000312565b6008636e616d6560e01b01905580546001600160a01b0319163317905551612b9d90816200038a8239608051818181610188015281816104300152818161056201528181610b1601528181610e7101528181611c3501528181611e3001528181611efe0152612036015260a0518181816108d801526122f4015260c0518181816106660152611f4c0152f35b60038552601f848620920160051c820191015b81811015620000cb57848155860162000299565b85845285601f848620920160051c820191015b818110620002cf57506200006f565b848155600101620002c0565b600080fd5b606081019081106001600160401b03821117620002fc57604052565b634e487b7160e01b600052604160045260246000fd5b90600182811c9216801562000344575b60208310146200032e57565b634e487b7160e01b600052602260045260246000fd5b91607f169162000322565b601f82116200035c575050565b6000908152601f60208220920160051c8201915b8281106200037d57505050565b8181556001016200037056fe60806040818152600480361015610024575b505050361561001f57600080fd5b600080fd5b600092833560e01c90816301ffc9a714612340575080631d2e2cc414612317578063251c9422146122dc578063304e6ade146120ec578063332a21de14611e765780633ccfd60b14611e0c5780634f309cb814611ca45780635058c46014611bf757806355e3764d14611866578063655b788b1461151d57806369be8bb0146114725780636a4956db1461119c578063786519881461117b5780637865c3ad146111495780639061b9231461068957806391a08a481461064e578063b4a99a4e14610626578063bc1c58d1146105f3578063bf1e9c85146105cb578063c55a5d59146104d4578063d5659ad3146103aa578063db28b51214610378578063e190ea6514610330578063e5037fc814610259578063ebf1cec1146102055763f3fef3a303610011578290346101f05761015b36612482565b83546001600160a01b03908116939216803b156102015785516323b872dd60e01b81526001600160a01b037f0000000000000000000000000000000000000000000000000000000000000000811694820194855290941660208401526040830191909152839183919082908490829060600103925af180156101f4576101e057505051f35b6101e9906125a8565b6101f05751f35b5080fd5b50505051903d90823e3d90fd5b8480fd5b5034610255576020366003190112610255579061023f816102519461023894358152600660205220825193848092612512565b038361263d565b5191829160208352602083019061245d565b0390f35b8280fd5b82843461032d578060031936011261032d5750805160009160035461027d816124d8565b8084529060019081811690811561030557506001146102a8575b505061023f8261025194038361263d565b6003600090815294507fc2575a0e9e593c00f959f8c92f12db2869c3395a3b0502d05e2516446f71f85b5b8286106102ed575050509181016020019161023f82610297565b805460208787018101919091529095019481016102d3565b6102519650859250602091509261023f9360ff191682840152151560051b8201019450610297565b80fd5b503461025557602036600319011261025557803563ffffffff60e01b8116809103610374578284610238949361023f93610251975260205220825193848092612512565b8380fd5b50346102555760203660031901126102555735825260086020908152918190205490516001600160a01b039091168152f35b50346102555760203660031901126102555780356001600160401b038111610374576103d990369083016126b0565b918051926103e6846125d1565b600284526103f6602085016127f3565b6103fe612867565b61040785612810565b5261041184612810565b5061041a6128aa565b61042385612833565b5261042d84612833565b507f0000000000000000000000000000000000000000000000000000000000000000936000194301954387116104c157506104bd939495835161048b8161047d8660208301958c33914088612776565b03601f19810183528261263d565b51902092805193436020860152818501528084526104a8846125d1565b51630556f18360e41b815295869586016128f3565b0390fd5b634e487b7160e01b815260118552602490fd5b50913461032d576060906104e7366123f4565b90809294939591810103126101f05780359160038301908184116105b8576102518761052e88886105278989868a4311159283610541575b5050506127b4565b3691612679565b905191829160208352602083019061245d565b61054d91929350612753565b408151602081019182526001600160601b03197f000000000000000000000000000000000000000000000000000000000000000060601b16838201523360601b605482015260208401356068820152606881526105a981612622565b5190209101351487868161051f565b634e487b7160e01b815260118852602490fd5b833461032d578060031936011261032d57546001600160a01b03166105f13382146126ce565bff5b5034610255576020366003190112610255579061023f816102519461023894358152600560205220825193848092612512565b5050346101f057816003193601126101f057905490516001600160a01b039091168152602090f35b5050346101f057816003193601126101f057602090517f00000000000000000000000000000000000000000000000000000000000000008152f35b509190346101f05761069a366123f4565b929091946001958087116101f05760f8918335831c978751996105608b01916001600160401b03928c811084821117611134578a52602a8c528a9060005b8d610540821061111e57505001928360011161032d5784841161032d579199969897909261070c60019836908a8a01612679565b6107158d612810565b5261071f8c612810565b506107298c612810565b519081905b8681101561110b578d91906001600160f81b03198a820135811615610892579b809d9e9694928c8a819f858f918f60016107709f9d9b99019e8f848787612706565b929035818116936001811061087d575b5050501c016001019b610794928d92612706565b369061079f92612679565b906107aa9085612853565b526107b58d84612853565b506107c08d84612853565b51928251825160209381858085019201916107da9261243a565b810194838601601760f91b9052818151602197889382888684019201916108009261243a565b010360018101835201610813908261263d565b9d61081d91612853565b51915193828593519081848087019201916108379261243a565b830190828201602f60f81b9052805180938684019201916108579261243a565b01036001810183520161086a908261263d565b996001019b9a9991939b9890929461072e565b60010360031b82901b16169150388080610780565b5050965097945050879550888a600019809601936108b0858b612853565b51998a516020809c01208a518c8101918483528c8201528b81526108d3816125d1565b5190207f000000000000000000000000000000000000000000000000000000000000000014858811610255576001600160e01b031996853588169282806110fb575b610d6b57505050631674750f60e21b8103610c8b57508360241161032d57838301918a60231985850301126101f05760248401359081116101f0578301908260438301121561032d57509081604460246109729401359101612679565b965b80519561098087612607565b6003875260005b60608082101561099e578882018c01528a01610987565b50509089929189828a8151928151938c89840195808b8401906109c1918961243a565b8201928a8401712e6c696d6f2f2e77656c6c2d6b6e6f776e2f60701b90528051918b82019260329581878201906109f8918761243a565b0193878d826d2e6a736f6e3f743d7b646174617d60901b97888a82015203908101835201610a26908261263d565b610a2f82612810565b52610a3981612810565b508651878d8289518c81848401610a4f9261243a565b8101828101712e636173612f2e77656c6c2d6b6e6f776e2f60701b9052865190818b820190610a7e918b61243a565b01888a82015203908101835201610a95908261263d565b610a9e82612833565b52610aa890612833565b5085519687955190818d8801610abd9261243a565b8501908b8201712e6c696e6b2f2e77656c6c2d6b6e6f776e2f60701b9052519182858301610aea9261243a565b019182015203868101835201610b00908261263d565b610b0989612843565b52610b1388612843565b507f00000000000000000000000000000000000000000000000000000000000000009282519642603c900463ffffffff16603c0260e01b1685880152878752610b5b876125ec565b610b66368783612679565b858151910120953690610b7892612679565b848151910120825190858201926001600160601b03198660601b16845243014060348301523360601b6054830152606882015260688152610bb881612622565b519020815194438587015282860152606085015260608452610bd984612607565b51630556f18360e41b81526001600160a01b039091169481019490945260a06024850152845160a48501819052600581901b850160c4908101968301929060009087015b838210610c5f5787806104bd8989610c428e600319938487830301604488015261245d565b63c55a5d5960e01b6064860152848103909201608485015261245d565b90919293978380610c7c60019360c3198c82030186528c5161245d565b9a019201920190939291610c1d565b9091506378e5bf0360e11b8103610d0157508260241161032d5750876023198284810103011261001f57610cc26024820135612a91565b610cfb60258951809364616464722d60d81b8d830152610ceb8d8251928391868601910161243a565b810103600581018452018261263d565b96610974565b8882610d2392610d1c9b9452878c52208251998a8092612512565b038961263d565b8751610974575162461bcd60e51b8152808501899052601d60248201527f5245534f4c5645525f46554e435f4e4f545f494d504c454d454e5445440000006044820152606490fd5b8d8d848b888f968f968290610d808382612853565b5188815191012087518981019186835289820152888152610da0816125d1565b519020908a846060955b61107a5750505050815115600014610fd25750505081600014610faa57508151838082015260008160025491610ddf836124d8565b928387840152600181169081600014610f8b5750600114610f2b575b610e0e925003601f19810183528261263d565b915b805191610e1c836125d1565b60028352610e2b8584016127f3565b15610efa57906104bd939291610e3f612867565b610e4883612810565b52610e5282612810565b50610e5b6128aa565b610e6483612833565b52610e6e82612833565b507f0000000000000000000000000000000000000000000000000000000000000000968151858101916001600160601b03198a60601b16835243014060348201523360601b6054820152610edf6068828751610ecf818484018c8c0161243a565b810103604881018452018261263d565b5190208151944390860152818501528084526104a8846125d1565b5162461bcd60e51b8152808501849052600c60248201526b1393d517d1551217d493d3d560a21b6044820152606490fd5b509060026000527f405787fa12a823e0f2b7631cc41b3ba8828b3321ca811111fa75cd3aa3bb5ace90866000925b828410610f7257505050906060610e0e92820101610dfb565b8054868501606001528594509201918790600101610f59565b60609250610e0e94915060ff191682840152151560051b820101610dfb565b825190603c63ffffffff814204160260e01b1684820152848152610fcd816125ec565b610e0e565b8091959350825260068652610fe9838320546124d8565b610ff5575b5050610e10565b8294611063938360249361107295526006895220906110468751928361103a6110288c8301958c8752606084019061245d565b601f199384848303018d850152612512565b0390810184528361263d565b865194859263199510ef60e11b8a8501525180928585019061243a565b8101038781018452018261263d565b918680610fee565b01916110868383612853565b518a81519101208951908b82019283528a8201528981526110a6816125d1565b519020918286526005808b526110be8a8820546124d8565b6110cc575b50808c91610daa565b9194509250818552885261047d6110f288862089519283918c808401528b830190612512565b928282936110c3565b5063bc1c58d160e01b8414610915565b634e487b7160e01b855260328652602485fd5b6020809394508260609201015201908b916106d8565b604183634e487b7160e01b6000525260246000fd5b50346102555760203660031901126102555735825260076020908152918190205490516001600160a01b039091168152f35b50913461032d57602036600319011261032d575061052e6102519235612a91565b509190346101f05760603660031901126101f05782356001600160401b03602435818111610201576111d190369087016124a8565b91909260443582811161146e576111eb9036908901612394565b9760018060a01b03956001938785541689516302571be360e01b815282858201526020998a82602481865afa91821561146457908b92918e92611435575b50811633149283156113ad575b505050611242906129b4565b9580805b61136c5750505084885260058652868820938911611359575061126983546124d8565b601f8111611320575b508690601f89116001146112bf579780928192899a6006999a946112b4575b50501b916000199060031b1c19161790555b8452526112b1818320612a04565b51f35b013592503880611291565b9790601f1982169884895286892091895b8b811061130b5750836006999a9b106112f1575b505050811b0190556112a3565b0135600019600384901b60f8161c191690553880806112e4565b828201358455928501929088019088016112d0565b61134990848952868920601f8b0160051c810191888c1061134f575b601f0160051c01906129ed565b38611272565b909150819061133c565b634e487b7160e01b885260419052602487fd5b61137590612753565b8097611385610527838587612a50565b8a81519101208b51908b82019283528c8201528b81526113a4816125d1565b51902097611246565b8c5163e985e9c560e01b81526001600160a01b0390921687830190815233602082015291935083918290819060400103915afa90811561142b5790611242918c916113fe575b509050883880611236565b61141e91508a3d8c11611424575b611416818361263d565b81019061273b565b386113f3565b503d61140c565b8a513d8d823e3d90fd5b611456919250833d851161145d575b61144e818361263d565b810190612995565b9038611229565b503d611444565b8c513d8f823e3d90fd5b8680fd5b82843461032d578060031936011261032d57508051600091600254611496816124d8565b8084529060019081811690811561030557506001146114c057505061023f8261025194038361263d565b6002600090815294507f405787fa12a823e0f2b7631cc41b3ba8828b3321ca811111fa75cd3aa3bb5ace5b828610611505575050509181016020019161023f82610297565b805460208787018101919091529095019481016114eb565b5034610255576060366003190112610255576001600160401b03908035602435838111611862576115519036908401612394565b9260443585811161185e576115699036908301612394565b93909160018060a01b0391600196838854168b8b516302571be360e01b815284868201526020968782602481875afa91821561185457889392611835575b50811633149283156117bf575b5050506115c0906126ce565b818b5260058452898b20908981116117ac57808c6115de84546124d8565b98601f998a8111611780575b50818a84116001146117215792611716575b5050600019600383901b1c191690891b1790555b895260068252878920968511611703575061162b86546124d8565b8381116116cd575b508792841160011461166c57509282939183928894611661575b50501b916000199060031b1c191617905551f35b01359250388061164d565b9183601f198116878a52848a20948a905b888383106116b35750505010611699575b505050811b01905551f35b0135600019600384901b60f8161c1916905538808061168e565b86860135885590960195938401938793509081019061167d565b6116f490878a52828a208580880160051c8201928589106116fa575b0160051c01906129ed565b38611633565b925081926116e9565b634e487b7160e01b895260419052602488fd5b0135905038806115fc565b918c9450601f198416868452898420935b8a82821061176a5750508411611750575b505050811b019055611610565b0135600019600384901b60f8161c19169055388080611743565b8385013586558f97909501949283019201611732565b6117a6908684528984208c80870160051c8201928c88106116fa570160051c01906129ed565b386115ea565b634e487b7160e01b8c526041845260248cfd5b8d5163e985e9c560e01b81526001600160a01b0390921687830190815233602082015291935083918290819060400103915afa801561182b576115c0918d9161180e575b5090508438806115b4565b6118259150863d881161142457611416818361263d565b38611803565b8b513d8e823e3d90fd5b61184d919250833d851161145d5761144e818361263d565b90386115a7565b8e513d85823e3d90fd5b8780fd5b8580fd5b5034610255576080366003190112610255578035602435916001600160401b03928381116118625761189b90369083016124a8565b919060443585811161185e576118b49036908401612394565b919092606435878111611bf3576118ce9036908301612394565b95909360018060a01b03936001988b8d878c54169782516302571be360e01b815284898201526020998a82602481845afa8015611be9578b938b938692611bca575b5081163314958615611b57575b50505050505015611b1d579280805b611adb57505050818b5260058452898b20908981116117ac57808c61195184546124d8565b98601f998a8111611aaf575b50818a8411600114611a505792611a45575b5050600019600383901b1c191690891b1790555b895260068252878920968511611703575061199e86546124d8565b838111611a19575b50879284116001146119d3575092829391839288946116615750501b916000199060031b1c191617905551f35b9183601f198116878a52848a20948a905b888383106119ff575050501061169957505050811b01905551f35b8686013588559096019593840193879350908101906119e4565b611a3f90878a52828a208580880160051c8201928589106116fa570160051c01906129ed565b386119a6565b01359050388061196f565b918c9450601f198416868452898420935b8a828210611a995750508411611a7f575b505050811b019055611983565b0135600019600384901b60f8161c19169055388080611a72565b8385013586558f97909501949283019201611a61565b611ad5908684528984208c80870160051c8201928c88106116fa570160051c01906129ed565b3861195d565b611ae490612753565b80948d611af5610527848688612a50565b898151910120908051918a8301938452818301528152611b14816125d1565b5190209461192c565b8b5162461bcd60e51b815280860187905260146024820152732727aa2fa7aba722a92fa7a92fa6a0a720a3a2a960611b6044820152606490fd5b5163e985e9c560e01b81526001600160a01b0390911692810192835233602084015293945083918290819060400103915afa918215611bbf5791611ba2575b508d87878f388161191d565b611bb99150873d891161142457611416818361263d565b38611b96565b8e51903d90823e3d90fd5b611be2919250853d871161145d5761144e818361263d565b9038611910565b85513d86823e3d90fd5b8980fd5b508290346101f057611c0836612482565b9160018060a01b038092169184541690823b15610201578551632142170760e11b81526001600160a01b037f0000000000000000000000000000000000000000000000000000000000000000811692820192835290921660208201526040810193909352918391839182908490829060600103925af18015611c9a57611c8d57509051f35b611c96906125a8565b9051f35b83513d84823e3d90fd5b50913461032d57611cb4366123c1565b906020958287116102015785831115611d8a578286116102015760ff611ce48884013594603f190188850161271e565b16905b7f7fffffffffffffffffffffffffffffff5d576e7357a4501ddfe92f46681b20a08411611d575750855193845260ff1683870152358285015260608201528180528390829060809060015afa15611d4c575190516001600160a01b0390911615158152f35b9051903d90823e3d90fd5b865163151a7bff60e11b8152908101889052600c60248201526b5349475f4f564552464c4f5760a01b6044820152606490fd5b91858103611dd757611da290601f190182880161271e565b9160018060ff1b0383169260ff1c601b8101809111611dc45760ff1690611ce7565b634e487b7160e01b865260118252602486fd5b855163151a7bff60e11b8152808401889052600e60248201526d0848288bea6928ebe988a9c8ea8960931b6044820152606490fd5b5050346101f057816003193601126101f0578180808060018060a01b0380825416907f0000000000000000000000000000000000000000000000000000000000000000163190828215611e6d575bf115611e635751f35b51903d90823e3d90fd5b506108fc611e5a565b509190346101f057611e87366123f4565b92949290918087116103745785356001600160e01b03191663199510ef60e11b036120d7578501846003198783030112610374576001600160401b0386880135818111611862578289611edc928a01016126b0565b96602481013591821161186257611ef692910188016126b0565b94611fbc81967f00000000000000000000000000000000000000000000000000000000000000009087519160209483611f926056828980980194601960f81b86526001600160601b03198760601b1660228301527f00000000000000000000000000000000000000000000000000000000000000006036830152611f82815180928b868601910161243a565b810103603681018452018261263d565b5190208b8a51958694859384936309e6139760e31b85528401528c6024840152604483019061245d565b03916001600160a01b03165afa9081156120cd5785916120b0575b501561207d57508184915b810103126101f057803591600183019081841161206a57610251868661023f8787874311159182612015575b50506127b4565b602091925061202390612753565b40845161205c8161047d898683019533907f00000000000000000000000000000000000000000000000000000000000000009088612776565b51902091013514858061200e565b634e487b7160e01b815260118752602490fd5b8660649186519163151a7bff60e11b8352820152600d60248201526c4241445f5349474e415455524560981b6044820152fd5b6120c79150823d841161142457611416818361263d565b38611fd7565b86513d87823e3d90fd5b6120e685929684923691612679565b95611fe2565b509190346101f0576120fd366123c1565b6001805485516302571be360e01b8152808901869052929760209594909390916001600160a01b0390811691908782602481865afa9182156122d257908892918b926122b3575b508116331492831561223b575b50505061215d906129b4565b83875260058552858720926001600160401b038911611359575061218183546124d8565b601f811161220d575b508690601f89116001146121c7579780928192899a6006999a946112b45750501b916000199060031b1c19161790558452526112b1818320612a04565b9790601f1982169884895286892091895b8b81106121f85750836006999a9b106112f157505050811b0190556112a3565b828201358455928501929088019088016121d8565b61223590848952868920601f8b0160051c810191888c1061134f57601f0160051c01906129ed565b3861218a565b895163e985e9c560e01b81526001600160a01b0390921687830190815233602082015291935083918290819060400103915afa9081156122a9579061215d91899161228c575b509050853880612151565b6122a39150873d891161142457611416818361263d565b38612281565b87513d8a823e3d90fd5b6122cb919250833d851161145d5761144e818361263d565b9038612144565b89513d8c823e3d90fd5b5050346101f057816003193601126101f057602090517f00000000000000000000000000000000000000000000000000000000000000008152f35b5050346101f057816003193601126101f05760015490516001600160a01b039091168152602090f35b92505034610255576020366003190112610255573563ffffffff60e01b81168091036102555760209250639061b92360e01b8114908115612383575b5015158152f35b6301ffc9a760e01b1490503861237c565b9181601f8401121561001f578235916001600160401b03831161001f576020838186019501011161001f57565b90604060031983011261001f5760043591602435906001600160401b03821161001f576123f091600401612394565b9091565b604060031982011261001f576001600160401b039160043583811161001f578261242091600401612394565b9390939260243591821161001f576123f091600401612394565b60005b83811061244d5750506000910152565b818101518382015260200161243d565b906020916124768151809281855285808601910161243a565b601f01601f1916010190565b604090600319011261001f576004356001600160a01b038116810361001f579060243590565b9181601f8401121561001f578235916001600160401b03831161001f576020808501948460051b01011161001f57565b90600182811c92168015612508575b60208310146124f257565b634e487b7160e01b600052602260045260246000fd5b91607f16916124e7565b9060009291805491612523836124d8565b9182825260019384811690816000146125855750600114612545575b50505050565b90919394506000526020928360002092846000945b83861061257157505050500101903880808061253f565b80548587018301529401938590820161255a565b9294505050602093945060ff191683830152151560051b0101903880808061253f565b6001600160401b0381116125bb57604052565b634e487b7160e01b600052604160045260246000fd5b606081019081106001600160401b038211176125bb57604052565b604081019081106001600160401b038211176125bb57604052565b608081019081106001600160401b038211176125bb57604052565b60a081019081106001600160401b038211176125bb57604052565b90601f801991011681019081106001600160401b038211176125bb57604052565b6001600160401b0381116125bb57601f01601f191660200190565b9291926126858261265e565b91612693604051938461263d565b82948184528183011161001f578281602093846000960137010152565b9080601f8301121561001f578160206126cb93359101612679565b90565b156126d557565b60405162461bcd60e51b81526020600482015260096024820152682727aa2fa7aba722a960b91b6044820152606490fd5b9093929384831161001f57841161001f578101920390565b35906020811061272c575090565b6000199060200360031b1b1690565b9081602091031261001f5751801515810361001f5790565b8015612760576000190190565b634e487b7160e01b600052601160045260246000fd5b9190926048949383526001600160601b0319809260601b16602084015260601b1660348201526127af825180936020868501910161243a565b010190565b156127bb57565b60405162461bcd60e51b815260206004820152601060248201526f494e56414c49445f434845434b53554d60801b6044820152606490fd5b60005b60408110612802575050565b6060828201526020016127f6565b80511561281d5760200190565b634e487b7160e01b600052603260045260246000fd5b80516001101561281d5760400190565b80516002101561281d5760600190565b805182101561281d5760209160051b010190565b60405190612874826125d1565b60218252607d60f81b6040837f646174613a746578742f706c61696e2c7b2264617461223a227b646174617d2260208201520152565b604051906128b7826125d1565b602782527f646174613a6170706c69636174696f6e2f6a736f6e2c7b2264617461223a227b602083015266646174617d227d60c81b6040830152565b92909493919460a084019060018060a01b0316845260209060a082860152865180915260c08501918060c08360051b8801019801926000905b8382106129695750505050508461294e91846126cb969703604086015261245d565b9163199510ef60e11b6060820152608081840391015261245d565b9091929398838061298660019360bf198c82030186528d5161245d565b9b01920192019093929161292c565b9081602091031261001f57516001600160a01b038116810361001f5790565b156129bb57565b60405162461bcd60e51b815260206004820152600a60248201526927a7262cafa7aba722a960b11b6044820152606490fd5b8181106129f8575050565b600081556001016129ed565b612a0e81546124d8565b9081612a18575050565b81601f60009311600114612a2a575055565b81835260208320612a4691601f0160051c8101906001016129ed565b8160208120915555565b919081101561281d5760051b81013590601e198136030182121561001f5701908135916001600160401b03831161001f57602001823603811361001f579190565b8015612b3957806000928184925b612b2a5750612aad8261265e565b91612abb604051938461263d565b808352601f19612aca8261265e565b013660208501375b808415612b215760001901938351851015612b0d57600a9160308383060160f81b6001600160f81b031916871a908501601f01530492612ad2565b634e487b7160e01b86526032600452602486fd5b50509250905090565b916001600a9101920480612a9f565b50604051604081018181106001600160401b038211176125bb5760405260018152600360fc1b60208201529056fea26469706673582212201b0b0e6c94bd78ac3fc8123cb67c90b11d92831e495abb2a86c9abf3ad992d0364736f6c63430008100033",
    "linkReferences": {}
  },
  "methodIdentifiers": {
    "DefaultContenthash()": "69be8bb0",
    "ENS()": "1d2e2cc4",
    "Owner()": "b4a99a4e",
    "ParentContenthash()": "e5037fc8",
    "___contenthash(bytes,bytes)": "332a21de",
    "__callback(bytes,bytes)": "c55a5d59",
    "__lookup(bytes)": "d5659ad3",
    "approved(bytes32)": "7865c3ad",
    "contenthash(bytes32)": "bc1c58d1",
    "funcToFile(bytes4)": "e190ea65",
    "immolate()": "bf1e9c85",
    "isApprovedForAll(bytes32)": "db28b512",
    "isValid(bytes32,bytes)": "4f309cb8",
    "namehash()": "91a08a48",
    "resolve(bytes,bytes)": "9061b923",
    "roothash()": "251c9422",
    "safeWithdraw(address,uint256)": "5058c460",
    "setContenthash(bytes32,bytes)": "304e6ade",
    "setSignedContenthash(bytes32,bytes,bytes)": "655b788b",
    "setSignedSubContenthash(bytes32,string[],bytes,bytes)": "55e3764d",
    "setSubContenthash(bytes32,string[],bytes)": "6a4956db",
    "signedContenthash(bytes32)": "ebf1cec1",
    "supportsInterface(bytes4)": "01ffc9a7",
    "uintToNumString(uint256)": "78651988",
    "withdraw()": "3ccfd60b",
    "withdraw(address,uint256)": "f3fef3a3"
  },
  "id": 17
}