{
  "abi": [
    {
      "inputs": [],
      "stateMutability": "nonpayable",
      "type": "constructor"
    },
    {
      "inputs": [
        {
          "internalType": "bytes1",
          "name": "_type",
          "type": "bytes1"
        }
      ],
      "name": "ContenthashNotImplemented",
      "type": "error"
    },
    {
      "inputs": [
        {
          "internalType": "bytes32",
          "name": "_node",
          "type": "bytes32"
        }
      ],
      "name": "ContenthashNotSet",
      "type": "error"
    },
    {
      "inputs": [
        {
          "internalType": "string",
          "name": "_error",
          "type": "string"
        }
      ],
      "name": "InvalidSignature",
      "type": "error"
    },
    {
      "inputs": [
        {
          "internalType": "bytes32",
          "name": "_node",
          "type": "bytes32"
        },
        {
          "internalType": "address",
          "name": "_addr",
          "type": "address"
        }
      ],
      "name": "NotAuthorized",
      "type": "error"
    },
    {
      "inputs": [
        {
          "internalType": "address",
          "name": "_addr",
          "type": "address"
        },
        {
          "internalType": "string[]",
          "name": "_gateways",
          "type": "string[]"
        },
        {
          "internalType": "bytes",
          "name": "_data",
          "type": "bytes"
        },
        {
          "internalType": "bytes4",
          "name": "_callbackFunction",
          "type": "bytes4"
        },
        {
          "internalType": "bytes",
          "name": "_extradata",
          "type": "bytes"
        }
      ],
      "name": "OffchainLookup",
      "type": "error"
    },
    {
      "inputs": [
        {
          "internalType": "bytes4",
          "name": "func",
          "type": "bytes4"
        }
      ],
      "name": "ResolverFunctionNotImplemented",
      "type": "error"
    },
    {
      "anonymous": false,
      "inputs": [
        {
          "indexed": true,
          "internalType": "string",
          "name": "domain",
          "type": "string"
        }
      ],
      "name": "AddGateway",
      "type": "event"
    },
    {
      "anonymous": false,
      "inputs": [
        {
          "indexed": true,
          "internalType": "address",
          "name": "owner",
          "type": "address"
        },
        {
          "indexed": true,
          "internalType": "address",
          "name": "operator",
          "type": "address"
        },
        {
          "indexed": false,
          "internalType": "bool",
          "name": "approved",
          "type": "bool"
        }
      ],
      "name": "ApprovalForAll",
      "type": "event"
    },
    {
      "anonymous": false,
      "inputs": [
        {
          "indexed": false,
          "internalType": "address",
          "name": "owner",
          "type": "address"
        },
        {
          "indexed": true,
          "internalType": "bytes32",
          "name": "node",
          "type": "bytes32"
        },
        {
          "indexed": true,
          "internalType": "address",
          "name": "delegate",
          "type": "address"
        },
        {
          "indexed": true,
          "internalType": "bool",
          "name": "approved",
          "type": "bool"
        }
      ],
      "name": "Approved",
      "type": "event"
    },
    {
      "anonymous": false,
      "inputs": [
        {
          "indexed": true,
          "internalType": "string",
          "name": "domain",
          "type": "string"
        }
      ],
      "name": "RemoveGateway",
      "type": "event"
    },
    {
      "anonymous": false,
      "inputs": [
        {
          "indexed": true,
          "internalType": "address",
          "name": "_new",
          "type": "address"
        },
        {
          "indexed": true,
          "internalType": "bool",
          "name": "_ok",
          "type": "bool"
        }
      ],
      "name": "UpdateWrapper",
      "type": "event"
    },
    {
      "inputs": [],
      "name": "ENS",
      "outputs": [
        {
          "internalType": "contract iENS",
          "name": "",
          "type": "address"
        }
      ],
      "stateMutability": "view",
      "type": "function"
    },
    {
      "inputs": [
        {
          "internalType": "uint256",
          "name": "",
          "type": "uint256"
        }
      ],
      "name": "Gateways",
      "outputs": [
        {
          "internalType": "string",
          "name": "",
          "type": "string"
        }
      ],
      "stateMutability": "view",
      "type": "function"
    },
    {
      "inputs": [
        {
          "internalType": "bytes",
          "name": "response",
          "type": "bytes"
        },
        {
          "internalType": "bytes",
          "name": "extradata",
          "type": "bytes"
        }
      ],
      "name": "__callback",
      "outputs": [
        {
          "internalType": "bytes",
          "name": "result",
          "type": "bytes"
        }
      ],
      "stateMutability": "view",
      "type": "function"
    },
    {
      "inputs": [
        {
          "internalType": "string",
          "name": "_domain",
          "type": "string"
        }
      ],
      "name": "addGateway",
      "outputs": [],
      "stateMutability": "nonpayable",
      "type": "function"
    },
    {
      "inputs": [
        {
          "internalType": "string[]",
          "name": "_domains",
          "type": "string[]"
        }
      ],
      "name": "addGateways",
      "outputs": [],
      "stateMutability": "nonpayable",
      "type": "function"
    },
    {
      "inputs": [
        {
          "internalType": "bytes32",
          "name": "_node",
          "type": "bytes32"
        },
        {
          "internalType": "address",
          "name": "_signer",
          "type": "address"
        },
        {
          "internalType": "bool",
          "name": "_approved",
          "type": "bool"
        }
      ],
      "name": "approve",
      "outputs": [],
      "stateMutability": "nonpayable",
      "type": "function"
    },
    {
      "inputs": [
        {
          "internalType": "bytes32",
          "name": "_node",
          "type": "bytes32"
        },
        {
          "internalType": "address",
          "name": "_signer",
          "type": "address"
        }
      ],
      "name": "approved",
      "outputs": [
        {
          "internalType": "bool",
          "name": "",
          "type": "bool"
        }
      ],
      "stateMutability": "view",
      "type": "function"
    },
    {
      "inputs": [
        {
          "internalType": "bytes",
          "name": "_buffer",
          "type": "bytes"
        },
        {
          "internalType": "uint256",
          "name": "_start",
          "type": "uint256"
        }
      ],
      "name": "bytesToString",
      "outputs": [
        {
          "internalType": "string",
          "name": "",
          "type": "string"
        }
      ],
      "stateMutability": "pure",
      "type": "function"
    },
    {
      "inputs": [
        {
          "internalType": "bytes32",
          "name": "",
          "type": "bytes32"
        }
      ],
      "name": "contenthash",
      "outputs": [
        {
          "internalType": "bytes",
          "name": "",
          "type": "bytes"
        }
      ],
      "stateMutability": "view",
      "type": "function"
    },
    {
      "inputs": [
        {
          "internalType": "bytes4",
          "name": "",
          "type": "bytes4"
        }
      ],
      "name": "funcToFile",
      "outputs": [
        {
          "internalType": "string",
          "name": "",
          "type": "string"
        }
      ],
      "stateMutability": "view",
      "type": "function"
    },
    {
      "inputs": [],
      "name": "immolate",
      "outputs": [],
      "stateMutability": "nonpayable",
      "type": "function"
    },
    {
      "inputs": [
        {
          "internalType": "address",
          "name": "_owner",
          "type": "address"
        },
        {
          "internalType": "bytes32",
          "name": "_node",
          "type": "bytes32"
        },
        {
          "internalType": "address",
          "name": "_signer",
          "type": "address"
        }
      ],
      "name": "isApprovedFor",
      "outputs": [
        {
          "internalType": "bool",
          "name": "",
          "type": "bool"
        }
      ],
      "stateMutability": "view",
      "type": "function"
    },
    {
      "inputs": [
        {
          "internalType": "address",
          "name": "_owner",
          "type": "address"
        },
        {
          "internalType": "address",
          "name": "_signer",
          "type": "address"
        }
      ],
      "name": "isApprovedForAll",
      "outputs": [
        {
          "internalType": "bool",
          "name": "",
          "type": "bool"
        }
      ],
      "stateMutability": "view",
      "type": "function"
    },
    {
      "inputs": [
        {
          "internalType": "address",
          "name": "",
          "type": "address"
        }
      ],
      "name": "isWrapper",
      "outputs": [
        {
          "internalType": "bool",
          "name": "",
          "type": "bool"
        }
      ],
      "stateMutability": "view",
      "type": "function"
    },
    {
      "inputs": [],
      "name": "listAllGateways",
      "outputs": [
        {
          "internalType": "string[]",
          "name": "list",
          "type": "string[]"
        }
      ],
      "stateMutability": "view",
      "type": "function"
    },
    {
      "inputs": [
        {
          "internalType": "bytes32",
          "name": "",
          "type": "bytes32"
        }
      ],
      "name": "manager",
      "outputs": [
        {
          "internalType": "bool",
          "name": "",
          "type": "bool"
        }
      ],
      "stateMutability": "view",
      "type": "function"
    },
    {
      "inputs": [],
      "name": "owner",
      "outputs": [
        {
          "internalType": "address payable",
          "name": "",
          "type": "address"
        }
      ],
      "stateMutability": "view",
      "type": "function"
    },
    {
      "inputs": [
        {
          "internalType": "string",
          "name": "_path",
          "type": "string"
        },
        {
          "internalType": "uint256",
          "name": "k",
          "type": "uint256"
        }
      ],
      "name": "randomGateways",
      "outputs": [
        {
          "internalType": "string[]",
          "name": "gateways",
          "type": "string[]"
        }
      ],
      "stateMutability": "view",
      "type": "function"
    },
    {
      "inputs": [
        {
          "internalType": "uint256",
          "name": "_index",
          "type": "uint256"
        }
      ],
      "name": "removeGateway",
      "outputs": [],
      "stateMutability": "nonpayable",
      "type": "function"
    },
    {
      "inputs": [
        {
          "internalType": "uint256[]",
          "name": "_indexes",
          "type": "uint256[]"
        }
      ],
      "name": "removeGateways",
      "outputs": [],
      "stateMutability": "nonpayable",
      "type": "function"
    },
    {
      "inputs": [
        {
          "internalType": "uint256",
          "name": "_index",
          "type": "uint256"
        },
        {
          "internalType": "string",
          "name": "_domain",
          "type": "string"
        }
      ],
      "name": "replaceGateway",
      "outputs": [],
      "stateMutability": "nonpayable",
      "type": "function"
    },
    {
      "inputs": [
        {
          "internalType": "uint256[]",
          "name": "_indexes",
          "type": "uint256[]"
        },
        {
          "internalType": "string[]",
          "name": "_domains",
          "type": "string[]"
        }
      ],
      "name": "replaceGateways",
      "outputs": [],
      "stateMutability": "nonpayable",
      "type": "function"
    },
    {
      "inputs": [
        {
          "internalType": "bytes",
          "name": "name",
          "type": "bytes"
        },
        {
          "internalType": "bytes",
          "name": "data",
          "type": "bytes"
        }
      ],
      "name": "resolve",
      "outputs": [
        {
          "internalType": "bytes",
          "name": "",
          "type": "bytes"
        }
      ],
      "stateMutability": "view",
      "type": "function"
    },
    {
      "inputs": [
        {
          "internalType": "address",
          "name": "_token",
          "type": "address"
        },
        {
          "internalType": "uint256",
          "name": "_id",
          "type": "uint256"
        }
      ],
      "name": "safeWithdraw",
      "outputs": [],
      "stateMutability": "nonpayable",
      "type": "function"
    },
    {
      "inputs": [
        {
          "internalType": "address",
          "name": "_signer",
          "type": "address"
        },
        {
          "internalType": "bool",
          "name": "_approved",
          "type": "bool"
        }
      ],
      "name": "setApprovalForAll",
      "outputs": [],
      "stateMutability": "nonpayable",
      "type": "function"
    },
    {
      "inputs": [
        {
          "internalType": "bytes32",
          "name": "_node",
          "type": "bytes32"
        },
        {
          "internalType": "bytes",
          "name": "_contenthash",
          "type": "bytes"
        }
      ],
      "name": "setContenthash",
      "outputs": [],
      "stateMutability": "nonpayable",
      "type": "function"
    },
    {
      "inputs": [
        {
          "internalType": "bytes32",
          "name": "digest",
          "type": "bytes32"
        },
        {
          "internalType": "bytes",
          "name": "signature",
          "type": "bytes"
        }
      ],
      "name": "signedBy",
      "outputs": [
        {
          "internalType": "address",
          "name": "_addr",
          "type": "address"
        }
      ],
      "stateMutability": "pure",
      "type": "function"
    },
    {
      "inputs": [
        {
          "internalType": "bytes4",
          "name": "interfaceID",
          "type": "bytes4"
        }
      ],
      "name": "supportsInterface",
      "outputs": [
        {
          "internalType": "bool",
          "name": "",
          "type": "bool"
        }
      ],
      "stateMutability": "pure",
      "type": "function"
    },
    {
      "inputs": [
        {
          "internalType": "address",
          "name": "_addr",
          "type": "address"
        }
      ],
      "name": "toChecksumAddress",
      "outputs": [
        {
          "internalType": "string",
          "name": "",
          "type": "string"
        }
      ],
      "stateMutability": "pure",
      "type": "function"
    },
    {
      "inputs": [
        {
          "internalType": "uint256",
          "name": "value",
          "type": "uint256"
        }
      ],
      "name": "uintToString",
      "outputs": [
        {
          "internalType": "string",
          "name": "",
          "type": "string"
        }
      ],
      "stateMutability": "pure",
      "type": "function"
    },
    {
      "inputs": [
        {
          "internalType": "address",
          "name": "_addr",
          "type": "address"
        },
        {
          "internalType": "bool",
          "name": "_set",
          "type": "bool"
        }
      ],
      "name": "updateWrapper",
      "outputs": [],
      "stateMutability": "nonpayable",
      "type": "function"
    },
    {
      "inputs": [
        {
          "internalType": "address[]",
          "name": "_addrs",
          "type": "address[]"
        },
        {
          "internalType": "bool[]",
          "name": "_sets",
          "type": "bool[]"
        }
      ],
      "name": "updateWrappers",
      "outputs": [],
      "stateMutability": "nonpayable",
      "type": "function"
    },
    {
      "inputs": [],
      "name": "withdraw",
      "outputs": [],
      "stateMutability": "nonpayable",
      "type": "function"
    },
    {
      "inputs": [
        {
          "internalType": "address",
          "name": "_token",
          "type": "address"
        },
        {
          "internalType": "uint256",
          "name": "_balance",
          "type": "uint256"
        }
      ],
      "name": "withdraw",
      "outputs": [],
      "stateMutability": "nonpayable",
      "type": "function"
    }
  ],
  "bytecode": {
    "object": "0x604060c0815234620002d857306080526e0c2e074ec69a0dfb2997ba6c7d2e1e60a0526000631d9dabef60e11b81526020600281528282206200004e620000478254620002dd565b826200031a565b7f5f616464726573732f3630000000000000000000000000000000000000000016905563c869023360e01b825260028152828220805462000094906200004790620002dd565b600c657075626b657960d01b01905563691f343160e01b8252600281528282208054620000c6906200004790620002dd565b6008636e616d6560e01b01905563bc1c58d160e01b8252600281528282208054620000f6906200004790620002dd565b7f636f6e74656e74686173680000000000000000000000000000000000000000169055635c98042b60e01b82526002815282822080546200013c906200004790620002dd565b7f5f646e732f7a6f6e65686173680000000000000000000000000000000000001a905581546001600160a01b031916331782556001805490929068010000000000000000811015620002c457838101808555811015620002b0579060097f8ea51d3bcf70e647a0bb1312a2a0fa7fbc0c51fb47325275912a75c257c082639285835284832001620001d2620000478254620002dd565b7f647765622e6c696e6b00000000000000000000000000000000000000000000129055855168647765622e6c696e6b60b81b815220855195907f7a9f387a9d3844b91ba19679387fe32e833e4311fec98471b6df53b9855e3f478380a2600573d4416b13d2b3a9abae7acd5d6c2bbdbe25686401948584525281208460ff1982541617905580a3613c5590816200035582396080518181816101f9015281816108ac01528181610bc2015281816114100152818161217f0152612201015260a05181818161090101528181610ce0015281816122cd01526128710152f35b634e487b7160e01b82526032600452602482fd5b634e487b7160e01b82526041600452602482fd5b600080fd5b90600182811c921680156200030f575b6020831014620002f957565b634e487b7160e01b600052602260045260246000fd5b91607f1691620002ed565b601f821162000327575050565b6000908152601f60208220920160051c8201915b8281106200034857505050565b8181556001016200033b56fe6080604081815260048036101561001557600080fd5b600092833560e01c90816301ffc9a714612bc35750806306dcdc63146129c9578063084ac40a146128955780631d2e2cc41461285157806321d6e7dd1461279a578063301215701461264a578063304e6ade14612295578063356a277a146122475780633ccfd60b146121de5780635058c4601461211e5780635d1219d514611ff2578063814b745614611f5f57806382adc20814611e035780638384976f14611d725780638da5cb5b14611d4c5780639061b923146111635780639885e3b414611138578063a22cb46514611087578063a4b91a0114610fcb578063a9784b3e14610f3a578063acc0f7b114610e9a578063b984b2cd14610c9d578063bc1c58d114610c74578063bf1e9c8514610c09578063c55a5d591461058a578063cf13535214610563578063d63a4801146104d8578063e0aa27971461049c578063e190ea6514610461578063e5dac7031461039a578063e8d76b1e14610346578063e93956791461030e578063e985e9c5146102775763f3fef3a31461019957600080fd5b8291346102735780600319360112610273576001600160a01b0391826101bd612f7e565b169284541690833b1561026f5782517f23b872dd0000000000000000000000000000000000000000000000000000000081526001600160a01b037f00000000000000000000000000000000000000000000000000000000000000008116928201928352909216602082015260243560408201529092849184919082908490829060600103925af190811561026657506102535750f35b61025c90612d6d565b6102635780f35b80fd5b513d84823e3d90fd5b8480fd5b5050fd5b503461030a578160031936011261030a578160209360ff92610297612f7e565b6102e96102f76102a5612f94565b86519283918b8301958690603292691b585b9859d94b585b1b60b21b83526bffffffffffffffffffffffff19809260601b16600a84015260601b16601e8201520190565b03601f198101835282612dcf565b5190208252855220541690519015158152f35b8280fd5b509134610263576020366003190112610263575061032f61034292356138e9565b9051918291602083526020830190612f59565b0390f35b50913461026357816003193601126102635782359067ffffffffffffffff8211610263575061037e6103429361038792369101613059565b602435906131a3565b9051918291602083526020830190612faa565b5082903461045d57602036600319011261045d578035906103c66001600160a01b038454163314613464565b6103ee600154946103d960018711613655565b6103e284612e09565b509051918280926130ff565b0390207fd94fae538c4428e7bd1e4fa66b93ad367b2c5bbbc9d0dae73a21526257361ff48480a2600019840193841161044a575061043961043261043f9394612e09565b5091612e09565b9061377d565b61044761378c565b80f35b826011602492634e487b7160e01b835252fd5b5080fd5b503461030a57602036600319011261030a57356001600160e01b0319811680910361030a57818361032f926103429552600260205220612e90565b50503461045d57602036600319011261045d5760ff816020936001600160a01b036104c5612f7e565b1681526005855220541690519015158152f35b503461030a57602036600319011261030a5780359067ffffffffffffffff821161055f5761050891369101612c93565b809261051f6001600160a01b038654163314613464565b61052982846135ea565b5192839283378101600081520390207f7a9f387a9d3844b91ba19679387fe32e833e4311fec98471b6df53b9855e3f478280a280f35b8380fd5b50503461045d57602036600319011261045d576103429061032f610585612f7e565b61398d565b50903461030a5761059a36613086565b8195929395019560a08288031261026357813590602096878401359560608501359367ffffffffffffffff9485811161026f578b6105d9918801613059565b9a6080870135868111610b6257906105f2918801613059565b9560038201808311610bf6578a904311159283610ba8575b50505015610b665781019360608286031261030a578135946001600160a01b039485871680970361026f578a840135818111610b62578261064c918601613059565b938a810135918211610b62578b93928b926106679201613059565b9b8c8481519101208251908582015284815261068281612db3565b61068b9061337b565b6106948961398d565b908351948593878501957f52657175657374696e67207369676e617475726520666f72206f66662d636861875285017f696e20454e53207265636f72640a0000000000000000000000000000000000009052604e85017f0a454e5320446f6d61696e3a200000000000000000000000000000000000000090528051908189605b880192019161072292612f36565b8401605b81017f0a5265636f726420547970653a20000000000000000000000000000000000000905281519182896069840192019161076092612f36565b01606981017f0a5265636f726420486173683a20307800000000000000000000000000000000905281519182886079840192019161079d92612f36565b01607981017f0a5369676e65642042793a206569703135353a313a000000000000000000000090528151918287608e84019201916107da92612f36565b0103606e81018352608e016107ef9083612dcf565b81516107fa906138e9565b918a51918291858301947f19457468657265756d205369676e6564204d6573736167653a0a00000000000086528051908188603a870192019161083c92612f36565b830190519182603a830161084f92612f36565b0103601a81018252603a016108649082612dcf565b5190208851809381927f06dcdc63000000000000000000000000000000000000000000000000000000008352898301528a6024830152604482016108a791612f59565b0381867f0000000000000000000000000000000000000000000000000000000000000000165afa908115610ad9579083918391610b45575b50168303610b02578551916302571be360e01b835285858401528783602481847f0000000000000000000000000000000000000000000000000000000000000000165afa928315610ad957908291889394610ae3575b50888185168084526005825260ff8585205416610a73575b505083168414159283610a0d575b836109ac575b50505061097e575050506103429051928284938452830190612f59565b835163a78e4aa560e01b81529182019283526001600160a01b031660208301529081906040010390fd5b0390fd5b60ff935082516109f9816102e9888d8301958690603292691b585b9859d94b585b1b60b21b83526bffffffffffffffffffffffff19809260601b16600a84015260601b16601e8201520190565b519020815284885220541615843880610961565b8251696d616e6167652d6f6e6560b01b8a8201908152600a81018990526bffffffffffffffffffffffff19606084811b8216602a84015288901b16603e820152919450610a5d81605284016102e9565b519020815284885260ff8282205416159261095b565b909194506024929351928380926331a9108f60e11b82528a8a8301525afa908115610ad957908291889391610aac575b5092883861094d565b610acc9150893d8b11610ad2575b610ac48183612dcf565b810190613822565b38610aa3565b503d610aba565b87513d84823e3d90fd5b610afb919450893d8b11610ad257610ac48183612dcf565b9238610935565b6064848888519163151a7bff60e11b8352820152600a60248201527f4241445f5349474e4552000000000000000000000000000000000000000000006044820152fd5b610b5c9150893d8b11610ad257610ac48183612dcf565b386108df565b8580fd5b6064868a8a519162461bcd60e51b8352820152601860248201527f494e56414c49445f434845434b53554d2f54494d454f555400000000000000006044820152fd5b909192508c610be78d6102e98b86519485938401963390407f000000000000000000000000000000000000000000000000000000000000000089613892565b5190209101351438898161060a565b60248660118b634e487b7160e01b835252fd5b5082346102635780600319360112610263576001600160a01b0390541691823303610c315782ff5b906020606492519162461bcd60e51b8352820152600960248201527f4e4f545f4f574e455200000000000000000000000000000000000000000000006044820152fd5b503461030a57602036600319011261030a57816103429361032f92358152600360205220612e90565b509134610263578160031936011261026357823591610cba612f94565b918151946302571be360e01b865284818701526020956001600160a01b038782602481847f0000000000000000000000000000000000000000000000000000000000000000165afa918215610e90579088918593610e71575b5082168085526005825260ff8686205416610e19575b50508351696d616e6167652d6f6e6560b01b888201908152600a8101979097526bffffffffffffffffffffffff19606083811b8216602a8a015287901b16603e8801529586605282010396610d86601f1998898101835282612dcf565b519020835281875260ff8484205416948515610da8575b878686519015158152f35b60ff9550610e058597610df99287519384918c8301968790603292691b585b9859d94b585b1b60b21b83526bffffffffffffffffffffffff19809260601b16600a84015260601b16601e8201520190565b03908101835282612dcf565b519020825285522054168138808080610d9d565b602492508551928380926331a9108f60e11b82528a878301525afa908115610e67578391610e4a575b508638610d29565b610e619150873d8911610ad257610ac48183612dcf565b38610e42565b84513d85823e3d90fd5b610e89919350823d8411610ad257610ac48183612dcf565b9138610d13565b85513d86823e3d90fd5b503461030a578160031936011261030a578035906024359267ffffffffffffffff841161026f57610ed461052992610f3495369101612c93565b81819682959396610ef06001600160a01b038b54163314613464565b610f08610efc82612e09565b508751918280926130ff565b0390207fd94fae538c4428e7bd1e4fa66b93ad367b2c5bbbc9d0dae73a21526257361ff48b80a2612e09565b9061350b565b50913461026357606036600319011261026357610f55612f7e565b90604435906001600160a01b0382168203610fc65760209460ff936102e96102f7879586519283918b83019560243587919092605293696d616e6167652d6f6e6560b01b8452600a8401526bffffffffffffffffffffffff19809260601b16602a84015260601b16603e8201520190565b600080fd5b503461030a57606036600319011261030a578035610fe7612f94565b9160443593841515809503610fc6576001600160a01b03817ff0ddb3b04746704017f9aa8bd728fcc2c1d11675041205350018915f5e4750a0936020935184810190611075816102e98b338c87919092605293696d616e6167652d6f6e6560b01b8452600a8401526bffffffffffffffffffffffff19809260601b16602a84015260601b16603e8201520190565b5190208952835251943386521693a480f35b50903461030a578060031936011261030a576001600160a01b03906110aa612f7e565b906110b3613077565b93815160208101906110ff816102e987338690603292691b585b9859d94b585b1b60b21b83526bffffffffffffffffffffffff19809260601b16600a84015260601b16601e8201520190565b519020865260205251921515835216907f17307eab39ab6107e8899845ad3d59bd9653f200f220920489ca2b5937696c3160203392a380f35b503461030a57602036600319011261030a57816020938260ff93358252855220541690519015158152f35b5082346102635761117336613086565b939290919460019580871161026f57823560f81c91885196610560880167ffffffffffffffff9089811082821117611d37578b52602a895260005b6105408110611d265750848a0194858b11611d1357848611611972576111de909b9a9799989b3690898901613022565b6111e789613182565b526111f188613182565b506111fb88613182565b519a8b5b85871015611d00576001600160f81b031987890135161561136357899a9b9c89809b888b61122c8c6130f0565b9b8c611239918484613841565b61124291613859565b60f81c61124f908d6130cd565b9b61125b928d92613841565b369061126692613022565b916112709161318f565b528d8c8b61127e818361318f565b506112889161318f565b51918d8251825160209381858085019201916112a392612f36565b8101948386017f2e000000000000000000000000000000000000000000000000000000000000009052818151602197889382888684019201916112e592612f36565b0103600181018352016112f89082612dcf565b9c6113029161318f565b519151938285935190818480870192019161131c92612f36565b830190828201602f60f81b90528051809386840192019161133c92612f36565b01036001810183520161134f9082612dcf565b98611359906130f0565b979b9a99986111ff565b91908b8d8c8c6113728d613885565b9661137d888361318f565b51928351602080950120865185810191898352888201528781526113a081612d97565b51902087938a60609b5b611c8a57505050898b11611c57576001600160e01b0319808235169182895260029b8c87526113db898b2054612e56565b156119085750505086528883526113f3858720612e90565b915b8851156118a7575b600019430198438a1161189457908592917f00000000000000000000000000000000000000000000000000000000000000009b8c8c611449888c519b8c938c8501953391409087613892565b039861145d601f199a8b8101835282612dcf565b51902093825115611881576001600160f81b0319917fe500000000000000000000000000000000000000000000000000000000000000838a8601511614600014611847578a516114ac81612db3565b600781527f2f69706e732f66000000000000000000000000000000000000000000000000008a820152925b845160011981019190821161182f578160011b828104841483151715611816578a93899695938f929361150a8f956132ff565b99611513613331565b9060005b8481106117195750505050505092603c926115ef9795926115966115ea9651978561154b8a9751809286808b019101612f36565b860161155f82518093868085019101612f36565b01917f2f2e77656c6c2d6b6e6f776e2f00000000000000000000000000000000000000818401528351938491602d85019101612f36565b01602f60f81b602d8201526115b58d8351938491602e85019101612f36565b017f2e6a736f6e3f743d7b646174617d000000000000000000000000000000000000602e82015203601c810184520182612dcf565b6131a3565b97603c8a8142041602809a811603611706575086519860c01b7fffffffffffffffff00000000000000000000000000000000000000000000000016858a01526008895261163b89612db3565b8651998a958601528685015260608401526080830160a0905260c0830161166191612f59565b838382030160a084015261167491612f59565b0390810185526116849085612dcf565b519485947f556f18300000000000000000000000000000000000000000000000000000000086526001600160a01b0316908501526024840160a0905260a484016116cd91612faa565b9060031991828582030160448601526116e591612f59565b906064840163c55a5d5960e01b90528382030160848401526109a891612f59565b8060118e634e487b7160e01b6024945252fd5b9397999a50939750935093508581018082116117fa578461174761173d838661336a565b5160fc1c8661336a565b5116908260011b918383048914841517156117dc57600f61177c88938e611775876117879660001a9261336a565b538761336a565b5160f81c168661336a565b5116600182018092116117bf57906117a76117ad939260001a918c61336a565b536130f0565b938f92938e948e97938d9a9997611517565b505050505050505060118f634e487b7160e01b6000525260246000fd5b50505050505050505060118f634e487b7160e01b6000525260246000fd5b5050505050505060118f634e487b7160e01b6000525260246000fd5b5050505060118f634e487b7160e01b6000525260246000fd5b50505060118f634e487b7160e01b6000525260246000fd5b8a5161185281612db3565b600781527f2f697066732f66000000000000000000000000000000000000000000000000008a820152926114d7565b634e487b7160e01b8b5260328f5260248bfd5b60248860118e634e487b7160e01b835252fd5b975084516118b481612d97565b602a81527fe50101720024080112203c5aba6c9b5055a5fa12281c486188ed8ae2b6ef394b848201527f3d981b00d17a4b51735c0000000000000000000000000000000000000000000086820152976113fd565b9091927f59d1d43c00000000000000000000000000000000000000000000000000000000811460001461197a57508091925060241161197657810190846023198284030112611976576024810135908982116119725761196c929101602401613059565b916113f5565b8880fd5b8780fd5b7ff1cb7e06000000000000000000000000000000000000000000000000000000008103611a19575080919250602411611976578101819003602319018413610fc65760246119c99101356138e9565b61196c6029875180937f5f616464726573732f000000000000000000000000000000000000000000000088830152611a09815180928a8686019101612f36565b8101036009810184520182612dcf565b7f124a319c000000000000000000000000000000000000000000000000000000008103611ad2575080602411611972578101819003602319018513610fc65760240135908116809103610fc657611a8290865190858201528b8152611a7d81612db3565b61337b565b61196c602d875180937f5f696e746572666163652f30780000000000000000000000000000000000000088830152611ac2815180928a8686019101612f36565b810103600d810184520182612dcf565b919250907f2203ab56000000000000000000000000000000000000000000000000000000008103611b72575080602411611976578101819003602319018413610fc6576024611b229101356138e9565b61196c6025875180937f5f6162692f00000000000000000000000000000000000000000000000000000088830152611b62815180928a8686019101612f36565b8101036005810184520182612dcf565b7fa8fa5682000000000000000000000000000000000000000000000000000000008103611c5b575080602411611976578101819003602319018613611c575760448101359061ffff8216809203611976576028611bec611be661196c9360248b5191013589820152888152611a7d81612db3565b936138e9565b9288519384917f5f646e732f30780000000000000000000000000000000000000000000000000089840152611c2a815180928b602787019101612f36565b8201602f60f81b6027820152611c48825180938b8785019101612f36565b01036008810184520182612dcf565b8680fd5b8c6024918951917f0c9addbc000000000000000000000000000000000000000000000000000000008352820152fd5b611c9390613885565b91611c9e838361318f565b518781519101208951908882019283528a820152898152611cbe81612d97565b51902091828a526003808852611cd68a8c2054612e56565b611ce2575b50806113aa565b919b5094508189528552611cf7878920612e90565b99848295611cdb565b602482603287634e487b7160e01b835252fd5b602489601186634e487b7160e01b835252fd5b806060602080938d010152016111ae565b604184634e487b7160e01b6000525260246000fd5b50503461045d578160031936011261045d576001600160a01b0360209254169051908152f35b50503461045d578060031936011261045d57611d8c612f7e565b611dd9611d97613077565b80926001600160a01b0390611db0828854163314613464565b611dbc813b1515613bb3565b1693848652600560205285209060ff801983541691151516179055565b1515907f8ea51d3bcf70e647a0bb1312a2a0fa7fbc0c51fb47325275912a75c257c082638380a380f35b50913461026357816003193601126102635782359067ffffffffffffffff82116102635750611e359036908401613059565b90602492833583519481860392868411611f4c5760019284841b600298828783048b1491141715611f3857611e69906132ff565b96611e72613331565b9060005b878110611e92578851602080825281906103429082018d612f59565b6001600160f81b031980611eb261173d611eac88866130cd565b8661336a565b51169082891b918d8484041484151715611f245760001a611ed3838e61336a565b53611eec600f61177c611ee689876130cd565b8761336a565b5116888201809211611f1057906117a7611f0b939260001a918d61336a565b611e76565b87601188634e487b7160e01b600052526000fd5b88601189634e487b7160e01b600052526000fd5b83601184634e487b7160e01b600052526000fd5b601190634e487b7160e01b600052526000fd5b828434610263578060031936011261026357600191825492611f8084612df1565b93611f8d83519586612dcf565b8085528184526020937fb10e2d527612073b26eecdfd717e6a320cf44b4afac2b0732d9fcbe2b7fa0cf6858088015b848410611fd5578651828152806103428185018c612faa565b85918291611fe285612e90565b8152019201920191908690611fbc565b50903461030a5761200236612d26565b929461201c6001600160a01b038894939454163314613464565b8382036120db5750855b818110612031578680f35b8061204c610efc6120466120d694868b613812565b35612e09565b0390207fd94fae538c4428e7bd1e4fa66b93ad367b2c5bbbc9d0dae73a21526257361ff48980a2612090612081828787613613565b90610f3461204685888d613812565b61209b818686613613565b9081885192839283378101600081520390207f7a9f387a9d3844b91ba19679387fe32e833e4311fec98471b6df53b9855e3f478980a26130f0565b612026565b606490602086519162461bcd60e51b8352820152601160248201527f42616420696e707574206c656e677468730000000000000000000000000000006044820152fd5b50903461030a578060031936011261030a57826001600160a01b039283612143612f7e565b169382541693803b1561030a5783517f42842e0e0000000000000000000000000000000000000000000000000000000081526001600160a01b037f0000000000000000000000000000000000000000000000000000000000000000811693820193845290951660208301526024356040830152849182908490829060600103925af190811561026657506121d5575080f35b61044790612d6d565b50503461045d578160031936011261045d57818080806001600160a01b038154167f0000000000000000000000000000000000000000000000000000000000000000319082821561223e575bf115612234575080f35b51903d90823e3d90fd5b506108fc61222a565b50913461026357602036600319011261026357823560015481101561045d5761226f90612e09565b939093612283576103428361032f86612e90565b9080602492634e487b7160e01b825252fd5b5082903461045d576122a636612cc1565b91948051956302571be360e01b875280858801526020966001600160a01b038882602481847f0000000000000000000000000000000000000000000000000000000000000000165afa91821561262157889261262b575b5088818316808a526005825260ff868b2054166125d1575b50508116331415908161256b575b81612509575b506124e757838511610b625782357fe5010172000000000000000000000000000000000000000000000000000000006001600160e01b0319821614908115612493575b50156124515785526003865284209267ffffffffffffffff831161243e575061239f826123998554612e56565b856134c6565b8394601f83116001146123db5750938394829394926123d0575b50508160011b916000199060031b1c191617905580f35b0135905084806123b9565b90601f198316958486528286209286905b8882106124265750508360019596971061240c575b505050811b01905580f35b0135600019600384901b60f8161c19169055848080612401565b806001849682949587013581550195019201906123ec565b846041602492634e487b7160e01b835252fd5b6064858884519162461bcd60e51b8352820152600e60248201527f495046532f49504e535f4f4e4c590000000000000000000000000000000000006044820152fd5b905084600311611c57577fffffff0000000000000000000000000000000000000000000000000000000000167fe301010000000000000000000000000000000000000000000000000000000000148861236c565b905163a78e4aa560e01b81528085019182523360208301529081906040010390fd5b90508251612555816102e98b82019433908690603292691b585b9859d94b585b1b60b21b83526bffffffffffffffffffffffff19809260601b16600a84015260601b16601e8201520190565b519020865284875260ff82872054161588612329565b8351696d616e6167652d6f6e6560b01b8a8201908152600a81018590526bffffffffffffffffffffffff19606084811b8216602a84015233901b16603e8201529192506125bb81605284016102e9565b519020875285885260ff83882054161590612323565b60249293508551928380926331a9108f60e11b8252878c8301525afa908115612621578891612604575b5090888a612315565b61261b9150893d8b11610ad257610ac48183612dcf565b896125fb565b84513d8a823e3d90fd5b612643919250893d8b11610ad257610ac48183612dcf565b90896122fd565b50903461030a576020918260031936011261055f5780359267ffffffffffffffff841161026f573660238501121561026f57838201359061268a82612df1565b9461269785519687612dcf565b8286528186016024809460051b83010191368311611972578401905b82821061278b57505050506126d36001600160a01b038654163314613464565b8351926001906126e585835411613655565b865b8581106126f2578780f35b612714612708612702838a61318f565b51612e09565b508351918280926130ff565b0390207fd94fae538c4428e7bd1e4fa66b93ad367b2c5bbbc9d0dae73a21526257361ff48980a282546000198101908111612779579061276761275961277493612e09565b50610439612702848c61318f565b61276f61378c565b6130f0565b6126e7565b8489601188634e487b7160e01b835252fd5b813581529083019083016126b3565b503461030a57602036600319011261030a5780359067ffffffffffffffff821161055f576127ca91369101612cf5565b6127e26001600160a01b038594939454163314613464565b835b8181106127ef578480f35b8061280761280161284c938588613613565b906135ea565b612812818487613613565b90818651928392833781018881520390207f7a9f387a9d3844b91ba19679387fe32e833e4311fec98471b6df53b9855e3f478780a26130f0565b6127e4565b50503461045d578160031936011261045d57602090516001600160a01b037f0000000000000000000000000000000000000000000000000000000000000000168152f35b503461030a576128a436612d26565b919093926001600160a01b03936128bf858954163314613464565b8383036129865750865b8281106128d4578780f35b806128f66128ee6128e9612981948787613812565b613bfe565b3b1515613bb3565b61293761290c61290783888b613812565b613c12565b8761291b6128e9858989613812565b168b526005602052898b209060ff801983541691151516179055565b6129456128e9828686613812565b8661295461290784898c613812565b151591167f8ea51d3bcf70e647a0bb1312a2a0fa7fbc0c51fb47325275912a75c257c082638b80a36130f0565b6128c9565b606490602088519162461bcd60e51b8352820152600a60248201527f4241445f4c454e475448000000000000000000000000000000000000000000006044820152fd5b50903461030a576129d936612cc1565b94919060209580871161055f57808503612b5457868201359087601f19820110612b41575b50907f7fffffffffffffffffffffffffffffffffffffffffffffffffffffffffffffff82169160ff1c601b8101809111612b2e5760ff165b7f7fffffffffffffffffffffffffffffff5d576e7357a4501ddfe92f46681b20a08311612aeb57855193845260ff1683880152358285015260608201528180528490829060809060015afa15612ae057516001600160a01b0316918215612a9e575051908152f35b83606492519163151a7bff60e11b8352820152600c60248201527f5a45524f5f4144445245535300000000000000000000000000000000000000006044820152fd5b9051903d90823e3d90fd5b6064878988519163151a7bff60e11b8352820152600f60248201527f494e56414c49445f535f56414c554500000000000000000000000000000000006044820152fd5b602485601189634e487b7160e01b835252fd5b600019908803880160031b1b16386129fe565b9060418203612b805781851161055f57612b788782013592603f1901868301613859565b60f81c612a36565b6064868887519163151a7bff60e11b8352820152600e60248201527f4241445f5349475f4c454e4754480000000000000000000000000000000000006044820152fd5b9250503461030a57602036600319011261030a57356001600160e01b0319811680910361030a57602092507f9061b923000000000000000000000000000000000000000000000000000000008114908115612c69575b8115612c58575b8115612c2e575b5015158152f35b7f01ffc9a70000000000000000000000000000000000000000000000000000000091501438612c27565b63c55a5d5960e01b81149150612c20565b7f304e6ade0000000000000000000000000000000000000000000000000000000081149150612c19565b9181601f84011215610fc65782359167ffffffffffffffff8311610fc65760208381860195010111610fc657565b906040600319830112610fc657600435916024359067ffffffffffffffff8211610fc657612cf191600401612c93565b9091565b9181601f84011215610fc65782359167ffffffffffffffff8311610fc6576020808501948460051b010111610fc657565b6040600319820112610fc65767ffffffffffffffff91600435838111610fc65782612d5391600401612cf5565b93909392602435918211610fc657612cf191600401612cf5565b67ffffffffffffffff8111612d8157604052565b634e487b7160e01b600052604160045260246000fd5b6060810190811067ffffffffffffffff821117612d8157604052565b6040810190811067ffffffffffffffff821117612d8157604052565b90601f8019910116810190811067ffffffffffffffff821117612d8157604052565b67ffffffffffffffff8111612d815760051b60200190565b600154811015612e405760016000527fb10e2d527612073b26eecdfd717e6a320cf44b4afac2b0732d9fcbe2b7fa0cf60190600090565b634e487b7160e01b600052603260045260246000fd5b90600182811c92168015612e86575b6020831014612e7057565b634e487b7160e01b600052602260045260246000fd5b91607f1691612e65565b9060405191826000825492612ea484612e56565b908184526001948581169081600014612f135750600114612ed0575b5050612ece92500383612dcf565b565b9093915060005260209081600020936000915b818310612efb575050612ece93508201013880612ec0565b85548884018501529485019487945091830191612ee3565b915050612ece94506020925060ff191682840152151560051b8201013880612ec0565b60005b838110612f495750506000910152565b8181015183820152602001612f39565b90602091612f7281518092818552858086019101612f36565b601f01601f1916010190565b600435906001600160a01b0382168203610fc657565b602435906001600160a01b0382168203610fc657565b908082519081815260208091019281808460051b8301019501936000915b848310612fd85750505050505090565b9091929394958480612ff6600193601f198682030187528a51612f59565b9801930193019194939290612fc8565b67ffffffffffffffff8111612d8157601f01601f191660200190565b92919261302e82613006565b9161303c6040519384612dcf565b829481845281830111610fc6578281602093846000960137010152565b9080601f83011215610fc65781602061307493359101613022565b90565b602435908115158203610fc657565b6040600319820112610fc65767ffffffffffffffff91600435838111610fc657826130b391600401612c93565b93909392602435918211610fc657612cf191600401612c93565b919082018092116130da57565b634e487b7160e01b600052601160045260246000fd5b60001981146130da5760010190565b60009291815461310e81612e56565b92600191808316908115613167575060011461312b575b50505050565b90919293945060005260209081600020906000915b8583106131565750505050019038808080613125565b805485840152918301918101613140565b60ff1916845250505081151590910201915038808080613125565b805115612e405760200190565b8051821015612e405760209160051b010190565b9190916001548060011c93600185018095116130da57600585116132f6575b6131cd859295612df1565b926040936131dd85519182612dcf565b838152601f1996876131ee86612df1565b0160005b8181106132e357505081976000903360601b958315925b88811061321c5750505050505050505050565b83908a51926020938481019182528a8d8201526034815261323c81612d97565b519020916132cd576132906132ad8c886132c895069561325b87612e09565b5091519384927f68747470733a2f2f0000000000000000000000000000000000000000000000008385015260288401906130ff565b6132a08d82815194859201612f36565b0103868101835282612dcf565b6132b7828961318f565b526132c2818861318f565b506130f0565b613209565b634e487b7160e01b600052601260045260246000fd5b60606020828601810191909152016131f2565b600594506131c2565b9061330982613006565b6133166040519182612dcf565b8281528092613327601f1991613006565b0190602036910137565b6040519061333e82612db3565b601082527f30313233343536373839616263646566000000000000000000000000000000006020830152565b908151811015612e40570160200190565b8051600091906002600182811b8315848204841417156130da5761339e906132ff565b946133a7613331565b906000905b8582106133bd575050505050505090565b8061345057506001600160f81b031990816133e56133db838a61336a565b5160fc1c8561336a565b511681851b908282048714831517156130da5760001a613405828b61336a565b53600092613418600f61177c858c61336a565b511685820180921161343c57906117a76134369392851a918b61336a565b906133ac565b602484634e487b7160e01b81526011600452fd5b80634e487b7160e01b602492526011600452fd5b1561346b57565b606460405162461bcd60e51b815260206004820152600860248201527f4f6e6c79204465760000000000000000000000000000000000000000000000006044820152fd5b8181106134ba575050565b600081556001016134af565b9190601f81116134d557505050565b612ece926000526020600020906020601f840160051c83019310613501575b601f0160051c01906134af565b90915081906134f4565b919392906135d45767ffffffffffffffff8111612d8157613536816135308454612e56565b846134c6565b6000601f82116001146135705781929394600092613565575b50508160011b916000199060031b1c1916179055565b01359050388061354f565b601f198216948382526020918281209281905b8882106135bc575050836001959697106135a2575b505050811b019055565b0135600019600384901b60f8161c19169055388080613598565b80600184968294958701358155019501920190613583565b634e487b7160e01b600052600060045260246000fd5b906001549168010000000000000000831015612d8157610f34836001612ece9501600155612e09565b9190811015612e405760051b81013590601e1981360301821215610fc657019081359167ffffffffffffffff8311610fc6576020018236038113610fc6579190565b1561365c57565b606460405162461bcd60e51b815260206004820152600c60248201527f4c617374204761746577617900000000000000000000000000000000000000006044820152fd5b90808214613779576136b28154612e56565b9067ffffffffffffffff8211612d815781906136d8826136d28654612e56565b866134c6565b600090601f831160011461370e576000926137035750508160011b916000199060031b1c1916179055565b01549050388061354f565b81526020808220858352818320935090601f1985169083905b82821061376057505090846001959493921061374757505050811b019055565b015460001960f88460031b161c19169055388080613598565b8495819295850154815560018091019601940190613727565b5050565b91906135d457612ece916136a0565b60015480156137fc57600019016137a281612e09565b6135d4576137b08154612e56565b90816137be575b5050600155565b81601f600093116001146137d65750555b38806137b7565b9080839182526137f5601f60208420940160051c8401600185016134af565b55556137cf565b634e487b7160e01b600052603160045260246000fd5b9190811015612e405760051b0190565b90816020910312610fc657516001600160a01b0381168103610fc65790565b90939293848311610fc6578411610fc6578101920390565b6001600160f81b0319903581811693926001811061387657505050565b60010360031b82901b16169150565b80156130da576000190190565b919260489594936bffffffffffffffffffffffff19809360601b168452601484015260601b1660348201526138d08251809360208785019101612f36565b016138e48251809360208685019101612f36565b010190565b8015613953576000818181805b6139405750613904816132ff565b935b6139105750505090565b6000190190600a9060308282060160f81b6001600160f81b031916841a613937848761336a565b53049081613906565b91506001600a91019104808492916138f6565b5060405161396081612db3565b600181527f3000000000000000000000000000000000000000000000000000000000000000602082015290565b604080516020926bffffffffffffffffffffffff199060601b16838201526014918282526139ba82612db3565b8051916139c683612d97565b6028835284830193823686378251916139de83612db3565b601083527f303132333435363738394142434445460000000000000000000000000000000087840152613a0f613331565b92613a198261337b565b8551613a418a8281613a348183019687815193849201612f36565b8101038084520182612dcf565b51902060005b848110613aa4575050505050509261307492613a946022937f3078000000000000000000000000000000000000000000000000000000000000965196879485015251809285850190612f36565b8101036002810184520182612dcf565b613aae818561336a565b5160fc1c600f9081613ac0848861336a565b5160f81c16908c841015612e405784841a9160076001600160f81b0319600493828787871c1611600014613ba157613af8908a61336a565b5116945b60019487861b9688880460021489151715613b8c57908f613b2d896001600160f81b03199796959460001a9261336a565b53161115613b7a57613b3f908861336a565b5116915b8301809311613b655750906117a7613b60939260001a918b61336a565b613a47565b601190634e487b7160e01b6000525260246000fd5b613b84908b61336a565b511691613b43565b601186634e487b7160e01b6000525260246000fd5b613bab908d61336a565b511694613afc565b15613bba57565b606460405162461bcd60e51b815260206004820152600d60248201527f4f6e6c7920436f6e7472616374000000000000000000000000000000000000006044820152fd5b356001600160a01b0381168103610fc65790565b358015158103610fc6579056fea264697066735822122043ff9d5472381b0d501fda0e39a50d985d3358ea784f8547c4873e2603b53af364736f6c63430008130033",
    "linkReferences": {}
  },
  "methodIdentifiers": {
    "ENS()": "1d2e2cc4",
    "Gateways(uint256)": "356a277a",
    "__callback(bytes,bytes)": "c55a5d59",
    "addGateway(string)": "d63a4801",
    "addGateways(string[])": "21d6e7dd",
    "approve(bytes32,address,bool)": "a4b91a01",
    "approved(bytes32,address)": "b984b2cd",
    "bytesToString(bytes,uint256)": "82adc208",
    "contenthash(bytes32)": "bc1c58d1",
    "funcToFile(bytes4)": "e190ea65",
    "immolate()": "bf1e9c85",
    "isApprovedFor(address,bytes32,address)": "a9784b3e",
    "isApprovedForAll(address,address)": "e985e9c5",
    "isWrapper(address)": "e0aa2797",
    "listAllGateways()": "814b7456",
    "manager(bytes32)": "9885e3b4",
    "owner()": "8da5cb5b",
    "randomGateways(string,uint256)": "e8d76b1e",
    "removeGateway(uint256)": "e5dac703",
    "removeGateways(uint256[])": "30121570",
    "replaceGateway(uint256,string)": "acc0f7b1",
    "replaceGateways(uint256[],string[])": "5d1219d5",
    "resolve(bytes,bytes)": "9061b923",
    "safeWithdraw(address,uint256)": "5058c460",
    "setApprovalForAll(address,bool)": "a22cb465",
    "setContenthash(bytes32,bytes)": "304e6ade",
    "signedBy(bytes32,bytes)": "06dcdc63",
    "supportsInterface(bytes4)": "01ffc9a7",
    "toChecksumAddress(address)": "cf135352",
    "uintToString(uint256)": "e9395679",
    "updateWrapper(address,bool)": "8384976f",
    "updateWrappers(address[],bool[])": "084ac40a",
    "withdraw()": "3ccfd60b",
    "withdraw(address,uint256)": "f3fef3a3"
  },
  "id": 23
}