{
  "abi": [
    {
      "inputs": [],
      "stateMutability": "nonpayable",
      "type": "constructor"
    },
    {
      "inputs": [
        {
          "internalType": "string",
          "name": "_error",
          "type": "string"
        }
      ],
      "name": "InvalidSignature",
      "type": "error"
    },
    {
      "inputs": [
        {
          "internalType": "address",
          "name": "_from",
          "type": "address"
        },
        {
          "internalType": "string[]",
          "name": "_gateways",
          "type": "string[]"
        },
        {
          "internalType": "bytes",
          "name": "_data",
          "type": "bytes"
        },
        {
          "internalType": "bytes4",
          "name": "_callbackFunction",
          "type": "bytes4"
        },
        {
          "internalType": "bytes",
          "name": "_extraData",
          "type": "bytes"
        }
      ],
      "name": "OffchainLookup",
      "type": "error"
    },
    {
      "anonymous": false,
      "inputs": [
        {
          "indexed": true,
          "internalType": "string",
          "name": "domain",
          "type": "string"
        },
        {
          "indexed": true,
          "internalType": "uint8",
          "name": "_type",
          "type": "uint8"
        },
        {
          "indexed": true,
          "internalType": "address",
          "name": "_dev",
          "type": "address"
        }
      ],
      "name": "AddGateway",
      "type": "event"
    },
    {
      "anonymous": false,
      "inputs": [
        {
          "indexed": true,
          "internalType": "string",
          "name": "domain",
          "type": "string"
        },
        {
          "indexed": true,
          "internalType": "uint8",
          "name": "_type",
          "type": "uint8"
        },
        {
          "indexed": true,
          "internalType": "address",
          "name": "_dev",
          "type": "address"
        }
      ],
      "name": "RemoveGateway",
      "type": "event"
    },
    {
      "inputs": [
        {
          "internalType": "bytes32",
          "name": "_node",
          "type": "bytes32"
        },
        {
          "internalType": "bytes",
          "name": "_data",
          "type": "bytes"
        },
        {
          "internalType": "bytes",
          "name": "_ipns",
          "type": "bytes"
        },
        {
          "internalType": "string",
          "name": "_path",
          "type": "string"
        }
      ],
      "name": "CCIPRead",
      "outputs": [],
      "stateMutability": "view",
      "type": "function"
    },
    {
      "inputs": [],
      "name": "DefaultContenthash",
      "outputs": [
        {
          "internalType": "bytes",
          "name": "",
          "type": "bytes"
        }
      ],
      "stateMutability": "view",
      "type": "function"
    },
    {
      "inputs": [],
      "name": "ENS",
      "outputs": [
        {
          "internalType": "contract iENS",
          "name": "",
          "type": "address"
        }
      ],
      "stateMutability": "view",
      "type": "function"
    },
    {
      "inputs": [
        {
          "internalType": "uint256",
          "name": "",
          "type": "uint256"
        }
      ],
      "name": "Gateways",
      "outputs": [
        {
          "internalType": "string",
          "name": "domain",
          "type": "string"
        },
        {
          "internalType": "uint8",
          "name": "_type",
          "type": "uint8"
        }
      ],
      "stateMutability": "view",
      "type": "function"
    },
    {
      "inputs": [],
      "name": "WRAPPER",
      "outputs": [
        {
          "internalType": "contract iToken",
          "name": "",
          "type": "address"
        }
      ],
      "stateMutability": "view",
      "type": "function"
    },
    {
      "inputs": [
        {
          "internalType": "bytes",
          "name": "response",
          "type": "bytes"
        },
        {
          "internalType": "bytes",
          "name": "extraData",
          "type": "bytes"
        }
      ],
      "name": "___contenthash",
      "outputs": [
        {
          "internalType": "bytes",
          "name": "result",
          "type": "bytes"
        }
      ],
      "stateMutability": "view",
      "type": "function"
    },
    {
      "inputs": [
        {
          "internalType": "bytes",
          "name": "response",
          "type": "bytes"
        },
        {
          "internalType": "bytes",
          "name": "extraData",
          "type": "bytes"
        }
      ],
      "name": "__callback",
      "outputs": [
        {
          "internalType": "bytes",
          "name": "result",
          "type": "bytes"
        }
      ],
      "stateMutability": "view",
      "type": "function"
    },
    {
      "inputs": [
        {
          "internalType": "string",
          "name": "_domain",
          "type": "string"
        },
        {
          "internalType": "uint8",
          "name": "_type",
          "type": "uint8"
        }
      ],
      "name": "addGateway",
      "outputs": [],
      "stateMutability": "nonpayable",
      "type": "function"
    },
    {
      "inputs": [
        {
          "internalType": "bytes32",
          "name": "node",
          "type": "bytes32"
        },
        {
          "internalType": "address",
          "name": "_addr",
          "type": "address"
        },
        {
          "internalType": "bool",
          "name": "_approved",
          "type": "bool"
        }
      ],
      "name": "approve",
      "outputs": [],
      "stateMutability": "nonpayable",
      "type": "function"
    },
    {
      "inputs": [
        {
          "internalType": "bytes32",
          "name": "node",
          "type": "bytes32"
        },
        {
          "internalType": "address",
          "name": "_addr",
          "type": "address"
        }
      ],
      "name": "approved",
      "outputs": [
        {
          "internalType": "bool",
          "name": "",
          "type": "bool"
        }
      ],
      "stateMutability": "view",
      "type": "function"
    },
    {
      "inputs": [
        {
          "internalType": "bytes",
          "name": "_buffer",
          "type": "bytes"
        },
        {
          "internalType": "uint256",
          "name": "index",
          "type": "uint256"
        }
      ],
      "name": "bytes2HexString",
      "outputs": [
        {
          "internalType": "string",
          "name": "",
          "type": "string"
        }
      ],
      "stateMutability": "pure",
      "type": "function"
    },
    {
      "inputs": [
        {
          "internalType": "bytes32",
          "name": "",
          "type": "bytes32"
        }
      ],
      "name": "contenthash",
      "outputs": [
        {
          "internalType": "bytes",
          "name": "",
          "type": "bytes"
        }
      ],
      "stateMutability": "view",
      "type": "function"
    },
    {
      "inputs": [
        {
          "internalType": "bytes4",
          "name": "",
          "type": "bytes4"
        }
      ],
      "name": "funcToFile",
      "outputs": [
        {
          "internalType": "string",
          "name": "",
          "type": "string"
        }
      ],
      "stateMutability": "view",
      "type": "function"
    },
    {
      "inputs": [],
      "name": "immolate",
      "outputs": [],
      "stateMutability": "nonpayable",
      "type": "function"
    },
    {
      "inputs": [],
      "name": "owner",
      "outputs": [
        {
          "internalType": "address payable",
          "name": "",
          "type": "address"
        }
      ],
      "stateMutability": "view",
      "type": "function"
    },
    {
      "inputs": [
        {
          "internalType": "bytes",
          "name": "_ipns",
          "type": "bytes"
        },
        {
          "internalType": "string",
          "name": "_path",
          "type": "string"
        },
        {
          "internalType": "uint256",
          "name": "k",
          "type": "uint256"
        }
      ],
      "name": "randomGateways",
      "outputs": [
        {
          "internalType": "string[]",
          "name": "gateways",
          "type": "string[]"
        }
      ],
      "stateMutability": "view",
      "type": "function"
    },
    {
      "inputs": [
        {
          "internalType": "uint256",
          "name": "_index",
          "type": "uint256"
        }
      ],
      "name": "removeGateway",
      "outputs": [],
      "stateMutability": "nonpayable",
      "type": "function"
    },
    {
      "inputs": [
        {
          "internalType": "uint256",
          "name": "_index",
          "type": "uint256"
        },
        {
          "internalType": "string",
          "name": "_domain",
          "type": "string"
        },
        {
          "internalType": "uint8",
          "name": "_type",
          "type": "uint8"
        }
      ],
      "name": "replaceGateway",
      "outputs": [],
      "stateMutability": "nonpayable",
      "type": "function"
    },
    {
      "inputs": [
        {
          "internalType": "bytes",
          "name": "name",
          "type": "bytes"
        },
        {
          "internalType": "bytes",
          "name": "data",
          "type": "bytes"
        }
      ],
      "name": "resolve",
      "outputs": [
        {
          "internalType": "bytes",
          "name": "",
          "type": "bytes"
        }
      ],
      "stateMutability": "view",
      "type": "function"
    },
    {
      "inputs": [],
      "name": "roothash",
      "outputs": [
        {
          "internalType": "bytes32",
          "name": "",
          "type": "bytes32"
        }
      ],
      "stateMutability": "view",
      "type": "function"
    },
    {
      "inputs": [
        {
          "internalType": "address",
          "name": "_token",
          "type": "address"
        },
        {
          "internalType": "uint256",
          "name": "_tokenID",
          "type": "uint256"
        }
      ],
      "name": "safeWithdraw",
      "outputs": [],
      "stateMutability": "nonpayable",
      "type": "function"
    },
    {
      "inputs": [
        {
          "internalType": "bytes32",
          "name": "node",
          "type": "bytes32"
        },
        {
          "internalType": "bytes",
          "name": "_contenthash",
          "type": "bytes"
        }
      ],
      "name": "setContenthash",
      "outputs": [],
      "stateMutability": "nonpayable",
      "type": "function"
    },
    {
      "inputs": [
        {
          "internalType": "bytes32",
          "name": "digest",
          "type": "bytes32"
        },
        {
          "internalType": "bytes",
          "name": "signature",
          "type": "bytes"
        }
      ],
      "name": "signedBy",
      "outputs": [
        {
          "internalType": "address",
          "name": "_addr",
          "type": "address"
        }
      ],
      "stateMutability": "pure",
      "type": "function"
    },
    {
      "inputs": [
        {
          "internalType": "bytes4",
          "name": "interfaceID",
          "type": "bytes4"
        }
      ],
      "name": "supportsInterface",
      "outputs": [
        {
          "internalType": "bool",
          "name": "",
          "type": "bool"
        }
      ],
      "stateMutability": "pure",
      "type": "function"
    },
    {
      "inputs": [
        {
          "internalType": "uint256",
          "name": "value",
          "type": "uint256"
        }
      ],
      "name": "uintToNumString",
      "outputs": [
        {
          "internalType": "string",
          "name": "",
          "type": "string"
        }
      ],
      "stateMutability": "pure",
      "type": "function"
    },
    {
      "inputs": [],
      "name": "withdraw",
      "outputs": [],
      "stateMutability": "nonpayable",
      "type": "function"
    },
    {
      "inputs": [
        {
          "internalType": "address",
          "name": "_token",
          "type": "address"
        },
        {
          "internalType": "uint256",
          "name": "_balance",
          "type": "uint256"
        }
      ],
      "name": "withdraw",
      "outputs": [],
      "stateMutability": "nonpayable",
      "type": "function"
    }
  ],
  "bytecode": {
    "object": "0x610100346200056f57306080526001600160401b039060a08101828111828210176200055957604091818352620000368262000574565b60029182815261743160f01b60c08301528152825190620000578262000574565b828252602091613a1960f11b83820152828201528351620000788162000574565b83815261743360f01b83820152848201528351620000968162000574565b838152611d0d60f21b8382015260608201528351620000b58162000574565b83815261743560f01b838201526080820152825490600591828555808310620004dd575b509260009381855283852085915b848310620003b0575050506e0c2e074ec69a0dfb2997ba6c7d2e1e60a05273d4416b13d2b3a9abae7acd5d6c2bbdbe2568640160c0528451838101908582527f4f5b812789fc606be1b3b16908db13fc7a9adf7ca72641f84d75b47069d3d7f0878201528681526060810197818910908911176200039c578697600496975251902060e0526200017960035462000590565b90601f821162000377575b5050506055600355600383528083207fe50101720024080112203c5aba6c9b5055a5fa12281c486188ed8ae2b6ef394b81556001690f6606c0345e92d45cd760b21b910155631d9dabef60e11b8352818152838320620001f0620001e9825462000590565b82620005e6565b600e660616464722d36360cc1b01905563c869023360e01b835281815283832080546200022290620001e99062000590565b600c657075626b657960d01b01905563691f343160e01b835281815283832080546200025390620001e99062000590565b6008636e616d6560e01b01905563bc1c58d160e01b835281815283832080546200028290620001e99062000590565b7f636f6e74656e74686173680000000000000000000000000000000000000000169055635c98042b60e01b8352528181208054620002c590620001e99062000590565b7f7a6f6e6568617368000000000000000000000000000000000000000000000010905580546001600160a01b0319163317905551612f9590816200061482396080518181816101ac015281816107320152818161148c015281816115800152818161175101526118a4015260a05181818161089b01528181610a64015281816119a10152611e4c015260c051818181610578015281816108d601528181610a9701526119d5015260e05181611e090152f35b620003939260038752601f8588209301901c82019101620005cd565b38808062000184565b634e487b7160e01b86526041600452602486fd5b80518051908a8211620004c957908791620003cc855462000590565b90601f9182811162000490575b508391831160011462000424579180600195928695948d9262000418575b5050600019600383901b1c191690841b1785555b01920192019190620000e7565b015190503880620003f7565b858b52838b209190601f1984168c5b8181106200047757509160019693918588979694106200045d575b505050831b830185556200040b565b015160001960f88460031b161c191690553880806200044e565b8284015185558c96600190950194938401930162000433565b620004b890878d52858d20848087018d1c820192888810620004bf575b018c1c0190620005cd565b38620003d9565b92508192620004ad565b634e487b7160e01b89526041600452602489fd5b60008581528385822092830192015b828110620004fc575050620000d9565b80826200050c6001935462000590565b806200051c575b505001620004ec565b601f80821185146200053557505081555b823862000513565b6200054f908484528a84209201891c8201858301620005cd565b818355556200052d565b634e487b7160e01b600052604160045260246000fd5b600080fd5b604081019081106001600160401b038211176200055957604052565b90600182811c92168015620005c2575b6020831014620005ac57565b634e487b7160e01b600052602260045260246000fd5b91607f1691620005a0565b818110620005d9575050565b60008155600101620005cd565b90601f8111620005f4575050565b6200061191600052601f6020600020910160051c810190620005cd565b56fe6080604081815260048036101561001557600080fd5b600092833560e01c90816301ffc9a7146121c15750806306dcdc6314611fc75780631c758b5314611e705780631d2e2cc414611e2c578063251c942214611df15780632a00534214611cdf578063304e6ade1461192f578063332a21de146117ff578063356a277a146117975780633ccfd60b1461172e5780634d2bc5bc146114ee5780635058c4601461142b57806369be8bb01461140657806378651988146113e55780638da5cb5b146113bf5780639061b92314610bc8578063a4b91a0114610a11578063b984b2cd14610857578063bc1c58d114610824578063bf1e9c85146107b9578063c55a5d591461066b578063d4a964f1146105fe578063e190ea651461059c578063e1eb13c114610558578063e5dac70314610328578063eebc41c41461022a5763f3fef3a31461014c57600080fd5b8291346102265780600319360112610226576001600160a01b039182610170612623565b169284541690833b156102225782517f23b872dd0000000000000000000000000000000000000000000000000000000081526001600160a01b037f00000000000000000000000000000000000000000000000000000000000000008116928201928352909216602082015260243560408201529092849184919082908490829060600103925af190811561021957506102065750f35b61020f9061230d565b6102165780f35b80fd5b513d84823e3d90fd5b8480fd5b5050fd5b5034610324578160031936011261032457803567ffffffffffffffff8111610320576102599036908301612279565b90926024359260ff841680940361031b5761027f6001600160a01b038754163314612b3b565b81519061028b826122db565b61029636858861237b565b8252846020830152600154906801000000000000000082101561030857508392916102ca8260016102d0940160015561245f565b90612be4565b51938437820191600083528033930390207fae1077bb3aa931964ee62d3fe5872872c1a7749b32cc82e6922497b6e4b08a7e8480a480f35b876041602492634e487b7160e01b835252fd5b600080fd5b8380fd5b8280fd5b509190346105545760203660031901126105545782356103536001600160a01b038454163314612b3b565b600190815491808311156105115761036a8261245f565b509160ff8286519461037b866122db565b87516103928161038b818561258d565b038261233d565b865201541693602084019485528282018083116104fe578111610495575b5050805480156104825760001901906103c88261245f565b610470579261040492828860ff9487826103e660209c9b9a546124af565b80610433575b505001555551925116925191828151958692016123d0565b80339381010390207f1691efa590d902c17ada7bd544d16f47b7473f0e8efd89a469b7680fbe70bb9c8480a480f35b601f811160011461044c575050600081555b828d6103ec565b828252610466601f8e8420920160051c8201858301612b86565b6000835555610445565b602487808a634e487b7160e01b825252fd5b602486603189634e487b7160e01b835252fd5b60001981019081116104eb576104ad6104b49161245f565b509161245f565b61047057828282036104c7575b506103b0565b80826104d58560ff95612cde565b019201541660ff198254161790553880826104c1565b60248760118a634e487b7160e01b835252fd5b60248860118b634e487b7160e01b835252fd5b606486602086519162461bcd60e51b8352820152600c60248201527f4c617374204761746577617900000000000000000000000000000000000000006044820152fd5b5080fd5b505034610554578160031936011261055457602090516001600160a01b037f0000000000000000000000000000000000000000000000000000000000000000168152f35b50346103245760203660031901126103245780356001600160e01b031981168091036103205782846105e194936105e8936105fa97526020522082519384809261258d565b038361233d565b519182916020835260208301906123f3565b0390f35b50346103245760603660031901126103245767ffffffffffffffff81358181116102225761062f90369084016123b2565b9360243591821161021657509261064f610658926105fa953691016123b2565b6044359161278b565b905191829160208352602083019061264f565b5091346102165761067b36612418565b82879593949511610324578160609163199510ef60e11b6001600160e01b0319883516146000146107a8576106b48688018a8901612e20565b50505b81010312610554578035916003830190818411610795576105fa876106f788886106f08989868a431115928361070a575b505050612e70565b369161237b565b90519182916020835260208301906123f3565b61071691929350612e63565b8151904060208083019182526bffffffffffffffffffffffff197f0000000000000000000000000000000000000000000000000000000000000000606090811b8216604086015233901b16605484015284013560688301529061078681608881015b03601f19810183528261233d565b519020910135148786816106e8565b80601189634e487b7160e01b6024945252fd5b6107b336878961237b565b506106b7565b5082346102165780600319360112610216576001600160a01b03905416918233036107e15782ff5b906020606492519162461bcd60e51b8352820152600960248201527f4e4f545f4f574e455200000000000000000000000000000000000000000000006044820152fd5b503461032457602036600319011261032457906105e8816105fa946105e19435815260056020522082519384809261258d565b509134610216578160031936011261021657823590610874612639565b918351926302571be360e01b845281868501526020956001600160a01b03908786602481857f0000000000000000000000000000000000000000000000000000000000000000165afa958615610a0757859493929189918997986109e8575b507f00000000000000000000000000000000000000000000000000000000000000008316928816831461096d575b50505061095860ff9561077886519384928b84019687919092605293696d616e6167652d6f6e6560b01b8452600a8401526bffffffffffffffffffffffff19809260601b16602a84015260601b16603e8201520190565b51902081526006855220541690519015158152f35b6024919395975084969492945194859384926331a9108f60e11b84528301525afa9081156109de5791610958869492869460ff97916109b1575b5095508738610901565b6109d19150893d8b116109d7575b6109c9818361233d565b810190612dbd565b386109a7565b503d6109bf565b85513d86823e3d90fd5b610a00919850823d84116109d7576109c9818361233d565b96386108d3565b87513d87823e3d90fd5b50903461032457606036600319011261032457813591610a2f612639565b9060443593841515809503610bc4578351926302571be360e01b845281838501526020926001600160a01b03908486602481857f0000000000000000000000000000000000000000000000000000000000000000165afa958615610bba578996610b99575b507f00000000000000000000000000000000000000000000000000000000000000008216908683168214610b3c575b50503390851603610b38578451696d616e6167652d6f6e6560b01b848201908152600a8101939093526bffffffffffffffffffffffff19606095861b8116602a8501529190941b16603e820152600692610b208160528401610778565b51902085525282209060ff8019835416911617905580f35b8680fd5b859192965060248591895194859384926331a9108f60e11b84528301525afa908115610b8f578891610b72575b50933880610ac3565b610b899150843d86116109d7576109c9818361233d565b38610b69565b86513d8a823e3d90fd5b82919650610bb390863d88116109d7576109c9818361233d565b9590610a94565b87513d8b823e3d90fd5b8580fd5b50903461032457610bd836612418565b919490926001958087116113bb5760f8918035831c928751996105608b0167ffffffffffffffff908c8110828211176113a6578a52602a8c528b60005b6105408110611394575050858b0195868c11611381578587116103245798610c458d9c999b9a36908b880161237b565b610c4e8d61276a565b52610c588c61276a565b50610c628c61276a565b51805b8789101561136e576001600160f81b0319898801351615610de757610c9e610c98610c8f8b612745565b809b8b8b612ddc565b90612df4565b861c890198898111610dd2578c8f91928d8c9b9a999897969594819e9d9c610cc7918d8d612ddc565b3690610cd29261237b565b90610cdd9085612777565b52610ce88d84612777565b50610cf38d84612777565b5192825182516020938185808501920191610d0d926123d0565b8101948386017f2e00000000000000000000000000000000000000000000000000000000000000905281815160219788938288868401920191610d4f926123d0565b010360018101835201610d62908261233d565b9d610d6c91612777565b5191519382859351908184808701920191610d86926123d0565b830190828201602f60f81b905280518093868401920191610da6926123d0565b010360018101835201610db9908261233d565b99610dc390612745565b99909192939495969798610c65565b60118b634e487b7160e01b6000525260246000fd5b50508b94508a8a948a8a838111610b38576001600160e01b031991610e0f8387351691612e63565b610e19818c612777565b5180519b8a8c60209e8f809501208151918583019384528201528d8152610e3f81612321565b5190208c8c856060965b6112e35750505050505051156112c8575b7f59d1d43c000000000000000000000000000000000000000000000000000000008103610f01575050505080602411610320578101928560231983860301126102165760248201359283116102165750610eb89291016024016123b2565b505b8051828193825260605190818184015260005b828110610eec5750506000828201840152601f01601f19168101030190f35b60808101518682018601528593508101610ecd565b9091929395507ff1cb7e06000000000000000000000000000000000000000000000000000000008197959714600014610fb25750505050816024116102165750810181900360231901831361031b57610f606024610fad920135612ebb565b6025835180927f616464722d00000000000000000000000000000000000000000000000000000087830152610f9d815180928986860191016123d0565b810103600581018352019061233d565b610eba565b92979695919490927f2203ab5600000000000000000000000000000000000000000000000000000000810361118b57506024938185116102165750810181900360231901861361031b5782013592831680930361031b578351928584015280835261101c836122db565b8251958660011b6002978082048914901517156111775761103c90612af8565b938551611048816122db565b601081526f181899199a1a9b1b9c1cb0b131b232b360811b8882015281519260005b8481106110c757505050505083610fad949596505180937f6162692d00000000000000000000000000000000000000000000000000000000888301526110b8815180928a87860191016123d0565b8101039081018352019061233d565b6001600160f81b0319806110e86110de8488612b2a565b5160fc1c86612b2a565b5116908260011b918d84840414841517156111635760001a61110a838c612b2a565b53611124600f61111a8589612b2a565b51861c1686612b2a565b51166001820180921161114f579061114461114a939260001a918b612b2a565b53612745565b61106a565b88601189634e487b7160e01b600052526000fd5b8960118a634e487b7160e01b600052526000fd5b83601184634e487b7160e01b600052526000fd5b909450859697507f124a319c00000000000000000000000000000000000000000000000000000000819692961460001461123757505050816024116102165750810181900360231901831361031b576111ea6024610fad920135612ebb565b602a835180927f696e746572666163652d0000000000000000000000000000000000000000000087830152611227815180928986860191016123d0565b810103600a81018352019061233d565b83611255949293965061038b9550528487522084519283809261258d565b51156112615750610eba565b82608492519162461bcd60e51b8352820152602160248201527f5245534f4c5645525f46554e4354494f4e5f4e4f545f494d504c454d454e544560448201527f44000000000000000000000000000000000000000000000000000000000000006064820152fd5b6112de8951806112d7816124e9565b039061233d565b610e5a565b6112ec90612e63565b926112f78486612777565b518681519101208351908782019283528482015283815261131781612321565b51902094858252600590818152611330848420546124af565b611345575b50505050808c8f94928f92610e49565b8497509282819261038b95896113639652522090519283809261258d565b93508c8c8f80611335565b60248560328c634e487b7160e01b835252fd5b60248360118a634e487b7160e01b835252fd5b60606020828194010152018c90610c15565b604188634e487b7160e01b6000525260246000fd5b8780fd5b5050346105545781600319360112610554576001600160a01b0360209254169051908152f35b50913461021657602036600319011261021657506106f76105fa9235612ebb565b50503461055457816003193601126105545780516105fa916105e8826105e1816124e9565b509034610324578060031936011261032457826001600160a01b039283611450612623565b169382541693803b156103245783517f42842e0e0000000000000000000000000000000000000000000000000000000081526001600160a01b037f0000000000000000000000000000000000000000000000000000000000000000811693820193845290951660208301526024356040830152849182908490829060600103925af190811561021957506114e2575080f35b6114eb9061230d565b80f35b5091903461055457600319906080368301126103245783359267ffffffffffffffff906024358281116105545761152890369088016123b2565b926044358381116103245761154090369089016123b2565b95606435848111610320576115589036908a016123b2565b60001943019743891161171b578351984060208a019081526bffffffffffffffffffffffff197f0000000000000000000000000000000000000000000000000000000000000000606081811b831660408e015233901b90911660548c01526068808c018690528b5299601f199493926115e39290916115d860888261233d565b51902092839161278b565b94603c8781420416028097811603611708575098836116826116bf946116cf97946001600160a01b039d7fffffffffffffffff0000000000000000000000000000000000000000000000006117049d9c9b99519960c01b1660208a01526008895261164d896122db565b61167085519b8c93436020860152878501526080606085015260a08401906123f3565b9060808301520390810189528861233d565b51998a997f556f1830000000000000000000000000000000000000000000000000000000008b52169089015260a0602489015260a488019061264f565b90848783030160448801526123f3565b917fc55a5d590000000000000000000000000000000000000000000000000000000060648601528483030160848501526123f3565b0390fd5b8060118c634e487b7160e01b6024945252fd5b60248560118c634e487b7160e01b835252fd5b505034610554578160031936011261055457818080806001600160a01b038154167f0000000000000000000000000000000000000000000000000000000000000000319082821561178e575bf115611784575080f35b51903d90823e3d90fd5b506108fc61177a565b5082903461055457602036600319011261055457359060015482101561021657506117c19061245f565b509060ff60018251936117df856117d8818461258d565b038661233d565b0154166117f582519383859485528401906123f3565b9060208301520390f35b509190346105545761181036612418565b949290919081871161032057849183918881356001600160e01b03191663199510ef60e11b0361191d576118479282019101612e20565b50955b8101031261055457803591600283019081841161190a576105fa86866105e8878787431115918261187d575b5050612e70565b602091925061188b90612e63565b4084518281019182526bffffffffffffffffffffffff197f000000000000000000000000000000000000000000000000000000000000000060601b16868201523360601b60548201526118fc60688289516118ec818c8986860191016123d0565b810103604881018452018261233d565b519020910135148580611876565b80601188634e487b7160e01b6024945252fd5b5061192991369161237b565b9561184a565b5091903461055457611940366122a7565b9194828111610222577fe5010172000000000000000000000000000000000000000000000000000000006001600160e01b031983351603611c9c578351936302571be360e01b855286828601526020966001600160a01b039588816024818a7f0000000000000000000000000000000000000000000000000000000000000000165afa908115611c75578891611c7f575b50887f000000000000000000000000000000000000000000000000000000000000000088168289168114611c27575b50508754968351918a830198696d616e6167652d6f6e6560b01b8a5284602a8501526bffffffffffffffffffffffff199060601b1680604a8501523360601b80605e86015260528552608085019067ffffffffffffffff9b8683108d841117611c1457828952865190208d5260068e52878d205460ff16958615611bb6575b505050508215611ba9575b505015611b67578652600587528520938311611b545750611ab582611aaf85546124af565b85612b9d565b8394601f8311600114611af1575093839482939492611ae6575b50508160011b916000199060031b1c191617905580f35b013590503880611acf565b90601f198316958486528286209286905b888210611b3c57505083600195969710611b22575b505050811b01905580f35b0135600019600384901b60f8161c19169055388080611b17565b80600184968294958701358155019501920190611b02565b846041602492634e487b7160e01b835252fd5b6064838984519162461bcd60e51b8352820152601260248201527f4f4e4c595f4f574e45522f4d414e4147455200000000000000000000000000006044820152fd5b9091501633143880611a8a565b60be91929394965060a08101947f6d616e6167652d616c6c00000000000000000000000000000000000000000000865260aa820152015260328152611bfa81612321565b519020895260068a5260ff848a2054169138808080611a7f565b60248e60418c634e487b7160e01b835252fd5b602492508451928380926331a9108f60e11b825286898301525afa908115611c75578891611c58575b508838611a00565b611c6f9150893d8b116109d7576109c9818361233d565b38611c50565b83513d8a823e3d90fd5b611c969150893d8b116109d7576109c9818361233d565b386119d1565b606490602085519162461bcd60e51b8352820152600960248201527f49504e535f4f4e4c5900000000000000000000000000000000000000000000006044820152fd5b509034610324576060366003190112610324578135916024359067ffffffffffffffff821161022257611d1491369101612279565b90926044359260ff8416809403610bc457611dba8392611d3f6001600160a01b038954163314612b3b565b6102ca611d4b8261245f565b5091611d6d60ff6001611d5d8461245f565b50015416938651918280926126c3565b03902085519333917f1691efa590d902c17ada7bd544d16f47b7473f0e8efd89a469b7680fbe70bb9c8d80a4611da2836122db565b611dad36878b61237b565b835287602084015261245f565b519384378201918383528033930390207fae1077bb3aa931964ee62d3fe5872872c1a7749b32cc82e6922497b6e4b08a7e8480a480f35b505034610554578160031936011261055457602090517f00000000000000000000000000000000000000000000000000000000000000008152f35b505034610554578160031936011261055457602090516001600160a01b037f0000000000000000000000000000000000000000000000000000000000000000168152f35b509034610324578060031936011261032457813567ffffffffffffffff811161032057611ea090369084016123b2565b80519360019085821b600296808204881490151715611fb457611ec290612af8565b94845190611ecf826122db565b601082526f181899199a1a9b1b9c1cb0b131b232b360811b602083015284519460249283355b878110611f11578851602080825281906105fa9082018d6123f3565b6001600160f81b031980611f32611f288487612b2a565b5160fc1c85612b2a565b51169082891b918d8484041484151715611fa257881a611f52838e612b2a565b53611f6d600f611f628588612b2a565b5160f81c1685612b2a565b5116888201809211611f905790611144611f8b9392891a918d612b2a565b611ef5565b8688601188634e487b7160e01b835252fd5b8789601189634e487b7160e01b835252fd5b602482601188634e487b7160e01b835252fd5b50903461032457611fd7366122a7565b9491906020958087116103205780850361215257868201359087601f1982011061213f575b50907f7fffffffffffffffffffffffffffffffffffffffffffffffffffffffffffffff82169160ff1c601b810180911161212c5760ff165b7f7fffffffffffffffffffffffffffffff5d576e7357a4501ddfe92f46681b20a083116120e957855193845260ff1683880152358285015260608201528180528490829060809060015afa156120de57516001600160a01b031691821561209c575051908152f35b83606492519163151a7bff60e11b8352820152600d60248201527f4241445f5349474e4154555245000000000000000000000000000000000000006044820152fd5b9051903d90823e3d90fd5b6064878988519163151a7bff60e11b8352820152600f60248201527f494e56414c49445f535f56414c554500000000000000000000000000000000006044820152fd5b602485601189634e487b7160e01b835252fd5b600019908803880160031b1b1638611ffc565b906041820361217e57818511610320576121768782013592603f1901868301612df4565b60f81c612034565b6064868887519163151a7bff60e11b8352820152600a60248201527f4241445f4c454e475448000000000000000000000000000000000000000000006044820152fd5b9250503461032457602036600319011261032457356001600160e01b0319811680910361032457602092507f9061b92300000000000000000000000000000000000000000000000000000000811490811561224f575b8115612225575b5015158152f35b7f01ffc9a7000000000000000000000000000000000000000000000000000000009150143861221e565b7f304e6ade0000000000000000000000000000000000000000000000000000000081149150612217565b9181601f8401121561031b5782359167ffffffffffffffff831161031b576020838186019501011161031b57565b90604060031983011261031b57600435916024359067ffffffffffffffff821161031b576122d791600401612279565b9091565b6040810190811067ffffffffffffffff8211176122f757604052565b634e487b7160e01b600052604160045260246000fd5b67ffffffffffffffff81116122f757604052565b6060810190811067ffffffffffffffff8211176122f757604052565b90601f8019910116810190811067ffffffffffffffff8211176122f757604052565b67ffffffffffffffff81116122f757601f01601f191660200190565b9291926123878261235f565b91612395604051938461233d565b82948184528183011161031b578281602093846000960137010152565b9080601f8301121561031b578160206123cd9335910161237b565b90565b60005b8381106123e35750506000910152565b81810151838201526020016123d3565b9060209161240c815180928185528580860191016123d0565b601f01601f1916010190565b604060031982011261031b5767ffffffffffffffff9160043583811161031b578261244591600401612279565b9390939260243591821161031b576122d791600401612279565b60015481101561249957600160005260011b7fb10e2d527612073b26eecdfd717e6a320cf44b4afac2b0732d9fcbe2b7fa0cf60190600090565b634e487b7160e01b600052603260045260246000fd5b90600182811c921680156124df575b60208310146124c957565b634e487b7160e01b600052602260045260246000fd5b91607f16916124be565b600354600092916124f9826124af565b80825291600190818116908115612570575060011461251757505050565b9192935060036000527fc2575a0e9e593c00f959f8c92f12db2869c3395a3b0502d05e2516446f71f85b916000925b84841061255857505060209250010190565b80546020858501810191909152909301928101612546565b915050602093945060ff929192191683830152151560051b010190565b906000929180549161259e836124af565b91828252600193848116908160001461260057506001146125c0575b50505050565b90919394506000526020928360002092846000945b8386106125ec5750505050010190388080806125ba565b8054858701830152940193859082016125d5565b9294505050602093945060ff191683830152151560051b010190388080806125ba565b600435906001600160a01b038216820361031b57565b602435906001600160a01b038216820361031b57565b908082519081815260208091019281808460051b8301019501936000915b84831061267d5750505050505090565b909192939495848061269b600193601f198682030187528a516123f3565b980193019301919493929061266d565b67ffffffffffffffff81116122f75760051b60200190565b6000929181546126d2816124af565b9260019180831690811561272a57506001146126ee5750505050565b90919293945060005260209081600020906000915b85831061271957505050500190388080806125ba565b805485840152918301918101612703565b60ff19168452505050811515909102019150388080806125ba565b60001981146127545760010190565b634e487b7160e01b600052601160045260246000fd5b8051156124995760200190565b80518210156124995760209160051b010190565b92919260019384549182861c918683018093116127545760058311612aef575b6127b4836126ab565b926040976127c48951958661233d565b818552601f196127d3836126ab565b0160005b818110612ade575050849884519485831b6002968082048814901517156127545761280790989798959495612af8565b90825193612814856122db565b601085526020946f181899199a1a9b1b9c1cb0b131b232b360811b86820152825192895b848110612a5b57505050505081518099848201927f6600000000000000000000000000000000000000000000000000000000000000845261288281518092886021870191016123d0565b8201602f60f81b60218201526128a182518093886022850191016123d0565b017f2e6a736f6e3f000000000000000000000000000000000000000000000000000060228201520393600885018a526128de60288096018b61233d565b6000973360601b968854978215935b828c10612904575050505050505050505050505050565b8490875189810191825283898201526034815261292081612321565b51902090612a4557839006916129358361245f565b509b8a811015612499578e8e9d8d60005289519182918c83017f68747470733a2f2f00000000000000000000000000000000000000000000000090528d830161297d916126c3565b7f2f69706e732f0000000000000000000000000000000000000000000000000000815290516006916129b2828483018e6123d0565b0101837f405787fa12a823e0f2b7631cc41b3ba8828b3321ca811111fa75cd3aa3bb5ace01906129e1916126c3565b7f3d7b646174617d0000000000000000000000000000000000000000000000000081520360181981018252600701612a19908261233d565b819e8f92612a2690612745565b9f612a3091612777565b52612a3b908d612777565b50919b9a9b6128ed565b634e487b7160e01b600052601260045260246000fd5b6001600160f81b03199c9b9c9998999081612a796110de8386612b2a565b51169181861b928d83850414831517156127545760001a612a9a848a612b2a565b53612ab5600f612aaa8487612b2a565b5160f81c1686612b2a565b51169185810180911161275457611144612ad39360001a9189612b2a565b9b9a9b989798612838565b806060602080938a010152016127d7565b600592506127ab565b90612b028261235f565b612b0f604051918261233d565b8281528092612b20601f199161235f565b0190602036910137565b908151811015612499570160200190565b15612b4257565b606460405162461bcd60e51b815260206004820152600860248201527f4f6e6c79204465760000000000000000000000000000000000000000000000006044820152fd5b818110612b91575050565b60008155600101612b86565b9190601f8111612bac57505050565b612bd8926000526020600020906020601f840160051c83019310612bda575b601f0160051c0190612b86565b565b9091508190612bcb565b90612cc857815180519067ffffffffffffffff82116122f757612c0b82611aaf85546124af565b602090601f8311600114612c5b57928260209360019360ff96600092612c50575b5050600019600383901b1c191690831b1781555b019201511660ff19825416179055565b015190503880612c2c565b90601f1983169184600052816000209260005b818110612cb057509360019360ff969385938360209810612c97575b505050811b018155612c40565b015160001960f88460031b161c19169055388080612c8a565b92936020600181928786015181550195019301612c6e565b634e487b7160e01b600052600060045260246000fd5b90808214612db957612cf081546124af565b9067ffffffffffffffff82116122f7578190612d1682612d1086546124af565b86612b9d565b600090601f8311600114612d4d57600092612d42575b50508160011b916000199060031b1c1916179055565b015490503880612d2c565b81526020808220858352818320935090601f1985169083905b828210612da0575050908460019594939210612d87575b505050811b019055565b015460001960f88460031b161c19169055388080612d7d565b8495819295850154815560018091019601940190612d66565b5050565b9081602091031261031b57516001600160a01b038116810361031b5790565b9093929384831161031b57841161031b578101920390565b6001600160f81b03199035818116939260018110612e1157505050565b60010360031b82901b16169150565b91909160408184031261031b5767ffffffffffffffff92813584811161031b5781612e4c9184016123b2565b93602083013590811161031b576123cd92016123b2565b8015612754576000190190565b15612e7757565b606460405162461bcd60e51b815260206004820152601060248201527f494e56414c49445f434845434b53554d000000000000000000000000000000006044820152fd5b8015612f25576000818181805b612f125750612ed681612af8565b935b612ee25750505090565b6000190190600a9060308282060160f81b6001600160f81b031916841a612f098487612b2a565b53049081612ed8565b91506001600a9101910480849291612ec8565b50604051612f32816122db565b600181527f300000000000000000000000000000000000000000000000000000000000000060208201529056fea264697066735822122098f8b47b7f9ce48c77d1ccb1522d95701f7769d312aa635c40bc0401759e07a964736f6c63430008120033",
    "linkReferences": {}
  },
  "methodIdentifiers": {
    "CCIPRead(bytes32,bytes,bytes,string)": "4d2bc5bc",
    "DefaultContenthash()": "69be8bb0",
    "ENS()": "1d2e2cc4",
    "Gateways(uint256)": "356a277a",
    "WRAPPER()": "e1eb13c1",
    "___contenthash(bytes,bytes)": "332a21de",
    "__callback(bytes,bytes)": "c55a5d59",
    "addGateway(string,uint8)": "eebc41c4",
    "approve(bytes32,address,bool)": "a4b91a01",
    "approved(bytes32,address)": "b984b2cd",
    "bytes2HexString(bytes,uint256)": "1c758b53",
    "contenthash(bytes32)": "bc1c58d1",
    "funcToFile(bytes4)": "e190ea65",
    "immolate()": "bf1e9c85",
    "owner()": "8da5cb5b",
    "randomGateways(bytes,string,uint256)": "d4a964f1",
    "removeGateway(uint256)": "e5dac703",
    "replaceGateway(uint256,string,uint8)": "2a005342",
    "resolve(bytes,bytes)": "9061b923",
    "roothash()": "251c9422",
    "safeWithdraw(address,uint256)": "5058c460",
    "setContenthash(bytes32,bytes)": "304e6ade",
    "signedBy(bytes32,bytes)": "06dcdc63",
    "supportsInterface(bytes4)": "01ffc9a7",
    "uintToNumString(uint256)": "78651988",
    "withdraw()": "3ccfd60b",
    "withdraw(address,uint256)": "f3fef3a3"
  },
  "id": 22
}