{
  "abi": [
    {
      "inputs": [],
      "stateMutability": "nonpayable",
      "type": "constructor"
    },
    {
      "inputs": [
        {
          "internalType": "string",
          "name": "_error",
          "type": "string"
        }
      ],
      "name": "InvalidSignature",
      "type": "error"
    },
    {
      "inputs": [
        {
          "internalType": "address",
          "name": "_from",
          "type": "address"
        },
        {
          "internalType": "string[]",
          "name": "_gateways",
          "type": "string[]"
        },
        {
          "internalType": "bytes",
          "name": "_data",
          "type": "bytes"
        },
        {
          "internalType": "bytes4",
          "name": "_callbackFunction",
          "type": "bytes4"
        },
        {
          "internalType": "bytes",
          "name": "_extraData",
          "type": "bytes"
        }
      ],
      "name": "OffchainLookup",
      "type": "error"
    },
    {
      "inputs": [],
      "name": "DefaultContenthash",
      "outputs": [
        {
          "internalType": "bytes",
          "name": "",
          "type": "bytes"
        }
      ],
      "stateMutability": "view",
      "type": "function"
    },
    {
      "inputs": [],
      "name": "ENS",
      "outputs": [
        {
          "internalType": "contract iENS",
          "name": "",
          "type": "address"
        }
      ],
      "stateMutability": "view",
      "type": "function"
    },
    {
      "inputs": [],
      "name": "ParentContenthash",
      "outputs": [
        {
          "internalType": "bytes",
          "name": "",
          "type": "bytes"
        }
      ],
      "stateMutability": "view",
      "type": "function"
    },
    {
      "inputs": [],
      "name": "WRAPPER",
      "outputs": [
        {
          "internalType": "contract iToken",
          "name": "",
          "type": "address"
        }
      ],
      "stateMutability": "view",
      "type": "function"
    },
    {
      "inputs": [
        {
          "internalType": "bytes",
          "name": "response",
          "type": "bytes"
        },
        {
          "internalType": "bytes",
          "name": "extraData",
          "type": "bytes"
        }
      ],
      "name": "___contenthash",
      "outputs": [
        {
          "internalType": "bytes",
          "name": "result",
          "type": "bytes"
        }
      ],
      "stateMutability": "view",
      "type": "function"
    },
    {
      "inputs": [
        {
          "internalType": "bytes",
          "name": "response",
          "type": "bytes"
        },
        {
          "internalType": "bytes",
          "name": "extraData",
          "type": "bytes"
        }
      ],
      "name": "__callback",
      "outputs": [
        {
          "internalType": "bytes",
          "name": "",
          "type": "bytes"
        }
      ],
      "stateMutability": "view",
      "type": "function"
    },
    {
      "inputs": [
        {
          "internalType": "bytes",
          "name": "_contenthash",
          "type": "bytes"
        }
      ],
      "name": "__lookup",
      "outputs": [],
      "stateMutability": "view",
      "type": "function"
    },
    {
      "inputs": [
        {
          "internalType": "bytes32",
          "name": "node",
          "type": "bytes32"
        },
        {
          "internalType": "address",
          "name": "_addr",
          "type": "address"
        }
      ],
      "name": "approved",
      "outputs": [
        {
          "internalType": "bool",
          "name": "",
          "type": "bool"
        }
      ],
      "stateMutability": "view",
      "type": "function"
    },
    {
      "inputs": [
        {
          "internalType": "bytes32",
          "name": "",
          "type": "bytes32"
        }
      ],
      "name": "contenthash",
      "outputs": [
        {
          "internalType": "bytes",
          "name": "",
          "type": "bytes"
        }
      ],
      "stateMutability": "view",
      "type": "function"
    },
    {
      "inputs": [
        {
          "internalType": "bytes4",
          "name": "",
          "type": "bytes4"
        }
      ],
      "name": "funcToFile",
      "outputs": [
        {
          "internalType": "string",
          "name": "",
          "type": "string"
        }
      ],
      "stateMutability": "view",
      "type": "function"
    },
    {
      "inputs": [],
      "name": "immolate",
      "outputs": [],
      "stateMutability": "nonpayable",
      "type": "function"
    },
    {
      "inputs": [
        {
          "internalType": "bytes32",
          "name": "digest",
          "type": "bytes32"
        },
        {
          "internalType": "bytes",
          "name": "signature",
          "type": "bytes"
        }
      ],
      "name": "isValid",
      "outputs": [
        {
          "internalType": "address",
          "name": "_signer",
          "type": "address"
        }
      ],
      "stateMutability": "pure",
      "type": "function"
    },
    {
      "inputs": [
        {
          "internalType": "bytes32",
          "name": "",
          "type": "bytes32"
        }
      ],
      "name": "manager",
      "outputs": [
        {
          "internalType": "bool",
          "name": "",
          "type": "bool"
        }
      ],
      "stateMutability": "view",
      "type": "function"
    },
    {
      "inputs": [],
      "name": "namehash",
      "outputs": [
        {
          "internalType": "bytes32",
          "name": "",
          "type": "bytes32"
        }
      ],
      "stateMutability": "view",
      "type": "function"
    },
    {
      "inputs": [],
      "name": "owner",
      "outputs": [
        {
          "internalType": "address payable",
          "name": "",
          "type": "address"
        }
      ],
      "stateMutability": "view",
      "type": "function"
    },
    {
      "inputs": [
        {
          "internalType": "bytes",
          "name": "name",
          "type": "bytes"
        },
        {
          "internalType": "bytes",
          "name": "data",
          "type": "bytes"
        }
      ],
      "name": "resolve",
      "outputs": [
        {
          "internalType": "bytes",
          "name": "",
          "type": "bytes"
        }
      ],
      "stateMutability": "view",
      "type": "function"
    },
    {
      "inputs": [],
      "name": "roothash",
      "outputs": [
        {
          "internalType": "bytes32",
          "name": "",
          "type": "bytes32"
        }
      ],
      "stateMutability": "view",
      "type": "function"
    },
    {
      "inputs": [
        {
          "internalType": "address",
          "name": "_token",
          "type": "address"
        },
        {
          "internalType": "uint256",
          "name": "_tokenID",
          "type": "uint256"
        }
      ],
      "name": "safeWithdraw",
      "outputs": [],
      "stateMutability": "nonpayable",
      "type": "function"
    },
    {
      "inputs": [
        {
          "internalType": "bytes32",
          "name": "node",
          "type": "bytes32"
        },
        {
          "internalType": "bytes",
          "name": "_contenthash",
          "type": "bytes"
        }
      ],
      "name": "setContenthash",
      "outputs": [],
      "stateMutability": "nonpayable",
      "type": "function"
    },
    {
      "inputs": [
        {
          "internalType": "bytes32",
          "name": "",
          "type": "bytes32"
        }
      ],
      "name": "signedContenthash",
      "outputs": [
        {
          "internalType": "bytes",
          "name": "",
          "type": "bytes"
        }
      ],
      "stateMutability": "view",
      "type": "function"
    },
    {
      "inputs": [
        {
          "internalType": "bytes4",
          "name": "interfaceID",
          "type": "bytes4"
        }
      ],
      "name": "supportsInterface",
      "outputs": [
        {
          "internalType": "bool",
          "name": "",
          "type": "bool"
        }
      ],
      "stateMutability": "pure",
      "type": "function"
    },
    {
      "inputs": [
        {
          "internalType": "uint256",
          "name": "value",
          "type": "uint256"
        }
      ],
      "name": "uintToNumString",
      "outputs": [
        {
          "internalType": "string",
          "name": "",
          "type": "string"
        }
      ],
      "stateMutability": "pure",
      "type": "function"
    },
    {
      "inputs": [],
      "name": "withdraw",
      "outputs": [],
      "stateMutability": "nonpayable",
      "type": "function"
    },
    {
      "inputs": [
        {
          "internalType": "address",
          "name": "_token",
          "type": "address"
        },
        {
          "internalType": "uint256",
          "name": "_balance",
          "type": "uint256"
        }
      ],
      "name": "withdraw",
      "outputs": [],
      "stateMutability": "nonpayable",
      "type": "function"
    }
  ],
  "bytecode": {
    "object": "0x610120604081815234620003a057306080526e0c2e074ec69a0dfb2997ba6c7d2e1e60a05273d4416b13d2b3a9abae7acd5d6c2bbdbe2568640160c052600060208381018281527f4f5b812789fc606be1b3b16908db13fc7a9adf7ca72641f84d75b47069d3d7f084860181905284865291946200007d81620003a5565b51902060e0526001620000918154620003d7565b601f81116200036f575b50605581558083528483207fe50101720024080112203c5aba6c9b5055a5fa12281c486188ed8ae2b6ef394b8155690f6606c0345e92d45cd760b21b90820155600254620000e990620003d7565b601f811162000340575b5090600391605560025560028452858420907fe50101720024080112206377fe7e59802cc7160886ef388d2eda7a1a6fbd48158255690c2a72ebc8875d1a008760b31b910155835185810191848352858201528481526200015481620003a5565b51902083518581019182527f988d085b7536499449d246e8d4658bac2fe4e2dcb8897682ec60319582db9cd5858201528481526200019281620003a5565b51902093610100948552631d9dabef60e11b8352818152838320620001c3620001bc8254620003d7565b8262000414565b600e660616464722d36360cc1b01905563c869023360e01b83528181528383208054620001f590620001bc90620003d7565b600c657075626b657960d01b01905563691f343160e01b808452828252848420906200022d620002268354620003d7565b8362000414565b6008636e616d6560e01b01809255845282825284842062000253620001bc8254620003d7565b55635c98042b60e01b83525281812062000272620001bc8254620003d7565b7f7a6f6e6568617368000000000000000000000000000000000000000000000010905580546001600160a01b031916331790555161268c91826200044f833960805182818161018b0152818161044b0152818161062001528181610e5401528181611246015281816115a60152818161180f015281816118de0152611ab7015260a05182818161076b01528181611b1d0152611e7d015260c051828181610351015281816107a60152611b70015260e051828181610bcd0152611e3a01525181818161090a01526119470152f35b600284526002601f878620920160051c820191015b818110620003645750620000f3565b848155820162000355565b818452816002601f888720930160051c830192015b828110620003945750506200009b565b85815501829062000384565b600080fd5b606081019081106001600160401b03821117620003c157604052565b634e487b7160e01b600052604160045260246000fd5b90600182811c9216801562000409575b6020831014620003f357565b634e487b7160e01b600052602260045260246000fd5b91607f1691620003e7565b601f821162000421575050565b6000908152601f60208220920160051c8201915b8281106200044257505050565b8181556001016200043556fe6080604081815260048036101561001557600080fd5b600092833560e01c90816301ffc9a714611ea1575080631d2e2cc414611e5d578063251c942214611e22578063304e6ade14611afe578063332a21de146118565780633ccfd60b146117ea5780634f309cb8146116085780635058c4601461154557806369be8bb01461152057806378651988146114ff5780638da5cb5b146114d95780639061b9231461092d57806391a08a48146108f25780639885e3b4146108c6578063b984b2cd14610726578063bc1c58d1146106f4578063bf1e9c8514610689578063c55a5d591461058d578063d5659ad3146103be578063e190ea6514610379578063e1eb13c114610331578063e5037fc81461025d578063ebf1cec1146102095763f3fef3a31461012b57600080fd5b8291346102055780600319360112610205576001600160a01b03918261014f612019565b169284541690833b156102015782517f23b872dd0000000000000000000000000000000000000000000000000000000081526001600160a01b037f00000000000000000000000000000000000000000000000000000000000000008116928201928352909216602082015260243560408201529092849184919082908490829060600103925af19081156101f857506101e55750f35b6101ee906121a2565b6101f55780f35b80fd5b513d84823e3d90fd5b8480fd5b5050fd5b50346102595760203660031901126102595790610243816102559461023c9435815260056020522082519384809261210c565b038361223c565b51918291602083526020830190611ff4565b0390f35b8280fd5b8284346101f557806003193601126101f5575080516000916002546102818161202f565b8084529060019081811690811561030957506001146102ac575b50506102438261025594038361223c565b6002600090815294507f405787fa12a823e0f2b7631cc41b3ba8828b3321ca811111fa75cd3aa3bb5ace5b8286106102f157505050918101602001916102438261029b565b805460208787018101919091529095019481016102d7565b610255965085925060209150926102439360ff191682840152151560051b820101945061029b565b505034610375578160031936011261037557602090516001600160a01b037f0000000000000000000000000000000000000000000000000000000000000000168152f35b5080fd5b503461025957602036600319011261025957356001600160e01b031981168091036102595790610243818461023c94610255965260036020522082519384809261210c565b509190346103755760206003199281843601126101f557843567ffffffffffffffff8111610375576103f390369087016122b1565b90835192610400846121cc565b6002845280840193610411856123d4565b610419612448565b610422826123f1565b5261042c816123f1565b506104356124a7565b61043e82612414565b5261044881612414565b507f00000000000000000000000000000000000000000000000000000000000000009260001943019043821161057a5750869493919896979597516104a78161049987878301958733914088612346565b03601f19810183528261223c565b519020938051944384870152818601528085526104c3856121cc565b51978896630556f18360e41b88526001600160a01b0360a4890193169088015260a060248801525180915260c486019160c48260051b88010197926000905b8382106105445788806105408a8a6105248f8c84878303016044880152611ff4565b9163199510ef60e11b6064860152848303016084850152611ff4565b0390fd5b91806105648196999b6001949698999b60c3199082030186528a51611ff4565b9801920192018997959492989698939193610502565b8060118b634e487b7160e01b6024945252fd5b5091346101f5576060906105a036611f8a565b908092949395918101031261037557803591600383019081841161067657610255876105e788886105e08989868a43111592836105fa575b505050612389565b369161227a565b9051918291602083526020830190611ff4565b61060691929350612323565b408151602081019182526bffffffffffffffffffffffff197f000000000000000000000000000000000000000000000000000000000000000060601b16838201523360601b6054820152602084013560688201526068815261066781612220565b519020910135148786816105d8565b80601189634e487b7160e01b6024945252fd5b5082346101f557806003193601126101f5576001600160a01b03905416918233036106b15782ff5b906020606492519162461bcd60e51b8352820152600960248201527f4e4f545f4f574e455200000000000000000000000000000000000000000000006044820152fd5b5034610259576020366003190112610259579061024381610255948461023c953582526020522082519384809261210c565b5091346101f557816003193601126101f5576001600160a01b0390833560243583811681036108c15784516302571be360e01b815282878201526020968782602481897f0000000000000000000000000000000000000000000000000000000000000000165afa9182156108b75785949392918991899793610898575b507f000000000000000000000000000000000000000000000000000000000000000088169783168814610823575b505060ff95508451918883019384526bffffffffffffffffffffffff19809260601b168684015260601b1660548201526048815261080e81612204565b51902081526006855220541690519015158152f35b84966024929496989593505194859384926331a9108f60e11b84528301525afa90811561088e5791859391859360ff9691610861575b5087386107d1565b6108819150883d8a11610887575b610879818361223c565b8101906122cf565b38610859565b503d61086f565b85513d86823e3d90fd5b6108b0919350823d841161088757610879818361223c565b91386107a3565b87513d87823e3d90fd5b600080fd5b5034610259576020366003190112610259578160209360ff923581526006855220541690519015158152f35b505034610375578160031936011261037557602090517f00000000000000000000000000000000000000000000000000000000000000008152f35b509190346103755761093e36611f8a565b929091946001958087116103755760f8918335831c978751996105608b019167ffffffffffffffff928c8110848211176114c4578a52602a8c528a9060005b8d61054082106114ae5750500192836001116101f5578484116101f557919996989790926109b160019836908a8a0161227a565b6109ba8d6123f1565b526109c48c6123f1565b506109ce8c6123f1565b519081905b8681101561149b57908d917fff0000000000000000000000000000000000000000000000000000000000000080828c01351615610b87579b809d9e9694928c8a819f858f918f6001610a2d9f9d9b99019e8f8487876122ee565b9290358181169360018110610b72575b5050501c016001019b610a51928d926122ee565b3690610a5c9261227a565b90610a679085612434565b52610a728d84612434565b50610a7d8d84612434565b5192825182516020938185808501920191610a9792611fd1565b8101948386017f2e00000000000000000000000000000000000000000000000000000000000000905281815160219788938288868401920191610ad992611fd1565b010360018101835201610aec908261223c565b9d610af691612434565b5191519382859351908184808701920191610b1092611fd1565b8301908282017f2f00000000000000000000000000000000000000000000000000000000000000905280518093868401920191610b4c92611fd1565b010360018101835201610b5f908261223c565b996001019b9a9991939b989092946109d3565b60010360031b82901b16169150388080610a3d565b5050965097945050879550888a60001980960193610ba5858b612434565b51998a516020809c01208a518c8101918483528c8201528b8152610bc8816121cc565b5190207f000000000000000000000000000000000000000000000000000000000000000014858811610259576001600160e01b03199687863516928280611472575b61119a575050507f59d1d43c000000000000000000000000000000000000000000000000000000008103610fe35750836024116101f557838301918a602319858503011261037557602484013590811161037557830190826043830112156101f55750908160446024610c80940135910161227a565b965b805195610c8e87612204565b6003875260005b606080821015610cac578882018c01528a01610c95565b50509089929189828a8151928151938c89840195808b840190610ccf9189611fd1565b8201928a84017f2e6c696d6f2f2e77656c6c2d6b6e6f776e2f000000000000000000000000000090528051918b8201926032958187820190610d119187611fd1565b0193878d827f2e6a736f6e3f743d7b646174617d00000000000000000000000000000000000097888a82015203908101835201610d4e908261223c565b610d57826123f1565b52610d61816123f1565b508651878d8289518c81848401610d7792611fd1565b81018281017f2e636173612f2e77656c6c2d6b6e6f776e2f00000000000000000000000000009052865190818b820190610db1918b611fd1565b01888a82015203908101835201610dc8908261223c565b610dd182612414565b52610ddb90612414565b5085519687955190818d8801610df092611fd1565b8501908b82017f2e6c696e6b2f2e77656c6c2d6b6e6f776e2f00000000000000000000000000009052519182858301610e2892611fd1565b019182015203868101835201610e3e908261223c565b610e4789612424565b52610e5188612424565b507f00000000000000000000000000000000000000000000000000000000000000009282519642603c900463ffffffff16603c0260e01b1685880152878752610e99876121e8565b610ea436878361227a565b858151910120953690610eb69261227a565b848151910120825190858201926bffffffffffffffffffffffff198660601b16845243014060348301523360601b6054830152606882015260688152610efb81612220565b519020815194438587015282860152606085015260608452610f1c84612204565b5194630556f18360e41b865260a48601916001600160a01b0316908601526024850160a09052855180915260c4850191808260051b870160c4019701926000905b838210610fb75787806105408989610f828e6003199384878303016044880152611ff4565b917fc55a5d59000000000000000000000000000000000000000000000000000000006064860152848303016084850152611ff4565b90919293978380610fd460019360c3198c82030186528c51611ff4565b9a019201920190939291610f5d565b9091507ff1cb7e060000000000000000000000000000000000000000000000000000000081036110425750826024116101f5575087602319828481010301126108c15761103b611036602483013561255c565b612506565b965b610c82565b7f2203ab560000000000000000000000000000000000000000000000000000000081036110df5750826024116101f5575087602319828481010301126108c15761108f602482013561255c565b61103b6024895180937f6162692d000000000000000000000000000000000000000000000000000000008d8301526110d08d82519283918686019101611fd1565b8101038781018452018261223c565b7f124a319c00000000000000000000000000000000000000000000000000000000810361112f5750826024116101f5575087602319828481010301126108c15761103b611036602483013561255c565b88826111529261114b9b945260038c52208251998a809261210c565b038961223c565b875161103d578489606492519162461bcd60e51b8352820152601d60248201527f5245534f4c5645525f46554e435f4e4f545f494d504c454d454e5445440000006044820152fd5b908c8b8f8b888e966111ac8782612434565b51848151910120865185810191848352888201528781526111cc816121cc565b5190209085886060995b6113f757505050508551156113a6575b505082516111f3816121cc565b6002815281810196611204886123d4565b1561136457611211612448565b61121a826123f1565b52611224816123f1565b5061122d6124a7565b61123682612414565b5261124081612414565b509190917f0000000000000000000000000000000000000000000000000000000000000000918451848101916bffffffffffffffffffffffff198560601b16835243014060348201523360601b60548201526112ba60688289516112aa818c8b8686019101611fd1565b810103604881018452018261223c565b519020938051944385870152818601528085526112d6856121cc565b5195630556f18360e41b87526001600160a01b0360a4880193169087015260a060248701525180915260c485019160c48260051b87010196926000905b83821061133857878061054089896105248e6003199384878303016044880152611ff4565b9091929397838061135560019360c3198c82030186528c51611ff4565b9a019201920190939291611313565b6064868386519162461bcd60e51b8352820152600c60248201527f4e4f545f4554485f524f4f5400000000000000000000000000000000000000006044820152fd5b5090935085156113cf5750815183808201526113c781610499858201612069565b9286806111e6565b825190603c63ffffffff814204160260e01b16848201528481526113f2816121e8565b6113c7565b01916114038383612434565b5186815191012088519087820192835289820152888152611423816121cc565b519020918284528986526114398885205461202f565b611446575b8087916111d6565b97508183528885528761049961146b8986208a519283918a808401528c83019061210c565b985061143e565b507fbc1c58d1000000000000000000000000000000000000000000000000000000008414610c0a565b602485603288634e487b7160e01b835252fd5b6020809394508260609201015201908b9161097d565b604183634e487b7160e01b6000525260246000fd5b5050346103755781600319360112610375576001600160a01b0360209254169051908152f35b5091346101f55760203660031901126101f557506105e7610255923561255c565b5050346103755781600319360112610375578051610255916102438261023c81612069565b509034610259578060031936011261025957826001600160a01b03928361156a612019565b169382541693803b156102595783517f42842e0e0000000000000000000000000000000000000000000000000000000081526001600160a01b037f0000000000000000000000000000000000000000000000000000000000000000811693820193845290951660208301526024356040830152849182908490829060600103925af19081156101f857506115fc575080f35b611605906121a2565b80f35b5090346102595761161836611f56565b602095929181871161173d57604182036117415781851161173d5760ff6116498883013593603f1901878401612306565b165b7f7fffffffffffffffffffffffffffffff5d576e7357a4501ddfe92f46681b20a083116116fa57855193845260ff1683880152358285015260608201528180528490829060809060015afa156116ef57516001600160a01b03169182156116b3575051908152f35b610540915191829163151a7bff60e11b8352820160609060208152600d60208201526c4241445f5349474e415455524560981b60408201520190565b9051903d90823e3d90fd5b6064878988519163151a7bff60e11b8352820152600c60248201527f5349475f4f564552464c4f5700000000000000000000000000000000000000006044820152fd5b8380fd5b908481036117a75761175990601f1901828801612306565b907f7fffffffffffffffffffffffffffffffffffffffffffffffffffffffffffffff82169160ff1c601b81018091116117945760ff1661164b565b602485601189634e487b7160e01b835252fd5b6064868887519163151a7bff60e11b8352820152600e60248201527f4241445f5349475f4c454e4754480000000000000000000000000000000000006044820152fd5b505034610375578160031936011261037557818080806001600160a01b0380825416907f000000000000000000000000000000000000000000000000000000000000000016319082821561184d575bf115611843575080f35b51903d90823e3d90fd5b506108fc611839565b5090346102595761186636611f8a565b90828611611a4d5783356001600160e01b03191663199510ef60e11b03611a515750508101908260031982840301126102015767ffffffffffffffff81850135818111611a4d5783866118bb928501016122b1565b906024830135908111611a4d576119d793866118db9260209501016122b1565b907f000000000000000000000000000000000000000000000000000000000000000090855161198d605682878101947f190000000000000000000000000000000000000000000000000000000000000086526bffffffffffffffffffffffff198760601b1660228301527f0000000000000000000000000000000000000000000000000000000000000000603683015261197d815180928b8686019101611fd1565b810103603681018452018261223c565b5190206001600160a01b0386518096819582947f4f309cb80000000000000000000000000000000000000000000000000000000084528b8401528960248401526044830190611ff4565b0392165afa8015611a43576105409450611a25575b505191829163151a7bff60e11b8352820160609060208152600d60208201526c4241445f5349474e415455524560981b60408201520190565b611a3c9060203d811161088757610879818361223c565b50386119ec565b82513d86823e3d90fd5b8680fd5b611a6285929697948294369161227a565b9581010312610375578035916001830190818411611aeb5761025586866102438787874311159182611a96575b5050612389565b6020919250611aa490612323565b408451611add81610499898683019533907f00000000000000000000000000000000000000000000000000000000000000009088612346565b519020910135148580611a8f565b80601188634e487b7160e01b6024945252fd5b5082903461037557611b0f36611f56565b91946001600160a01b0395867f000000000000000000000000000000000000000000000000000000000000000016968251976302571be360e01b895282878a01526020988981602481855afa908115611dfb578a9184918b91611e05575b507f000000000000000000000000000000000000000000000000000000000000000082168183168114611da7575b50163314928315611d12575b50505015611cd057855283865284209267ffffffffffffffff8311611cbd5750611bd1835461202f565b601f8111611c7a575b508394601f8311600114611c17575093839482939492611c0c575b50508160011b916000199060031b1c191617905580f35b013590508480611bf5565b90601f198316958486528286209286905b888210611c6257505083600195969710611c48575b505050811b01905580f35b0135600019600384901b60f8161c19169055848080611c3d565b80600184968294958701358155019501920190611c28565b838552858520601f840160051c810191878510611cb3575b601f0160051c01905b818110611ca85750611bda565b858155600101611c9b565b9091508190611c92565b846041602492634e487b7160e01b835252fd5b6064858884519162461bcd60e51b8352820152600a60248201527f4f4e4c595f4f574e4552000000000000000000000000000000000000000000006044820152fd5b9091925088541660448551809481937fe985e9c50000000000000000000000000000000000000000000000000000000083528b8301523360248301525afa908115611d9d578791611d67575b50888881611ba7565b90508781813d8311611d96575b611d7e818361223c565b81010312611a4d57518015158103611a4d5788611d5e565b503d611d74565b83513d89823e3d90fd5b905060249291508651928380926331a9108f60e11b8252888d8301525afa908115611dfb578a9184918b91611dde575b508c611b9b565b611df59150833d851161088757610879818361223c565b8c611dd7565b85513d8b823e3d90fd5b611e1c9150833d851161088757610879818361223c565b8c611b6d565b505034610375578160031936011261037557602090517f00000000000000000000000000000000000000000000000000000000000000008152f35b505034610375578160031936011261037557602090516001600160a01b037f0000000000000000000000000000000000000000000000000000000000000000168152f35b9250503461025957602036600319011261025957356001600160e01b0319811680910361025957602092507f9061b923000000000000000000000000000000000000000000000000000000008114908115611efe575b5015158152f35b7f01ffc9a70000000000000000000000000000000000000000000000000000000091501438611ef7565b9181601f840112156108c15782359167ffffffffffffffff83116108c157602083818601950101116108c157565b9060406003198301126108c157600435916024359067ffffffffffffffff82116108c157611f8691600401611f28565b9091565b60406003198201126108c15767ffffffffffffffff916004358381116108c15782611fb791600401611f28565b939093926024359182116108c157611f8691600401611f28565b60005b838110611fe45750506000910152565b8181015183820152602001611fd4565b9060209161200d81518092818552858086019101611fd1565b601f01601f1916010190565b600435906001600160a01b03821682036108c157565b90600182811c9216801561205f575b602083101461204957565b634e487b7160e01b600052602260045260246000fd5b91607f169161203e565b9060009160019081549161207c8361202f565b808352928181169081156120ef575060011461209757505050565b80929394506000527fb10e2d527612073b26eecdfd717e6a320cf44b4afac2b0732d9fcbe2b7fa0cf6916000925b8484106120d757505060209250010190565b805460208585018101919091529093019281016120c5565b915050602093945060ff929192191683830152151560051b010190565b906000929180549161211d8361202f565b91828252600193848116908160001461217f575060011461213f575b50505050565b90919394506000526020928360002092846000945b83861061216b575050505001019038808080612139565b805485870183015294019385908201612154565b9294505050602093945060ff191683830152151560051b01019038808080612139565b67ffffffffffffffff81116121b657604052565b634e487b7160e01b600052604160045260246000fd5b6060810190811067ffffffffffffffff8211176121b657604052565b6040810190811067ffffffffffffffff8211176121b657604052565b6080810190811067ffffffffffffffff8211176121b657604052565b60a0810190811067ffffffffffffffff8211176121b657604052565b90601f8019910116810190811067ffffffffffffffff8211176121b657604052565b67ffffffffffffffff81116121b657601f01601f191660200190565b9291926122868261225e565b91612294604051938461223c565b8294818452818301116108c1578281602093846000960137010152565b9080601f830112156108c1578160206122cc9335910161227a565b90565b908160209103126108c157516001600160a01b03811681036108c15790565b909392938483116108c15784116108c1578101920390565b359060208110612314575090565b6000199060200360031b1b1690565b8015612330576000190190565b634e487b7160e01b600052601160045260246000fd5b9190926048949383526bffffffffffffffffffffffff19809260601b16602084015260601b1660348201526123848251809360208685019101611fd1565b010190565b1561239057565b606460405162461bcd60e51b815260206004820152601060248201527f494e56414c49445f434845434b53554d000000000000000000000000000000006044820152fd5b60005b604081106123e3575050565b6060828201526020016123d7565b8051156123fe5760200190565b634e487b7160e01b600052603260045260246000fd5b8051600110156123fe5760400190565b8051600210156123fe5760600190565b80518210156123fe5760209160051b010190565b60405190612455826121cc565b602182527f7d000000000000000000000000000000000000000000000000000000000000006040837f646174613a746578742f706c61696e2c7b2264617461223a227b646174617d2260208201520152565b604051906124b4826121cc565b602782527f646174617d227d000000000000000000000000000000000000000000000000006040837f646174613a6170706c69636174696f6e2f6a736f6e2c7b2264617461223a227b60208201520152565b9061255a602560405180947f616464722d000000000000000000000000000000000000000000000000000000602083015261254a8151809260208686019101611fd1565b810103600581018552018361223c565b565b801561261c57806000928184925b61260d57506125788261225e565b91612586604051938461223c565b808352601f196125958261225e565b013660208501375b80841561260457600019019383518510156125f057600a91601f7fff0000000000000000000000000000000000000000000000000000000000000084840660300160f81b16881a9186010153049261259d565b602486634e487b7160e01b81526032600452fd5b50509250905090565b916001600a910192048061256a565b50604051612629816121e8565b600181527f300000000000000000000000000000000000000000000000000000000000000060208201529056fea2646970667358221220bbe5400174497661c08e99fe8701a940667f1c1e4f58de9dc753e9b7cd43a99d64736f6c63430008120033",
    "linkReferences": {}
  },
  "methodIdentifiers": {
    "DefaultContenthash()": "69be8bb0",
    "ENS()": "1d2e2cc4",
    "ParentContenthash()": "e5037fc8",
    "WRAPPER()": "e1eb13c1",
    "___contenthash(bytes,bytes)": "332a21de",
    "__callback(bytes,bytes)": "c55a5d59",
    "__lookup(bytes)": "d5659ad3",
    "approved(bytes32,address)": "b984b2cd",
    "contenthash(bytes32)": "bc1c58d1",
    "funcToFile(bytes4)": "e190ea65",
    "immolate()": "bf1e9c85",
    "isValid(bytes32,bytes)": "4f309cb8",
    "manager(bytes32)": "9885e3b4",
    "namehash()": "91a08a48",
    "owner()": "8da5cb5b",
    "resolve(bytes,bytes)": "9061b923",
    "roothash()": "251c9422",
    "safeWithdraw(address,uint256)": "5058c460",
    "setContenthash(bytes32,bytes)": "304e6ade",
    "signedContenthash(bytes32)": "ebf1cec1",
    "supportsInterface(bytes4)": "01ffc9a7",
    "uintToNumString(uint256)": "78651988",
    "withdraw()": "3ccfd60b",
    "withdraw(address,uint256)": "f3fef3a3"
  },
  "id": 18
}