{
  "abi": [
    {
      "inputs": [],
      "stateMutability": "nonpayable",
      "type": "constructor"
    },
    {
      "inputs": [
        {
          "internalType": "bytes1",
          "name": "_type",
          "type": "bytes1"
        }
      ],
      "name": "ContenthashNotImplemented",
      "type": "error"
    },
    {
      "inputs": [
        {
          "internalType": "bytes32",
          "name": "_node",
          "type": "bytes32"
        }
      ],
      "name": "ContenthashNotSet",
      "type": "error"
    },
    {
      "inputs": [
        {
          "internalType": "string",
          "name": "_error",
          "type": "string"
        }
      ],
      "name": "InvalidSignature",
      "type": "error"
    },
    {
      "inputs": [
        {
          "internalType": "address",
          "name": "_addr",
          "type": "address"
        },
        {
          "internalType": "string[]",
          "name": "_gateways",
          "type": "string[]"
        },
        {
          "internalType": "bytes",
          "name": "_data",
          "type": "bytes"
        },
        {
          "internalType": "bytes4",
          "name": "_callbackFunction",
          "type": "bytes4"
        },
        {
          "internalType": "bytes",
          "name": "_extradata",
          "type": "bytes"
        }
      ],
      "name": "OffchainLookup",
      "type": "error"
    },
    {
      "inputs": [
        {
          "internalType": "bytes4",
          "name": "func",
          "type": "bytes4"
        }
      ],
      "name": "ResolverFunctionNotImplemented",
      "type": "error"
    },
    {
      "anonymous": false,
      "inputs": [
        {
          "indexed": true,
          "internalType": "string",
          "name": "domain",
          "type": "string"
        }
      ],
      "name": "AddGateway",
      "type": "event"
    },
    {
      "anonymous": false,
      "inputs": [
        {
          "indexed": true,
          "internalType": "string",
          "name": "domain",
          "type": "string"
        }
      ],
      "name": "RemoveGateway",
      "type": "event"
    },
    {
      "anonymous": false,
      "inputs": [
        {
          "indexed": true,
          "internalType": "address",
          "name": "_new",
          "type": "address"
        },
        {
          "indexed": true,
          "internalType": "bool",
          "name": "_ok",
          "type": "bool"
        }
      ],
      "name": "UpdateWrapper",
      "type": "event"
    },
    {
      "inputs": [],
      "name": "ENS",
      "outputs": [
        {
          "internalType": "contract iENS",
          "name": "",
          "type": "address"
        }
      ],
      "stateMutability": "view",
      "type": "function"
    },
    {
      "inputs": [
        {
          "internalType": "uint256",
          "name": "",
          "type": "uint256"
        }
      ],
      "name": "Gateways",
      "outputs": [
        {
          "internalType": "string",
          "name": "",
          "type": "string"
        }
      ],
      "stateMutability": "view",
      "type": "function"
    },
    {
      "inputs": [
        {
          "internalType": "bytes",
          "name": "response",
          "type": "bytes"
        },
        {
          "internalType": "bytes",
          "name": "extradata",
          "type": "bytes"
        }
      ],
      "name": "__callback",
      "outputs": [
        {
          "internalType": "bytes",
          "name": "result",
          "type": "bytes"
        }
      ],
      "stateMutability": "view",
      "type": "function"
    },
    {
      "inputs": [
        {
          "internalType": "string",
          "name": "_domain",
          "type": "string"
        }
      ],
      "name": "addGateway",
      "outputs": [],
      "stateMutability": "nonpayable",
      "type": "function"
    },
    {
      "inputs": [
        {
          "internalType": "string[]",
          "name": "_domains",
          "type": "string[]"
        }
      ],
      "name": "addGateways",
      "outputs": [],
      "stateMutability": "nonpayable",
      "type": "function"
    },
    {
      "inputs": [
        {
          "internalType": "bytes32",
          "name": "_node",
          "type": "bytes32"
        },
        {
          "internalType": "address",
          "name": "_signer",
          "type": "address"
        },
        {
          "internalType": "bool",
          "name": "_approved",
          "type": "bool"
        }
      ],
      "name": "approve",
      "outputs": [],
      "stateMutability": "nonpayable",
      "type": "function"
    },
    {
      "inputs": [
        {
          "internalType": "bytes32",
          "name": "_node",
          "type": "bytes32"
        },
        {
          "internalType": "address",
          "name": "_signer",
          "type": "address"
        }
      ],
      "name": "approved",
      "outputs": [
        {
          "internalType": "bool",
          "name": "",
          "type": "bool"
        }
      ],
      "stateMutability": "view",
      "type": "function"
    },
    {
      "inputs": [
        {
          "internalType": "bytes",
          "name": "_buffer",
          "type": "bytes"
        },
        {
          "internalType": "uint256",
          "name": "_start",
          "type": "uint256"
        }
      ],
      "name": "bytesToString",
      "outputs": [
        {
          "internalType": "string",
          "name": "",
          "type": "string"
        }
      ],
      "stateMutability": "pure",
      "type": "function"
    },
    {
      "inputs": [
        {
          "internalType": "bytes32",
          "name": "",
          "type": "bytes32"
        }
      ],
      "name": "contenthash",
      "outputs": [
        {
          "internalType": "bytes",
          "name": "",
          "type": "bytes"
        }
      ],
      "stateMutability": "view",
      "type": "function"
    },
    {
      "inputs": [
        {
          "internalType": "bytes4",
          "name": "",
          "type": "bytes4"
        }
      ],
      "name": "funcToFile",
      "outputs": [
        {
          "internalType": "string",
          "name": "",
          "type": "string"
        }
      ],
      "stateMutability": "view",
      "type": "function"
    },
    {
      "inputs": [],
      "name": "immolate",
      "outputs": [],
      "stateMutability": "nonpayable",
      "type": "function"
    },
    {
      "inputs": [
        {
          "internalType": "address",
          "name": "",
          "type": "address"
        }
      ],
      "name": "isWrapper",
      "outputs": [
        {
          "internalType": "bool",
          "name": "",
          "type": "bool"
        }
      ],
      "stateMutability": "view",
      "type": "function"
    },
    {
      "inputs": [],
      "name": "listAllGateways",
      "outputs": [
        {
          "internalType": "string[]",
          "name": "list",
          "type": "string[]"
        }
      ],
      "stateMutability": "view",
      "type": "function"
    },
    {
      "inputs": [
        {
          "internalType": "bytes32",
          "name": "",
          "type": "bytes32"
        }
      ],
      "name": "manager",
      "outputs": [
        {
          "internalType": "bool",
          "name": "",
          "type": "bool"
        }
      ],
      "stateMutability": "view",
      "type": "function"
    },
    {
      "inputs": [],
      "name": "owner",
      "outputs": [
        {
          "internalType": "address payable",
          "name": "",
          "type": "address"
        }
      ],
      "stateMutability": "view",
      "type": "function"
    },
    {
      "inputs": [
        {
          "internalType": "bytes",
          "name": "_ipns",
          "type": "bytes"
        },
        {
          "internalType": "string",
          "name": "_path",
          "type": "string"
        },
        {
          "internalType": "uint256",
          "name": "k",
          "type": "uint256"
        }
      ],
      "name": "randomGateways",
      "outputs": [
        {
          "internalType": "string[]",
          "name": "gateways",
          "type": "string[]"
        }
      ],
      "stateMutability": "view",
      "type": "function"
    },
    {
      "inputs": [
        {
          "internalType": "uint256",
          "name": "_index",
          "type": "uint256"
        }
      ],
      "name": "removeGateway",
      "outputs": [],
      "stateMutability": "nonpayable",
      "type": "function"
    },
    {
      "inputs": [
        {
          "internalType": "uint256[]",
          "name": "_indexes",
          "type": "uint256[]"
        }
      ],
      "name": "removeGateways",
      "outputs": [],
      "stateMutability": "nonpayable",
      "type": "function"
    },
    {
      "inputs": [
        {
          "internalType": "uint256",
          "name": "_index",
          "type": "uint256"
        },
        {
          "internalType": "string",
          "name": "_domain",
          "type": "string"
        }
      ],
      "name": "replaceGateway",
      "outputs": [],
      "stateMutability": "nonpayable",
      "type": "function"
    },
    {
      "inputs": [
        {
          "internalType": "uint256[]",
          "name": "_indexes",
          "type": "uint256[]"
        },
        {
          "internalType": "string[]",
          "name": "_domains",
          "type": "string[]"
        }
      ],
      "name": "replaceGateways",
      "outputs": [],
      "stateMutability": "nonpayable",
      "type": "function"
    },
    {
      "inputs": [
        {
          "internalType": "bytes",
          "name": "name",
          "type": "bytes"
        },
        {
          "internalType": "bytes",
          "name": "data",
          "type": "bytes"
        }
      ],
      "name": "resolve",
      "outputs": [
        {
          "internalType": "bytes",
          "name": "",
          "type": "bytes"
        }
      ],
      "stateMutability": "view",
      "type": "function"
    },
    {
      "inputs": [
        {
          "internalType": "address",
          "name": "_token",
          "type": "address"
        },
        {
          "internalType": "uint256",
          "name": "_id",
          "type": "uint256"
        }
      ],
      "name": "safeWithdraw",
      "outputs": [],
      "stateMutability": "nonpayable",
      "type": "function"
    },
    {
      "inputs": [
        {
          "internalType": "bytes32",
          "name": "_node",
          "type": "bytes32"
        },
        {
          "internalType": "bytes",
          "name": "_contenthash",
          "type": "bytes"
        }
      ],
      "name": "setContenthash",
      "outputs": [],
      "stateMutability": "nonpayable",
      "type": "function"
    },
    {
      "inputs": [
        {
          "internalType": "bytes32",
          "name": "digest",
          "type": "bytes32"
        },
        {
          "internalType": "bytes",
          "name": "signature",
          "type": "bytes"
        }
      ],
      "name": "signedBy",
      "outputs": [
        {
          "internalType": "address",
          "name": "_addr",
          "type": "address"
        }
      ],
      "stateMutability": "pure",
      "type": "function"
    },
    {
      "inputs": [
        {
          "internalType": "bytes4",
          "name": "interfaceID",
          "type": "bytes4"
        }
      ],
      "name": "supportsInterface",
      "outputs": [
        {
          "internalType": "bool",
          "name": "",
          "type": "bool"
        }
      ],
      "stateMutability": "pure",
      "type": "function"
    },
    {
      "inputs": [
        {
          "internalType": "address",
          "name": "_addr",
          "type": "address"
        }
      ],
      "name": "toChecksumAddress",
      "outputs": [
        {
          "internalType": "string",
          "name": "",
          "type": "string"
        }
      ],
      "stateMutability": "pure",
      "type": "function"
    },
    {
      "inputs": [
        {
          "internalType": "uint256",
          "name": "value",
          "type": "uint256"
        }
      ],
      "name": "uintToString",
      "outputs": [
        {
          "internalType": "string",
          "name": "",
          "type": "string"
        }
      ],
      "stateMutability": "pure",
      "type": "function"
    },
    {
      "inputs": [
        {
          "internalType": "address",
          "name": "_addr",
          "type": "address"
        },
        {
          "internalType": "bool",
          "name": "_set",
          "type": "bool"
        }
      ],
      "name": "updateWrapper",
      "outputs": [],
      "stateMutability": "nonpayable",
      "type": "function"
    },
    {
      "inputs": [
        {
          "internalType": "address[]",
          "name": "_addrs",
          "type": "address[]"
        },
        {
          "internalType": "bool[]",
          "name": "_sets",
          "type": "bool[]"
        }
      ],
      "name": "updateWrappers",
      "outputs": [],
      "stateMutability": "nonpayable",
      "type": "function"
    },
    {
      "inputs": [],
      "name": "withdraw",
      "outputs": [],
      "stateMutability": "nonpayable",
      "type": "function"
    },
    {
      "inputs": [
        {
          "internalType": "address",
          "name": "_token",
          "type": "address"
        },
        {
          "internalType": "uint256",
          "name": "_balance",
          "type": "uint256"
        }
      ],
      "name": "withdraw",
      "outputs": [],
      "stateMutability": "nonpayable",
      "type": "function"
    }
  ],
  "bytecode": {
    "object": "0x604060c08152346200034957306080526e0c2e074ec69a0dfb2997ba6c7d2e1e60a0526000631d9dabef60e11b81526020600281528282206200004e6200004782546200034e565b826200038b565b7f5f616464726573732f3630000000000000000000000000000000000000000016905563c869023360e01b8252600281528282208054620000949062000047906200034e565b600c657075626b657960d01b01905563691f343160e01b8252600281528282208054620000c69062000047906200034e565b6008636e616d6560e01b01905563bc1c58d160e01b8252600281528282208054620000f69062000047906200034e565b7f636f6e74656e74686173680000000000000000000000000000000000000000169055635c98042b60e01b82526002815282822080546200013c9062000047906200034e565b7f5f646e732f7a6f6e65686173680000000000000000000000000000000000001a905581546001600160a01b031916331782556001805468010000000000000000949193919085811015620003355780856200019b92018655620003c5565b620003215780620001b362000047600993546200034e565b7f647765622e6c696e6b00000000000000000000000000000000000000000000129055815168647765622e6c696e6b60b81b8152207f7a9f387a9d3844b91ba19679387fe32e833e4311fec98471b6df53b9855e3f479590868480a2845490811015620003355780856200022a92018655620003c5565b62000321579060078262000265620000477f8ea51d3bcf70e647a0bb1312a2a0fa7fbc0c51fb47325275912a75c257c082639695546200034e565b600e66697066732e696f60c81b019055815166697066732e696f60c81b8152208151968380a2600573d4416b13d2b3a9abae7acd5d6c2bbdbe25686401948584525281208460ff1982541617905580a3613c419081620003f882396080518181816101d80152818161085101528181610bab015281816113ec01528181611bfb015281816120a8015261212a015260a0518181816108a501528181610cd001528181610f0b01528181611bc7015281816121f601526127be0152f35b634e487b7160e01b83526004839052602483fd5b634e487b7160e01b83526041600452602483fd5b600080fd5b90600182811c9216801562000380575b60208310146200036a57565b634e487b7160e01b600052602260045260246000fd5b91607f16916200035e565b601f821162000398575050565b6000908152601f60208220920160051c8201915b828110620003b957505050565b818155600101620003ac565b600154811015620003e157600160005260206000200190600090565b634e487b7160e01b600052603260045260246000fdfe6080604081815260048036101561001557600080fd5b600092833560e01c90816301ffc9a714612b105750806306dcdc6314612916578063084ac40a146127e25780631d2e2cc41461279e57806321d6e7dd146126e75780633012157014612593578063304e6ade146121be578063356a277a146121705780633ccfd60b146121075780635058c460146120475780635d1219d514611f1b578063814b745614611e8857806382adc20814611d415780638384976f14611cac5780638da5cb5b14611c865780639061b9231461111a5780639885e3b4146110ef578063a4b91a0114610eb9578063acc0f7b114610e19578063b984b2cd14610c8d578063bc1c58d114610c64578063bf1e9c8514610bf9578063c55a5d59146104ee578063cf135352146104c7578063d4a964f11461045a578063d63a4801146103cb578063e0aa27971461038f578063e190ea6514610355578063e5dac7031461028e578063e9395679146102565763f3fef3a31461017857600080fd5b8291346102525780600319360112610252576001600160a01b03918261019c612ef4565b169284541690833b1561024e5782517f23b872dd0000000000000000000000000000000000000000000000000000000081526001600160a01b037f00000000000000000000000000000000000000000000000000000000000000008116928201928352909216602082015260243560408201529092849184919082908490829060600103925af190811561024557506102325750f35b61023b90612ce3565b6102425780f35b80fd5b513d84823e3d90fd5b8480fd5b5050fd5b509134610242576020366003190112610242575061027761028a923561393f565b9051918291602083526020830190612ecf565b0390f35b50829034610351576020366003190112610351578035906102ba6001600160a01b03845416331461345b565b6102e2600154946102cd6001871161364c565b6102d684612d7f565b50905191828092613045565b0390207fd94fae538c4428e7bd1e4fa66b93ad367b2c5bbbc9d0dae73a21526257361ff48480a2600019840193841161033e575061032d6103266103339394612d7f565b5091612d7f565b90613774565b61033b613783565b80f35b826011602492634e487b7160e01b835252fd5b5080fd5b505034610351576020366003190112610351576102778161028a936001600160e01b0319610381612bdd565b168152600260205220612e06565b5050346103515760203660031901126103515760ff816020936001600160a01b036103b8612ef4565b1681526005855220541690519015158152f35b50346104565760203660031901126104565780359067ffffffffffffffff8211610452576103fb91369101612c09565b80926104126001600160a01b03865416331461345b565b61041c82846135e1565b5192839283378101600081520390207f7a9f387a9d3844b91ba19679387fe32e833e4311fec98471b6df53b9855e3f478280a280f35b8380fd5b8280fd5b50346104565760603660031901126104565767ffffffffffffffff813581811161024e5761048b9036908401612fcf565b936024359182116102425750926104ab6104b49261028a95369101612fcf565b6044359161310e565b9051918291602083526020830190612f20565b5050346103515760203660031901126103515761028a906102776104e9612ef4565b6139e3565b50919034610351576104ff36612fed565b92959281019490919060c083870312610242578235956020968785013593610528888701612bf4565b5067ffffffffffffffff956060810135878111610b2d578461054b918301612fcf565b936080820135888111610bf55790610564918301612fcf565b9260038101808211610be2574311159190858c868d86610b91575b50505050505015610b4f578087116104525789356001600160e01b03191663c55a5d5960e01b03610b31578901986060818b036003190112610452578681013586811161024e578a886105d492840101612fcf565b9960249687830135908111610b2d57604491896105f392850101612fcf565b910135916001600160a01b0393848416809403610b2d5790898b928d8481519101208251908582015284815261062881612d29565b6106319061339d565b61063a876139e3565b908351948593878501957f52657175657374696e67207369676e617475726520666f72206f66662d636861875285017f696e20454e53207265636f72640a0a00000000000000000000000000000000009052604f85017f0a454e5320446f6d61696e3a200000000000000000000000000000000000000090528051908189605c88019201916106c892612eac565b8401605c81017f0a5265636f726420547970653a2000000000000000000000000000000000000090528151918289606a840192019161070692612eac565b01606a81017f0a5265636f726420486173683a2030780000000000000000000000000000000090528151918288607a840192019161074392612eac565b01607a81017f0a5369676e65642042793a206569703135353a313a000000000000000000000090528151918287608f840192019161078092612eac565b0103606f81018352608f016107959083612d45565b81516107a09061393f565b918b51918291858301947f19457468657265756d205369676e6564204d6573736167653a0a00000000000086528051908188603a87019201916107e292612eac565b830190519182603a83016107f592612eac565b0103601a81018252603a0161080a9082612d45565b5190208951809381927f06dcdc630000000000000000000000000000000000000000000000000000000083528b8301528b8a8301526044820161084c91612ecf565b0381867f0000000000000000000000000000000000000000000000000000000000000000165afa908115610aa5579083918591610b10575b50168103610ace578651916302571be360e01b8352848784015288838781847f0000000000000000000000000000000000000000000000000000000000000000165afa928315610aa5579084939291899593610aaf575b50868a8285168087526005825260ff8888205416610a3d575b505050821681149485156109d5575b50841561096a575b505050501561092a57505061028a905b51928284938452830190612ecf565b606493601b9293519362461bcd60e51b85528401528201527f4f4e4c595f4f574e45522f4d414e414745525f43414e5f5349474e00000000006044820152fd5b8351691b585b9859d94b585b1b60b21b8a82019081526bffffffffffffffffffffffff19606094851b8116600a8301529290931b909116601e83015260ff94506109c181603284015b03601f198101835282612d45565b51902081528487522054168338808061090b565b8451696d616e6167652d6f6e6560b01b8b8201908152600a8101929092526bffffffffffffffffffffffff19606085811b8216602a85015284901b16603e83015291955090610a2781605284016109b3565b519020825285885260ff83832054169338610903565b9193945091949551928380926331a9108f60e11b8252898c8301525afa908115610aa5579084939291899591610a78575b5091868a386108f4565b610a9891508a3d8c11610a9e575b610a908183612d45565b810190613885565b38610a6e565b503d610a86565b88513d86823e3d90fd5b610ac79193508a3d8c11610a9e57610a908183612d45565b91386108db565b606486600a878b8b519363151a7bff60e11b85528401528201527f4241445f5349474e4552000000000000000000000000000000000000000000006044820152fd5b610b2791508a3d8c11610a9e57610a908183612d45565b38610884565b8580fd5b9350505050610b49925061028a939591503691612f98565b9261091b565b6064878a8a519162461bcd60e51b8352820152601860248201527f494e56414c49445f434845434b53554d2f54494d454f555400000000000000006044820152fd5b60a0959650610bd092916109b391519485938401963390407f0000000000000000000000000000000000000000000000000000000000000000896138e8565b519020910135143880858c868d61057f565b60248760118c634e487b7160e01b835252fd5b8680fd5b5082346102425780600319360112610242576001600160a01b0390541691823303610c215782ff5b906020606492519162461bcd60e51b8352820152600960248201527f4e4f545f4f574e455200000000000000000000000000000000000000000000006044820152fd5b5034610456576020366003190112610456578161028a9361027792358152600360205220612e06565b509134610242578160031936011261024257823590610caa612f0a565b938351926302571be360e01b845280828501526020956001600160a01b038786602481847f0000000000000000000000000000000000000000000000000000000000000000165afa958615610e0f5785949392918991899798610df0575b5087168086526005825260ff8787205416610d85575b50508451696d616e6167652d6f6e6560b01b898201908152600a8101939093526bffffffffffffffffffffffff19606097881b8116602a8501529190961b16603e82015260ff94610d7281605284016109b3565b5190208252855220541690519015158152f35b9091939560249395975051928380926331a9108f60e11b825287898301525afa908115610de65791610d7286949288969460ff9891610dc9575b5096899150610d1e565b610de091508a3d8c11610a9e57610a908183612d45565b38610dbf565b86513d87823e3d90fd5b610e08919850823d8411610a9e57610a908183612d45565b9638610d08565b87513d87823e3d90fd5b50346104565781600319360112610456578035906024359267ffffffffffffffff841161024e57610e5361041c92610eb395369101612c09565b81819682959396610e6f6001600160a01b038b5416331461345b565b610e87610e7b82612d7f565b50875191828092613045565b0390207fd94fae538c4428e7bd1e4fa66b93ad367b2c5bbbc9d0dae73a21526257361ff48b80a2612d7f565b90613502565b5082903461035157606036600319011261035157803592610ed8612f0a565b916044359283151584036110ea578251956302571be360e01b875280838801526020916001600160a01b038389602481847f0000000000000000000000000000000000000000000000000000000000000000165afa9889156110c15788996110cb575b508089168089526005855260ff878a205416611070575b50881633148015611014575b15610fd257610fb961033b97986109b387519384928784019687919092605293696d616e6167652d6f6e6560b01b8452600a8401526bffffffffffffffffffffffff19809260601b16602a84015260601b16603e8201520190565b51902086525283209060ff801983541691151516179055565b5050606492519162461bcd60e51b8352820152601760248201527f4f4e4c595f4f574e45522f46554c4c5f4d414e414745520000000000000000006044820152fd5b508451691b585b9859d94b585b1b60b21b8482019081526bffffffffffffffffffffffff1960608b811b8216600a84015233901b16601e8201529061105c81603284016109b3565b519020875283835260ff8588205416610f5e565b602491995084908751928380926331a9108f60e11b8252878a8301525afa9081156110c15788916110a4575b509789610f52565b6110bb9150843d8611610a9e57610a908183612d45565b8961109c565b86513d8a823e3d90fd5b6110e3919950843d8611610a9e57610a908183612d45565b9789610f3b565b600080fd5b503461045657602036600319011261045657816020938260ff93358252855220541690519015158152f35b5090346104565761112a36612fed565b929095919460019580871161045257823560f81c918651986105608a018a811067ffffffffffffffff821117611c71578852602a8a528960005b6105408110611c5f57505083890193848a11610bf557838511610bf557611195909a999698979a3690888801612f98565b61119e8a6130ed565b526111a8896130ed565b506111b2896130ed565b51998a5b84861015611c4c576001600160f81b031986880135161561130a578a9b88809a9b9c88888b600183019b6111eb928d926138a4565b6111f4916138bc565b60f81c016001019889611208918a8d6138a4565b369061121392612f98565b9161121d916130fa565b528c8961122a81836130fa565b50611234916130fa565b51908d8c518251602093818580850192019161124f92612eac565b8101938385017f2e0000000000000000000000000000000000000000000000000000000000000090528181516021968793828886840192019161129192612eac565b0103600181018352016112a49082612d45565b9a6112ae916130fa565b51908c5193828593519081848087019201916112c992612eac565b830190828201602f60f81b9052805180938684019201916112e992612eac565b0103600181018352016112fc9082612d45565b969a999897600101966111b6565b91908a90898d8a8d6113206000198301876130fa565b519182516020809401208551848101918483528782015286815261134381612d0d565b51902090600119019761135689896130fa565b518481519101208651858101918483528882015287815261137681612d0d565b51902097888452600385528961138d888620612e06565b9a5b611b11575050868b1161045657856001600160e01b03199384833516988982526002958688526113c184842054612dcc565b156117975750506113d9925088815284865220612e06565b905b8851156117685750836000194301987f00000000000000000000000000000000000000000000000000000000000000009a8b8b611425868b519a8b938b85019533914090876138e8565b0397611439601f19998a8101835282612d45565b519020825190956001198201828111611752578060011b90808204831490151715611752579061146b88949392613332565b91611474613364565b825b828110611686575050505089519182918983017f66000000000000000000000000000000000000000000000000000000000000009052805190818b602186019201916114c192612eac565b8201602181017f2f2e77656c6c2d6b6e6f776e2f000000000000000000000000000000000000009052815191828b602e84019201916114ff92612eac565b01602e8101602f60f81b9052865190602f8101828b8a019161152092612eac565b01602f81017f2e6a736f6e3f743d7b646174617d000000000000000000000000000000000000905203601d81018252603d0161155c9082612d45565b6115659261310e565b9686519842603c900467ffffffffffffffff16603c0260c01b7fffffffffffffffff00000000000000000000000000000000000000000000000016868b015260088a526115b18a612d29565b87519a8b968701528786015260608501526080840160c0905260e084016115d791612ecf565b848482030160a08501526115ea91612ecf565b9060c08301520390810185526116009085612d45565b519485947f556f18300000000000000000000000000000000000000000000000000000000086526001600160a01b0316908501526024840160a0905260a4840161164991612f20565b90600319918285820301604486015261166191612ecf565b906064840163c55a5d5960e01b905283820301608484015261168291612ecf565b0390fd5b909192939495506001600160f81b0319806116ae6116a4848b613034565b5160fc1c85613034565b5116908260011b918383048714841517156117375760001a6116d08389613034565b536116eb600f6116e0858c613034565b5160f81c1685613034565b51166001820180921161171d579061170b611711939260001a9188613034565b536130c8565b90899594939291611476565b505050505060118f634e487b7160e01b6000525260246000fd5b50505050505060118f634e487b7160e01b6000525260246000fd5b5060118f634e487b7160e01b6000525260246000fd5b8a6024918751917fca1c65c1000000000000000000000000000000000000000000000000000000008352820152fd5b9092507f59d1d43c000000000000000000000000000000000000000000000000000000008a0361180557509080602411610351578201918560231982850301126103515760248101359167ffffffffffffffff831161024257506117ff929101602401612fcf565b906113db565b7ff1cb7e06000000000000000000000000000000000000000000000000000000008a036118a2575081602411610242575081018190036023190184136110ea57602461185291013561393f565b6117ff6029875180937f5f616464726573732f000000000000000000000000000000000000000000000088830152611892815180928a8686019101612eac565b8101036009810184520182612d45565b92917f124a319c000000000000000000000000000000000000000000000000000000008a0361195c57806024116103515782018290036023190186136102425750906118f3602461190c9301612bf4565b87519116858201528b815261190781612d29565b61339d565b6117ff602d875180937f5f696e746572666163652f3078000000000000000000000000000000000000008883015261194c815180928a8686019101612eac565b810103600d810184520182612d45565b9192507f2203ab560000000000000000000000000000000000000000000000000000000089036119fb5781602411610242575081018190036023190184136110ea5760246119ab91013561393f565b6117ff6025875180937f5f6162692f000000000000000000000000000000000000000000000000000000888301526119eb815180928a8686019101612eac565b8101036005810184520182612d45565b91907fa8fa5682000000000000000000000000000000000000000000000000000000008903611ae257806024116104565781018190036023190187136103515760448101359161ffff831680930361024257506028611a77611a716117ff9360248b519101358982015288815261190781612d29565b9361393f565b9288519384917f5f646e732f30780000000000000000000000000000000000000000000000000089840152611ab5815180928b602787019101612eac565b8201602f60f81b6027820152611ad3825180938b8785019101612eac565b01036008810184520182612d45565b60248d8a8a51917f0c9addbc000000000000000000000000000000000000000000000000000000008352820152fd5b6000190192611b2084836130fa565b5186815191012088519087820192835289820152888152611b4081612d0d565b5190209283855260038652611b5788862054612dcc565b15801590611b8b575b611b6b575b8061138f565b9850985081835260038452611b81868420612e06565b9888839950611b65565b508c848951917f0178b8bf0000000000000000000000000000000000000000000000000000000083528201526001600160a01b038782602481847f0000000000000000000000000000000000000000000000000000000000000000165afa918215611c42578792611c23575b50807f000000000000000000000000000000000000000000000000000000000000000016911614611b60565b611c3b919250883d8a11610a9e57610a908183612d45565b908f611bf7565b8a513d89823e3d90fd5b60248a603286634e487b7160e01b835252fd5b60606020828194010152018a90611164565b604183634e487b7160e01b6000525260246000fd5b5050346103515781600319360112610351576001600160a01b0360209254169051908152f35b505034610351578060031936011261035157611cc6612ef4565b9060243591821515928381036110ea57611d1a916001600160a01b0390611cf182885416331461345b565b611cfd813b1515613819565b1692838652600560205285209060ff801983541691151516179055565b7f8ea51d3bcf70e647a0bb1312a2a0fa7fbc0c51fb47325275912a75c257c082638380a380f35b50913461024257816003193601126102425782359067ffffffffffffffff82116102425750611d739036908401612fcf565b90602480359280519184830395838711611e755760019287841b600298810489148887141715611e6157611da690613332565b96611daf613364565b905b868110611dcd5787516020808252819061028a9082018c612ecf565b6001600160f81b031980611de46116a48487613034565b51169082881b918383048d1484151715611e4d5760001a611e05838d613034565b53611e15600f6116e08588613034565b5116878201809211611e39579061170b611e34939260001a918c613034565b611db1565b86601187634e487b7160e01b600052526000fd5b87601188634e487b7160e01b600052526000fd5b83601184634e487b7160e01b600052526000fd5b601190634e487b7160e01b600052526000fd5b828434610242578060031936011261024257600191825492611ea984612d67565b93611eb683519586612d45565b8085528184526020937fb10e2d527612073b26eecdfd717e6a320cf44b4afac2b0732d9fcbe2b7fa0cf6858088015b848410611efe5786518281528061028a8185018c612f20565b85918291611f0b85612e06565b8152019201920191908690611ee5565b50903461045657611f2b36612c9c565b9294611f456001600160a01b03889493945416331461345b565b8382036120045750855b818110611f5a578680f35b80611f75610e7b611f6f611fff94868b613809565b35612d7f565b0390207fd94fae538c4428e7bd1e4fa66b93ad367b2c5bbbc9d0dae73a21526257361ff48980a2611fb9611faa82878761360a565b90610eb3611f6f85888d613809565b611fc481868661360a565b9081885192839283378101600081520390207f7a9f387a9d3844b91ba19679387fe32e833e4311fec98471b6df53b9855e3f478980a26130c8565b611f4f565b606490602086519162461bcd60e51b8352820152601160248201527f42616420696e707574206c656e677468730000000000000000000000000000006044820152fd5b509034610456578060031936011261045657826001600160a01b03928361206c612ef4565b169382541693803b156104565783517f42842e0e0000000000000000000000000000000000000000000000000000000081526001600160a01b037f0000000000000000000000000000000000000000000000000000000000000000811693820193845290951660208301526024356040830152849182908490829060600103925af190811561024557506120fe575080f35b61033b90612ce3565b505034610351578160031936011261035157818080806001600160a01b038154167f00000000000000000000000000000000000000000000000000000000000000003190828215612167575bf11561215d575080f35b51903d90823e3d90fd5b506108fc612153565b5091346102425760203660031901126102425782356001548110156103515761219890612d7f565b9390936121ac5761028a8361027786612e06565b9080602492634e487b7160e01b825252fd5b50829034610351576121cf36612c37565b91948051956302571be360e01b875280858801526020966001600160a01b038882602481847f0000000000000000000000000000000000000000000000000000000000000000165afa91821561256a578892612574575b5088818316808a526005825260ff868b20541661251a575b5050811633149081156124b5575b8115612454575b501561241257838511610b2d5782357fe5010172000000000000000000000000000000000000000000000000000000006001600160e01b03198216149081156123be575b501561237c5785526003865284209267ffffffffffffffff831161236957506122ca826122c48554612dcc565b856134bd565b8394601f83116001146123065750938394829394926122fb575b50508160011b916000199060031b1c191617905580f35b0135905084806122e4565b90601f198316958486528286209286905b88821061235157505083600195969710612337575b505050811b01905580f35b0135600019600384901b60f8161c1916905584808061232c565b80600184968294958701358155019501920190612317565b846041602492634e487b7160e01b835252fd5b6064858884519162461bcd60e51b8352820152600e60248201527f495046532f49504e535f4f4e4c590000000000000000000000000000000000006044820152fd5b905084600311610bf5577fffffff0000000000000000000000000000000000000000000000000000000000167fe3010100000000000000000000000000000000000000000000000000000000001488612297565b6064858884519162461bcd60e51b8352820152601260248201527f4f4e4c595f4f574e45522f4d414e4147455200000000000000000000000000006044820152fd5b905082516124a0816109b38b82019433908690603292691b585b9859d94b585b1b60b21b83526bffffffffffffffffffffffff19809260601b16600a84015260601b16601e8201520190565b519020865284875260ff828720541688612253565b8351696d616e6167652d6f6e6560b01b8a8201908152600a81018590526bffffffffffffffffffffffff19606084811b8216602a84015233901b16603e82015291925061250581605284016109b3565b519020875285885260ff83882054169061224c565b60249293508551928380926331a9108f60e11b8252878c8301525afa90811561256a57889161254d575b5090888a61223e565b6125649150893d8b11610a9e57610a908183612d45565b89612544565b84513d8a823e3d90fd5b61258c919250893d8b11610a9e57610a908183612d45565b9089612226565b50903461045657602091826003193601126104525780359267ffffffffffffffff841161024e573660238501121561024e5783820135906125d382612d67565b946125e085519687612d45565b8286528186016024809460051b830101913683116126e3578401905b8282106126d4575050505061261c6001600160a01b03865416331461345b565b83519260019061262e8583541161364c565b865b85811061263b578780f35b61265d61265161264b838a6130fa565b51612d7f565b50835191828092613045565b0390207fd94fae538c4428e7bd1e4fa66b93ad367b2c5bbbc9d0dae73a21526257361ff48980a2825460001981019081116126c257906126b06126a26126bd93612d7f565b5061032d61264b848c6130fa565b6126b8613783565b6130c8565b612630565b8489601188634e487b7160e01b835252fd5b813581529083019083016125fc565b8880fd5b50346104565760203660031901126104565780359067ffffffffffffffff82116104525761271791369101612c6b565b61272f6001600160a01b03859493945416331461345b565b835b81811061273c578480f35b8061275461274e61279993858861360a565b906135e1565b61275f81848761360a565b90818651928392833781018881520390207f7a9f387a9d3844b91ba19679387fe32e833e4311fec98471b6df53b9855e3f478780a26130c8565b612731565b505034610351578160031936011261035157602090516001600160a01b037f0000000000000000000000000000000000000000000000000000000000000000168152f35b5034610456576127f136612c9c565b919093926001600160a01b039361280c85895416331461345b565b8383036128d35750865b828110612821578780f35b8061284361283b6128366128ce948787613809565b613864565b3b1515613819565b61288461285961285483888b613809565b613878565b87612868612836858989613809565b168b526005602052898b209060ff801983541691151516179055565b612892612836828686613809565b866128a161285484898c613809565b151591167f8ea51d3bcf70e647a0bb1312a2a0fa7fbc0c51fb47325275912a75c257c082638b80a36130c8565b612816565b606490602088519162461bcd60e51b8352820152600a60248201527f4261645f4c656e677468000000000000000000000000000000000000000000006044820152fd5b5090346104565761292636612c37565b94919060209580871161045257808503612aa157868201359087601f19820110612a8e575b50907f7fffffffffffffffffffffffffffffffffffffffffffffffffffffffffffffff82169160ff1c601b8101809111612a7b5760ff165b7f7fffffffffffffffffffffffffffffff5d576e7357a4501ddfe92f46681b20a08311612a3857855193845260ff1683880152358285015260608201528180528490829060809060015afa15612a2d57516001600160a01b03169182156129eb575051908152f35b83606492519163151a7bff60e11b8352820152600c60248201527f5a45524f5f4144445245535300000000000000000000000000000000000000006044820152fd5b9051903d90823e3d90fd5b6064878988519163151a7bff60e11b8352820152600f60248201527f494e56414c49445f535f56414c554500000000000000000000000000000000006044820152fd5b602485601189634e487b7160e01b835252fd5b600019908803880160031b1b163861294b565b9060418203612acd5781851161045257612ac58782013592603f19018683016138bc565b60f81c612983565b6064868887519163151a7bff60e11b8352820152600a60248201527f4241445f4c454e475448000000000000000000000000000000000000000000006044820152fd5b849034610351576020366003190112610351576020906001600160e01b0319612b37612bdd565b167f9061b923000000000000000000000000000000000000000000000000000000008114908115612bb3575b8115612ba2575b8115612b78575b5015158152f35b7f01ffc9a70000000000000000000000000000000000000000000000000000000091501483612b71565b63c55a5d5960e01b81149150612b6a565b7f304e6ade0000000000000000000000000000000000000000000000000000000081149150612b63565b600435906001600160e01b0319821682036110ea57565b35906001600160e01b0319821682036110ea57565b9181601f840112156110ea5782359167ffffffffffffffff83116110ea57602083818601950101116110ea57565b9060406003198301126110ea57600435916024359067ffffffffffffffff82116110ea57612c6791600401612c09565b9091565b9181601f840112156110ea5782359167ffffffffffffffff83116110ea576020808501948460051b0101116110ea57565b60406003198201126110ea5767ffffffffffffffff916004358381116110ea5782612cc991600401612c6b565b939093926024359182116110ea57612c6791600401612c6b565b67ffffffffffffffff8111612cf757604052565b634e487b7160e01b600052604160045260246000fd5b6060810190811067ffffffffffffffff821117612cf757604052565b6040810190811067ffffffffffffffff821117612cf757604052565b90601f8019910116810190811067ffffffffffffffff821117612cf757604052565b67ffffffffffffffff8111612cf75760051b60200190565b600154811015612db65760016000527fb10e2d527612073b26eecdfd717e6a320cf44b4afac2b0732d9fcbe2b7fa0cf60190600090565b634e487b7160e01b600052603260045260246000fd5b90600182811c92168015612dfc575b6020831014612de657565b634e487b7160e01b600052602260045260246000fd5b91607f1691612ddb565b9060405191826000825492612e1a84612dcc565b908184526001948581169081600014612e895750600114612e46575b5050612e4492500383612d45565b565b9093915060005260209081600020936000915b818310612e71575050612e4493508201013880612e36565b85548884018501529485019487945091830191612e59565b915050612e4494506020925060ff191682840152151560051b8201013880612e36565b60005b838110612ebf5750506000910152565b8181015183820152602001612eaf565b90602091612ee881518092818552858086019101612eac565b601f01601f1916010190565b600435906001600160a01b03821682036110ea57565b602435906001600160a01b03821682036110ea57565b908082519081815260208091019281808460051b8301019501936000915b848310612f4e5750505050505090565b9091929394958480612f6c600193601f198682030187528a51612ecf565b9801930193019194939290612f3e565b67ffffffffffffffff8111612cf757601f01601f191660200190565b929192612fa482612f7c565b91612fb26040519384612d45565b8294818452818301116110ea578281602093846000960137010152565b9080601f830112156110ea57816020612fea93359101612f98565b90565b60406003198201126110ea5767ffffffffffffffff916004358381116110ea578261301a91600401612c09565b939093926024359182116110ea57612c6791600401612c09565b908151811015612db6570160200190565b60009291815461305481612dcc565b926001918083169081156130ad5750600114613071575b50505050565b90919293945060005260209081600020906000915b85831061309c575050505001903880808061306b565b805485840152918301918101613086565b60ff191684525050508115159091020191503880808061306b565b60001981146130d75760010190565b634e487b7160e01b600052601160045260246000fd5b805115612db65760200190565b8051821015612db65760209160051b010190565b929192600154908160011c94600186018096116130d75760058611613329575b9161313886612d67565b9160409161314883519485612d45565b878452601f1990816131598a612d67565b0160005b81811061331657505084986000913360601b928115925b808210613188575050505050505050505050565b8388519a60209b8c8101918252878b820152603481526131a781612d0d565b5190209061330057839006916131bc83612d7f565b50885115612db657888c01516001600160f81b0319167fe500000000000000000000000000000000000000000000000000000000000000036132c657895161320381612d29565b600681527f2f69706e732f00000000000000000000000000000000000000000000000000008d8201529b5b8d818c519e8f948286017f68747470733a2f2f00000000000000000000000000000000000000000000000090526028860161326891613045565b81819251938491019161327a92612eac565b0181819251938491019161328d92612eac565b01038781018c5261329e908c612d45565b6132a7816130c8565b9a6132b2828c6130fa565b526132bd908a6130fa565b50989098613174565b89516132d181612d29565b600681527f2f697066732f00000000000000000000000000000000000000000000000000008d8201529b61322e565b634e487b7160e01b600052601260045260246000fd5b606060208289018101919091520161315d565b6005955061312e565b9061333c82612f7c565b6133496040519182612d45565b828152809261335a601f1991612f7c565b0190602036910137565b6040519061337182612d29565b601082527f30313233343536373839616263646566000000000000000000000000000000006020830152565b8051600290600181811b8215838204851417156130d7576133bd90613332565b936133c6613364565b9060005b8481106133da5750505050505090565b6001600160f81b031990816133fc6133f28386613034565b5160fc1c86613034565b51169181861b928284048914831517156130d75760001a61341d848b613034565b53613438600f61342d8487613034565b5160f81c1686613034565b5116918581018091116130d75761170b6134569360001a918a613034565b6133ca565b1561346257565b606460405162461bcd60e51b815260206004820152600860248201527f4f6e6c79204465760000000000000000000000000000000000000000000000006044820152fd5b8181106134b1575050565b600081556001016134a6565b9190601f81116134cc57505050565b612e44926000526020600020906020601f840160051c830193106134f8575b601f0160051c01906134a6565b90915081906134eb565b919392906135cb5767ffffffffffffffff8111612cf75761352d816135278454612dcc565b846134bd565b6000601f8211600114613567578192939460009261355c575b50508160011b916000199060031b1c1916179055565b013590503880613546565b601f198216948382526020918281209281905b8882106135b357505083600195969710613599575b505050811b019055565b0135600019600384901b60f8161c1916905538808061358f565b8060018496829495870135815501950192019061357a565b634e487b7160e01b600052600060045260246000fd5b906001549168010000000000000000831015612cf757610eb3836001612e449501600155612d7f565b9190811015612db65760051b81013590601e19813603018212156110ea57019081359167ffffffffffffffff83116110ea5760200182360381136110ea579190565b1561365357565b606460405162461bcd60e51b815260206004820152600c60248201527f4c617374204761746577617900000000000000000000000000000000000000006044820152fd5b90808214613770576136a98154612dcc565b9067ffffffffffffffff8211612cf75781906136cf826136c98654612dcc565b866134bd565b600090601f8311600114613705576000926136fa5750508160011b916000199060031b1c1916179055565b015490503880613546565b81526020808220858352818320935090601f1985169083905b82821061375757505090846001959493921061373e57505050811b019055565b015460001960f88460031b161c1916905538808061358f565b849581929585015481556001809101960194019061371e565b5050565b91906135cb57612e4491613697565b60015480156137f3576000190161379981612d7f565b6135cb576137a78154612dcc565b90816137b5575b5050600155565b81601f600093116001146137cd5750555b38806137ae565b9080839182526137ec601f60208420940160051c8401600185016134a6565b55556137c6565b634e487b7160e01b600052603160045260246000fd5b9190811015612db65760051b0190565b1561382057565b606460405162461bcd60e51b815260206004820152600d60248201527f4f6e6c7920436f6e7472616374000000000000000000000000000000000000006044820152fd5b356001600160a01b03811681036110ea5790565b3580151581036110ea5790565b908160209103126110ea57516001600160a01b03811681036110ea5790565b909392938483116110ea5784116110ea578101920390565b6001600160f81b031990358181169392600181106138d957505050565b60010360031b82901b16169150565b919260489594936bffffffffffffffffffffffff19809360601b168452601484015260601b1660348201526139268251809360208785019101612eac565b0161393a8251809360208685019101612eac565b010190565b80156139a9576000818181805b613996575061395a81613332565b935b6139665750505090565b6000190190600a9060308282060160f81b6001600160f81b031916841a61398d8487613034565b5304908161395c565b91506001600a910191048084929161394c565b506040516139b681612d29565b600181527f3000000000000000000000000000000000000000000000000000000000000000602082015290565b60408051906020926bffffffffffffffffffffffff199060601b168383015260148252613a0f82612d29565b805190613a1b82612d0d565b6028825283820192813685378151613a3281612d29565b601081527f303132333435363738394142434445460000000000000000000000000000000086820152613a63613364565b91613a6d8161339d565b8451613a95898281613a888183019687815193849201612eac565b8101038084520182612d45565b5190209181519260005b848110613afc5750505050505092612fea92613aec6022937f3078000000000000000000000000000000000000000000000000000000000000965196879485015251809285850190612eac565b8101036002810184520182612d45565b613b068185613034565b5160fc1c600f9081613b188488613034565b5160f81c16908c841015612db65784841a9160076001600160f81b0319600493828787871c1611600014613bf957613b50908a613034565b5116945b60019487861b9688880460021489151715613be457908f613b85896001600160f81b03199796959460001a92613034565b53161115613bd257613b979088613034565b5116915b8301809311613bbd57509061170b613bb8939260001a918b613034565b613a9f565b601190634e487b7160e01b6000525260246000fd5b613bdc908b613034565b511691613b9b565b601186634e487b7160e01b6000525260246000fd5b613c03908d613034565b511694613b5456fea2646970667358221220ca9e0a4b3e8950594a2975b61784d6bf96c28202f724724ff3f8aac98002771864736f6c63430008120033",
    "linkReferences": {}
  },
  "methodIdentifiers": {
    "ENS()": "1d2e2cc4",
    "Gateways(uint256)": "356a277a",
    "__callback(bytes,bytes)": "c55a5d59",
    "addGateway(string)": "d63a4801",
    "addGateways(string[])": "21d6e7dd",
    "approve(bytes32,address,bool)": "a4b91a01",
    "approved(bytes32,address)": "b984b2cd",
    "bytesToString(bytes,uint256)": "82adc208",
    "contenthash(bytes32)": "bc1c58d1",
    "funcToFile(bytes4)": "e190ea65",
    "immolate()": "bf1e9c85",
    "isWrapper(address)": "e0aa2797",
    "listAllGateways()": "814b7456",
    "manager(bytes32)": "9885e3b4",
    "owner()": "8da5cb5b",
    "randomGateways(bytes,string,uint256)": "d4a964f1",
    "removeGateway(uint256)": "e5dac703",
    "removeGateways(uint256[])": "30121570",
    "replaceGateway(uint256,string)": "acc0f7b1",
    "replaceGateways(uint256[],string[])": "5d1219d5",
    "resolve(bytes,bytes)": "9061b923",
    "safeWithdraw(address,uint256)": "5058c460",
    "setContenthash(bytes32,bytes)": "304e6ade",
    "signedBy(bytes32,bytes)": "06dcdc63",
    "supportsInterface(bytes4)": "01ffc9a7",
    "toChecksumAddress(address)": "cf135352",
    "uintToString(uint256)": "e9395679",
    "updateWrapper(address,bool)": "8384976f",
    "updateWrappers(address[],bool[])": "084ac40a",
    "withdraw()": "3ccfd60b",
    "withdraw(address,uint256)": "f3fef3a3"
  },
  "id": 23
}