{
  "abi": [
    {
      "inputs": [],
      "stateMutability": "nonpayable",
      "type": "constructor"
    },
    {
      "inputs": [
        {
          "internalType": "bytes1",
          "name": "_type",
          "type": "bytes1"
        }
      ],
      "name": "ContenthashNotImplemented",
      "type": "error"
    },
    {
      "inputs": [
        {
          "internalType": "string",
          "name": "_error",
          "type": "string"
        }
      ],
      "name": "InvalidSignature",
      "type": "error"
    },
    {
      "inputs": [
        {
          "internalType": "address",
          "name": "_addr",
          "type": "address"
        },
        {
          "internalType": "string[]",
          "name": "_gateways",
          "type": "string[]"
        },
        {
          "internalType": "bytes",
          "name": "_data",
          "type": "bytes"
        },
        {
          "internalType": "bytes4",
          "name": "_callbackFunction",
          "type": "bytes4"
        },
        {
          "internalType": "bytes",
          "name": "_extradata",
          "type": "bytes"
        }
      ],
      "name": "OffchainLookup",
      "type": "error"
    },
    {
      "inputs": [
        {
          "internalType": "bytes4",
          "name": "func",
          "type": "bytes4"
        }
      ],
      "name": "ResolverFunctionNotImplemented",
      "type": "error"
    },
    {
      "anonymous": false,
      "inputs": [
        {
          "indexed": true,
          "internalType": "string",
          "name": "domain",
          "type": "string"
        }
      ],
      "name": "AddGateway",
      "type": "event"
    },
    {
      "anonymous": false,
      "inputs": [
        {
          "indexed": true,
          "internalType": "string",
          "name": "domain",
          "type": "string"
        }
      ],
      "name": "RemoveGateway",
      "type": "event"
    },
    {
      "inputs": [],
      "name": "DefaultContenthash",
      "outputs": [
        {
          "internalType": "bytes",
          "name": "",
          "type": "bytes"
        }
      ],
      "stateMutability": "view",
      "type": "function"
    },
    {
      "inputs": [],
      "name": "ENS",
      "outputs": [
        {
          "internalType": "contract iENS",
          "name": "",
          "type": "address"
        }
      ],
      "stateMutability": "view",
      "type": "function"
    },
    {
      "inputs": [
        {
          "internalType": "uint256",
          "name": "",
          "type": "uint256"
        }
      ],
      "name": "Gateways",
      "outputs": [
        {
          "internalType": "string",
          "name": "",
          "type": "string"
        }
      ],
      "stateMutability": "view",
      "type": "function"
    },
    {
      "inputs": [],
      "name": "WRAPPER",
      "outputs": [
        {
          "internalType": "contract iToken",
          "name": "",
          "type": "address"
        }
      ],
      "stateMutability": "view",
      "type": "function"
    },
    {
      "inputs": [
        {
          "internalType": "bytes",
          "name": "response",
          "type": "bytes"
        },
        {
          "internalType": "bytes",
          "name": "extradata",
          "type": "bytes"
        }
      ],
      "name": "__callback",
      "outputs": [
        {
          "internalType": "bytes",
          "name": "result",
          "type": "bytes"
        }
      ],
      "stateMutability": "view",
      "type": "function"
    },
    {
      "inputs": [
        {
          "internalType": "string",
          "name": "_domain",
          "type": "string"
        }
      ],
      "name": "addGateway",
      "outputs": [],
      "stateMutability": "nonpayable",
      "type": "function"
    },
    {
      "inputs": [
        {
          "internalType": "string[]",
          "name": "_domains",
          "type": "string[]"
        }
      ],
      "name": "addGateways",
      "outputs": [],
      "stateMutability": "nonpayable",
      "type": "function"
    },
    {
      "inputs": [
        {
          "internalType": "bytes32",
          "name": "node",
          "type": "bytes32"
        },
        {
          "internalType": "address",
          "name": "_signer",
          "type": "address"
        },
        {
          "internalType": "bool",
          "name": "_approved",
          "type": "bool"
        }
      ],
      "name": "approve",
      "outputs": [],
      "stateMutability": "nonpayable",
      "type": "function"
    },
    {
      "inputs": [
        {
          "internalType": "bytes32",
          "name": "node",
          "type": "bytes32"
        },
        {
          "internalType": "address",
          "name": "_signer",
          "type": "address"
        }
      ],
      "name": "approved",
      "outputs": [
        {
          "internalType": "bool",
          "name": "",
          "type": "bool"
        }
      ],
      "stateMutability": "view",
      "type": "function"
    },
    {
      "inputs": [
        {
          "internalType": "bytes",
          "name": "_buffer",
          "type": "bytes"
        },
        {
          "internalType": "uint256",
          "name": "index",
          "type": "uint256"
        }
      ],
      "name": "bytesToString",
      "outputs": [
        {
          "internalType": "string",
          "name": "",
          "type": "string"
        }
      ],
      "stateMutability": "pure",
      "type": "function"
    },
    {
      "inputs": [
        {
          "internalType": "bytes32",
          "name": "",
          "type": "bytes32"
        }
      ],
      "name": "contenthash",
      "outputs": [
        {
          "internalType": "bytes",
          "name": "",
          "type": "bytes"
        }
      ],
      "stateMutability": "view",
      "type": "function"
    },
    {
      "inputs": [
        {
          "internalType": "bytes4",
          "name": "",
          "type": "bytes4"
        }
      ],
      "name": "funcToFile",
      "outputs": [
        {
          "internalType": "string",
          "name": "",
          "type": "string"
        }
      ],
      "stateMutability": "view",
      "type": "function"
    },
    {
      "inputs": [],
      "name": "immolate",
      "outputs": [],
      "stateMutability": "nonpayable",
      "type": "function"
    },
    {
      "inputs": [],
      "name": "listGateways",
      "outputs": [
        {
          "internalType": "string[]",
          "name": "list",
          "type": "string[]"
        }
      ],
      "stateMutability": "view",
      "type": "function"
    },
    {
      "inputs": [],
      "name": "owner",
      "outputs": [
        {
          "internalType": "address payable",
          "name": "",
          "type": "address"
        }
      ],
      "stateMutability": "view",
      "type": "function"
    },
    {
      "inputs": [
        {
          "internalType": "bytes",
          "name": "_ipns",
          "type": "bytes"
        },
        {
          "internalType": "string",
          "name": "_path",
          "type": "string"
        },
        {
          "internalType": "uint256",
          "name": "k",
          "type": "uint256"
        }
      ],
      "name": "randomGateways",
      "outputs": [
        {
          "internalType": "string[]",
          "name": "gateways",
          "type": "string[]"
        }
      ],
      "stateMutability": "view",
      "type": "function"
    },
    {
      "inputs": [
        {
          "internalType": "uint256",
          "name": "_index",
          "type": "uint256"
        }
      ],
      "name": "removeGateway",
      "outputs": [],
      "stateMutability": "nonpayable",
      "type": "function"
    },
    {
      "inputs": [
        {
          "internalType": "uint256[]",
          "name": "_indexes",
          "type": "uint256[]"
        }
      ],
      "name": "removeGateways",
      "outputs": [],
      "stateMutability": "nonpayable",
      "type": "function"
    },
    {
      "inputs": [
        {
          "internalType": "uint256",
          "name": "_index",
          "type": "uint256"
        },
        {
          "internalType": "string",
          "name": "_domain",
          "type": "string"
        }
      ],
      "name": "replaceGateway",
      "outputs": [],
      "stateMutability": "nonpayable",
      "type": "function"
    },
    {
      "inputs": [
        {
          "internalType": "uint256[]",
          "name": "_indexes",
          "type": "uint256[]"
        },
        {
          "internalType": "string[]",
          "name": "_domains",
          "type": "string[]"
        }
      ],
      "name": "replaceGateways",
      "outputs": [],
      "stateMutability": "nonpayable",
      "type": "function"
    },
    {
      "inputs": [
        {
          "internalType": "bytes",
          "name": "name",
          "type": "bytes"
        },
        {
          "internalType": "bytes",
          "name": "data",
          "type": "bytes"
        }
      ],
      "name": "resolve",
      "outputs": [
        {
          "internalType": "bytes",
          "name": "",
          "type": "bytes"
        }
      ],
      "stateMutability": "view",
      "type": "function"
    },
    {
      "inputs": [],
      "name": "roothash",
      "outputs": [
        {
          "internalType": "bytes32",
          "name": "",
          "type": "bytes32"
        }
      ],
      "stateMutability": "view",
      "type": "function"
    },
    {
      "inputs": [
        {
          "internalType": "address",
          "name": "_token",
          "type": "address"
        },
        {
          "internalType": "uint256",
          "name": "_id",
          "type": "uint256"
        }
      ],
      "name": "safeWithdraw",
      "outputs": [],
      "stateMutability": "nonpayable",
      "type": "function"
    },
    {
      "inputs": [
        {
          "internalType": "bytes32",
          "name": "node",
          "type": "bytes32"
        },
        {
          "internalType": "bytes",
          "name": "_contenthash",
          "type": "bytes"
        }
      ],
      "name": "setContenthash",
      "outputs": [],
      "stateMutability": "nonpayable",
      "type": "function"
    },
    {
      "inputs": [
        {
          "internalType": "string",
          "name": "_subName",
          "type": "string"
        },
        {
          "internalType": "bytes32",
          "name": "node",
          "type": "bytes32"
        },
        {
          "internalType": "bytes",
          "name": "_contenthash",
          "type": "bytes"
        }
      ],
      "name": "setSubContenthash",
      "outputs": [],
      "stateMutability": "nonpayable",
      "type": "function"
    },
    {
      "inputs": [
        {
          "internalType": "bytes32",
          "name": "digest",
          "type": "bytes32"
        },
        {
          "internalType": "bytes",
          "name": "signature",
          "type": "bytes"
        }
      ],
      "name": "signedBy",
      "outputs": [
        {
          "internalType": "address",
          "name": "_addr",
          "type": "address"
        }
      ],
      "stateMutability": "pure",
      "type": "function"
    },
    {
      "inputs": [
        {
          "internalType": "bytes4",
          "name": "interfaceID",
          "type": "bytes4"
        }
      ],
      "name": "supportsInterface",
      "outputs": [
        {
          "internalType": "bool",
          "name": "",
          "type": "bool"
        }
      ],
      "stateMutability": "pure",
      "type": "function"
    },
    {
      "inputs": [
        {
          "internalType": "address",
          "name": "_addr",
          "type": "address"
        }
      ],
      "name": "toChecksumAddress",
      "outputs": [
        {
          "internalType": "string",
          "name": "",
          "type": "string"
        }
      ],
      "stateMutability": "pure",
      "type": "function"
    },
    {
      "inputs": [
        {
          "internalType": "uint256",
          "name": "value",
          "type": "uint256"
        }
      ],
      "name": "uintToString",
      "outputs": [
        {
          "internalType": "string",
          "name": "",
          "type": "string"
        }
      ],
      "stateMutability": "pure",
      "type": "function"
    },
    {
      "inputs": [],
      "name": "withdraw",
      "outputs": [],
      "stateMutability": "nonpayable",
      "type": "function"
    },
    {
      "inputs": [
        {
          "internalType": "address",
          "name": "_token",
          "type": "address"
        },
        {
          "internalType": "uint256",
          "name": "_balance",
          "type": "uint256"
        }
      ],
      "name": "withdraw",
      "outputs": [],
      "stateMutability": "nonpayable",
      "type": "function"
    }
  ],
  "bytecode": {
    "object": "0x61010034620006d157306080526001600160401b039060a0810182811182821017620006bb576040918183526200003682620006d6565b60029182815261743160f01b60c083015281528251916200005783620006d6565b808352602092613a1960f11b848201528383015283516200007881620006d6565b81815261743360f01b848201528483015283516200009681620006d6565b818152611d0d60f21b8482015260608301528351620000b581620006d6565b81815261743560f01b8482015260808301528054916005928383558084106200063f575b509460009582875284872087915b8583106200050c5750506e0c2e074ec69a0dfb2997ba6c7d2e1e60a0525073d4416b13d2b3a9abae7acd5d6c2bbdbe2568640160c05284518481018781527f4f5b812789fc606be1b3b16908db13fc7a9adf7ca72641f84d75b47069d3d7f082880152868252916060820190811182821017620004f857865251902060e05262000173600354620006f2565b90601f8211620004d3575b505050605560035560038352808320907fe50101720024080112203c5aba6c9b5055a5fa12281c486188ed8ae2b6ef394b825560019182690f6606c0345e92d45cd760b21b910155631d9dabef60e11b845260048181809352848620620001f1620001ea8254620006f2565b8262000748565b7f5f616464726573732f3630000000000000000000000000000000000000000016905563c869023360e01b865281815284862080546200023690620001ea90620006f2565b600c657075626b657960d01b01905563691f343160e01b865281815284862080546200026790620001ea90620006f2565b6008636e616d6560e01b01905563bc1c58d160e01b865281815284862080546200029690620001ea90620006f2565b7f636f6e74656e74686173680000000000000000000000000000000000000000169055635c98042b60e01b8652528284208054620002d990620001ea90620006f2565b7f5f646e737265636f72642f7a6f6e656861736800000000000000000000000026905583546001600160a01b031916331784558154680100000000000000009081811015620004ae578084620003329201855562000775565b620004c157806200034a620001ea60099354620006f2565b7f647765622e6c696e6b00000000000000000000000000000000000000000000129055845168647765622e6c696e6b60b81b8152207f7a9f387a9d3844b91ba19679387fe32e833e4311fec98471b6df53b9855e3f479390848780a2805491821015620004ae578181019055620003c19062000775565b9190916200049c575080620003dd620001ea60079354620006f2565b600e66697066732e696f60c81b019055825166697066732e696f60c81b81522091519280a26140109081620007a88239608051818181610275015281816108e401528181610d2b01528181611a9e0152818161254701526125c9015260a05181818161093801528181610e5f0152818161110c0152818161154a015281816126c20152612c42015260c0518181816104380152818161097001528181610e9c0152818161113f0152818161157d01526126f5015260e05181612b460152f35b634e487b7160e01b8552849052602484fd5b634e487b7160e01b865260418352602486fd5b634e487b7160e01b8652858352602486fd5b620004ef9260038752601f8588209301901c820191016200072f565b3880806200017e565b634e487b7160e01b88526041600452602488fd5b80518051908582116200062b57908891620005288554620006f2565b908c601f9285848211620005f1575b5050508c849284116001146200058557926001959281928796959262000579575b5050600019600383901b1c191690841b1785555b01920192019190620000e7565b01519050388062000558565b9190601f198416878452858420935b818110620005d85750916001969391858897969410620005be575b505050831b830185556200056c565b015160001960f88460031b161c19169055388080620005af565b8284015185558d96600190950194938401930162000594565b828962000618945220848d818801901c82019288881062000621575b018d1c01906200072f565b8c388562000537565b925081926200060d565b634e487b7160e01b8b52604160045260248bfd5b60008381528486822092830192015b8281106200065e575050620000d9565b80826200066e60019354620006f2565b806200067e575b5050016200064e565b601f80821185146200069757505081555b823862000675565b620006b1908484528b842092018a1c82018583016200072f565b818355556200068f565b634e487b7160e01b600052604160045260246000fd5b600080fd5b604081019081106001600160401b03821117620006bb57604052565b90600182811c9216801562000724575b60208310146200070e57565b634e487b7160e01b600052602260045260246000fd5b91607f169162000702565b8181106200073b575050565b600081556001016200072f565b90601f811162000756575050565b6200077391600052601f6020600020910160051c8101906200072f565b565b6001548110156200079157600160005260206000200190600090565b634e487b7160e01b600052603260045260246000fdfe60806040908082526004908136101561001757600080fd5b600091823560e01c91826301ffc9a714612e615750816306dcdc6314612c665781631d2e2cc414612c2257816321d6e7dd14612b69578163251c942214612b2e57816330121570146129a4578163304e6ade1461265d578163356a277a1461260f5781633ccfd60b146125a65781635058c460146124e55781635d1219d51461237e57816369be8bb01461229857816382adc208146121605781638da5cb5b1461213a5781639061b923146116da578163a4b91a01146114f8578163a4cde92714611066578163acc0f7b114610fc4578163b984b2cd14610e1b578163bc1c58d114610df0578163bf1e9c8514610d84578163c55a5d59146105c0578163cf13535214610599578163d4a964f11461052a578163d63a4801146104a1578163e190ea651461045c578163e1eb13c114610418578163e5dac70314610324578163e9395679146102f0578163f3fef3a314610213575063ffb80c8d1461017b57600080fd5b3461021057806003193601126102105760019182549261019a8461302f565b936101a78351958661300d565b8085528184526020937fb10e2d527612073b26eecdfd717e6a320cf44b4afac2b0732d9fcbe2b7fa0cf6858088015b8484106101f3578651828152806101ef8185018c6132a0565b0390f35b85918291610200856130ce565b81520192019201919086906101d6565b80fd5b90508192346102ec57806003193601126102ec576001600160a01b0391826102396131bc565b169284541690833b156102e85782517f23b872dd0000000000000000000000000000000000000000000000000000000081526001600160a01b037f00000000000000000000000000000000000000000000000000000000000000008116928201928352909216602082015260243560408201529092849184919082908490829060600103925af19081156102df57506102cf5750f35b6102d890612fab565b6102105780f35b513d84823e3d90fd5b8480fd5b5050fd5b83833461021057602036600319011261021057506103116101ef9235613d0e565b9051918291602083526020830190613197565b9050346104145760203660031901126104145780359061034f6001600160a01b03845416331461380e565b61037760015494610362600187116139ff565b61036b84613047565b5090519182809261330d565b0390207fd94fae538c4428e7bd1e4fa66b93ad367b2c5bbbc9d0dae73a21526257361ff48480a2600182018083116104015784116103bc575b826103b9613b30565b80f35b60001984019384116103ee57506103e06103d96103e69394613047565b5091613047565b90613b21565b8038806103b0565b826011602492634e487b7160e01b835252fd5b602484601184634e487b7160e01b835252fd5b5080fd5b828434610414578160031936011261041457602090516001600160a01b037f0000000000000000000000000000000000000000000000000000000000000000168152f35b8391503461049d57602036600319011261049d5780356001600160e01b0319811680910361049957836103119284926101ef9652602052206130ce565b8380fd5b8280fd5b8391503461049d57602036600319011261049d5780359067ffffffffffffffff8211610499576104d391369101612f18565b80926104ea6001600160a01b03865416331461380e565b6104f482846139d6565b5192839283378101600081520390207f7a9f387a9d3844b91ba19679387fe32e833e4311fec98471b6df53b9855e3f478280a280f35b8391503461049d57606036600319011261049d5767ffffffffffffffff81358181116102e85761055d903690840161323b565b9360243591821161021057509261057d610586926101ef9536910161323b565b604435916133d6565b90519182916020835260208301906132a0565b828434610414576020366003190112610414576101ef906103116105bb6131bc565b613db2565b9050823461049d576105d136613259565b90949290850160c086820312610d80578535602096878101359860608201359567ffffffffffffffff9687811161049d578561060e91850161323b565b946080840135888111610499579061062791850161323b565b9360038101808211610d6d574311159081610d14575b5015610cd2578088116104145785356001600160e01b03191663c55a5d5960e01b03610cb3578501996060868c036003190112610414578786013587811161049d578b8961068d9289010161323b565b9a60249788880135908111610499576044918a6106ac928a010161323b565b960135956001600160a01b0394858816968789036102e857908b8d928f848151910120825190858201528481526106e281612ff1565b6106eb9061374d565b6106f48b613db2565b908351948593878501957f52657175657374696e67207369676e617475726520666f72206f66662d636861875285017f696e20454e53207265636f72640a0a446f6d61696e3a20000000000000000000905280519081896057880192019161075b92613174565b8401605781017f0a5265636f726420547970653a20000000000000000000000000000000000000905281519182896065840192019161079992613174565b01606581017f0a5265636f726420486173683a2030780000000000000000000000000000000090528151918288607584019201916107d692613174565b01607581017f0a5369676e65642042793a206569703135353a313a000000000000000000000090528151918287608a840192019161081392613174565b0103606a81018352608a01610828908361300d565b815161083390613d0e565b918d51918291858301947f19457468657265756d205369676e6564204d6573736167653a0a00000000000086528051908188603a870192019161087592613174565b830190519182603a830161088892613174565b0103601a81018252603a0161089d908261300d565b5190208b51809381927f06dcdc630000000000000000000000000000000000000000000000000000000083528d8301528d8c830152604482016108df91613197565b0381887f0000000000000000000000000000000000000000000000000000000000000000165afa908115610c2b579085918491610c96575b50168503610c54578851926302571be360e01b845281898501528a848981887f0000000000000000000000000000000000000000000000000000000000000000165afa938415610c2b57908392918b9495610c35575b507f000000000000000000000000000000000000000000000000000000000000000086168587168114610bd4575b50898c8a865193828501856109e28b89849091603e926936b0b730b3b296b9bab160b11b8352600a8301526bffffffffffffffffffffffff199060601b16602a8201520190565b03956109f6601f199788810183528261300d565b51902087526006835289888820541680610b56575b50508651696d616e6167652d6f6e6560b01b928101928352600a830195909552506bffffffffffffffffffffffff19606088811b8216602a8401528a901b16603e8201529291610a68915082605285015b0390810183528261300d565b519020815260068a528382822054168514958615610af5575b5050508315610ae9575b50505015610aa95750506101ef905b51928284938452830190613197565b606493601b9293519362461bcd60e51b85528401528201527f4f4e4c595f4f574e45522f4d414e414745525f43414e5f5349474e00000000006044820152fd5b16149050868080610a8b565b8493965082518b810191691b585b9859d94b585b1b60b21b83526bffffffffffffffffffffffff1990818a60601b16602a84015260601b16603e82015260328152610b3f81612fd5565b519020815260068a52205416821492868a80610a81565b90919294969850879395975195869485936331a9108f60e11b85520135908301525afa908115610bca57918a93918593610a689691610b9d575b509450898c8a3880610a0b565b610bbd91508d803d10610bc3575b610bb5818361300d565b810190613bc6565b8e610b90565b503d610bab565b8a513d86823e3d90fd5b918c919550898b8295965194859384926331a9108f60e11b84528301525afa908115610c2b57908392918b9491610c0e575b50938d61099b565b610c2591508c8d3d10610bc357610bb5818361300d565b8d610c06565b8a513d85823e3d90fd5b610c4d9195508c8d3d10610bc357610bb5818361300d565b938d61096d565b606488600a898d8d519363151a7bff60e11b85528401528201527f4241445f5349474e4552000000000000000000000000000000000000000000006044820152fd5b610cad91508c8d3d10610bc357610bb5818361300d565b8d610917565b949550505050506101ef939550610ccc92503691613204565b92610a9a565b6064888b8b519162461bcd60e51b8352820152601860248201527f494e56414c49445f434845434b53554d2f54494d454f555400000000000000006044820152fd5b905085610d5e8c610d508d519384928301953390407f000000000000000000000000000000000000000000000000000000000000000088613ccc565b03601f19810183528261300d565b51902060a0840135148c61063d565b60248460118c634e487b7160e01b835252fd5b8680fd5b919050346102105780600319360112610210576001600160a01b0390541691823303610dad5782ff5b906020606492519162461bcd60e51b8352820152600960248201527f4e4f545f4f574e455200000000000000000000000000000000000000000000006044820152fd5b8391503461049d57602036600319011261049d57816101ef93610311923581526005602052206130ce565b828434610414578060031936011261041457823592610e386131d2565b928251946302571be360e01b865280838701526020956001600160a01b03938782602481887f0000000000000000000000000000000000000000000000000000000000000000165afa918215610fba578492868a8996948b94839994610f9b575b507f000000000000000000000000000000000000000000000000000000000000000083169284168314610f31575b505050610f1c90610d5086519384928d84019687919092605293696d616e6167652d6f6e6560b01b8452600a8401526bffffffffffffffffffffffff19809260601b16602a84015260601b16603e8201520190565b51902081526006875220541691519216148152f35b919597509395869350602492505194859384926331a9108f60e11b84528301525afa908115610f91579186610f1c85938895889791610f74575b50908a8c610ec7565b610f8b91508b3d8d11610bc357610bb5818361300d565b8b610f6b565b85513d85823e3d90fd5b610fb3919450823d8411610bc357610bb5818361300d565b928d610e99565b86513d86823e3d90fd5b8391503461049d578160031936011261049d578035906024359267ffffffffffffffff84116102e8576110006104f49261106095369101612f18565b8181968295939661101c6001600160a01b038b5416331461380e565b61103461102882613047565b5087519182809261330d565b0390207fd94fae538c4428e7bd1e4fa66b93ad367b2c5bbbc9d0dae73a21526257361ff48b80a2613047565b906138f7565b8284346104145760603660031901126104145767ffffffffffffffff908335828111610499576110999036908601612f18565b9460243590604435858111610d80576110b59036908301612f18565b9490928583116114f457833563728080b960e11b6001600160e01b031982161480156114b4575b6110e69150613c29565b8151986302571be360e01b8a5281848b01526020956001600160a01b0391878c602481867f0000000000000000000000000000000000000000000000000000000000000000165afa9b8c1561148b578b9c611495575b507f000000000000000000000000000000000000000000000000000000000000000083168c84168114611433575b5090611177913691613204565b8681519101208351878101918483528582015284815261119681612fd5565b51902083516936b0b730b3b296b9bab160b11b888201908152600a810185905260608d901b6bffffffffffffffffffffffff1916602a820152818103601e81018352601f199d9392906111ec90603e018261300d565b5190208b52600688528783868d20541691826113d2575b5050508161128a928b5416918c86516112628b82019282610a5c33898c88919092605293696d616e6167652d6f6e6560b01b8452600a8401526bffffffffffffffffffffffff19809260601b16602a84015260601b16603e8201520190565b5190208c526006895281868d205416331492831561136b575b50821561135e575b5050613c74565b875260058452862094841161134b57506112ae836112a88654613094565b866138b2565b8491601f84116001146112ea5750848394959650926112df575b50508160011b916000199060031b1c191617905580f35b0135905084806112c8565b91958316958486528286209286905b88821061133357505083600195969710611319575b505050811b01905580f35b0135600019600384901b60f8161c1916905584808061130e565b806001849682949587013581550195019201906112f9565b856041602492634e487b7160e01b835252fd5b9091501633148b80611283565b9092508c6113ba87519182610a5c8d82019533908790603292691b585b9859d94b585b1b60b21b83526bffffffffffffffffffffffff19809260601b16600a84015260601b16601e8201520190565b5190208b526006885280858c2054163314918d61127b565b9091925060248651809481936331a9108f60e11b83528a8301525afa908115611429579061128a92918b9161140c575b509091878d611203565b6114239150883d8a11610bc357610bb5818361300d565b8c611402565b84513d8c823e3d90fd5b6024919c5088908651928380926331a9108f60e11b8252888b8301525afa90811561148b579061117792918c9161146e575b509b909161116a565b6114859150893d8b11610bc357610bb5818361300d565b8d611465565b85513d8d823e3d90fd5b6114ad919c50883d8a11610bc357610bb5818361300d565b9a8c61113c565b50866003116114f05762e3010160e81b7fffffff00000000000000000000000000000000000000000000000000000000006110e69216146110dc565b8880fd5b8780fd5b8391503461049d57606036600319011261049d578035916115176131d2565b6044359081151582036116d6578251946302571be360e01b865280858701526020916001600160a01b039583886024818a7f0000000000000000000000000000000000000000000000000000000000000000165afa9788156116cc5789986116ab575b507f0000000000000000000000000000000000000000000000000000000000000000871690888816821461164e575b505033868816036114f457600693156116445761161081975b610d5087519384928784019687919092605293696d616e6167652d6f6e6560b01b8452600a8401526bffffffffffffffffffffffff19809260601b16602a84015260601b16603e8201520190565b519020865252832091167fffffffffffffffffffffffff000000000000000000000000000000000000000082541617905580f35b61161088976115c2565b849192985060248491885194859384926331a9108f60e11b84528301525afa9081156116a1578891611684575b509588806115a9565b61169b9150833d8511610bc357610bb5818361300d565b8861167b565b85513d8a823e3d90fd5b879198506116c590853d8711610bc357610bb5818361300d565b979061157a565b86513d8b823e3d90fd5b8580fd5b9050823461049d576116eb36613259565b959260019591928087116102e857813560f81c918651986105608a0167ffffffffffffffff908b811082821117612125578952602a8b528a60005b6105408110612113575050848a0194858b11612100578486116114f057611757909b9a9799989b3690898601613204565b6117608b6133b5565b5261176a8a6133b5565b506117748a6133b5565b519a8b5b858710156120ed576001600160f81b03198786013516156118ec576117b16117ab6117a289613390565b80998989613be5565b90613bfd565b60f81c8701968781116118d7579b809d8a9b9c9d896117d1918a8a613be5565b36906117dc92613204565b6117e68c846133c2565b526117f18b836133c2565b506117fc8b836133c2565b51918d518251602093818580850192019161181692613174565b8101938385017f2e0000000000000000000000000000000000000000000000000000000000000090528181516021968793828886840192019161185892613174565b01036001810183520161186b908261300d565b9b611875916133c2565b51908d51938285935190818480870192019161189092613174565b830190828201602f60f81b9052805180938684019201916118b092613174565b0103600181018352016118c3908261300d565b986118cd90613390565b979b9a9998611778565b601189634e487b7160e01b6000525260246000fd5b87945090898d8c8b95948f888a116116d6576119088698613cbf565b986119138a836133c2565b519384516020809601208751868101918a83528982015288815261193681612fd5565b519020928b60609c5b6120775750506001600160e01b0319908181351692838a528d8752611966898b2054613094565b15611cfc57505050865289835261197e8587206130ce565b905b89518060011b9080820460021490151715611ce75761199e906136e2565b6119a6613714565b8b519060025b8d838210611c3c57505050506035611a899188519586917f6600000000000000000000000000000000000000000000000000000000000000898401526119fb815180928b602187019101613174565b82017f2f2e77656c6c2d6b6e6f776e2f000000000000000000000000000000000000006021820152611a36825180938b602e85019101613174565b01602f60f81b602e820152855190611a5482602f83018b8a01613174565b017f2e6a736f6e3f0000000000000000000000000000000000000000000000000000602f82015203601581018652018461300d565b600019430198438a11611c2957908591611af57f00000000000000000000000000000000000000000000000000000000000000009c8d8d611ad68c519b8c928c8401943391409086613ccc565b0399611aea601f199b8c810183528261300d565b5190209687916133d6565b98603c8b8142041602809b811603611c16575087519960c01b7fffffffffffffffff00000000000000000000000000000000000000000000000016868b015260088a52611b418a612ff1565b87519a8b968701528786015260608501526080840160c0905260e08401611b6791613197565b848482030160a0850152611b7a91613197565b9060c0830152039081018552611b90908561300d565b519485947f556f18300000000000000000000000000000000000000000000000000000000086526001600160a01b0316908501526024840160a0905260a48401611bd9916132a0565b906003199182858203016044860152611bf191613197565b906064840163c55a5d5960e01b9052838203016084840152611c1291613197565b0390fd5b8060118f634e487b7160e01b6024945252fd5b60248860118e634e487b7160e01b835252fd5b8190611c5f611c556001600160f81b03199384936132fc565b5160fc1c856132fc565b5116828060011b0460021483151715611cd0578f611c9484600f92611c9f9460001a611c8e8360011b8c6132fc565b536132fc565b5160f81c16846132fc565b5116600182811b0190818360011b11611cd05790611cc5611ccb939260001a91876132fc565b53613390565b6119ac565b505060118f634e487b7160e01b6000525260246000fd5b60118c634e487b7160e01b6000525260246000fd5b9091927f59d1d43c000000000000000000000000000000000000000000000000000000008114600014611d665750809192506024116114f4578101908460231982840301126114f4576024810135908982116114f057611d6092910160240161323b565b90611980565b7ff1cb7e06000000000000000000000000000000000000000000000000000000008103611e0a5750809192506024116114f4578101819003602319018413611e05576024611db5910135613d0e565b611d606029875180937f5f616464726573732f000000000000000000000000000000000000000000000088830152611df5815180928a8686019101613174565b810103600981018452018261300d565b600080fd5b7f124a319c000000000000000000000000000000000000000000000000000000008103611ec35750806024116114f0578101819003602319018513611e055760240135908116809103611e0557611e7390865190858201528b8152611e6e81612ff1565b61374d565b611d60602d875180937f5f696e746572666163652f30780000000000000000000000000000000000000088830152611eb3815180928a8686019101613174565b810103600d81018452018261300d565b919250907f2203ab56000000000000000000000000000000000000000000000000000000008103611f635750806024116114f4578101819003602319018413611e05576024611f13910135613d0e565b611d606025875180937f5f6162692f00000000000000000000000000000000000000000000000000000088830152611f53815180928a8686019101613174565b810103600581018452018261300d565b7fa8fa56820000000000000000000000000000000000000000000000000000000081036120485750806024116114f4578101819003602319018613610d805760448101359061ffff82168092036114f4576028611fdd611fd7611d609360248b5191013589820152888152611e6e81612ff1565b93613d0e565b9288519384917f5f646e732f3078000000000000000000000000000000000000000000000000008984015261201b815180928b602787019101613174565b8201602f60f81b6027820152612039825180938b8785019101613174565b0103600881018452018261300d565b8c6024918951917f0c9addbc000000000000000000000000000000000000000000000000000000008352820152fd5b61208090613cbf565b9361208b85836133c2565b518781519101208951908882019283528a8201528981526120ab81612fd5565b51902093848a5260058088526120c38a8c2054613094565b6120cf575b508061193f565b919c509a5083895285526120e48789206130ce565b9a8a849b6120c8565b60248260328a634e487b7160e01b835252fd5b602489601189634e487b7160e01b835252fd5b60606020828194010152018b90611726565b604187634e487b7160e01b6000525260246000fd5b8284346104145781600319360112610414576001600160a01b0360209254169051908152f35b9190503461021057826003193601126102105781359067ffffffffffffffff82116102105750612193903690830161323b565b91825192600184811b600295808204871490151715612283576121b5906136e2565b936121be613714565b9083519360249283355b8681106121e4578751602080825281906101ef9082018c613197565b6001600160f81b0319806121fb611c5584876132fc565b51169082881b918383048d148415171561226f5760001a61221c838d6132fc565b53612237600f61222c85886132fc565b5160f81c16856132fc565b511687820180921161225b5790611cc5612256939260001a918c6132fc565b6121c8565b86601187634e487b7160e01b600052526000fd5b87601188634e487b7160e01b600052526000fd5b601185634e487b7160e01b6000525260246000fd5b5050346102105780600319360112610210575080516000916003546122bc81613094565b8084529060019081811690811561235657506001146122f9575b50506122e7826101ef94038361300d565b51918291602083526020830190613197565b6003600090815294507fc2575a0e9e593c00f959f8c92f12db2869c3395a3b0502d05e2516446f71f85b5b82861061233e57505050918101602001916122e7826122d6565b80546020878701810191909152909501948101612324565b6101ef965085925060209150926122e79360ff191682840152151560051b82010194506122d6565b9050823461049d578060031936011261049d5767ffffffffffffffff9180358381116102e8576123b19036908301612f7a565b9190936024359081116116d6576123cb9036908301612f7a565b9290916123e36001600160a01b03885416331461380e565b8382036124a25750855b8181106123f8578680f35b8061241361102861240d61249d94868b613bb6565b35613047565b0390207fd94fae538c4428e7bd1e4fa66b93ad367b2c5bbbc9d0dae73a21526257361ff48980a2612457612448828787613859565b9061106061240d85888d613bb6565b612462818686613859565b9081885192839283378101600081520390207f7a9f387a9d3844b91ba19679387fe32e833e4311fec98471b6df53b9855e3f478980a2613390565b6123ed565b606490602086519162461bcd60e51b8352820152601160248201527f42616420696e707574206c656e677468730000000000000000000000000000006044820152fd5b9050823461049d578060031936011261049d57826001600160a01b03928361250b6131bc565b169382541693803b1561049d5783517f42842e0e0000000000000000000000000000000000000000000000000000000081526001600160a01b037f0000000000000000000000000000000000000000000000000000000000000000811693820193845290951660208301526024356040830152849182908490829060600103925af19081156102df575061259d575080f35b6103b990612fab565b828434610414578160031936011261041457818080806001600160a01b038154167f00000000000000000000000000000000000000000000000000000000000000003190828215612606575bf1156125fc575080f35b51903d90823e3d90fd5b506108fc6125f2565b8383346102105760203660031901126102105782356001548110156104145761263790613047565b93909361264b576101ef83610311866130ce565b9080602492634e487b7160e01b825252fd5b9050346104145761266d36612f46565b91908284116102e857803563728080b960e11b6001600160e01b03198216148015612968575b61269d9150613c29565b8551956302571be360e01b875282858801526020926001600160a01b038489602481847f0000000000000000000000000000000000000000000000000000000000000000165afa98891561293f578899612949575b507f0000000000000000000000000000000000000000000000000000000000000000811689821681146128e9575b50806127b4918954169084519a878c018c61277933868985919092605293696d616e6167652d6f6e6560b01b8452600a8401526bffffffffffffffffffffffff19809260601b16602a84015260601b16603e8201520190565b039c61278d601f199e8f810183528261300d565b5190208b526006885281868c2054163314928315612883575b508215612876575050613c74565b86526005835285209367ffffffffffffffff841161134b57506127db836112a88654613094565b8491601f841160011461281657508483949596509261280b5750508160011b916000199060031b1c191617905580f35b0135905038806112c8565b91958316958486528286209286905b88821061285e5750508360019596971061284457505050811b01905580f35b0135600019600384901b60f8161c1916905538808061130e565b80600184968294958701358155019501920190612825565b9091501633143880611283565b90925085516128d18d82610a5c8c82019533908790603292691b585b9859d94b585b1b60b21b83526bffffffffffffffffffffffff19809260601b16600a84015260601b16601e8201520190565b5190208a526006875280858b205416331491386127a6565b602491995085908451928380926331a9108f60e11b8252868c8301525afa90811561293f57906127b4918991612922575b509890612720565b6129399150863d8811610bc357610bb5818361300d565b3861291a565b83513d8a823e3d90fd5b612961919950853d8711610bc357610bb5818361300d565b97386126f2565b50836003116116d65762e3010160e81b7fffffff000000000000000000000000000000000000000000000000000000000061269d921614612693565b8391503461049d57602091826003193601126104995781359267ffffffffffffffff84116102e857366023850112156102e85783830135906129e58261302f565b946129f28451968761300d565b8286528186016024809460051b830101913683116114f0578401905b828210612b1f5750505050612a2e6001600160a01b03865416331461380e565b835192600192612a40858554116139ff565b865b858110612a4d578780f35b612a6f612a63612a5d838a6133c2565b51613047565b5083519182809261330d565b0390207fd94fae538c4428e7bd1e4fa66b93ad367b2c5bbbc9d0dae73a21526257361ff48980a28454612aa282896133c2565b51868101809111612b0d578111612acb575b50612ac690612ac1613b30565b613390565b612a42565b6000198101908111612afb5790612af5612ae7612ac693613047565b506103e0612a5d848c6133c2565b90612ab4565b8489601186634e487b7160e01b835252fd5b858a601187634e487b7160e01b835252fd5b81358152908301908301612a0e565b828434610414578160031936011261041457602090517f00000000000000000000000000000000000000000000000000000000000000008152f35b8391503461049d57602036600319011261049d5780359067ffffffffffffffff821161049957612b9b91369101612f7a565b612bb36001600160a01b03859493945416331461380e565b835b818110612bc0578480f35b80612bd8612bd2612c1d938588613859565b906139d6565b612be3818487613859565b90818651928392833781018881520390207f7a9f387a9d3844b91ba19679387fe32e833e4311fec98471b6df53b9855e3f478780a2613390565b612bb5565b828434610414578160031936011261041457602090516001600160a01b037f0000000000000000000000000000000000000000000000000000000000000000168152f35b9050823461049d57612c7736612f46565b94919060209580871161049957808503612df257868201359087601f19820110612ddf575b50907f7fffffffffffffffffffffffffffffffffffffffffffffffffffffffffffffff82169160ff1c601b8101809111612dcc5760ff165b7f7fffffffffffffffffffffffffffffff5d576e7357a4501ddfe92f46681b20a08311612d8957855193845260ff1683880152358285015260608201528180528490829060809060015afa15612d7e57516001600160a01b0316918215612d3c575051908152f35b83606492519163151a7bff60e11b8352820152600d60248201527f4241445f5349474e4154555245000000000000000000000000000000000000006044820152fd5b9051903d90823e3d90fd5b6064878988519163151a7bff60e11b8352820152600f60248201527f494e56414c49445f535f56414c554500000000000000000000000000000000006044820152fd5b602485601189634e487b7160e01b835252fd5b600019908803880160031b1b1687612c9c565b9060418203612e1e5781851161049957612e168782013592603f1901868301613bfd565b60f81c612cd4565b6064868887519163151a7bff60e11b8352820152600a60248201527f4241445f4c454e475448000000000000000000000000000000000000000000006044820152fd5b91503461049d57602036600319011261049d57356001600160e01b0319811680910361049d57602092507f9061b923000000000000000000000000000000000000000000000000000000008114908115612eee575b8115612ec4575b5015158152f35b7f01ffc9a70000000000000000000000000000000000000000000000000000000091501483612ebd565b7f304e6ade0000000000000000000000000000000000000000000000000000000081149150612eb6565b9181601f84011215611e055782359167ffffffffffffffff8311611e055760208381860195010111611e0557565b906040600319830112611e0557600435916024359067ffffffffffffffff8211611e0557612f7691600401612f18565b9091565b9181601f84011215611e055782359167ffffffffffffffff8311611e05576020808501948460051b010111611e0557565b67ffffffffffffffff8111612fbf57604052565b634e487b7160e01b600052604160045260246000fd5b6060810190811067ffffffffffffffff821117612fbf57604052565b6040810190811067ffffffffffffffff821117612fbf57604052565b90601f8019910116810190811067ffffffffffffffff821117612fbf57604052565b67ffffffffffffffff8111612fbf5760051b60200190565b60015481101561307e5760016000527fb10e2d527612073b26eecdfd717e6a320cf44b4afac2b0732d9fcbe2b7fa0cf60190600090565b634e487b7160e01b600052603260045260246000fd5b90600182811c921680156130c4575b60208310146130ae57565b634e487b7160e01b600052602260045260246000fd5b91607f16916130a3565b90604051918260008254926130e284613094565b908184526001948581169081600014613151575060011461310e575b505061310c9250038361300d565b565b9093915060005260209081600020936000915b81831061313957505061310c935082010138806130fe565b85548884018501529485019487945091830191613121565b91505061310c94506020925060ff191682840152151560051b82010138806130fe565b60005b8381106131875750506000910152565b8181015183820152602001613177565b906020916131b081518092818552858086019101613174565b601f01601f1916010190565b600435906001600160a01b0382168203611e0557565b602435906001600160a01b0382168203611e0557565b67ffffffffffffffff8111612fbf57601f01601f191660200190565b929192613210826131e8565b9161321e604051938461300d565b829481845281830111611e05578281602093846000960137010152565b9080601f83011215611e055781602061325693359101613204565b90565b6040600319820112611e055767ffffffffffffffff91600435838111611e05578261328691600401612f18565b93909392602435918211611e0557612f7691600401612f18565b908082519081815260208091019281808460051b8301019501936000915b8483106132ce5750505050505090565b90919293949584806132ec600193601f198682030187528a51613197565b98019301930191949392906132be565b90815181101561307e570160200190565b60009291815461331c81613094565b926001918083169081156133755750600114613339575b50505050565b90919293945060005260209081600020906000915b8583106133645750505050019038808080613333565b80548584015291830191810161334e565b60ff1916845250505081151590910201915038808080613333565b600019811461339f5760010190565b634e487b7160e01b600052601160045260246000fd5b80511561307e5760200190565b805182101561307e5760209160051b010190565b9092916001548060011c946001860180961161339f57600586116136d9575b6133fe8661302f565b91604061340d8151948561300d565b878452601f1961341c8961302f565b0160005b8181106136c8575050839786511561307e57602096878101906001600160f81b0319907fe500000000000000000000000000000000000000000000000000000000000000828451161460001461361c57505050815161347e81612ff1565b600681527f2f69706e732f000000000000000000000000000000000000000000000000000088820152959094955b6000953360601b948015916002968754955b828b106134d45750505050505050505050505050565b84908d8951908101918252838a820152603481526134f181612fd5565b51902090613606578390069161350683613047565b509a8781101561307e578d8d9c8b600052818d8c519384938185017f68747470733a2f2f0000000000000000000000000000000000000000000000009052602885016135519161330d565b808d8051938491019161356392613174565b0181819251938491019161357692613174565b6135a391017f405787fa12a823e0f2b7631cc41b3ba8828b3321ca811111fa75cd3aa3bb5ace850161330d565b7f3d7b646174617d00000000000000000000000000000000000000000000000000815203601819810182526007016135db908261300d565b819d6135e78f93613390565b9e6135f1916133c2565b526135fc908c6133c2565b50919a999a6134be565b634e487b7160e01b600052601260045260246000fd5b80511561307e57825182167fe3000000000000000000000000000000000000000000000000000000000000000361368d57505050815161365b81612ff1565b600681527f2f697066732f000000000000000000000000000000000000000000000000000088820152959094956134ac565b908491511561307e5760249251169051907f0c8486780000000000000000000000000000000000000000000000000000000082526004820152fd5b806060602080938901015201613420565b600595506133f5565b906136ec826131e8565b6136f9604051918261300d565b828152809261370a601f19916131e8565b0190602036910137565b6040519061372182612ff1565b601082527f30313233343536373839616263646566000000000000000000000000000000006020830152565b805160019181831b60029280820484149015171561339f5761376e906136e2565b92613777613714565b82519260005b84811061378d5750505050505090565b6001600160f81b031990816137af6137a583866132fc565b5160fc1c866132fc565b51169181861b9282840489148315171561339f5760001a6137d0848b6132fc565b536137eb600f6137e084876132fc565b5160f81c16866132fc565b51169185810180911161339f57611cc56138099360001a918a6132fc565b61377d565b1561381557565b606460405162461bcd60e51b815260206004820152600860248201527f4f6e6c79204465760000000000000000000000000000000000000000000000006044820152fd5b919081101561307e5760051b81013590601e1981360301821215611e0557019081359167ffffffffffffffff8311611e05576020018236038113611e05579190565b8181106138a6575050565b6000815560010161389b565b9190601f81116138c157505050565b61310c926000526020600020906020601f840160051c830193106138ed575b601f0160051c019061389b565b90915081906138e0565b919392906139c05767ffffffffffffffff8111612fbf576139228161391c8454613094565b846138b2565b6000601f821160011461395c5781929394600092613951575b50508160011b916000199060031b1c1916179055565b01359050388061393b565b601f198216948382526020918281209281905b8882106139a85750508360019596971061398e575b505050811b019055565b0135600019600384901b60f8161c19169055388080613984565b8060018496829495870135815501950192019061396f565b634e487b7160e01b600052600060045260246000fd5b906001549168010000000000000000831015612fbf5761106083600161310c9501600155613047565b15613a0657565b606460405162461bcd60e51b815260206004820152600c60248201527f4c617374204761746577617900000000000000000000000000000000000000006044820152fd5b90808214613b1d57613a5c8154613094565b9067ffffffffffffffff8211612fbf578190613a7c826112a88654613094565b600090601f8311600114613ab257600092613aa75750508160011b916000199060031b1c1916179055565b01549050388061393b565b81526020808220858352818320935090601f1985169083905b828210613b04575050908460019594939210613aeb57505050811b019055565b015460001960f88460031b161c19169055388080613984565b8495819295850154815560018091019601940190613acb565b5050565b91906139c05761310c91613a4a565b6001548015613ba05760001901613b4681613047565b6139c057613b548154613094565b9081613b62575b5050600155565b81601f60009311600114613b7a5750555b3880613b5b565b908083918252613b99601f60208420940160051c84016001850161389b565b5555613b73565b634e487b7160e01b600052603160045260246000fd5b919081101561307e5760051b0190565b90816020910312611e0557516001600160a01b0381168103611e055790565b90939293848311611e05578411611e05578101920390565b6001600160f81b03199035818116939260018110613c1a57505050565b60010360031b82901b16169150565b15613c3057565b606460405162461bcd60e51b815260206004820152600e60248201527f495046532f49504e535f4f4e4c590000000000000000000000000000000000006044820152fd5b15613c7b57565b606460405162461bcd60e51b815260206004820152601260248201527f4f4e4c595f4f574e45522f4d414e4147455200000000000000000000000000006044820152fd5b801561339f576000190190565b9192604894936bffffffffffffffffffffffff19809360601b168452601484015260601b166034820152613d098251809360208685019101613174565b010190565b8015613d78576000818181805b613d655750613d29816136e2565b935b613d355750505090565b6000190190600a9060308282060160f81b6001600160f81b031916841a613d5c84876132fc565b53049081613d2b565b91506001600a9101910480849291613d1b565b50604051613d8581612ff1565b600181527f3000000000000000000000000000000000000000000000000000000000000000602082015290565b60408051906020926bffffffffffffffffffffffff199060601b168383015260148252613dde82612ff1565b805190613dea82612fd5565b6028825283820192813685378151613e0181612ff1565b601081527f303132333435363738394142434445460000000000000000000000000000000086820152613e32613714565b91613e3c8161374d565b8451613e64898281613e578183019687815193849201613174565b810103808452018261300d565b5190209181519260005b848110613ecb575050505050509261325692613ebb6022937f3078000000000000000000000000000000000000000000000000000000000000965196879485015251809285850190613174565b810103600281018452018261300d565b613ed581856132fc565b5160fc1c600f9081613ee784886132fc565b5160f81c16908c84101561307e5784841a9160076001600160f81b0319600493828787871c1611600014613fc857613f1f908a6132fc565b5116945b60019487861b9688880460021489151715613fb357908f613f54896001600160f81b03199796959460001a926132fc565b53161115613fa157613f6690886132fc565b5116915b8301809311613f8c575090611cc5613f87939260001a918b6132fc565b613e6e565b601190634e487b7160e01b6000525260246000fd5b613fab908b6132fc565b511691613f6a565b601186634e487b7160e01b6000525260246000fd5b613fd2908d6132fc565b511694613f2356fea26469706673582212209511132d1694e927a8104c4781bd327e69c9ca2925d8cd34fc39f0797de33d5b64736f6c63430008120033",
    "linkReferences": {}
  },
  "methodIdentifiers": {
    "DefaultContenthash()": "69be8bb0",
    "ENS()": "1d2e2cc4",
    "Gateways(uint256)": "356a277a",
    "WRAPPER()": "e1eb13c1",
    "__callback(bytes,bytes)": "c55a5d59",
    "addGateway(string)": "d63a4801",
    "addGateways(string[])": "21d6e7dd",
    "approve(bytes32,address,bool)": "a4b91a01",
    "approved(bytes32,address)": "b984b2cd",
    "bytesToString(bytes,uint256)": "82adc208",
    "contenthash(bytes32)": "bc1c58d1",
    "funcToFile(bytes4)": "e190ea65",
    "immolate()": "bf1e9c85",
    "listGateways()": "ffb80c8d",
    "owner()": "8da5cb5b",
    "randomGateways(bytes,string,uint256)": "d4a964f1",
    "removeGateway(uint256)": "e5dac703",
    "removeGateways(uint256[])": "30121570",
    "replaceGateway(uint256,string)": "acc0f7b1",
    "replaceGateways(uint256[],string[])": "5d1219d5",
    "resolve(bytes,bytes)": "9061b923",
    "roothash()": "251c9422",
    "safeWithdraw(address,uint256)": "5058c460",
    "setContenthash(bytes32,bytes)": "304e6ade",
    "setSubContenthash(string,bytes32,bytes)": "a4cde927",
    "signedBy(bytes32,bytes)": "06dcdc63",
    "supportsInterface(bytes4)": "01ffc9a7",
    "toChecksumAddress(address)": "cf135352",
    "uintToString(uint256)": "e9395679",
    "withdraw()": "3ccfd60b",
    "withdraw(address,uint256)": "f3fef3a3"
  },
  "id": 22
}