{
  "abi": [
    {
      "inputs": [],
      "stateMutability": "nonpayable",
      "type": "constructor"
    },
    {
      "inputs": [
        {
          "internalType": "bytes1",
          "name": "_type",
          "type": "bytes1"
        }
      ],
      "name": "ContenthashNotImplemented",
      "type": "error"
    },
    {
      "inputs": [
        {
          "internalType": "bytes32",
          "name": "_node",
          "type": "bytes32"
        }
      ],
      "name": "ContenthashNotSet",
      "type": "error"
    },
    {
      "inputs": [
        {
          "internalType": "string",
          "name": "_message",
          "type": "string"
        }
      ],
      "name": "InvalidSignature",
      "type": "error"
    },
    {
      "inputs": [
        {
          "internalType": "bytes32",
          "name": "_node",
          "type": "bytes32"
        },
        {
          "internalType": "address",
          "name": "_addr",
          "type": "address"
        }
      ],
      "name": "NotAuthorized",
      "type": "error"
    },
    {
      "inputs": [
        {
          "internalType": "address",
          "name": "_addr",
          "type": "address"
        },
        {
          "internalType": "string[]",
          "name": "_gateways",
          "type": "string[]"
        },
        {
          "internalType": "bytes",
          "name": "_data",
          "type": "bytes"
        },
        {
          "internalType": "bytes4",
          "name": "_callbackFunction",
          "type": "bytes4"
        },
        {
          "internalType": "bytes",
          "name": "_extradata",
          "type": "bytes"
        }
      ],
      "name": "OffchainLookup",
      "type": "error"
    },
    {
      "inputs": [
        {
          "internalType": "bytes4",
          "name": "func",
          "type": "bytes4"
        }
      ],
      "name": "ResolverFunctionNotImplemented",
      "type": "error"
    },
    {
      "anonymous": false,
      "inputs": [
        {
          "indexed": true,
          "internalType": "string",
          "name": "domain",
          "type": "string"
        }
      ],
      "name": "AddGateway",
      "type": "event"
    },
    {
      "anonymous": false,
      "inputs": [
        {
          "indexed": true,
          "internalType": "address",
          "name": "owner",
          "type": "address"
        },
        {
          "indexed": true,
          "internalType": "address",
          "name": "operator",
          "type": "address"
        },
        {
          "indexed": false,
          "internalType": "bool",
          "name": "approved",
          "type": "bool"
        }
      ],
      "name": "ApprovalForAll",
      "type": "event"
    },
    {
      "anonymous": false,
      "inputs": [
        {
          "indexed": false,
          "internalType": "address",
          "name": "owner",
          "type": "address"
        },
        {
          "indexed": true,
          "internalType": "bytes32",
          "name": "node",
          "type": "bytes32"
        },
        {
          "indexed": true,
          "internalType": "address",
          "name": "delegate",
          "type": "address"
        },
        {
          "indexed": true,
          "internalType": "bool",
          "name": "approved",
          "type": "bool"
        }
      ],
      "name": "Approved",
      "type": "event"
    },
    {
      "anonymous": false,
      "inputs": [
        {
          "indexed": true,
          "internalType": "bytes32",
          "name": "_node",
          "type": "bytes32"
        },
        {
          "indexed": false,
          "internalType": "bytes",
          "name": "_contenthash",
          "type": "bytes"
        }
      ],
      "name": "ContenthashChanged",
      "type": "event"
    },
    {
      "anonymous": false,
      "inputs": [
        {
          "indexed": true,
          "internalType": "address",
          "name": "previousOwner",
          "type": "address"
        },
        {
          "indexed": true,
          "internalType": "address",
          "name": "newOwner",
          "type": "address"
        }
      ],
      "name": "OwnershipTransferred",
      "type": "event"
    },
    {
      "anonymous": false,
      "inputs": [
        {
          "indexed": true,
          "internalType": "string",
          "name": "domain",
          "type": "string"
        }
      ],
      "name": "RemoveGateway",
      "type": "event"
    },
    {
      "anonymous": false,
      "inputs": [
        {
          "indexed": true,
          "internalType": "address",
          "name": "_new",
          "type": "address"
        },
        {
          "indexed": true,
          "internalType": "bool",
          "name": "_ok",
          "type": "bool"
        }
      ],
      "name": "UpdateWrapper",
      "type": "event"
    },
    {
      "inputs": [],
      "name": "ENS",
      "outputs": [
        {
          "internalType": "contract iENS",
          "name": "",
          "type": "address"
        }
      ],
      "stateMutability": "view",
      "type": "function"
    },
    {
      "inputs": [
        {
          "internalType": "uint256",
          "name": "",
          "type": "uint256"
        }
      ],
      "name": "Gateways",
      "outputs": [
        {
          "internalType": "string",
          "name": "",
          "type": "string"
        }
      ],
      "stateMutability": "view",
      "type": "function"
    },
    {
      "inputs": [
        {
          "internalType": "bytes",
          "name": "response",
          "type": "bytes"
        },
        {
          "internalType": "bytes",
          "name": "extradata",
          "type": "bytes"
        }
      ],
      "name": "__callback",
      "outputs": [
        {
          "internalType": "bytes",
          "name": "result",
          "type": "bytes"
        }
      ],
      "stateMutability": "view",
      "type": "function"
    },
    {
      "inputs": [
        {
          "internalType": "bytes4",
          "name": "_func",
          "type": "bytes4"
        },
        {
          "internalType": "string",
          "name": "_map",
          "type": "string"
        }
      ],
      "name": "addFuncMap",
      "outputs": [],
      "stateMutability": "nonpayable",
      "type": "function"
    },
    {
      "inputs": [
        {
          "internalType": "string",
          "name": "_domain",
          "type": "string"
        }
      ],
      "name": "addGateway",
      "outputs": [],
      "stateMutability": "nonpayable",
      "type": "function"
    },
    {
      "inputs": [
        {
          "internalType": "string[]",
          "name": "_domains",
          "type": "string[]"
        }
      ],
      "name": "addGateways",
      "outputs": [],
      "stateMutability": "nonpayable",
      "type": "function"
    },
    {
      "inputs": [
        {
          "internalType": "bytes32",
          "name": "_node",
          "type": "bytes32"
        },
        {
          "internalType": "address",
          "name": "_signer",
          "type": "address"
        },
        {
          "internalType": "bool",
          "name": "_approved",
          "type": "bool"
        }
      ],
      "name": "approve",
      "outputs": [],
      "stateMutability": "nonpayable",
      "type": "function"
    },
    {
      "inputs": [
        {
          "internalType": "bytes32",
          "name": "_node",
          "type": "bytes32"
        },
        {
          "internalType": "address",
          "name": "_signer",
          "type": "address"
        }
      ],
      "name": "approved",
      "outputs": [
        {
          "internalType": "bool",
          "name": "",
          "type": "bool"
        }
      ],
      "stateMutability": "view",
      "type": "function"
    },
    {
      "inputs": [
        {
          "internalType": "bytes",
          "name": "_buffer",
          "type": "bytes"
        },
        {
          "internalType": "uint256",
          "name": "_start",
          "type": "uint256"
        }
      ],
      "name": "bytesToString",
      "outputs": [
        {
          "internalType": "string",
          "name": "",
          "type": "string"
        }
      ],
      "stateMutability": "pure",
      "type": "function"
    },
    {
      "inputs": [
        {
          "internalType": "bytes32",
          "name": "",
          "type": "bytes32"
        }
      ],
      "name": "contenthash",
      "outputs": [
        {
          "internalType": "bytes",
          "name": "",
          "type": "bytes"
        }
      ],
      "stateMutability": "view",
      "type": "function"
    },
    {
      "inputs": [
        {
          "internalType": "bytes32",
          "name": "_node",
          "type": "bytes32"
        },
        {
          "internalType": "address",
          "name": "_manager",
          "type": "address"
        },
        {
          "internalType": "bytes",
          "name": "_ipns",
          "type": "bytes"
        }
      ],
      "name": "fastSetup",
      "outputs": [],
      "stateMutability": "nonpayable",
      "type": "function"
    },
    {
      "inputs": [
        {
          "internalType": "bytes4",
          "name": "",
          "type": "bytes4"
        }
      ],
      "name": "funcToFile",
      "outputs": [
        {
          "internalType": "string",
          "name": "",
          "type": "string"
        }
      ],
      "stateMutability": "view",
      "type": "function"
    },
    {
      "inputs": [],
      "name": "immolate",
      "outputs": [],
      "stateMutability": "nonpayable",
      "type": "function"
    },
    {
      "inputs": [
        {
          "internalType": "address",
          "name": "_owner",
          "type": "address"
        },
        {
          "internalType": "bytes32",
          "name": "_node",
          "type": "bytes32"
        },
        {
          "internalType": "address",
          "name": "_signer",
          "type": "address"
        }
      ],
      "name": "isApprovedFor",
      "outputs": [
        {
          "internalType": "bool",
          "name": "",
          "type": "bool"
        }
      ],
      "stateMutability": "view",
      "type": "function"
    },
    {
      "inputs": [
        {
          "internalType": "address",
          "name": "_owner",
          "type": "address"
        },
        {
          "internalType": "address",
          "name": "_signer",
          "type": "address"
        }
      ],
      "name": "isApprovedForAll",
      "outputs": [
        {
          "internalType": "bool",
          "name": "",
          "type": "bool"
        }
      ],
      "stateMutability": "view",
      "type": "function"
    },
    {
      "inputs": [
        {
          "internalType": "address",
          "name": "",
          "type": "address"
        }
      ],
      "name": "isWrapper",
      "outputs": [
        {
          "internalType": "bool",
          "name": "",
          "type": "bool"
        }
      ],
      "stateMutability": "view",
      "type": "function"
    },
    {
      "inputs": [],
      "name": "listAllGateways",
      "outputs": [
        {
          "internalType": "string[]",
          "name": "list",
          "type": "string[]"
        }
      ],
      "stateMutability": "view",
      "type": "function"
    },
    {
      "inputs": [
        {
          "internalType": "bytes32",
          "name": "",
          "type": "bytes32"
        }
      ],
      "name": "manager",
      "outputs": [
        {
          "internalType": "bool",
          "name": "",
          "type": "bool"
        }
      ],
      "stateMutability": "view",
      "type": "function"
    },
    {
      "inputs": [],
      "name": "owner",
      "outputs": [
        {
          "internalType": "address",
          "name": "",
          "type": "address"
        }
      ],
      "stateMutability": "view",
      "type": "function"
    },
    {
      "inputs": [
        {
          "internalType": "string",
          "name": "_path",
          "type": "string"
        },
        {
          "internalType": "uint256",
          "name": "k",
          "type": "uint256"
        }
      ],
      "name": "randomGateways",
      "outputs": [
        {
          "internalType": "string[]",
          "name": "gateways",
          "type": "string[]"
        }
      ],
      "stateMutability": "view",
      "type": "function"
    },
    {
      "inputs": [
        {
          "internalType": "uint256",
          "name": "_index",
          "type": "uint256"
        }
      ],
      "name": "removeGateway",
      "outputs": [],
      "stateMutability": "nonpayable",
      "type": "function"
    },
    {
      "inputs": [
        {
          "internalType": "uint256[]",
          "name": "_indexes",
          "type": "uint256[]"
        }
      ],
      "name": "removeGateways",
      "outputs": [],
      "stateMutability": "nonpayable",
      "type": "function"
    },
    {
      "inputs": [
        {
          "internalType": "uint256",
          "name": "_index",
          "type": "uint256"
        },
        {
          "internalType": "string",
          "name": "_domain",
          "type": "string"
        }
      ],
      "name": "replaceGateway",
      "outputs": [],
      "stateMutability": "nonpayable",
      "type": "function"
    },
    {
      "inputs": [
        {
          "internalType": "uint256[]",
          "name": "_indexes",
          "type": "uint256[]"
        },
        {
          "internalType": "string[]",
          "name": "_domains",
          "type": "string[]"
        }
      ],
      "name": "replaceGateways",
      "outputs": [],
      "stateMutability": "nonpayable",
      "type": "function"
    },
    {
      "inputs": [
        {
          "internalType": "bytes",
          "name": "name",
          "type": "bytes"
        },
        {
          "internalType": "bytes",
          "name": "data",
          "type": "bytes"
        }
      ],
      "name": "resolve",
      "outputs": [
        {
          "internalType": "bytes",
          "name": "",
          "type": "bytes"
        }
      ],
      "stateMutability": "view",
      "type": "function"
    },
    {
      "inputs": [
        {
          "internalType": "address",
          "name": "_token",
          "type": "address"
        },
        {
          "internalType": "uint256",
          "name": "_id",
          "type": "uint256"
        }
      ],
      "name": "safeWithdraw",
      "outputs": [],
      "stateMutability": "nonpayable",
      "type": "function"
    },
    {
      "inputs": [
        {
          "internalType": "address",
          "name": "_signer",
          "type": "address"
        },
        {
          "internalType": "bool",
          "name": "_approved",
          "type": "bool"
        }
      ],
      "name": "setApprovalForAll",
      "outputs": [],
      "stateMutability": "nonpayable",
      "type": "function"
    },
    {
      "inputs": [
        {
          "internalType": "bytes32",
          "name": "_node",
          "type": "bytes32"
        },
        {
          "internalType": "bytes",
          "name": "_contenthash",
          "type": "bytes"
        }
      ],
      "name": "setContenthash",
      "outputs": [],
      "stateMutability": "nonpayable",
      "type": "function"
    },
    {
      "inputs": [
        {
          "internalType": "bytes32",
          "name": "digest",
          "type": "bytes32"
        },
        {
          "internalType": "bytes",
          "name": "signature",
          "type": "bytes"
        }
      ],
      "name": "signedBy",
      "outputs": [
        {
          "internalType": "address",
          "name": "_addr",
          "type": "address"
        }
      ],
      "stateMutability": "pure",
      "type": "function"
    },
    {
      "inputs": [
        {
          "internalType": "bytes4",
          "name": "interfaceID",
          "type": "bytes4"
        }
      ],
      "name": "supportsInterface",
      "outputs": [
        {
          "internalType": "bool",
          "name": "",
          "type": "bool"
        }
      ],
      "stateMutability": "pure",
      "type": "function"
    },
    {
      "inputs": [
        {
          "internalType": "address",
          "name": "_addr",
          "type": "address"
        }
      ],
      "name": "toChecksumAddress",
      "outputs": [
        {
          "internalType": "string",
          "name": "",
          "type": "string"
        }
      ],
      "stateMutability": "pure",
      "type": "function"
    },
    {
      "inputs": [
        {
          "internalType": "address",
          "name": "_newOwner",
          "type": "address"
        }
      ],
      "name": "transferOwnership",
      "outputs": [],
      "stateMutability": "nonpayable",
      "type": "function"
    },
    {
      "inputs": [
        {
          "internalType": "uint256",
          "name": "value",
          "type": "uint256"
        }
      ],
      "name": "uintToString",
      "outputs": [
        {
          "internalType": "string",
          "name": "",
          "type": "string"
        }
      ],
      "stateMutability": "pure",
      "type": "function"
    },
    {
      "inputs": [
        {
          "internalType": "address",
          "name": "_addr",
          "type": "address"
        },
        {
          "internalType": "bool",
          "name": "_set",
          "type": "bool"
        }
      ],
      "name": "updateWrapper",
      "outputs": [],
      "stateMutability": "nonpayable",
      "type": "function"
    },
    {
      "inputs": [
        {
          "internalType": "address[]",
          "name": "_addrs",
          "type": "address[]"
        },
        {
          "internalType": "bool[]",
          "name": "_sets",
          "type": "bool[]"
        }
      ],
      "name": "updateWrappers",
      "outputs": [],
      "stateMutability": "nonpayable",
      "type": "function"
    },
    {
      "inputs": [],
      "name": "withdraw",
      "outputs": [],
      "stateMutability": "nonpayable",
      "type": "function"
    },
    {
      "inputs": [
        {
          "internalType": "address",
          "name": "_token",
          "type": "address"
        },
        {
          "internalType": "uint256",
          "name": "_balance",
          "type": "uint256"
        }
      ],
      "name": "withdraw",
      "outputs": [],
      "stateMutability": "nonpayable",
      "type": "function"
    }
  ],
  "bytecode": {
    "object": "0x604060c08152346200036757306080526e0c2e074ec69a0dfb2997ba6c7d2e1e60a052600090631d9dabef60e11b825260209060028252808320620000506200004982546200036c565b82620003a9565b7f5f616464726573732f3630000000000000000000000000000000000000000016905563c869023360e01b8352600282528083208054620000969062000049906200036c565b600c657075626b657960d01b01905563691f343160e01b8352600282528083208054620000c89062000049906200036c565b6008636e616d6560e01b01905563bc1c58d160e01b8352600282528083208054620000f89062000049906200036c565b7f636f6e74656e74686173680000000000000000000000000000000000000000169055635c98042b60e01b83526002825280832080546200013e9062000049906200036c565b7f5f646e732f7a6f6e65686173680000000000000000000000000000000000001a905582546001600160a01b031916331783556001805468010000000000000000949193919085811015620003535780856200019d92018655620003e3565b6200033f5780620001b562000049600993546200036c565b7f647765622e6c696e6b00000000000000000000000000000000000000000000129055835168647765622e6c696e6b60b81b8152207f7a9f387a9d3844b91ba19679387fe32e833e4311fec98471b6df53b9855e3f479590868380a2845490811015620003535780856200022c92018655620003e3565b6200033f57806200024462000049600793546200036c565b600e66697066732e696f60c81b019055835166697066732e696f60c81b8152208351958280a2600573d4416b13d2b3a9abae7acd5d6c2bbdbe25686401928383525282812060ff19908582825416179055847f8ea51d3bcf70e647a0bb1312a2a0fa7fbc0c51fb47325275912a75c257c0826393848480a38473114d4603199df73e7d157787f8778e21fcd130669485845283209182541617905580a36140c3908162000416823960805181818161021a0152818161097a01528181610cd301528181611515015281816125ca015261264c015260a0518181816109cf01528181610df201528181612104015281816127170152612c920152f35b634e487b7160e01b82526004829052602482fd5b634e487b7160e01b82526041600452602482fd5b600080fd5b90600182811c921680156200039e575b60208310146200038857565b634e487b7160e01b600052602260045260246000fd5b91607f16916200037c565b601f8211620003b6575050565b6000908152601f60208220920160051c8201915b828110620003d757505050565b818155600101620003ca565b600154811015620003ff57600160005260206000200190600090565b634e487b7160e01b600052603260045260246000fdfe6080604081815260048036101561001557600080fd5b600092833560e01c90816301ffc9a714612ffa5750806306dcdc6314612dea578063084ac40a14612cb65780631d2e2cc414612c7257806321d6e7dd14612bbb57806323948f3e14612b6b5780633012157014612a17578063304e6ade146126e0578063356a277a146126925780633ccfd60b146126295780635058c460146125695780635d1219d51461243d5780636d41a5171461209b578063814b74561461200857806382adc20814611e925780638384976f14611e015780638da5cb5b14611ddb5780639061b9231461126d5780639885e3b414611242578063a22cb46514611191578063a4b91a01146110d5578063a9784b3e14611044578063acc0f7b114610fa4578063b984b2cd14610dae578063bc1c58d114610d85578063bf1e9c8514610d1a578063c55a5d591461062c578063cf13535214610605578063d63a48011461057a578063e0aa27971461053e578063e190ea6514610504578063e5dac7031461043d578063e8d76b1e146103e9578063e9395679146103b1578063e985e9c51461031a578063f2fde38b146102985763f3fef3a3146101ba57600080fd5b8291346102945780600319360112610294576001600160a01b0391826101de6133fa565b169284541690833b156102905782517f23b872dd0000000000000000000000000000000000000000000000000000000081526001600160a01b037f00000000000000000000000000000000000000000000000000000000000000008116928201928352909216602082015260243560408201529092849184919082908490829060600103925af190811561028757506102745750f35b61027d906131e9565b6102845780f35b80fd5b513d84823e3d90fd5b8480fd5b5050fd5b8334610284576020366003190112610284576102b26133fa565b7fffffffffffffffffffffffff000000000000000000000000000000000000000082546001600160a01b03808216936102ec8533146138a0565b1680937f8be0079c531659141344cd1fd0a4f28419497f9722a3daafe3b4186f6b6457e08680a31617815580f35b50346103ad57816003193601126103ad578160209360ff9261033a6133fa565b61038c61039a610348613410565b86519283918b8301958690603292691b585b9859d94b585b1b60b21b83526bffffffffffffffffffffffff19809260601b16600a84015260601b16601e8201520190565b03601f19810183528261324b565b5190208252855220541690519015158152f35b8280fd5b50913461028457602036600319011261028457506103d26103e59235613d57565b90519182916020835260208301906133d5565b0390f35b50913461028457816003193601126102845782359067ffffffffffffffff821161028457506104216103e59361042a923691016134d5565b60243590613612565b9051918291602083526020830190613426565b50829034610500576020366003190112610500578035906104696001600160a01b0384541633146138a0565b6104916001549461047c60018711613a8b565b61048584613285565b5090519182809261356e565b0390207fd94fae538c4428e7bd1e4fa66b93ad367b2c5bbbc9d0dae73a21526257361ff48480a260001984019384116104ed57506104dc6104d56104e29394613285565b5091613285565b90613bb3565b6104ea613bc2565b80f35b826011602492634e487b7160e01b835252fd5b5080fd5b505034610500576020366003190112610500576103d2816103e5936001600160e01b03196105306130f8565b16815260026020522061330c565b5050346105005760203660031901126105005760ff816020936001600160a01b036105676133fa565b1681526005855220541690519015158152f35b50346103ad5760203660031901126103ad5780359067ffffffffffffffff8211610601576105aa9136910161310f565b80926105c16001600160a01b0386541633146138a0565b6105cb8284613a20565b5192839283378101600081520390207f7a9f387a9d3844b91ba19679387fe32e833e4311fec98471b6df53b9855e3f478280a280f35b8380fd5b505034610500576020366003190112610500576103e5906103d26106276133fa565b613dfb565b5090346103ad5761063c36613502565b8195929395019560a08288031261028457813590602096878401359560608501359367ffffffffffffffff94858111610290578b61067b9188016134d5565b9a6080870135868111610c3057906106949188016134d5565b9560038201808311610d07578a904311159283610cb9575b50505015610c77578086116103ad5763c55a5d5960e01b6001600160e01b031983351603610c3457810193606082860360031901126103ad5785820135946001600160a01b0394858716809703610290576024840135818111610c30578289610717928701016134d5565b936044810135918211610c30578b93928b9261073592018a016134d5565b9b8c848151910120825190858201528481526107508161322f565b610759906137ea565b61076289613dfb565b908351948593878501957f52657175657374696e67207369676e617475726520666f72206f66662d636861875285017f696e20454e53207265636f72640a0000000000000000000000000000000000009052604e85017f0a454e5320446f6d61696e3a200000000000000000000000000000000000000090528051908189605b88019201916107f0926133b2565b8401605b81017f0a5265636f726420547970653a20000000000000000000000000000000000000905281519182896069840192019161082e926133b2565b01606981017f0a5265636f726420486173683a20307800000000000000000000000000000000905281519182886079840192019161086b926133b2565b01607981017f0a5369676e65642042793a206569703135353a313a000000000000000000000090528151918287608e84019201916108a8926133b2565b0103606e81018352608e016108bd908361324b565b81516108c890613d57565b918a51918291858301947f19457468657265756d205369676e6564204d6573736167653a0a00000000000086528051908188603a870192019161090a926133b2565b830190519182603a830161091d926133b2565b0103601a81018252603a01610932908261324b565b5190208851809381927f06dcdc63000000000000000000000000000000000000000000000000000000008352898301528a602483015260448201610975916133d5565b0381867f0000000000000000000000000000000000000000000000000000000000000000165afa908115610ba7579083918391610c13575b50168303610bd0578551916302571be360e01b835285858401528783602481847f0000000000000000000000000000000000000000000000000000000000000000165afa928315610ba757908291889394610bb1575b50888185168084526005825260ff8585205416610b41575b505083168414159283610adb575b83610a7a575b505050610a4c575050506103e590519282849384528301906133d5565b835163a78e4aa560e01b81529182019283526001600160a01b031660208301529081906040010390fd5b0390fd5b60ff93508251610ac78161038c888d8301958690603292691b585b9859d94b585b1b60b21b83526bffffffffffffffffffffffff19809260601b16600a84015260601b16601e8201520190565b519020815284885220541615843880610a2f565b8251696d616e6167652d6f6e6560b01b8a8201908152600a81018990526bffffffffffffffffffffffff19606084811b8216602a84015288901b16603e820152919450610b2b816052840161038c565b519020815284885260ff82822054161592610a29565b909194506024929351928380926331a9108f60e11b82528a8a8301525afa908115610ba757908291889391610b7a575b50928838610a1b565b610b9a9150893d8b11610ba0575b610b92818361324b565b810190613c58565b38610b71565b503d610b88565b87513d84823e3d90fd5b610bc9919450893d8b11610ba057610b92818361324b565b9238610a03565b6064848888519163151a7bff60e11b8352820152600a60248201527f4241445f5349474e4552000000000000000000000000000000000000000000006044820152fd5b610c2a9150893d8b11610ba057610b92818361324b565b386109ad565b8580fd5b6064868a8a519163151a7bff60e11b8352820152600a60248201527f4241445f505245464958000000000000000000000000000000000000000000006044820152fd5b6064868a8a519162461bcd60e51b8352820152601860248201527f494e56414c49445f434845434b53554d2f54494d454f555400000000000000006044820152fd5b909192508c610cf88d61038c8b86519485938401963390407f000000000000000000000000000000000000000000000000000000000000000089613d00565b519020910135143889816106ac565b60248660118b634e487b7160e01b835252fd5b5082346102845780600319360112610284576001600160a01b0390541691823303610d425782ff5b906020606492519162461bcd60e51b8352820152600960248201527f4e4f545f4f574e455200000000000000000000000000000000000000000000006044820152fd5b50346103ad5760203660031901126103ad57816103e5936103d29235815260036020522061330c565b50919034610500578060031936011261050057823590610dcc613410565b928151946302571be360e01b865283818701526020956001600160a01b038782602481847f0000000000000000000000000000000000000000000000000000000000000000165afa918215610f7b578492610f85575b50878183168086526005825260ff8787205416610f2b575b505080871690821614948515610ec1575b508415610e5e575b868585519015158152f35b60ff945061038c610eae859786519283918b8301958690603292691b585b9859d94b585b1b60b21b83526bffffffffffffffffffffffff19809260601b16600a84015260601b16601e8201520190565b5190208252855220541681388080610e53565b9094508351610f158161038c89898c84019687919092605293696d616e6167652d6f6e6560b01b8452600a8401526bffffffffffffffffffffffff19809260601b16602a84015260601b16603e8201520190565b519020825280865260ff83832054169338610e4b565b60249293508651928380926331a9108f60e11b82528a888301525afa908115610f7b578491610f5e575b50908738610e3a565b610f759150883d8a11610ba057610b92818361324b565b38610f55565b85513d86823e3d90fd5b610f9d919250883d8a11610ba057610b92818361324b565b9038610e22565b50346103ad57816003193601126103ad578035906024359267ffffffffffffffff841161029057610fde6105cb9261103e9536910161310f565b81819682959396610ffa6001600160a01b038b541633146138a0565b61101261100682613285565b5087519182809261356e565b0390207fd94fae538c4428e7bd1e4fa66b93ad367b2c5bbbc9d0dae73a21526257361ff48b80a2613285565b90613947565b5091346102845760603660031901126102845761105f6133fa565b90604435906001600160a01b03821682036110d05760209460ff9361038c61039a879586519283918b83019560243587919092605293696d616e6167652d6f6e6560b01b8452600a8401526bffffffffffffffffffffffff19809260601b16602a84015260601b16603e8201520190565b600080fd5b50346103ad5760603660031901126103ad5780356110f1613410565b91604435938415158095036110d0576001600160a01b03817ff0ddb3b04746704017f9aa8bd728fcc2c1d11675041205350018915f5e4750a093602093518481019061117f8161038c8b338c87919092605293696d616e6167652d6f6e6560b01b8452600a8401526bffffffffffffffffffffffff19809260601b16602a84015260601b16603e8201520190565b5190208952835251943386521693a480f35b5090346103ad57806003193601126103ad576001600160a01b03906111b46133fa565b906111bd6134f3565b93815160208101906112098161038c87338690603292691b585b9859d94b585b1b60b21b83526bffffffffffffffffffffffff19809260601b16600a84015260601b16601e8201520190565b519020865260205251921515835216907f17307eab39ab6107e8899845ad3d59bd9653f200f220920489ca2b5937696c3160203392a380f35b50346103ad5760203660031901126103ad57816020938260ff93358252855220541690519015158152f35b5090346103ad5761127d36613502565b929095919460019580871161060157823560f81c918651986105608a019067ffffffffffffffff918b811083821117611dc6578952602a8b528a60005b6105408110611db4575050848a0194858b11611db057848611611db0576112eb909b9a9799989b369089890161349e565b6112f48b6135f1565b526112fe8a6135f1565b506113088a6135f1565b519a8b5b85871015611d9d576001600160f81b031987890135161561145d578b899a9b9c9d88888b600183019b611340928d92613c77565b61134991613cac565b60f81c01600101988961135d918a8d613c77565b36906113689261349e565b6113728c846135fe565b5261137d8b836135fe565b506113888b836135fe565b51918d51825160209381858085019201916113a2926133b2565b8101938385017f2e000000000000000000000000000000000000000000000000000000000000009052818151602196879382888684019201916113e4926133b2565b0103600181018352016113f7908261324b565b9b611401916135fe565b51908d51938285935190818480870192019161141c926133b2565b830190828201602f60f81b90528051809386840192019161143c926133b2565b01036001810183520161144f908261324b565b979b9a99986001019761130c565b918b908a8e8b96948e6000198099019761147789886135fe565b519283516020809501208651858101918583528882015287815261149a81613213565b5190209683988c8c60609d5b611d2d57505050602497828911610290578d8201358103611cec578b5115611cbe5750818d1161060157908592916001600160e01b031991868383351693848852600282526114f78b8920546132d2565b15611961575050505083526002845261151186842061330c565b925b7f00000000000000000000000000000000000000000000000000000000000000009b43019a8c8c611551878b519a8b938b8501953391409087613d00565b0397611565601f19998a810183528261324b565b5190209281511561194f57818701516001600160f81b0319935083167fe500000000000000000000000000000000000000000000000000000000000000036119155788516115b28161322f565b600781527f2f69706e732f660000000000000000000000000000000000000000000000000088820152915b805160011981019081116118ff578060011b818104600214821517156118e8579061160b879594939261376e565b956116146137a0565b9260005b8381106118015750505050508951938285935190818b80870192019161163d926133b2565b8301815191828b808401920191611653926133b2565b018881017f2f2e77656c6c2d6b6e6f776e2f000000000000000000000000000000000000009052815191828a602d840192019161168f926133b2565b01602d8101602f60f81b9052865190602e8101828a8a01916116b0926133b2565b01602e81017f2e6a736f6e3f743d7b646174617d000000000000000000000000000000000000905203601c81018352603c016116ec908361324b565b6116f591613612565b9786519942603c900416603c0260c01b7fffffffffffffffff00000000000000000000000000000000000000000000000016858b015260088a526117388a61322f565b86519a8b958601528685015260608401526080830160a0905260c0830161175e916133d5565b838382030160a0840152611771916133d5565b039081018652611781908661324b565b519586957f556f18300000000000000000000000000000000000000000000000000000000087526001600160a01b031690860152840160a0905260a484016117c891613426565b9060031991828582030160448601526117e0916133d5565b906064840163c55a5d5960e01b9052838203016084840152610a76916133d5565b9091929394959650600281018082116118ce5761181e90836137d9565b518361182d8260fc1c886137d9565b5116908260011b91838304600214841517156118b257600f86928c611859866118649560001a926137d9565b5360f81c16886137d9565b511660018201809211611897579061188461188a939260001a918b6137d9565b53613549565b9088969594939291611618565b5050505050508f60118c91634e487b7160e01b600052526000fd5b505050505050508f60118c91634e487b7160e01b600052526000fd5b50505050508f60118c91634e487b7160e01b600052526000fd5b50508f60118c91634e487b7160e01b600052526000fd5b508f60118c91634e487b7160e01b600052526000fd5b88516119208161322f565b600781527f2f697066732f660000000000000000000000000000000000000000000000000088820152916115dd565b634e487b7160e01b835260328f528983fd5b949550919390927f59d1d43c0000000000000000000000000000000000000000000000000000000081036119c4575050508101908460231982840301126106015787810135908a82116102905791886119be9288959401016134d5565b92611513565b9394939192917ff1cb7e06000000000000000000000000000000000000000000000000000000008103611a5e575050830183900360231901126110d057611a0e8786930135613d57565b6119be6029885180937f5f616464726573732f000000000000000000000000000000000000000000000089830152611a4e815180928b86860191016133b2565b810103600981018452018261324b565b90949291907f124a319c000000000000000000000000000000000000000000000000000000008103611b13575082018290036023190112610601578701359182168092036110d057611ac38592875190868201528d8152611abe8161322f565b6137ea565b6119be602d885180937f5f696e746572666163652f30780000000000000000000000000000000000000089830152611b03815180928b86860191016133b2565b810103600d81018452018261324b565b92945090917f2203ab56000000000000000000000000000000000000000000000000000000008103611bab5750830183900360231901126110d057611b5b8786930135613d57565b6119be6025885180937f5f6162692f00000000000000000000000000000000000000000000000000000089830152611b9b815180928b86860191016133b2565b810103600581018452018261324b565b9293929091507fa8fa5682000000000000000000000000000000000000000000000000000000008103611c90575081018190036023190186136103ad5760448101359061ffff821680920361060157906119be6028611c25611c1f8996958c8c519101358a820152898152611abe8161322f565b93613d57565b9289519384917f5f646e732f3078000000000000000000000000000000000000000000000000008a840152611c63815180928c6027870191016133b2565b8201602f60f81b6027820152611c81825180938c87850191016133b2565b0103600881018452018261324b565b8d89918951917f0c9addbc000000000000000000000000000000000000000000000000000000008352820152fd5b8d89918951917fca1c65c1000000000000000000000000000000000000000000000000000000008352820152fd5b60648e600c8b898c519362461bcd60e51b85528401528201527f4241445f4e414d454841534800000000000000000000000000000000000000006044820152fd5b0198611d398a836135fe565b518781519101208951908882019283528a820152898152611d5981613213565b519020988986526003808852611d718a8820546132d2565b611d7f575b50808e916114a6565b919c5099508885528552611d9487852061330c565b9a89899a611d76565b60248b603287634e487b7160e01b835252fd5b8780fd5b60606020828194010152018b906112ba565b604184634e487b7160e01b6000525260246000fd5b5050346105005781600319360112610500576001600160a01b0360209254169051908152f35b505034610500578060031936011261050057611e1b6133fa565b611e68611e266134f3565b80926001600160a01b0390611e3f8288541633146138a0565b611e4b813b1515614021565b1693848652600560205285209060ff801983541691151516179055565b1515907f8ea51d3bcf70e647a0bb1312a2a0fa7fbc0c51fb47325275912a75c257c082638380a380f35b50913461028457816003193601126102845782359067ffffffffffffffff82116102845750611ec490369084016134d5565b90602492833583519481860392868411611ff55760019284841b600298828783048b1491141715611fe157611ef89061376e565b96611f016137a0565b9160005b878110611f21578851602080825281906103e59082018d6133d5565b818101808211611fcd57611f368c91856137d9565b516001600160f81b03199081611f4f8260fc1c896137d9565b5116848b1b938585041485151715611fb957611f81918e611f7686600f9460001a926137d9565b5360f81c16876137d9565b5116888201809211611fa55790611884611fa0939260001a918d6137d9565b611f05565b87601188634e487b7160e01b600052526000fd5b8960118a634e487b7160e01b600052526000fd5b86601187634e487b7160e01b600052526000fd5b83601184634e487b7160e01b600052526000fd5b601190634e487b7160e01b600052526000fd5b8284346102845780600319360112610284576001918254926120298461326d565b936120368351958661324b565b8085528184526020937fb10e2d527612073b26eecdfd717e6a320cf44b4afac2b0732d9fcbe2b7fa0cf6858088015b84841061207e578651828152806103e58185018c613426565b8591829161208b8561330c565b8152019201920191908690612065565b509190346105005760603660031901126105005782356120b9613410565b9167ffffffffffffffff90604435828111610c30576120db903690880161310f565b8297919751906302571be360e01b825285838301526020986001600160a01b03958a846024818a7f0000000000000000000000000000000000000000000000000000000000000000165afa938415612414578a9461241e575b508a878516808c526005825260ff888d2054166123c4575b505086841633141580612367575b61234657878a5260038b52858a20908311612333576121838361217d83546132d2565b83613902565b89601f841160011461228557838b9c9795938a937ff0ddb3b04746704017f9aa8bd728fcc2c1d11675041205350018915f5e4750a09a98967fe379c1624ed7e714cc0937528a32359d69d5281337765313dba4e081b72d75789460019f9161227a575b50600019600385901b1c1916838f1b1790555b612207875192839283613cd8565b0390a2825161225b8161038c8b898301958c87919092605293696d616e6167652d6f6e6560b01b8452600a8401526bffffffffffffffffffffffff19809260601b16602a84015260601b16603e8201520190565b51902089528352808820805460ff19168817905551338152941693a480f35b9050820135386121e6565b818b528b8b2090601f1985168c5b81811061231c5750938a937fe379c1624ed7e714cc0937528a32359d69d5281337765313dba4e081b72d75789360019e9f9a989693887ff0ddb3b04746704017f9aa8bd728fcc2c1d11675041205350018915f5e4750a09d9b999510612302575b50508d83811b0190556121f9565b830135600019600386901b60f8161c1916905538806122f4565b91928e600181928689013581550194019201612293565b60248a604187634e487b7160e01b835252fd5b855163a78e4aa560e01b815280860189815233602082015281906040010390fd5b508551691b585b9859d94b585b1b60b21b8c82019081526bffffffffffffffffffffffff19606087811b8216600a84015233901b16601e820152906123af816032840161038c565b5190208a52848b5260ff868b2054161561215a565b60249295508751928380926331a9108f60e11b82528c8a8301525afa908115612414578a916123f7575b50928a3861214c565b61240e91508b3d8d11610ba057610b92818361324b565b386123ee565b86513d8c823e3d90fd5b6124369194508b3d8d11610ba057610b92818361324b565b9238612134565b5090346103ad5761244d366131a2565b92946124676001600160a01b0388949394541633146138a0565b8382036125265750855b81811061247c578680f35b8061249761100661249161252194868b613c48565b35613285565b0390207fd94fae538c4428e7bd1e4fa66b93ad367b2c5bbbc9d0dae73a21526257361ff48980a26124db6124cc828787613a49565b9061103e61249185888d613c48565b6124e6818686613a49565b9081885192839283378101600081520390207f7a9f387a9d3844b91ba19679387fe32e833e4311fec98471b6df53b9855e3f478980a2613549565b612471565b606490602086519162461bcd60e51b8352820152601160248201527f42616420696e707574206c656e677468730000000000000000000000000000006044820152fd5b5090346103ad57806003193601126103ad57826001600160a01b03928361258e6133fa565b169382541693803b156103ad5783517f42842e0e0000000000000000000000000000000000000000000000000000000081526001600160a01b037f0000000000000000000000000000000000000000000000000000000000000000811693820193845290951660208301526024356040830152849182908490829060600103925af19081156102875750612620575080f35b6104ea906131e9565b505034610500578160031936011261050057818080806001600160a01b038154167f00000000000000000000000000000000000000000000000000000000000000003190828215612689575bf11561267f575080f35b51903d90823e3d90fd5b506108fc612675565b509134610284576020366003190112610284578235600154811015610500576126ba90613285565b9390936126ce576103e5836103d28661330c565b9080602492634e487b7160e01b825252fd5b50829034610500576126f13661313d565b919285516302571be360e01b815284828201526020906001600160a01b038282602481847f0000000000000000000000000000000000000000000000000000000000000000165afa9182156129ee5788926129f8575b5082818316808a526005825260ff8b8b20541661299e575b505081163314159081612938575b816128d6575b506128b457848652600381528686209167ffffffffffffffff85116128a157506127a7846127a184546132d2565b84613902565b8590601f8511600114612815575095612804918487987fe379c1624ed7e714cc0937528a32359d69d5281337765313dba4e081b72d757897989161280a575b508560011b906000198760031b1c19161790555b5192839283613cd8565b0390a280f35b9050840135896127e6565b90601f1985168388528288209288905b828210612889575050916128049391867fe379c1624ed7e714cc0937528a32359d69d5281337765313dba4e081b72d757898999a941061286f575b5050600185811b0190556127fa565b850135600019600388901b60f8161c191690558880612860565b80600185968294968a01358155019501930190612825565b866041602492634e487b7160e01b835252fd5b50855163a78e4aa560e01b815290810184815233602082015281906040010390fd5b905087516129228161038c8582019433908690603292691b585b9859d94b585b1b60b21b83526bffffffffffffffffffffffff19809260601b16600a84015260601b16601e8201520190565b519020865281815260ff87872054161588612773565b8851696d616e6167652d6f6e6560b01b848201908152600a81018990526bffffffffffffffffffffffff19606084811b8216602a84015233901b16603e820152919250612988816052840161038c565b519020875282825260ff8888205416159061276d565b60249293508a51928380926331a9108f60e11b82528b898301525afa9081156129ee5788916129d1575b5090828a61275f565b6129e89150833d8511610ba057610b92818361324b565b896129c8565b89513d8a823e3d90fd5b612a10919250833d8511610ba057610b92818361324b565b9089612747565b5090346103ad57602091826003193601126106015780359267ffffffffffffffff84116102905736602385011215610290578382013590612a578261326d565b94612a648551968761324b565b8286528186016024809460051b83010191368311612b67578401905b828210612b585750505050612aa06001600160a01b0386541633146138a0565b835192600190612ab285835411613a8b565b865b858110612abf578780f35b612ae1612ad5612acf838a6135fe565b51613285565b5083519182809261356e565b0390207fd94fae538c4428e7bd1e4fa66b93ad367b2c5bbbc9d0dae73a21526257361ff48980a282546000198101908111612b465790612b34612b26612b4193613285565b506104dc612acf848c6135fe565b612b3c613bc2565b613549565b612ab4565b8489601188634e487b7160e01b835252fd5b81358152908301908301612a80565b8880fd5b5090346103ad5736600319011261050057612b846130f8565b506024359067ffffffffffffffff82116103ad57612ba49136910161310f565b50506104ea6001600160a01b0382541633146138a0565b50346103ad5760203660031901126103ad5780359067ffffffffffffffff821161060157612beb91369101613171565b612c036001600160a01b0385949394541633146138a0565b835b818110612c10578480f35b80612c28612c22612c6d938588613a49565b90613a20565b612c33818487613a49565b90818651928392833781018881520390207f7a9f387a9d3844b91ba19679387fe32e833e4311fec98471b6df53b9855e3f478780a2613549565b612c05565b505034610500578160031936011261050057602090516001600160a01b037f0000000000000000000000000000000000000000000000000000000000000000168152f35b50346103ad57612cc5366131a2565b919093926001600160a01b0393612ce08589541633146138a0565b838303612da75750865b828110612cf5578780f35b80612d17612d0f612d0a612da2948787613c48565b61406c565b3b1515614021565b612d58612d2d612d2883888b613c48565b614080565b87612d3c612d0a858989613c48565b168b526005602052898b209060ff801983541691151516179055565b612d66612d0a828686613c48565b86612d75612d2884898c613c48565b151591167f8ea51d3bcf70e647a0bb1312a2a0fa7fbc0c51fb47325275912a75c257c082638b80a3613549565b612cea565b606490602088519162461bcd60e51b8352820152600a60248201527f4241445f4c454e475448000000000000000000000000000000000000000000006044820152fd5b5090346103ad57612dfa3661313d565b94919060209580871161060157808503612f6057612e1e90601f1901828801613c8f565b907f7fffffffffffffffffffffffffffffffffffffffffffffffffffffffffffffff82169160ff1c601b8101809111612f4d5760ff165b7f7fffffffffffffffffffffffffffffff5d576e7357a4501ddfe92f46681b20a08311612f0a57855193845260ff1683880152358285015260608201528180528490829060809060015afa15612eff57516001600160a01b0316918215612ebd575051908152f35b83606492519163151a7bff60e11b8352820152600c60248201527f5a45524f5f4144445245535300000000000000000000000000000000000000006044820152fd5b9051903d90823e3d90fd5b6064878988519163151a7bff60e11b8352820152600f60248201527f494e56414c49445f535f56414c554500000000000000000000000000000000006044820152fd5b602485601189634e487b7160e01b835252fd5b9060418203612f8c5781851161060157612f848782013592603f1901868301613cac565b60f81c612e55565b60608203612fb7578185116106015760ff612fb18883013593603f1901878401613c8f565b16612e55565b6064868887519163151a7bff60e11b8352820152600e60248201527f4241445f5349475f4c454e4754480000000000000000000000000000000000006044820152fd5b849034610500576020366003190112610500576020906001600160e01b03196130216130f8565b167f9061b9230000000000000000000000000000000000000000000000000000000081149081156130ce575b81156130a4575b8115613093575b8115613069575b5015158152f35b7f01ffc9a70000000000000000000000000000000000000000000000000000000091501483613062565b63c55a5d5960e01b8114915061305b565b7f7f5828d00000000000000000000000000000000000000000000000000000000081149150613054565b7f304e6ade000000000000000000000000000000000000000000000000000000008114915061304d565b600435906001600160e01b0319821682036110d057565b9181601f840112156110d05782359167ffffffffffffffff83116110d057602083818601950101116110d057565b9060406003198301126110d057600435916024359067ffffffffffffffff82116110d05761316d9160040161310f565b9091565b9181601f840112156110d05782359167ffffffffffffffff83116110d0576020808501948460051b0101116110d057565b60406003198201126110d05767ffffffffffffffff916004358381116110d057826131cf91600401613171565b939093926024359182116110d05761316d91600401613171565b67ffffffffffffffff81116131fd57604052565b634e487b7160e01b600052604160045260246000fd5b6060810190811067ffffffffffffffff8211176131fd57604052565b6040810190811067ffffffffffffffff8211176131fd57604052565b90601f8019910116810190811067ffffffffffffffff8211176131fd57604052565b67ffffffffffffffff81116131fd5760051b60200190565b6001548110156132bc5760016000527fb10e2d527612073b26eecdfd717e6a320cf44b4afac2b0732d9fcbe2b7fa0cf60190600090565b634e487b7160e01b600052603260045260246000fd5b90600182811c92168015613302575b60208310146132ec57565b634e487b7160e01b600052602260045260246000fd5b91607f16916132e1565b9060405191826000825492613320846132d2565b90818452600194858116908160001461338f575060011461334c575b505061334a9250038361324b565b565b9093915060005260209081600020936000915b81831061337757505061334a9350820101388061333c565b8554888401850152948501948794509183019161335f565b91505061334a94506020925060ff191682840152151560051b820101388061333c565b60005b8381106133c55750506000910152565b81810151838201526020016133b5565b906020916133ee815180928185528580860191016133b2565b601f01601f1916010190565b600435906001600160a01b03821682036110d057565b602435906001600160a01b03821682036110d057565b908082519081815260208091019281808460051b8301019501936000915b8483106134545750505050505090565b9091929394958480613472600193601f198682030187528a516133d5565b9801930193019194939290613444565b67ffffffffffffffff81116131fd57601f01601f191660200190565b9291926134aa82613482565b916134b8604051938461324b565b8294818452818301116110d0578281602093846000960137010152565b9080601f830112156110d0578160206134f09335910161349e565b90565b6024359081151582036110d057565b60406003198201126110d05767ffffffffffffffff916004358381116110d0578261352f9160040161310f565b939093926024359182116110d05761316d9160040161310f565b60001981146135585760010190565b634e487b7160e01b600052601160045260246000fd5b60009291815461357d816132d2565b926001918083169081156135d6575060011461359a575b50505050565b90919293945060005260209081600020906000915b8583106135c55750505050019038808080613594565b8054858401529183019181016135af565b60ff1916845250505081151590910201915038808080613594565b8051156132bc5760200190565b80518210156132bc5760209160051b010190565b9190916001548060011c93600185018095116135585760058511613765575b939061363c8261326d565b9260409361364c8551918261324b565b838152601f19928361365d8661326d565b0160005b81811061375257505081976000943360601b958315925b88821061368b5750505050505050505050565b83918a51916020928381019182528a8d820152603481526136ab81613213565b5190209261373c576136fe61371b8c613736946136c98a8806613285565b5091519384927f68747470733a2f2f00000000000000000000000000000000000000000000000083850152602884019061356e565b61370e8d828151948592016133b2565b010386810183528261324b565b61372582896135fe565b5261373081886135fe565b50613549565b90613678565b634e487b7160e01b600052601260045260246000fd5b6060602082860181019190915201613661565b60059450613631565b9061377882613482565b613785604051918261324b565b8281528092613796601f1991613482565b0190602036910137565b604051906137ad8261322f565b601082527f30313233343536373839616263646566000000000000000000000000000000006020830152565b9081518110156132bc570160200190565b8051600290600181811b8215838204851417156135585761380a9061376e565b936138136137a0565b9060005b8481106138275750505050505090565b61383181836137d9565b51906001600160f81b03198061384a8460fc1c876137d9565b51169282871b938385048a14841517156135585761387d91600f9160001a613872878e6137d9565b5360f81c16866137d9565b5116918581018091116135585761188461389b9360001a918a6137d9565b613817565b156138a757565b606460405162461bcd60e51b815260206004820152600860248201527f4f6e6c79204465760000000000000000000000000000000000000000000000006044820152fd5b8181106138f6575050565b600081556001016138eb565b9190601f811161391157505050565b61334a926000526020600020906020601f840160051c8301931061393d575b601f0160051c01906138eb565b9091508190613930565b91939290613a0a5767ffffffffffffffff81116131fd5761396c816127a184546132d2565b6000601f82116001146139a6578192939460009261399b575b50508160011b916000199060031b1c1916179055565b013590503880613985565b601f198216948382526020918281209281905b8882106139f2575050836001959697106139d8575b505050811b019055565b0135600019600384901b60f8161c191690553880806139ce565b806001849682949587013581550195019201906139b9565b634e487b7160e01b600052600060045260246000fd5b9060015491680100000000000000008310156131fd5761103e83600161334a9501600155613285565b91908110156132bc5760051b81013590601e19813603018212156110d057019081359167ffffffffffffffff83116110d05760200182360381136110d0579190565b15613a9257565b606460405162461bcd60e51b815260206004820152600c60248201527f4c617374204761746577617900000000000000000000000000000000000000006044820152fd5b90808214613baf57613ae881546132d2565b9067ffffffffffffffff82116131fd578190613b0e82613b0886546132d2565b86613902565b600090601f8311600114613b4457600092613b395750508160011b916000199060031b1c1916179055565b015490503880613985565b81526020808220858352818320935090601f1985169083905b828210613b96575050908460019594939210613b7d57505050811b019055565b015460001960f88460031b161c191690553880806139ce565b8495819295850154815560018091019601940190613b5d565b5050565b9190613a0a5761334a91613ad6565b6001548015613c325760001901613bd881613285565b613a0a57613be681546132d2565b9081613bf4575b5050600155565b81601f60009311600114613c0c5750555b3880613bed565b908083918252613c2b601f60208420940160051c8401600185016138eb565b5555613c05565b634e487b7160e01b600052603160045260246000fd5b91908110156132bc5760051b0190565b908160209103126110d057516001600160a01b03811681036110d05790565b909392938483116110d05784116110d0578101920390565b359060208110613c9d575090565b6000199060200360031b1b1690565b6001600160f81b03199035818116939260018110613cc957505050565b60010360031b82901b16169150565b90918060409360208452816020850152848401376000828201840152601f01601f1916010190565b919260489594936bffffffffffffffffffffffff19809360601b168452601484015260601b166034820152613d3e82518093602087850191016133b2565b01613d5282518093602086850191016133b2565b010190565b8015613dc1576000818181805b613dae5750613d728161376e565b935b613d7e5750505090565b6000190190600a9060308282060160f81b6001600160f81b031916841a613da584876137d9565b53049081613d74565b91506001600a9101910480849291613d64565b50604051613dce8161322f565b600181527f3000000000000000000000000000000000000000000000000000000000000000602082015290565b604080516020926bffffffffffffffffffffffff199060601b1683820152601491828252613e288261322f565b805191613e3483613213565b602883528483019382368637825191613e4c8361322f565b601083527f303132333435363738394142434445460000000000000000000000000000000087840152613e7d6137a0565b92613e87826137ea565b8551613eaf8a8281613ea281830196878151938492016133b2565b810103808452018261324b565b51902060005b848110613f1257505050505050926134f092613f026022937f30780000000000000000000000000000000000000000000000000000000000009651968794850152518092858501906133b2565b810103600281018452018261324b565b613f1c81856137d9565b5160fc1c600f9081613f2e84886137d9565b5160f81c16908c8410156132bc5784841a9160076001600160f81b0319600493828787871c161160001461400f57613f66908a6137d9565b5116945b60019487861b9688880460021489151715613ffa57908f613f9b896001600160f81b03199796959460001a926137d9565b53161115613fe857613fad90886137d9565b5116915b8301809311613fd3575090611884613fce939260001a918b6137d9565b613eb5565b601190634e487b7160e01b6000525260246000fd5b613ff2908b6137d9565b511691613fb1565b601186634e487b7160e01b6000525260246000fd5b614019908d6137d9565b511694613f6a565b1561402857565b606460405162461bcd60e51b815260206004820152600d60248201527f4f6e6c7920436f6e7472616374000000000000000000000000000000000000006044820152fd5b356001600160a01b03811681036110d05790565b3580151581036110d0579056fea2646970667358221220ab0dc2ba0347d7722e792f872f99f2519c9e158ddfd37f3830088019f160715964736f6c63430008130033",
    "linkReferences": {}
  },
  "methodIdentifiers": {
    "ENS()": "1d2e2cc4",
    "Gateways(uint256)": "356a277a",
    "__callback(bytes,bytes)": "c55a5d59",
    "addFuncMap(bytes4,string)": "23948f3e",
    "addGateway(string)": "d63a4801",
    "addGateways(string[])": "21d6e7dd",
    "approve(bytes32,address,bool)": "a4b91a01",
    "approved(bytes32,address)": "b984b2cd",
    "bytesToString(bytes,uint256)": "82adc208",
    "contenthash(bytes32)": "bc1c58d1",
    "fastSetup(bytes32,address,bytes)": "6d41a517",
    "funcToFile(bytes4)": "e190ea65",
    "immolate()": "bf1e9c85",
    "isApprovedFor(address,bytes32,address)": "a9784b3e",
    "isApprovedForAll(address,address)": "e985e9c5",
    "isWrapper(address)": "e0aa2797",
    "listAllGateways()": "814b7456",
    "manager(bytes32)": "9885e3b4",
    "owner()": "8da5cb5b",
    "randomGateways(string,uint256)": "e8d76b1e",
    "removeGateway(uint256)": "e5dac703",
    "removeGateways(uint256[])": "30121570",
    "replaceGateway(uint256,string)": "acc0f7b1",
    "replaceGateways(uint256[],string[])": "5d1219d5",
    "resolve(bytes,bytes)": "9061b923",
    "safeWithdraw(address,uint256)": "5058c460",
    "setApprovalForAll(address,bool)": "a22cb465",
    "setContenthash(bytes32,bytes)": "304e6ade",
    "signedBy(bytes32,bytes)": "06dcdc63",
    "supportsInterface(bytes4)": "01ffc9a7",
    "toChecksumAddress(address)": "cf135352",
    "transferOwnership(address)": "f2fde38b",
    "uintToString(uint256)": "e9395679",
    "updateWrapper(address,bool)": "8384976f",
    "updateWrappers(address[],bool[])": "084ac40a",
    "withdraw()": "3ccfd60b",
    "withdraw(address,uint256)": "f3fef3a3"
  },
  "id": 22
}