{
  "abi": [
    {
      "inputs": [],
      "stateMutability": "nonpayable",
      "type": "constructor"
    },
    {
      "inputs": [
        {
          "internalType": "bytes1",
          "name": "_type",
          "type": "bytes1"
        }
      ],
      "name": "ContenthashNotImplemented",
      "type": "error"
    },
    {
      "inputs": [
        {
          "internalType": "bytes32",
          "name": "_node",
          "type": "bytes32"
        }
      ],
      "name": "ContenthashNotSet",
      "type": "error"
    },
    {
      "inputs": [
        {
          "internalType": "string",
          "name": "_message",
          "type": "string"
        }
      ],
      "name": "InvalidSignature",
      "type": "error"
    },
    {
      "inputs": [
        {
          "internalType": "bytes32",
          "name": "_node",
          "type": "bytes32"
        },
        {
          "internalType": "address",
          "name": "_addr",
          "type": "address"
        }
      ],
      "name": "NotAuthorized",
      "type": "error"
    },
    {
      "inputs": [
        {
          "internalType": "address",
          "name": "_addr",
          "type": "address"
        },
        {
          "internalType": "string[]",
          "name": "_gateways",
          "type": "string[]"
        },
        {
          "internalType": "bytes",
          "name": "_data",
          "type": "bytes"
        },
        {
          "internalType": "bytes4",
          "name": "_callbackFunction",
          "type": "bytes4"
        },
        {
          "internalType": "bytes",
          "name": "_extradata",
          "type": "bytes"
        }
      ],
      "name": "OffchainLookup",
      "type": "error"
    },
    {
      "inputs": [
        {
          "internalType": "bytes4",
          "name": "func",
          "type": "bytes4"
        }
      ],
      "name": "ResolverFunctionNotImplemented",
      "type": "error"
    },
    {
      "anonymous": false,
      "inputs": [
        {
          "indexed": true,
          "internalType": "string",
          "name": "domain",
          "type": "string"
        }
      ],
      "name": "AddGateway",
      "type": "event"
    },
    {
      "anonymous": false,
      "inputs": [
        {
          "indexed": true,
          "internalType": "address",
          "name": "owner",
          "type": "address"
        },
        {
          "indexed": true,
          "internalType": "address",
          "name": "operator",
          "type": "address"
        },
        {
          "indexed": false,
          "internalType": "bool",
          "name": "approved",
          "type": "bool"
        }
      ],
      "name": "ApprovalForAll",
      "type": "event"
    },
    {
      "anonymous": false,
      "inputs": [
        {
          "indexed": false,
          "internalType": "address",
          "name": "owner",
          "type": "address"
        },
        {
          "indexed": true,
          "internalType": "bytes32",
          "name": "node",
          "type": "bytes32"
        },
        {
          "indexed": true,
          "internalType": "address",
          "name": "delegate",
          "type": "address"
        },
        {
          "indexed": true,
          "internalType": "bool",
          "name": "approved",
          "type": "bool"
        }
      ],
      "name": "Approved",
      "type": "event"
    },
    {
      "anonymous": false,
      "inputs": [
        {
          "indexed": true,
          "internalType": "bytes32",
          "name": "_node",
          "type": "bytes32"
        },
        {
          "indexed": false,
          "internalType": "bytes",
          "name": "_contenthash",
          "type": "bytes"
        }
      ],
      "name": "ContenthashChanged",
      "type": "event"
    },
    {
      "anonymous": false,
      "inputs": [
        {
          "indexed": true,
          "internalType": "address",
          "name": "previousOwner",
          "type": "address"
        },
        {
          "indexed": true,
          "internalType": "address",
          "name": "newOwner",
          "type": "address"
        }
      ],
      "name": "OwnershipTransferred",
      "type": "event"
    },
    {
      "anonymous": false,
      "inputs": [
        {
          "indexed": true,
          "internalType": "string",
          "name": "domain",
          "type": "string"
        }
      ],
      "name": "RemoveGateway",
      "type": "event"
    },
    {
      "anonymous": false,
      "inputs": [
        {
          "indexed": false,
          "internalType": "bytes4",
          "name": "_func",
          "type": "bytes4"
        },
        {
          "indexed": false,
          "internalType": "string",
          "name": "_name",
          "type": "string"
        }
      ],
      "name": "UpdateFuncFile",
      "type": "event"
    },
    {
      "anonymous": false,
      "inputs": [
        {
          "indexed": true,
          "internalType": "address",
          "name": "_new",
          "type": "address"
        },
        {
          "indexed": true,
          "internalType": "bool",
          "name": "_ok",
          "type": "bool"
        }
      ],
      "name": "UpdateWrapper",
      "type": "event"
    },
    {
      "stateMutability": "payable",
      "type": "fallback"
    },
    {
      "inputs": [],
      "name": "ENS",
      "outputs": [
        {
          "internalType": "contract iENS",
          "name": "",
          "type": "address"
        }
      ],
      "stateMutability": "view",
      "type": "function"
    },
    {
      "inputs": [
        {
          "internalType": "uint256",
          "name": "",
          "type": "uint256"
        }
      ],
      "name": "Gateways",
      "outputs": [
        {
          "internalType": "string",
          "name": "",
          "type": "string"
        }
      ],
      "stateMutability": "view",
      "type": "function"
    },
    {
      "inputs": [
        {
          "internalType": "bytes",
          "name": "response",
          "type": "bytes"
        },
        {
          "internalType": "bytes",
          "name": "extradata",
          "type": "bytes"
        }
      ],
      "name": "__callback",
      "outputs": [
        {
          "internalType": "bytes",
          "name": "result",
          "type": "bytes"
        }
      ],
      "stateMutability": "view",
      "type": "function"
    },
    {
      "inputs": [
        {
          "internalType": "bytes4",
          "name": "_func",
          "type": "bytes4"
        },
        {
          "internalType": "string",
          "name": "_name",
          "type": "string"
        }
      ],
      "name": "addFuncMap",
      "outputs": [],
      "stateMutability": "nonpayable",
      "type": "function"
    },
    {
      "inputs": [
        {
          "internalType": "string",
          "name": "_domain",
          "type": "string"
        }
      ],
      "name": "addGateway",
      "outputs": [],
      "stateMutability": "nonpayable",
      "type": "function"
    },
    {
      "inputs": [
        {
          "internalType": "string[]",
          "name": "_domains",
          "type": "string[]"
        }
      ],
      "name": "addGateways",
      "outputs": [],
      "stateMutability": "nonpayable",
      "type": "function"
    },
    {
      "inputs": [
        {
          "internalType": "bytes32",
          "name": "_node",
          "type": "bytes32"
        },
        {
          "internalType": "address",
          "name": "_signer",
          "type": "address"
        },
        {
          "internalType": "bool",
          "name": "_approved",
          "type": "bool"
        }
      ],
      "name": "approve",
      "outputs": [],
      "stateMutability": "nonpayable",
      "type": "function"
    },
    {
      "inputs": [
        {
          "internalType": "bytes32",
          "name": "_node",
          "type": "bytes32"
        },
        {
          "internalType": "address",
          "name": "_signer",
          "type": "address"
        }
      ],
      "name": "approved",
      "outputs": [
        {
          "internalType": "bool",
          "name": "",
          "type": "bool"
        }
      ],
      "stateMutability": "view",
      "type": "function"
    },
    {
      "inputs": [
        {
          "internalType": "bytes",
          "name": "_buffer",
          "type": "bytes"
        },
        {
          "internalType": "uint256",
          "name": "_start",
          "type": "uint256"
        }
      ],
      "name": "bytesToString",
      "outputs": [
        {
          "internalType": "string",
          "name": "",
          "type": "string"
        }
      ],
      "stateMutability": "pure",
      "type": "function"
    },
    {
      "inputs": [
        {
          "internalType": "bytes32",
          "name": "",
          "type": "bytes32"
        }
      ],
      "name": "contenthash",
      "outputs": [
        {
          "internalType": "bytes",
          "name": "",
          "type": "bytes"
        }
      ],
      "stateMutability": "view",
      "type": "function"
    },
    {
      "inputs": [
        {
          "internalType": "bytes32",
          "name": "_node",
          "type": "bytes32"
        },
        {
          "internalType": "address",
          "name": "_manager",
          "type": "address"
        },
        {
          "internalType": "bytes",
          "name": "_ipns",
          "type": "bytes"
        }
      ],
      "name": "fastSetup",
      "outputs": [],
      "stateMutability": "nonpayable",
      "type": "function"
    },
    {
      "inputs": [
        {
          "internalType": "bytes4",
          "name": "",
          "type": "bytes4"
        }
      ],
      "name": "funcToFile",
      "outputs": [
        {
          "internalType": "string",
          "name": "",
          "type": "string"
        }
      ],
      "stateMutability": "view",
      "type": "function"
    },
    {
      "inputs": [],
      "name": "immolate",
      "outputs": [],
      "stateMutability": "nonpayable",
      "type": "function"
    },
    {
      "inputs": [
        {
          "internalType": "address",
          "name": "_owner",
          "type": "address"
        },
        {
          "internalType": "bytes32",
          "name": "_node",
          "type": "bytes32"
        },
        {
          "internalType": "address",
          "name": "_signer",
          "type": "address"
        }
      ],
      "name": "isApprovedFor",
      "outputs": [
        {
          "internalType": "bool",
          "name": "",
          "type": "bool"
        }
      ],
      "stateMutability": "view",
      "type": "function"
    },
    {
      "inputs": [
        {
          "internalType": "address",
          "name": "_owner",
          "type": "address"
        },
        {
          "internalType": "address",
          "name": "_signer",
          "type": "address"
        }
      ],
      "name": "isApprovedForAll",
      "outputs": [
        {
          "internalType": "bool",
          "name": "",
          "type": "bool"
        }
      ],
      "stateMutability": "view",
      "type": "function"
    },
    {
      "inputs": [
        {
          "internalType": "address",
          "name": "",
          "type": "address"
        }
      ],
      "name": "isWrapper",
      "outputs": [
        {
          "internalType": "bool",
          "name": "",
          "type": "bool"
        }
      ],
      "stateMutability": "view",
      "type": "function"
    },
    {
      "inputs": [],
      "name": "listAllGateways",
      "outputs": [
        {
          "internalType": "string[]",
          "name": "list",
          "type": "string[]"
        }
      ],
      "stateMutability": "view",
      "type": "function"
    },
    {
      "inputs": [
        {
          "internalType": "bytes32",
          "name": "",
          "type": "bytes32"
        }
      ],
      "name": "manager",
      "outputs": [
        {
          "internalType": "bool",
          "name": "",
          "type": "bool"
        }
      ],
      "stateMutability": "view",
      "type": "function"
    },
    {
      "inputs": [],
      "name": "owner",
      "outputs": [
        {
          "internalType": "address",
          "name": "",
          "type": "address"
        }
      ],
      "stateMutability": "view",
      "type": "function"
    },
    {
      "inputs": [
        {
          "internalType": "string",
          "name": "_path",
          "type": "string"
        },
        {
          "internalType": "uint256",
          "name": "k",
          "type": "uint256"
        }
      ],
      "name": "randomGateways",
      "outputs": [
        {
          "internalType": "string[]",
          "name": "gateways",
          "type": "string[]"
        }
      ],
      "stateMutability": "view",
      "type": "function"
    },
    {
      "inputs": [
        {
          "internalType": "uint256",
          "name": "_index",
          "type": "uint256"
        }
      ],
      "name": "removeGateway",
      "outputs": [],
      "stateMutability": "nonpayable",
      "type": "function"
    },
    {
      "inputs": [
        {
          "internalType": "uint256[]",
          "name": "_indexes",
          "type": "uint256[]"
        }
      ],
      "name": "removeGateways",
      "outputs": [],
      "stateMutability": "nonpayable",
      "type": "function"
    },
    {
      "inputs": [
        {
          "internalType": "uint256",
          "name": "_index",
          "type": "uint256"
        },
        {
          "internalType": "string",
          "name": "_domain",
          "type": "string"
        }
      ],
      "name": "replaceGateway",
      "outputs": [],
      "stateMutability": "nonpayable",
      "type": "function"
    },
    {
      "inputs": [
        {
          "internalType": "uint256[]",
          "name": "_indexes",
          "type": "uint256[]"
        },
        {
          "internalType": "string[]",
          "name": "_domains",
          "type": "string[]"
        }
      ],
      "name": "replaceGateways",
      "outputs": [],
      "stateMutability": "nonpayable",
      "type": "function"
    },
    {
      "inputs": [
        {
          "internalType": "bytes",
          "name": "name",
          "type": "bytes"
        },
        {
          "internalType": "bytes",
          "name": "data",
          "type": "bytes"
        }
      ],
      "name": "resolve",
      "outputs": [
        {
          "internalType": "bytes",
          "name": "",
          "type": "bytes"
        }
      ],
      "stateMutability": "view",
      "type": "function"
    },
    {
      "inputs": [
        {
          "internalType": "address",
          "name": "_token",
          "type": "address"
        },
        {
          "internalType": "uint256",
          "name": "_id",
          "type": "uint256"
        }
      ],
      "name": "safeWithdraw",
      "outputs": [],
      "stateMutability": "nonpayable",
      "type": "function"
    },
    {
      "inputs": [
        {
          "internalType": "address",
          "name": "_signer",
          "type": "address"
        },
        {
          "internalType": "bool",
          "name": "_approved",
          "type": "bool"
        }
      ],
      "name": "setApprovalForAll",
      "outputs": [],
      "stateMutability": "nonpayable",
      "type": "function"
    },
    {
      "inputs": [
        {
          "internalType": "bytes32",
          "name": "_node",
          "type": "bytes32"
        },
        {
          "internalType": "bytes",
          "name": "_contenthash",
          "type": "bytes"
        }
      ],
      "name": "setContenthash",
      "outputs": [],
      "stateMutability": "nonpayable",
      "type": "function"
    },
    {
      "inputs": [
        {
          "internalType": "bytes32",
          "name": "digest",
          "type": "bytes32"
        },
        {
          "internalType": "bytes",
          "name": "signature",
          "type": "bytes"
        }
      ],
      "name": "signedBy",
      "outputs": [
        {
          "internalType": "address",
          "name": "_addr",
          "type": "address"
        }
      ],
      "stateMutability": "pure",
      "type": "function"
    },
    {
      "inputs": [
        {
          "internalType": "bytes4",
          "name": "interfaceID",
          "type": "bytes4"
        }
      ],
      "name": "supportsInterface",
      "outputs": [
        {
          "internalType": "bool",
          "name": "",
          "type": "bool"
        }
      ],
      "stateMutability": "pure",
      "type": "function"
    },
    {
      "inputs": [
        {
          "internalType": "address",
          "name": "_addr",
          "type": "address"
        }
      ],
      "name": "toChecksumAddress",
      "outputs": [
        {
          "internalType": "string",
          "name": "",
          "type": "string"
        }
      ],
      "stateMutability": "pure",
      "type": "function"
    },
    {
      "inputs": [
        {
          "internalType": "address",
          "name": "_newOwner",
          "type": "address"
        }
      ],
      "name": "transferOwnership",
      "outputs": [],
      "stateMutability": "nonpayable",
      "type": "function"
    },
    {
      "inputs": [
        {
          "internalType": "uint256",
          "name": "value",
          "type": "uint256"
        }
      ],
      "name": "uintToString",
      "outputs": [
        {
          "internalType": "string",
          "name": "",
          "type": "string"
        }
      ],
      "stateMutability": "pure",
      "type": "function"
    },
    {
      "inputs": [
        {
          "internalType": "address",
          "name": "_addr",
          "type": "address"
        },
        {
          "internalType": "bool",
          "name": "_set",
          "type": "bool"
        }
      ],
      "name": "updateWrapper",
      "outputs": [],
      "stateMutability": "nonpayable",
      "type": "function"
    },
    {
      "inputs": [
        {
          "internalType": "address[]",
          "name": "_addrs",
          "type": "address[]"
        },
        {
          "internalType": "bool[]",
          "name": "_sets",
          "type": "bool[]"
        }
      ],
      "name": "updateWrappers",
      "outputs": [],
      "stateMutability": "nonpayable",
      "type": "function"
    },
    {
      "inputs": [],
      "name": "withdraw",
      "outputs": [],
      "stateMutability": "nonpayable",
      "type": "function"
    },
    {
      "inputs": [
        {
          "internalType": "address",
          "name": "_token",
          "type": "address"
        },
        {
          "internalType": "uint256",
          "name": "_balance",
          "type": "uint256"
        }
      ],
      "name": "withdraw",
      "outputs": [],
      "stateMutability": "nonpayable",
      "type": "function"
    },
    {
      "stateMutability": "payable",
      "type": "receive"
    }
  ],
  "bytecode": {
    "object": "0x604060c08152346200036757306080526e0c2e074ec69a0dfb2997ba6c7d2e1e60a052600090631d9dabef60e11b825260209060028252808320620000506200004982546200036c565b82620003a9565b7f5f616464726573732f3630000000000000000000000000000000000000000016905563c869023360e01b8352600282528083208054620000969062000049906200036c565b600c657075626b657960d01b01905563691f343160e01b8352600282528083208054620000c89062000049906200036c565b6008636e616d6560e01b01905563bc1c58d160e01b8352600282528083208054620000f89062000049906200036c565b7f636f6e74656e74686173680000000000000000000000000000000000000000169055635c98042b60e01b83526002825280832080546200013e9062000049906200036c565b7f5f646e732f7a6f6e65686173680000000000000000000000000000000000001a905582546001600160a01b031916331783556001805468010000000000000000949193919085811015620003535780856200019d92018655620003e3565b6200033f5780620001b562000049600993546200036c565b7f647765622e6c696e6b00000000000000000000000000000000000000000000129055835168647765622e6c696e6b60b81b8152207f7a9f387a9d3844b91ba19679387fe32e833e4311fec98471b6df53b9855e3f479590868380a2845490811015620003535780856200022c92018655620003e3565b6200033f57806200024462000049600793546200036c565b600e66697066732e696f60c81b019055835166697066732e696f60c81b8152208351958280a2600573d4416b13d2b3a9abae7acd5d6c2bbdbe25686401928383525282812060ff19908582825416179055847f8ea51d3bcf70e647a0bb1312a2a0fa7fbc0c51fb47325275912a75c257c0826393848480a38473114d4603199df73e7d157787f8778e21fcd130669485845283209182541617905580a361413290816200041682396080518181816102240152818161098401528181610cdd0152818161151a015281816125d20152612654015260a0518181816109d901528181610dfc015281816121070152818161271f0152612cf70152f35b634e487b7160e01b82526004829052602482fd5b634e487b7160e01b82526041600452602482fd5b600080fd5b90600182811c921680156200039e575b60208310146200038857565b634e487b7160e01b600052602260045260246000fd5b91607f16916200037c565b601f8211620003b6575050565b6000908152601f60208220920160051c8201915b828110620003d757505050565b818155600101620003ca565b600154811015620003ff57600160005260206000200190600090565b634e487b7160e01b600052603260045260246000fdfe60806040818152600480361015610024575b505050361561001f57600080fd5b600080fd5b600092833560e01c90816301ffc9a71461305f5750806306dcdc6314612e4f578063084ac40a14612d1b5780631d2e2cc414612cd757806321d6e7dd14612c2057806323948f3e14612b6d5780633012157014612a19578063304e6ade146126e8578063356a277a1461269a5780633ccfd60b146126315780635058c460146125715780635d1219d5146124455780636d41a517146120a0578063814b74561461200d57806382adc20814611e975780638384976f14611e065780638da5cb5b14611de05780639061b923146112725780639885e3b414611247578063a22cb46514611196578063a4b91a01146110da578063a9784b3e1461104e578063acc0f7b114610fae578063b984b2cd14610db8578063bc1c58d114610d8f578063bf1e9c8514610d24578063c55a5d5914610636578063cf1353521461060f578063d63a480114610584578063e0aa279714610548578063e190ea651461050e578063e5dac70314610447578063e8d76b1e146103f3578063e9395679146103bb578063e985e9c514610324578063f2fde38b146102a25763f3fef3a3036100115782913461029e578060031936011261029e576001600160a01b0391826101e861345f565b169284541690833b1561029a5782517f23b872dd0000000000000000000000000000000000000000000000000000000081526001600160a01b037f00000000000000000000000000000000000000000000000000000000000000008116928201928352909216602082015260243560408201529092849184919082908490829060600103925af1908115610291575061027e5750f35b6102879061324e565b61028e5780f35b80fd5b513d84823e3d90fd5b8480fd5b5050fd5b833461028e57602036600319011261028e576102bc61345f565b7fffffffffffffffffffffffff000000000000000000000000000000000000000082546001600160a01b03808216936102f6853314613905565b1680937f8be0079c531659141344cd1fd0a4f28419497f9722a3daafe3b4186f6b6457e08680a31617815580f35b50346103b757816003193601126103b7578160209360ff9261034461345f565b6103966103a4610352613475565b86519283918b8301958690603292691b585b9859d94b585b1b60b21b83526bffffffffffffffffffffffff19809260601b16600a84015260601b16601e8201520190565b03601f1981018352826132b0565b5190208252855220541690519015158152f35b8280fd5b50913461028e57602036600319011261028e57506103dc6103ef9235613dc6565b905191829160208352602083019061343a565b0390f35b50913461028e578160031936011261028e5782359067ffffffffffffffff821161028e575061042b6103ef936104349236910161353a565b60243590613677565b905191829160208352602083019061348b565b5082903461050a57602036600319011261050a578035906104736001600160a01b038454163314613905565b61049b6001549461048660018711613b01565b61048f846132ea565b509051918280926135d3565b0390207fd94fae538c4428e7bd1e4fa66b93ad367b2c5bbbc9d0dae73a21526257361ff48480a260001984019384116104f757506104e66104df6104ec93946132ea565b50916132ea565b90613c29565b6104f4613c38565b80f35b826011602492634e487b7160e01b835252fd5b5080fd5b50503461050a57602036600319011261050a576103dc816103ef936001600160e01b031961053a61315d565b168152600260205220613371565b50503461050a57602036600319011261050a5760ff816020936001600160a01b0361057161345f565b1681526005855220541690519015158152f35b50346103b75760203660031901126103b75780359067ffffffffffffffff821161060b576105b491369101613174565b80926105cb6001600160a01b038654163314613905565b6105d58284613a96565b5192839283378101600081520390207f7a9f387a9d3844b91ba19679387fe32e833e4311fec98471b6df53b9855e3f478280a280f35b8380fd5b50503461050a57602036600319011261050a576103ef906103dc61063161345f565b613e6a565b5090346103b75761064636613567565b8195929395019560a08288031261028e57813590602096878401359560608501359367ffffffffffffffff9485811161029a578b61068591880161353a565b9a6080870135868111610c3a579061069e91880161353a565b9560038201808311610d11578a904311159283610cc3575b50505015610c81578086116103b75763c55a5d5960e01b6001600160e01b031983351603610c3e57810193606082860360031901126103b75785820135946001600160a01b039485871680970361029a576024840135818111610c3a5782896107219287010161353a565b936044810135918211610c3a578b93928b9261073f92018a0161353a565b9b8c8481519101208251908582015284815261075a81613294565b6107639061384f565b61076c89613e6a565b908351948593878501957f52657175657374696e67207369676e617475726520666f72206f66662d636861875285017f696e20454e53207265636f72640a0000000000000000000000000000000000009052604e85017f0a454e5320446f6d61696e3a200000000000000000000000000000000000000090528051908189605b88019201916107fa92613417565b8401605b81017f0a5265636f726420547970653a20000000000000000000000000000000000000905281519182896069840192019161083892613417565b01606981017f0a5265636f726420486173683a20307800000000000000000000000000000000905281519182886079840192019161087592613417565b01607981017f0a5369676e65642042793a206569703135353a313a000000000000000000000090528151918287608e84019201916108b292613417565b0103606e81018352608e016108c790836132b0565b81516108d290613dc6565b918a51918291858301947f19457468657265756d205369676e6564204d6573736167653a0a00000000000086528051908188603a870192019161091492613417565b830190519182603a830161092792613417565b0103601a81018252603a0161093c90826132b0565b5190208851809381927f06dcdc63000000000000000000000000000000000000000000000000000000008352898301528a60248301526044820161097f9161343a565b0381867f0000000000000000000000000000000000000000000000000000000000000000165afa908115610bb1579083918391610c1d575b50168303610bda578551916302571be360e01b835285858401528783602481847f0000000000000000000000000000000000000000000000000000000000000000165afa928315610bb157908291889394610bbb575b50888185168084526005825260ff8585205416610b4b575b505083168414159283610ae5575b83610a84575b505050610a56575050506103ef905192828493845283019061343a565b835163a78e4aa560e01b81529182019283526001600160a01b031660208301529081906040010390fd5b0390fd5b60ff93508251610ad181610396888d8301958690603292691b585b9859d94b585b1b60b21b83526bffffffffffffffffffffffff19809260601b16600a84015260601b16601e8201520190565b519020815284885220541615843880610a39565b8251696d616e6167652d6f6e6560b01b8a8201908152600a81018990526bffffffffffffffffffffffff19606084811b8216602a84015288901b16603e820152919450610b358160528401610396565b519020815284885260ff82822054161592610a33565b909194506024929351928380926331a9108f60e11b82528a8a8301525afa908115610bb157908291889391610b84575b50928838610a25565b610ba49150893d8b11610baa575b610b9c81836132b0565b810190613cce565b38610b7b565b503d610b92565b87513d84823e3d90fd5b610bd3919450893d8b11610baa57610b9c81836132b0565b9238610a0d565b6064848888519163151a7bff60e11b8352820152600a60248201527f4241445f5349474e4552000000000000000000000000000000000000000000006044820152fd5b610c349150893d8b11610baa57610b9c81836132b0565b386109b7565b8580fd5b6064868a8a519163151a7bff60e11b8352820152600a60248201527f4241445f505245464958000000000000000000000000000000000000000000006044820152fd5b6064868a8a519162461bcd60e51b8352820152601860248201527f494e56414c49445f434845434b53554d2f54494d454f555400000000000000006044820152fd5b909192508c610d028d6103968b86519485938401963390407f000000000000000000000000000000000000000000000000000000000000000089613d6f565b519020910135143889816106b6565b60248660118b634e487b7160e01b835252fd5b50823461028e578060031936011261028e576001600160a01b0390541691823303610d4c5782ff5b906020606492519162461bcd60e51b8352820152600960248201527f4e4f545f4f574e455200000000000000000000000000000000000000000000006044820152fd5b50346103b75760203660031901126103b757816103ef936103dc92358152600360205220613371565b5091903461050a578060031936011261050a57823590610dd6613475565b928151946302571be360e01b865283818701526020956001600160a01b038782602481847f0000000000000000000000000000000000000000000000000000000000000000165afa918215610f85578492610f8f575b50878183168086526005825260ff8787205416610f35575b505080871690821614948515610ecb575b508415610e68575b868585519015158152f35b60ff9450610396610eb8859786519283918b8301958690603292691b585b9859d94b585b1b60b21b83526bffffffffffffffffffffffff19809260601b16600a84015260601b16601e8201520190565b5190208252855220541681388080610e5d565b9094508351610f1f8161039689898c84019687919092605293696d616e6167652d6f6e6560b01b8452600a8401526bffffffffffffffffffffffff19809260601b16602a84015260601b16603e8201520190565b519020825280865260ff83832054169338610e55565b60249293508651928380926331a9108f60e11b82528a888301525afa908115610f85578491610f68575b50908738610e44565b610f7f9150883d8a11610baa57610b9c81836132b0565b38610f5f565b85513d86823e3d90fd5b610fa7919250883d8a11610baa57610b9c81836132b0565b9038610e2c565b50346103b757816003193601126103b7578035906024359267ffffffffffffffff841161029a57610fe86105d59261104895369101613174565b818196829593966110046001600160a01b038b54163314613905565b61101c611010826132ea565b508751918280926135d3565b0390207fd94fae538c4428e7bd1e4fa66b93ad367b2c5bbbc9d0dae73a21526257361ff48b80a26132ea565b90613a70565b50913461028e57606036600319011261028e5761106961345f565b90604435906001600160a01b038216820361001f5760209460ff936103966103a4879586519283918b83019560243587919092605293696d616e6167652d6f6e6560b01b8452600a8401526bffffffffffffffffffffffff19809260601b16602a84015260601b16603e8201520190565b50346103b75760603660031901126103b75780356110f6613475565b916044359384151580950361001f576001600160a01b03817ff0ddb3b04746704017f9aa8bd728fcc2c1d11675041205350018915f5e4750a0936020935184810190611184816103968b338c87919092605293696d616e6167652d6f6e6560b01b8452600a8401526bffffffffffffffffffffffff19809260601b16602a84015260601b16603e8201520190565b5190208952835251943386521693a480f35b5090346103b757806003193601126103b7576001600160a01b03906111b961345f565b906111c2613558565b938151602081019061120e8161039687338690603292691b585b9859d94b585b1b60b21b83526bffffffffffffffffffffffff19809260601b16600a84015260601b16601e8201520190565b519020865260205251921515835216907f17307eab39ab6107e8899845ad3d59bd9653f200f220920489ca2b5937696c3160203392a380f35b50346103b75760203660031901126103b757816020938260ff93358252855220541690519015158152f35b5090346103b75761128236613567565b929095919460019580871161060b57823560f81c918651986105608a019067ffffffffffffffff918b811083821117611dcb578952602a8b528a60005b6105408110611db9575050848a0194858b11611db557848611611db5576112f0909b9a9799989b3690898901613503565b6112f98b613656565b526113038a613656565b5061130d8a613656565b519a8b5b85871015611da2576001600160f81b0319878901351615611462578b899a9b9c9d88888b600183019b611345928d92613ced565b61134e91613d22565b60f81c016001019889611362918a8d613ced565b369061136d92613503565b6113778c84613663565b526113828b83613663565b5061138d8b83613663565b51918d51825160209381858085019201916113a792613417565b8101938385017f2e000000000000000000000000000000000000000000000000000000000000009052818151602196879382888684019201916113e992613417565b0103600181018352016113fc90826132b0565b9b61140691613663565b51908d51938285935190818480870192019161142192613417565b830190828201602f60f81b90528051809386840192019161144192613417565b01036001810183520161145490826132b0565b979b9a999860010197611311565b918b908a8e8b96948e6000198099019761147c8988613663565b519283516020809501208651858101918583528882015287815261149f81613278565b5190209683988c8c60609d5b611d325750505060249782891161029a578d8201358103611cf1578b5115611cc35750818d1161060b57908592916001600160e01b031991868383351693848852600282526114fc8b892054613337565b156119665750505050835260028452611516868420613371565b925b7f00000000000000000000000000000000000000000000000000000000000000009b43019a8c8c611556878b519a8b938b8501953391409087613d6f565b039761156a601f19998a81018352826132b0565b5190209281511561195457818701516001600160f81b0319935083167fe5000000000000000000000000000000000000000000000000000000000000000361191a5788516115b781613294565b600781527f2f69706e732f660000000000000000000000000000000000000000000000000088820152915b80516001198101908111611904578060011b818104600214821517156118ed579061161087959493926137d3565b95611619613805565b9260005b8381106118065750505050508951938285935190818b80870192019161164292613417565b8301815191828b80840192019161165892613417565b018881017f2f2e77656c6c2d6b6e6f776e2f000000000000000000000000000000000000009052815191828a602d840192019161169492613417565b01602d8101602f60f81b9052865190602e8101828a8a01916116b592613417565b01602e81017f2e6a736f6e3f743d7b646174617d26666f726d61743d6461672d6a736f6e0000905203602c81018352604c016116f190836132b0565b6116fa91613677565b9786519942603c900416603c0260c01b7fffffffffffffffff00000000000000000000000000000000000000000000000016858b015260088a5261173d8a613294565b86519a8b958601528685015260608401526080830160a0905260c083016117639161343a565b838382030160a08401526117769161343a565b03908101865261178690866132b0565b519586957f556f18300000000000000000000000000000000000000000000000000000000087526001600160a01b031690860152840160a0905260a484016117cd9161348b565b9060031991828582030160448601526117e59161343a565b906064840163c55a5d5960e01b9052838203016084840152610a809161343a565b9091929394959650600281018082116118d357611823908361383e565b51836118328260fc1c8861383e565b5116908260011b91838304600214841517156118b757600f86928c61185e866118699560001a9261383e565b5360f81c168861383e565b51166001820180921161189c579061188961188f939260001a918b61383e565b536135ae565b908896959493929161161d565b5050505050508f60118c91634e487b7160e01b600052526000fd5b505050505050508f60118c91634e487b7160e01b600052526000fd5b50505050508f60118c91634e487b7160e01b600052526000fd5b50508f60118c91634e487b7160e01b600052526000fd5b508f60118c91634e487b7160e01b600052526000fd5b885161192581613294565b600781527f2f697066732f660000000000000000000000000000000000000000000000000088820152916115e2565b634e487b7160e01b835260328f528983fd5b949550919390927f59d1d43c0000000000000000000000000000000000000000000000000000000081036119c95750505081019084602319828403011261060b5787810135908a821161029a5791886119c392889594010161353a565b92611518565b9394939192917ff1cb7e06000000000000000000000000000000000000000000000000000000008103611a635750508301839003602319011261001f57611a138786930135613dc6565b6119c36029885180937f5f616464726573732f000000000000000000000000000000000000000000000089830152611a53815180928b8686019101613417565b81010360098101845201826132b0565b90949291907f124a319c000000000000000000000000000000000000000000000000000000008103611b1857508201829003602319011261060b5787013591821680920361001f57611ac88592875190868201528d8152611ac381613294565b61384f565b6119c3602d885180937f5f696e746572666163652f30780000000000000000000000000000000000000089830152611b08815180928b8686019101613417565b810103600d8101845201826132b0565b92945090917f2203ab56000000000000000000000000000000000000000000000000000000008103611bb057508301839003602319011261001f57611b608786930135613dc6565b6119c36025885180937f5f6162692f00000000000000000000000000000000000000000000000000000089830152611ba0815180928b8686019101613417565b81010360058101845201826132b0565b9293929091507fa8fa5682000000000000000000000000000000000000000000000000000000008103611c95575081018190036023190186136103b75760448101359061ffff821680920361060b57906119c36028611c2a611c248996958c8c519101358a820152898152611ac381613294565b93613dc6565b9289519384917f5f646e732f3078000000000000000000000000000000000000000000000000008a840152611c68815180928c602787019101613417565b8201602f60f81b6027820152611c86825180938c8785019101613417565b010360088101845201826132b0565b8d89918951917f0c9addbc000000000000000000000000000000000000000000000000000000008352820152fd5b8d89918951917fca1c65c1000000000000000000000000000000000000000000000000000000008352820152fd5b60648e600c8b898c519362461bcd60e51b85528401528201527f4241445f4e414d454841534800000000000000000000000000000000000000006044820152fd5b0198611d3e8a83613663565b518781519101208951908882019283528a820152898152611d5e81613278565b519020988986526003808852611d768a882054613337565b611d84575b50808e916114ab565b919c5099508885528552611d99878520613371565b9a89899a611d7b565b60248b603287634e487b7160e01b835252fd5b8780fd5b60606020828194010152018b906112bf565b604184634e487b7160e01b6000525260246000fd5b50503461050a578160031936011261050a576001600160a01b0360209254169051908152f35b50503461050a578060031936011261050a57611e2061345f565b611e6d611e2b613558565b80926001600160a01b0390611e44828854163314613905565b611e50813b1515614090565b1693848652600560205285209060ff801983541691151516179055565b1515907f8ea51d3bcf70e647a0bb1312a2a0fa7fbc0c51fb47325275912a75c257c082638380a380f35b50913461028e578160031936011261028e5782359067ffffffffffffffff821161028e5750611ec9903690840161353a565b90602492833583519481860392868411611ffa5760019284841b600298828783048b1491141715611fe657611efd906137d3565b96611f06613805565b9160005b878110611f26578851602080825281906103ef9082018d61343a565b818101808211611fd257611f3b8c918561383e565b516001600160f81b03199081611f548260fc1c8961383e565b5116848b1b938585041485151715611fbe57611f86918e611f7b86600f9460001a9261383e565b5360f81c168761383e565b5116888201809211611faa5790611889611fa5939260001a918d61383e565b611f0a565b87601188634e487b7160e01b600052526000fd5b8960118a634e487b7160e01b600052526000fd5b86601187634e487b7160e01b600052526000fd5b83601184634e487b7160e01b600052526000fd5b601190634e487b7160e01b600052526000fd5b82843461028e578060031936011261028e5760019182549261202e846132d2565b9361203b835195866132b0565b8085528184526020937fb10e2d527612073b26eecdfd717e6a320cf44b4afac2b0732d9fcbe2b7fa0cf6858088015b848410612083578651828152806103ef8185018c61348b565b8591829161209085613371565b815201920192019190869061206a565b5091903461050a57606036600319011261050a5782356120be613475565b9167ffffffffffffffff604435818111610c3a576120df9036908801613174565b92909681516302571be360e01b815285828201526020946001600160a01b03948683602481897f0000000000000000000000000000000000000000000000000000000000000000165afa92831561241c578a93612426575b5086868416808c526005825260ff878d2054166123cc575b50508583163314158061236f575b61234e57878a5260038752848a2090821161233b57612186826121808354613337565b83613967565b89601f831160011461228e578a9b838a937ff0ddb3b04746704017f9aa8bd728fcc2c1d11675041205350018915f5e4750a09a99989796957fe379c1624ed7e714cc0937528a32359d69d5281337765313dba4e081b72d75789460019f91612283575b50600019600384901b1c1916828f1b1790555b61221087519283928b84528b840191613d4e565b0390a28251612264816103968b898301958c87919092605293696d616e6167652d6f6e6560b01b8452600a8401526bffffffffffffffffffffffff19809260601b16602a84015260601b16603e8201520190565b51902089528352808820805460ff19168817905551338152941693a480f35b9050830135386121e9565b818b52878b2090601f1984168c5b8181106123245750938a937fe379c1624ed7e714cc0937528a32359d69d5281337765313dba4e081b72d75789360019e9f93837ff0ddb3b04746704017f9aa8bd728fcc2c1d11675041205350018915f5e4750a09d9c9b9a99981061230a575b50508d82811b0190556121fc565b840135600019600385901b60f8161c1916905538806122fc565b8e8301358455600190930192918a01918a0161229c565b60248a604186634e487b7160e01b835252fd5b845163a78e4aa560e01b815280850189815233602082015281906040010390fd5b508451691b585b9859d94b585b1b60b21b8882019081526bffffffffffffffffffffffff19606086811b8216600a84015233901b16601e820152906123b78160328401610396565b5190208a5283875260ff858b2054161561215d565b60249294508651928380926331a9108f60e11b82528c898301525afa90811561241c578a916123ff575b5091863861214f565b6124169150873d8911610baa57610b9c81836132b0565b386123f6565b85513d8c823e3d90fd5b61243e919350873d8911610baa57610b9c81836132b0565b9138612137565b5090346103b75761245536613207565b929461246f6001600160a01b038894939454163314613905565b83820361252e5750855b818110612484578680f35b8061249f61101061249961252994868b613cbe565b356132ea565b0390207fd94fae538c4428e7bd1e4fa66b93ad367b2c5bbbc9d0dae73a21526257361ff48980a26124e36124d4828787613abf565b9061104861249985888d613cbe565b6124ee818686613abf565b9081885192839283378101600081520390207f7a9f387a9d3844b91ba19679387fe32e833e4311fec98471b6df53b9855e3f478980a26135ae565b612479565b606490602086519162461bcd60e51b8352820152601160248201527f42616420696e707574206c656e677468730000000000000000000000000000006044820152fd5b5090346103b757806003193601126103b757826001600160a01b03928361259661345f565b169382541693803b156103b75783517f42842e0e0000000000000000000000000000000000000000000000000000000081526001600160a01b037f0000000000000000000000000000000000000000000000000000000000000000811693820193845290951660208301526024356040830152849182908490829060600103925af19081156102915750612628575080f35b6104f49061324e565b50503461050a578160031936011261050a57818080806001600160a01b038154167f00000000000000000000000000000000000000000000000000000000000000003190828215612691575bf115612687575080f35b51903d90823e3d90fd5b506108fc61267d565b50913461028e57602036600319011261028e57823560015481101561050a576126c2906132ea565b9390936126d6576103ef836103dc86613371565b9080602492634e487b7160e01b825252fd5b50346103b7576126f7366131a2565b9291938051926302571be360e01b845285818501526020936001600160a01b038582602481847f0000000000000000000000000000000000000000000000000000000000000000165afa9182156129f05789926129fa575b5085818316808b526005825260ff868c2054166129a0575b50508116331415908161293a575b816128d8575b506128b757858752600384528187209067ffffffffffffffff86116128a457506127a9856121808354613337565b86601f861160011461281b5791859493917fe379c1624ed7e714cc0937528a32359d69d5281337765313dba4e081b72d75789661280a948a91612810575b508660011b906000198860031b1c19161790555b51938385948552840191613d4e565b0390a280f35b9050830135386127e7565b81885284882090601f198716895b81811061288d57509187969593917fe379c1624ed7e714cc0937528a32359d69d5281337765313dba4e081b72d75789861280a969410612873575b5050600186811b0190556127fb565b840135600019600389901b60f8161c191690553880612864565b91928760018192868a013581550194019201612829565b876041602492634e487b7160e01b835252fd5b815163a78e4aa560e01b815290810186815233602082015281906040010390fd5b90508251612924816103968882019433908690603292691b585b9859d94b585b1b60b21b83526bffffffffffffffffffffffff19809260601b16600a84015260601b16601e8201520190565b519020875280845260ff8288205416153861277b565b8351696d616e6167652d6f6e6560b01b878201908152600a81018a90526bffffffffffffffffffffffff19606084811b8216602a84015233901b16603e82015291925061298a8160528401610396565b519020885281855260ff83892054161590612775565b60249293508551928380926331a9108f60e11b82528c888301525afa9081156129f05789916129d3575b50908538612767565b6129ea9150863d8811610baa57610b9c81836132b0565b386129ca565b84513d8b823e3d90fd5b612a12919250863d8811610baa57610b9c81836132b0565b903861274f565b5090346103b7576020918260031936011261060b5780359267ffffffffffffffff841161029a573660238501121561029a578382013590612a59826132d2565b94612a66855196876132b0565b8286528186016024809460051b83010191368311612b69578401905b828210612b5a5750505050612aa26001600160a01b038654163314613905565b835192600190612ab485835411613b01565b865b858110612ac1578780f35b612ae3612ad7612ad1838a613663565b516132ea565b508351918280926135d3565b0390207fd94fae538c4428e7bd1e4fa66b93ad367b2c5bbbc9d0dae73a21526257361ff48980a282546000198101908111612b485790612b36612b28612b43936132ea565b506104e6612ad1848c613663565b612b3e613c38565b6135ae565b612ab6565b8489601188634e487b7160e01b835252fd5b81358152908301908301612a82565b8880fd5b5090346103b757806003193601126103b757612b8761315d565b916024359067ffffffffffffffff821161029a577f508228f50614b3a64115b5247cb9a39ebe6030cf6d7bba54958cfa0c5748317393612bd6612c1a926001600160e01b031994369101613174565b939091612bee6001600160a01b038954163314613905565b16928387526002602052612c058183878a206139ac565b84519485948552806020860152840191613d4e565b0390a180f35b50346103b75760203660031901126103b75780359067ffffffffffffffff821161060b57612c50913691016131d6565b612c686001600160a01b038594939454163314613905565b835b818110612c75578480f35b80612c8d612c87612cd2938588613abf565b90613a96565b612c98818487613abf565b90818651928392833781018881520390207f7a9f387a9d3844b91ba19679387fe32e833e4311fec98471b6df53b9855e3f478780a26135ae565b612c6a565b50503461050a578160031936011261050a57602090516001600160a01b037f0000000000000000000000000000000000000000000000000000000000000000168152f35b50346103b757612d2a36613207565b919093926001600160a01b0393612d45858954163314613905565b838303612e0c5750865b828110612d5a578780f35b80612d7c612d74612d6f612e07948787613cbe565b6140db565b3b1515614090565b612dbd612d92612d8d83888b613cbe565b6140ef565b87612da1612d6f858989613cbe565b168b526005602052898b209060ff801983541691151516179055565b612dcb612d6f828686613cbe565b86612dda612d8d84898c613cbe565b151591167f8ea51d3bcf70e647a0bb1312a2a0fa7fbc0c51fb47325275912a75c257c082638b80a36135ae565b612d4f565b606490602088519162461bcd60e51b8352820152600a60248201527f4241445f4c454e475448000000000000000000000000000000000000000000006044820152fd5b5090346103b757612e5f366131a2565b94919060209580871161060b57808503612fc557612e8390601f1901828801613d05565b907f7fffffffffffffffffffffffffffffffffffffffffffffffffffffffffffffff82169160ff1c601b8101809111612fb25760ff165b7f7fffffffffffffffffffffffffffffff5d576e7357a4501ddfe92f46681b20a08311612f6f57855193845260ff1683880152358285015260608201528180528490829060809060015afa15612f6457516001600160a01b0316918215612f22575051908152f35b83606492519163151a7bff60e11b8352820152600c60248201527f5a45524f5f4144445245535300000000000000000000000000000000000000006044820152fd5b9051903d90823e3d90fd5b6064878988519163151a7bff60e11b8352820152600f60248201527f494e56414c49445f535f56414c554500000000000000000000000000000000006044820152fd5b602485601189634e487b7160e01b835252fd5b9060418203612ff15781851161060b57612fe98782013592603f1901868301613d22565b60f81c612eba565b6060820361301c5781851161060b5760ff6130168883013593603f1901878401613d05565b16612eba565b6064868887519163151a7bff60e11b8352820152600e60248201527f4241445f5349475f4c454e4754480000000000000000000000000000000000006044820152fd5b84903461050a57602036600319011261050a576020906001600160e01b031961308661315d565b167f9061b923000000000000000000000000000000000000000000000000000000008114908115613133575b8115613109575b81156130f8575b81156130ce575b5015158152f35b7f01ffc9a700000000000000000000000000000000000000000000000000000000915014836130c7565b63c55a5d5960e01b811491506130c0565b7f7f5828d000000000000000000000000000000000000000000000000000000000811491506130b9565b7f304e6ade00000000000000000000000000000000000000000000000000000000811491506130b2565b600435906001600160e01b03198216820361001f57565b9181601f8401121561001f5782359167ffffffffffffffff831161001f576020838186019501011161001f57565b90604060031983011261001f57600435916024359067ffffffffffffffff821161001f576131d291600401613174565b9091565b9181601f8401121561001f5782359167ffffffffffffffff831161001f576020808501948460051b01011161001f57565b604060031982011261001f5767ffffffffffffffff9160043583811161001f5782613234916004016131d6565b9390939260243591821161001f576131d2916004016131d6565b67ffffffffffffffff811161326257604052565b634e487b7160e01b600052604160045260246000fd5b6060810190811067ffffffffffffffff82111761326257604052565b6040810190811067ffffffffffffffff82111761326257604052565b90601f8019910116810190811067ffffffffffffffff82111761326257604052565b67ffffffffffffffff81116132625760051b60200190565b6001548110156133215760016000527fb10e2d527612073b26eecdfd717e6a320cf44b4afac2b0732d9fcbe2b7fa0cf60190600090565b634e487b7160e01b600052603260045260246000fd5b90600182811c92168015613367575b602083101461335157565b634e487b7160e01b600052602260045260246000fd5b91607f1691613346565b906040519182600082549261338584613337565b9081845260019485811690816000146133f457506001146133b1575b50506133af925003836132b0565b565b9093915060005260209081600020936000915b8183106133dc5750506133af935082010138806133a1565b855488840185015294850194879450918301916133c4565b9150506133af94506020925060ff191682840152151560051b82010138806133a1565b60005b83811061342a5750506000910152565b818101518382015260200161341a565b9060209161345381518092818552858086019101613417565b601f01601f1916010190565b600435906001600160a01b038216820361001f57565b602435906001600160a01b038216820361001f57565b908082519081815260208091019281808460051b8301019501936000915b8483106134b95750505050505090565b90919293949584806134d7600193601f198682030187528a5161343a565b98019301930191949392906134a9565b67ffffffffffffffff811161326257601f01601f191660200190565b92919261350f826134e7565b9161351d60405193846132b0565b82948184528183011161001f578281602093846000960137010152565b9080601f8301121561001f5781602061355593359101613503565b90565b60243590811515820361001f57565b604060031982011261001f5767ffffffffffffffff9160043583811161001f578261359491600401613174565b9390939260243591821161001f576131d291600401613174565b60001981146135bd5760010190565b634e487b7160e01b600052601160045260246000fd5b6000929181546135e281613337565b9260019180831690811561363b57506001146135ff575b50505050565b90919293945060005260209081600020906000915b85831061362a57505050500190388080806135f9565b805485840152918301918101613614565b60ff19168452505050811515909102019150388080806135f9565b8051156133215760200190565b80518210156133215760209160051b010190565b9190916001548060011c93600185018095116135bd57600585116137ca575b93906136a1826132d2565b926040936136b1855191826132b0565b838152601f1992836136c2866132d2565b0160005b8181106137b757505081976000943360601b958315925b8882106136f05750505050505050505050565b83918a51916020928381019182528a8d8201526034815261371081613278565b519020926137a1576137636137808c61379b9461372e8a88066132ea565b5091519384927f68747470733a2f2f0000000000000000000000000000000000000000000000008385015260288401906135d3565b6137738d82815194859201613417565b01038681018352826132b0565b61378a8289613663565b526137958188613663565b506135ae565b906136dd565b634e487b7160e01b600052601260045260246000fd5b60606020828601810191909152016136c6565b60059450613696565b906137dd826134e7565b6137ea60405191826132b0565b82815280926137fb601f19916134e7565b0190602036910137565b6040519061381282613294565b601082527f30313233343536373839616263646566000000000000000000000000000000006020830152565b908151811015613321570160200190565b8051600290600181811b8215838204851417156135bd5761386f906137d3565b93613878613805565b9060005b84811061388c5750505050505090565b613896818361383e565b51906001600160f81b0319806138af8460fc1c8761383e565b51169282871b938385048a14841517156135bd576138e291600f9160001a6138d7878e61383e565b5360f81c168661383e565b5116918581018091116135bd576118896139009360001a918a61383e565b61387c565b1561390c57565b606460405162461bcd60e51b815260206004820152600860248201527f4f6e6c79204465760000000000000000000000000000000000000000000000006044820152fd5b81811061395b575050565b60008155600101613950565b9190601f811161397657505050565b6133af926000526020600020906020601f840160051c830193106139a2575b601f0160051c0190613950565b9091508190613995565b90929167ffffffffffffffff8111613262576139d2816139cc8454613337565b84613967565b6000601f8211600114613a0c5781929394600092613a01575b50508160011b916000199060031b1c1916179055565b0135905038806139eb565b601f198216948382526020918281209281905b888210613a5857505083600195969710613a3e575b505050811b019055565b0135600019600384901b60f8161c19169055388080613a34565b80600184968294958701358155019501920190613a1f565b929190613a80576133af926139ac565b634e487b7160e01b600052600060045260246000fd5b906001549168010000000000000000831015613262576110488360016133af95016001556132ea565b91908110156133215760051b81013590601e198136030182121561001f57019081359167ffffffffffffffff831161001f57602001823603811361001f579190565b15613b0857565b606460405162461bcd60e51b815260206004820152600c60248201527f4c617374204761746577617900000000000000000000000000000000000000006044820152fd5b90808214613c2557613b5e8154613337565b9067ffffffffffffffff8211613262578190613b8482613b7e8654613337565b86613967565b600090601f8311600114613bba57600092613baf5750508160011b916000199060031b1c1916179055565b0154905038806139eb565b81526020808220858352818320935090601f1985169083905b828210613c0c575050908460019594939210613bf357505050811b019055565b015460001960f88460031b161c19169055388080613a34565b8495819295850154815560018091019601940190613bd3565b5050565b9190613a80576133af91613b4c565b6001548015613ca85760001901613c4e816132ea565b613a8057613c5c8154613337565b9081613c6a575b5050600155565b81601f60009311600114613c825750555b3880613c63565b908083918252613ca1601f60208420940160051c840160018501613950565b5555613c7b565b634e487b7160e01b600052603160045260246000fd5b91908110156133215760051b0190565b9081602091031261001f57516001600160a01b038116810361001f5790565b9093929384831161001f57841161001f578101920390565b359060208110613d13575090565b6000199060200360031b1b1690565b6001600160f81b03199035818116939260018110613d3f57505050565b60010360031b82901b16169150565b908060209392818452848401376000828201840152601f01601f1916010190565b919260489594936bffffffffffffffffffffffff19809360601b168452601484015260601b166034820152613dad8251809360208785019101613417565b01613dc18251809360208685019101613417565b010190565b8015613e30576000818181805b613e1d5750613de1816137d3565b935b613ded5750505090565b6000190190600a9060308282060160f81b6001600160f81b031916841a613e14848761383e565b53049081613de3565b91506001600a9101910480849291613dd3565b50604051613e3d81613294565b600181527f3000000000000000000000000000000000000000000000000000000000000000602082015290565b604080516020926bffffffffffffffffffffffff199060601b1683820152601491828252613e9782613294565b805191613ea383613278565b602883528483019382368637825191613ebb83613294565b601083527f303132333435363738394142434445460000000000000000000000000000000087840152613eec613805565b92613ef68261384f565b8551613f1e8a8281613f118183019687815193849201613417565b81010380845201826132b0565b51902060005b848110613f81575050505050509261355592613f716022937f3078000000000000000000000000000000000000000000000000000000000000965196879485015251809285850190613417565b81010360028101845201826132b0565b613f8b818561383e565b5160fc1c600f9081613f9d848861383e565b5160f81c16908c8410156133215784841a9160076001600160f81b0319600493828787871c161160001461407e57613fd5908a61383e565b5116945b60019487861b968888046002148915171561406957908f61400a896001600160f81b03199796959460001a9261383e565b531611156140575761401c908861383e565b5116915b830180931161404257509061188961403d939260001a918b61383e565b613f24565b601190634e487b7160e01b6000525260246000fd5b614061908b61383e565b511691614020565b601186634e487b7160e01b6000525260246000fd5b614088908d61383e565b511694613fd9565b1561409757565b606460405162461bcd60e51b815260206004820152600d60248201527f4f6e6c7920436f6e7472616374000000000000000000000000000000000000006044820152fd5b356001600160a01b038116810361001f5790565b35801515810361001f579056fea2646970667358221220cc340730036763807ec635ea1d367c90db5f229fa7025f48c144743a69beb6ba64736f6c63430008130033",
    "linkReferences": {}
  },
  "methodIdentifiers": {
    "ENS()": "1d2e2cc4",
    "Gateways(uint256)": "356a277a",
    "__callback(bytes,bytes)": "c55a5d59",
    "addFuncMap(bytes4,string)": "23948f3e",
    "addGateway(string)": "d63a4801",
    "addGateways(string[])": "21d6e7dd",
    "approve(bytes32,address,bool)": "a4b91a01",
    "approved(bytes32,address)": "b984b2cd",
    "bytesToString(bytes,uint256)": "82adc208",
    "contenthash(bytes32)": "bc1c58d1",
    "fastSetup(bytes32,address,bytes)": "6d41a517",
    "funcToFile(bytes4)": "e190ea65",
    "immolate()": "bf1e9c85",
    "isApprovedFor(address,bytes32,address)": "a9784b3e",
    "isApprovedForAll(address,address)": "e985e9c5",
    "isWrapper(address)": "e0aa2797",
    "listAllGateways()": "814b7456",
    "manager(bytes32)": "9885e3b4",
    "owner()": "8da5cb5b",
    "randomGateways(string,uint256)": "e8d76b1e",
    "removeGateway(uint256)": "e5dac703",
    "removeGateways(uint256[])": "30121570",
    "replaceGateway(uint256,string)": "acc0f7b1",
    "replaceGateways(uint256[],string[])": "5d1219d5",
    "resolve(bytes,bytes)": "9061b923",
    "safeWithdraw(address,uint256)": "5058c460",
    "setApprovalForAll(address,bool)": "a22cb465",
    "setContenthash(bytes32,bytes)": "304e6ade",
    "signedBy(bytes32,bytes)": "06dcdc63",
    "supportsInterface(bytes4)": "01ffc9a7",
    "toChecksumAddress(address)": "cf135352",
    "transferOwnership(address)": "f2fde38b",
    "uintToString(uint256)": "e9395679",
    "updateWrapper(address,bool)": "8384976f",
    "updateWrappers(address[],bool[])": "084ac40a",
    "withdraw()": "3ccfd60b",
    "withdraw(address,uint256)": "f3fef3a3"
  },
  "id": 22
}