{
  "abi": [
    {
      "inputs": [],
      "stateMutability": "nonpayable",
      "type": "constructor"
    },
    {
      "inputs": [
        {
          "internalType": "bytes1",
          "name": "_type",
          "type": "bytes1"
        }
      ],
      "name": "ContenthashNotImplemented",
      "type": "error"
    },
    {
      "inputs": [
        {
          "internalType": "bytes32",
          "name": "_node",
          "type": "bytes32"
        }
      ],
      "name": "ContenthashNotSet",
      "type": "error"
    },
    {
      "inputs": [
        {
          "internalType": "string",
          "name": "_message",
          "type": "string"
        }
      ],
      "name": "InvalidSignature",
      "type": "error"
    },
    {
      "inputs": [
        {
          "internalType": "bytes32",
          "name": "_node",
          "type": "bytes32"
        },
        {
          "internalType": "address",
          "name": "_addr",
          "type": "address"
        }
      ],
      "name": "NotAuthorized",
      "type": "error"
    },
    {
      "inputs": [
        {
          "internalType": "address",
          "name": "_addr",
          "type": "address"
        },
        {
          "internalType": "string[]",
          "name": "_gateways",
          "type": "string[]"
        },
        {
          "internalType": "bytes",
          "name": "_data",
          "type": "bytes"
        },
        {
          "internalType": "bytes4",
          "name": "_callbackFunction",
          "type": "bytes4"
        },
        {
          "internalType": "bytes",
          "name": "_extradata",
          "type": "bytes"
        }
      ],
      "name": "OffchainLookup",
      "type": "error"
    },
    {
      "inputs": [
        {
          "internalType": "bytes4",
          "name": "func",
          "type": "bytes4"
        }
      ],
      "name": "ResolverFunctionNotImplemented",
      "type": "error"
    },
    {
      "anonymous": false,
      "inputs": [
        {
          "indexed": true,
          "internalType": "string",
          "name": "domain",
          "type": "string"
        }
      ],
      "name": "AddGateway",
      "type": "event"
    },
    {
      "anonymous": false,
      "inputs": [
        {
          "indexed": true,
          "internalType": "address",
          "name": "owner",
          "type": "address"
        },
        {
          "indexed": true,
          "internalType": "address",
          "name": "operator",
          "type": "address"
        },
        {
          "indexed": false,
          "internalType": "bool",
          "name": "approved",
          "type": "bool"
        }
      ],
      "name": "ApprovalForAll",
      "type": "event"
    },
    {
      "anonymous": false,
      "inputs": [
        {
          "indexed": false,
          "internalType": "address",
          "name": "owner",
          "type": "address"
        },
        {
          "indexed": true,
          "internalType": "bytes32",
          "name": "node",
          "type": "bytes32"
        },
        {
          "indexed": true,
          "internalType": "address",
          "name": "delegate",
          "type": "address"
        },
        {
          "indexed": true,
          "internalType": "bool",
          "name": "approved",
          "type": "bool"
        }
      ],
      "name": "Approved",
      "type": "event"
    },
    {
      "anonymous": false,
      "inputs": [
        {
          "indexed": true,
          "internalType": "string",
          "name": "domain",
          "type": "string"
        }
      ],
      "name": "RemoveGateway",
      "type": "event"
    },
    {
      "anonymous": false,
      "inputs": [
        {
          "indexed": true,
          "internalType": "address",
          "name": "_new",
          "type": "address"
        },
        {
          "indexed": true,
          "internalType": "bool",
          "name": "_ok",
          "type": "bool"
        }
      ],
      "name": "UpdateWrapper",
      "type": "event"
    },
    {
      "inputs": [],
      "name": "ENS",
      "outputs": [
        {
          "internalType": "contract iENS",
          "name": "",
          "type": "address"
        }
      ],
      "stateMutability": "view",
      "type": "function"
    },
    {
      "inputs": [
        {
          "internalType": "uint256",
          "name": "",
          "type": "uint256"
        }
      ],
      "name": "Gateways",
      "outputs": [
        {
          "internalType": "string",
          "name": "",
          "type": "string"
        }
      ],
      "stateMutability": "view",
      "type": "function"
    },
    {
      "inputs": [
        {
          "internalType": "bytes",
          "name": "response",
          "type": "bytes"
        },
        {
          "internalType": "bytes",
          "name": "extradata",
          "type": "bytes"
        }
      ],
      "name": "__callback",
      "outputs": [
        {
          "internalType": "bytes",
          "name": "result",
          "type": "bytes"
        }
      ],
      "stateMutability": "view",
      "type": "function"
    },
    {
      "inputs": [
        {
          "internalType": "string",
          "name": "_domain",
          "type": "string"
        }
      ],
      "name": "addGateway",
      "outputs": [],
      "stateMutability": "nonpayable",
      "type": "function"
    },
    {
      "inputs": [
        {
          "internalType": "string[]",
          "name": "_domains",
          "type": "string[]"
        }
      ],
      "name": "addGateways",
      "outputs": [],
      "stateMutability": "nonpayable",
      "type": "function"
    },
    {
      "inputs": [
        {
          "internalType": "bytes32",
          "name": "_node",
          "type": "bytes32"
        },
        {
          "internalType": "address",
          "name": "_signer",
          "type": "address"
        },
        {
          "internalType": "bool",
          "name": "_approved",
          "type": "bool"
        }
      ],
      "name": "approve",
      "outputs": [],
      "stateMutability": "nonpayable",
      "type": "function"
    },
    {
      "inputs": [
        {
          "internalType": "bytes32",
          "name": "_node",
          "type": "bytes32"
        },
        {
          "internalType": "address",
          "name": "_signer",
          "type": "address"
        }
      ],
      "name": "approved",
      "outputs": [
        {
          "internalType": "bool",
          "name": "",
          "type": "bool"
        }
      ],
      "stateMutability": "view",
      "type": "function"
    },
    {
      "inputs": [
        {
          "internalType": "bytes",
          "name": "_buffer",
          "type": "bytes"
        },
        {
          "internalType": "uint256",
          "name": "_start",
          "type": "uint256"
        }
      ],
      "name": "bytesToString",
      "outputs": [
        {
          "internalType": "string",
          "name": "",
          "type": "string"
        }
      ],
      "stateMutability": "pure",
      "type": "function"
    },
    {
      "inputs": [
        {
          "internalType": "bytes32",
          "name": "",
          "type": "bytes32"
        }
      ],
      "name": "contenthash",
      "outputs": [
        {
          "internalType": "bytes",
          "name": "",
          "type": "bytes"
        }
      ],
      "stateMutability": "view",
      "type": "function"
    },
    {
      "inputs": [
        {
          "internalType": "bytes4",
          "name": "",
          "type": "bytes4"
        }
      ],
      "name": "funcToFile",
      "outputs": [
        {
          "internalType": "string",
          "name": "",
          "type": "string"
        }
      ],
      "stateMutability": "view",
      "type": "function"
    },
    {
      "inputs": [],
      "name": "immolate",
      "outputs": [],
      "stateMutability": "nonpayable",
      "type": "function"
    },
    {
      "inputs": [
        {
          "internalType": "address",
          "name": "_owner",
          "type": "address"
        },
        {
          "internalType": "bytes32",
          "name": "_node",
          "type": "bytes32"
        },
        {
          "internalType": "address",
          "name": "_signer",
          "type": "address"
        }
      ],
      "name": "isApprovedFor",
      "outputs": [
        {
          "internalType": "bool",
          "name": "",
          "type": "bool"
        }
      ],
      "stateMutability": "view",
      "type": "function"
    },
    {
      "inputs": [
        {
          "internalType": "address",
          "name": "_owner",
          "type": "address"
        },
        {
          "internalType": "address",
          "name": "_signer",
          "type": "address"
        }
      ],
      "name": "isApprovedForAll",
      "outputs": [
        {
          "internalType": "bool",
          "name": "",
          "type": "bool"
        }
      ],
      "stateMutability": "view",
      "type": "function"
    },
    {
      "inputs": [
        {
          "internalType": "address",
          "name": "",
          "type": "address"
        }
      ],
      "name": "isWrapper",
      "outputs": [
        {
          "internalType": "bool",
          "name": "",
          "type": "bool"
        }
      ],
      "stateMutability": "view",
      "type": "function"
    },
    {
      "inputs": [],
      "name": "listAllGateways",
      "outputs": [
        {
          "internalType": "string[]",
          "name": "list",
          "type": "string[]"
        }
      ],
      "stateMutability": "view",
      "type": "function"
    },
    {
      "inputs": [
        {
          "internalType": "bytes32",
          "name": "",
          "type": "bytes32"
        }
      ],
      "name": "manager",
      "outputs": [
        {
          "internalType": "bool",
          "name": "",
          "type": "bool"
        }
      ],
      "stateMutability": "view",
      "type": "function"
    },
    {
      "inputs": [],
      "name": "owner",
      "outputs": [
        {
          "internalType": "address payable",
          "name": "",
          "type": "address"
        }
      ],
      "stateMutability": "view",
      "type": "function"
    },
    {
      "inputs": [
        {
          "internalType": "string",
          "name": "_path",
          "type": "string"
        },
        {
          "internalType": "uint256",
          "name": "k",
          "type": "uint256"
        }
      ],
      "name": "randomGateways",
      "outputs": [
        {
          "internalType": "string[]",
          "name": "gateways",
          "type": "string[]"
        }
      ],
      "stateMutability": "view",
      "type": "function"
    },
    {
      "inputs": [
        {
          "internalType": "uint256",
          "name": "_index",
          "type": "uint256"
        }
      ],
      "name": "removeGateway",
      "outputs": [],
      "stateMutability": "nonpayable",
      "type": "function"
    },
    {
      "inputs": [
        {
          "internalType": "uint256[]",
          "name": "_indexes",
          "type": "uint256[]"
        }
      ],
      "name": "removeGateways",
      "outputs": [],
      "stateMutability": "nonpayable",
      "type": "function"
    },
    {
      "inputs": [
        {
          "internalType": "uint256",
          "name": "_index",
          "type": "uint256"
        },
        {
          "internalType": "string",
          "name": "_domain",
          "type": "string"
        }
      ],
      "name": "replaceGateway",
      "outputs": [],
      "stateMutability": "nonpayable",
      "type": "function"
    },
    {
      "inputs": [
        {
          "internalType": "uint256[]",
          "name": "_indexes",
          "type": "uint256[]"
        },
        {
          "internalType": "string[]",
          "name": "_domains",
          "type": "string[]"
        }
      ],
      "name": "replaceGateways",
      "outputs": [],
      "stateMutability": "nonpayable",
      "type": "function"
    },
    {
      "inputs": [
        {
          "internalType": "bytes",
          "name": "name",
          "type": "bytes"
        },
        {
          "internalType": "bytes",
          "name": "data",
          "type": "bytes"
        }
      ],
      "name": "resolve",
      "outputs": [
        {
          "internalType": "bytes",
          "name": "",
          "type": "bytes"
        }
      ],
      "stateMutability": "view",
      "type": "function"
    },
    {
      "inputs": [
        {
          "internalType": "address",
          "name": "_token",
          "type": "address"
        },
        {
          "internalType": "uint256",
          "name": "_id",
          "type": "uint256"
        }
      ],
      "name": "safeWithdraw",
      "outputs": [],
      "stateMutability": "nonpayable",
      "type": "function"
    },
    {
      "inputs": [
        {
          "internalType": "address",
          "name": "_signer",
          "type": "address"
        },
        {
          "internalType": "bool",
          "name": "_approved",
          "type": "bool"
        }
      ],
      "name": "setApprovalForAll",
      "outputs": [],
      "stateMutability": "nonpayable",
      "type": "function"
    },
    {
      "inputs": [
        {
          "internalType": "bytes32",
          "name": "_node",
          "type": "bytes32"
        },
        {
          "internalType": "bytes",
          "name": "_contenthash",
          "type": "bytes"
        }
      ],
      "name": "setContenthash",
      "outputs": [],
      "stateMutability": "nonpayable",
      "type": "function"
    },
    {
      "inputs": [
        {
          "internalType": "bytes32",
          "name": "digest",
          "type": "bytes32"
        },
        {
          "internalType": "bytes",
          "name": "signature",
          "type": "bytes"
        }
      ],
      "name": "signedBy",
      "outputs": [
        {
          "internalType": "address",
          "name": "_addr",
          "type": "address"
        }
      ],
      "stateMutability": "pure",
      "type": "function"
    },
    {
      "inputs": [
        {
          "internalType": "bytes4",
          "name": "interfaceID",
          "type": "bytes4"
        }
      ],
      "name": "supportsInterface",
      "outputs": [
        {
          "internalType": "bool",
          "name": "",
          "type": "bool"
        }
      ],
      "stateMutability": "pure",
      "type": "function"
    },
    {
      "inputs": [
        {
          "internalType": "address",
          "name": "_addr",
          "type": "address"
        }
      ],
      "name": "toChecksumAddress",
      "outputs": [
        {
          "internalType": "string",
          "name": "",
          "type": "string"
        }
      ],
      "stateMutability": "pure",
      "type": "function"
    },
    {
      "inputs": [
        {
          "internalType": "uint256",
          "name": "value",
          "type": "uint256"
        }
      ],
      "name": "uintToString",
      "outputs": [
        {
          "internalType": "string",
          "name": "",
          "type": "string"
        }
      ],
      "stateMutability": "pure",
      "type": "function"
    },
    {
      "inputs": [
        {
          "internalType": "address",
          "name": "_addr",
          "type": "address"
        },
        {
          "internalType": "bool",
          "name": "_set",
          "type": "bool"
        }
      ],
      "name": "updateWrapper",
      "outputs": [],
      "stateMutability": "nonpayable",
      "type": "function"
    },
    {
      "inputs": [
        {
          "internalType": "address[]",
          "name": "_addrs",
          "type": "address[]"
        },
        {
          "internalType": "bool[]",
          "name": "_sets",
          "type": "bool[]"
        }
      ],
      "name": "updateWrappers",
      "outputs": [],
      "stateMutability": "nonpayable",
      "type": "function"
    },
    {
      "inputs": [],
      "name": "withdraw",
      "outputs": [],
      "stateMutability": "nonpayable",
      "type": "function"
    },
    {
      "inputs": [
        {
          "internalType": "address",
          "name": "_token",
          "type": "address"
        },
        {
          "internalType": "uint256",
          "name": "_balance",
          "type": "uint256"
        }
      ],
      "name": "withdraw",
      "outputs": [],
      "stateMutability": "nonpayable",
      "type": "function"
    }
  ],
  "bytecode": {
    "object": "0x604060c0815234620002d857306080526e0c2e074ec69a0dfb2997ba6c7d2e1e60a0526000631d9dabef60e11b81526020600281528282206200004e620000478254620002dd565b826200031a565b7f5f616464726573732f3630000000000000000000000000000000000000000016905563c869023360e01b825260028152828220805462000094906200004790620002dd565b600c657075626b657960d01b01905563691f343160e01b8252600281528282208054620000c6906200004790620002dd565b6008636e616d6560e01b01905563bc1c58d160e01b8252600281528282208054620000f6906200004790620002dd565b7f636f6e74656e74686173680000000000000000000000000000000000000000169055635c98042b60e01b82526002815282822080546200013c906200004790620002dd565b7f5f646e732f7a6f6e65686173680000000000000000000000000000000000001a905581546001600160a01b031916331782556001805490929068010000000000000000811015620002c457838101808555811015620002b0579060097f8ea51d3bcf70e647a0bb1312a2a0fa7fbc0c51fb47325275912a75c257c082639285835284832001620001d2620000478254620002dd565b7f647765622e6c696e6b00000000000000000000000000000000000000000000129055855168647765622e6c696e6b60b81b815220855195907f7a9f387a9d3844b91ba19679387fe32e833e4311fec98471b6df53b9855e3f478380a2600573d4416b13d2b3a9abae7acd5d6c2bbdbe25686401948584525281208460ff1982541617905580a3613ace90816200035582396080518181816101f70152818161089101528181610bac015281816113d10152818161207801526120f8015260a0518181816108e801528181610ccb015281816121c4015261276b0152f35b634e487b7160e01b82526032600452602482fd5b634e487b7160e01b82526041600452602482fd5b600080fd5b90600182811c921680156200030f575b6020831014620002f957565b634e487b7160e01b600052602260045260246000fd5b91607f1691620002ed565b601f821162000327575050565b6000908152601f60208220920160051c8201915b8281106200034857505050565b8181556001016200033b56fe608080604052600436101561001357600080fd5b600090813560e01c90816301ffc9a714612abf5750806306dcdc63146128c3578063084ac40a1461278f5780631d2e2cc41461274b57806321d6e7dd14612694578063301215701461254f578063304e6ade1461218d578063356a277a1461213f5780633ccfd60b146120d65780635058c460146120185780635d1219d514611ef0578063814b745614611e5c57806382adc20814611ce35780638384976f14611c505780638da5cb5b14611c2a5780639061b923146111495780639885e3b41461111a578063a22cb46514611066578063a4b91a0114610fa8578063a9784b3e14610f19578063acc0f7b114610e85578063b984b2cd14610c87578063bc1c58d114610c5c578063bf1e9c8514610bf3578063c55a5d5914610581578063cf1353521461055c578063d63a4801146104d1578063e0aa279714610494578063e190ea6514610452578063e5dac70314610391578063e8d76b1e1461033c578063e939567914610304578063e985e9c51461026d5763f3fef3a31461019757600080fd5b3461025b57604036600319011261025b57806001600160a01b03806101ba612e65565b169082541690803b15610269576040517f23b872dd0000000000000000000000000000000000000000000000000000000081526001600160a01b037f000000000000000000000000000000000000000000000000000000000000000081166004830152909216602480840191909152356044830152829082908183816064810103925af1801561025e5761024b5750f35b61025490612c6a565b61025b5780f35b80fd5b6040513d84823e3d90fd5b5050fd5b503461025b57604036600319011261025b5760ff604060209261028e612e65565b6102e06102ee61029c612e7b565b8551928391898301958690603292691b585b9859d94b585b1b60b21b83526bffffffffffffffffffffffff19809260601b16600a84015260601b16601e8201520190565b03601f198101835282612cb6565b5190208152600484522054166040519015158152f35b503461025b57602036600319011261025b57610338610324600435613762565b604051918291602083526020830190612e40565b0390f35b503461025b57604036600319011261025b576004359067ffffffffffffffff821161025b5761033861037d6103743660048601612f40565b60243590613067565b604051918291602083526020830190612e91565b503461025b57602036600319011261025b576004356103bb6001600160a01b0383541633146132ea565b6001546103ca600182116134db565b6103e36103d683612cf0565b5060405191828092612fc3565b0390207fd94fae538c4428e7bd1e4fa66b93ad367b2c5bbbc9d0dae73a21526257361ff48480a2600019810190811161043e579061042d61042661043393612cf0565b5091612cf0565b90613603565b61043b613612565b80f35b602483634e487b7160e01b81526011600452fd5b503461025b57602036600319011261025b576004356001600160e01b0319811680910361049057604082610324926103389452600260205220612d77565b5080fd5b503461025b57602036600319011261025b5760ff60406020926001600160a01b036104bd612e65565b168152600584522054166040519015158152f35b503461025b57602036600319011261025b5760043567ffffffffffffffff811161049057610503903690600401612b90565b906105196001600160a01b0384541633146132ea565b6105238282613470565b8160405192839283378101600081520390207f7a9f387a9d3844b91ba19679387fe32e833e4311fec98471b6df53b9855e3f478280a280f35b503461025b57602036600319011261025b5761033861032461057c612e65565b613806565b503461025b5761059036612f6d565b819291019360a08386031261025b57823590602094858501359360608601359367ffffffffffffffff94858111610b4557896105cd918901612f40565b986080880135868111610b4157906105e6918901612f40565b9660038201808311610bdf574311159182610b91575b505015610b4d57810194606082870312610b49578135956001600160a01b0394858816809803610b455788840135818111610b41578261063d918601612f40565b936040810135918211610b415761088c94928a949261065c9201612f40565b996107d8608e6106858d878151910120604051908882015287815261068081612c9a565b61323f565b9361068f8c613806565b604051958692898401967f52657175657374696e67207369676e617475726520666f72206f66662d63686188527f696e20454e53207265636f72640a00000000000000000000000000000000000060408601527f0a454e5320446f6d61696e3a2000000000000000000000000000000000000000604e86015261071b815180928d605b89019101612e1d565b84017f0a5265636f726420547970653a20000000000000000000000000000000000000605b820152610756825180938d606985019101612e1d565b017f0a5265636f726420486173683a203078000000000000000000000000000000006069820152610790825180938c607985019101612e1d565b017f0a5369676e65642042793a206569703135353a313a000000000000000000000060798201526107c9825180938b8785019101612e1d565b0103606e810185520183612cb6565b610848603a6107e78451613762565b93604051938491610839898401977f19457468657265756d205369676e6564204d6573736167653a0a000000000000895261082a815180928d8989019101612e1d565b84019151809386840190612e1d565b0103601a810184520182612cb6565b51902060405193849283927f06dcdc630000000000000000000000000000000000000000000000000000000084526004840152604060248401526044830190612e40565b0381867f0000000000000000000000000000000000000000000000000000000000000000165afa90811561025e579083918391610b24575b50168403610adf57604051916302571be360e01b83528360048401528583602481847f0000000000000000000000000000000000000000000000000000000000000000165afa92831561025e578293610ac0575b50858184168084526005825260ff604085205416610a5e575b5050821684141591826109f5575b82610990575b5050610961575050610338604051928284938452830190612e40565b60405163a78e4aa560e01b815260048101919091526001600160a01b03919091166024820152604490fd5b0390fd5b60ff92509060409182516109e1816102e0898b8301958690603292691b585b9859d94b585b1b60b21b83526bffffffffffffffffffffffff19809260601b16600a84015260601b16601e8201520190565b519020815260048652205416153880610945565b604051696d616e6167652d6f6e6560b01b878201908152600a81018690526bffffffffffffffffffffffff19606084811b8216602a84015288901b16603e820152919350610a4681605284016102e0565b51902081526004855260ff604082205416159161093f565b6024929450604051928380926331a9108f60e11b82528860048301525afa90811561025e578291610a93575b50918538610931565b610ab39150863d8811610ab9575b610aab8183612cb6565b8101906136a8565b38610a8a565b503d610aa1565b610ad8919350863d8811610ab957610aab8183612cb6565b9138610918565b6064856040519063151a7bff60e11b82526004820152600a60248201527f4241445f5349474e4552000000000000000000000000000000000000000000006044820152fd5b610b3b9150873d8911610ab957610aab8183612cb6565b386108c4565b8580fd5b8480fd5b8280fd5b6064876040519062461bcd60e51b82526004820152601860248201527f494e56414c49445f434845434b53554d2f54494d454f555400000000000000006044820152fd5b60409192508a610bd18b6102e08c86519485938401963390407f00000000000000000000000000000000000000000000000000000000000000008961370b565b5190209101351438806105fc565b602486634e487b7160e01b81526011600452fd5b503461025b578060031936011261025b576001600160a01b03905416803303610c1857ff5b606460405162461bcd60e51b815260206004820152600960248201527f4e4f545f4f574e455200000000000000000000000000000000000000000000006044820152fd5b503461025b57602036600319011261025b576103246040610338926004358152600360205220612d77565b503461025b57604036600319011261025b57600435610ca4612e7b565b604051926302571be360e01b84528260048501526020936001600160a01b038582602481847f0000000000000000000000000000000000000000000000000000000000000000165afa918215610e7a579086918493610e5b575b5082168084526005825260ff604085205416610e0b575b5050604051696d616e6167652d6f6e6560b01b868201908152600a8101959095526bffffffffffffffffffffffff19606083811b8216602a88015285901b16603e8601529384605282010394610d73601f1996878101835282612cb6565b51902082526004855260ff604083205416928315610d98575b85846040519015158152f35b60409350610df660ff95610dea9286519384918a8301968790603292691b585b9859d94b585b1b60b21b83526bffffffffffffffffffffffff19809260601b16600a84015260601b16601e8201520190565b03908101835282612cb6565b51902081526004845220541680388080610d8c565b60249250604051928380926331a9108f60e11b82528860048301525afa90811561025e578291610e3e575b508438610d15565b610e559150853d8711610ab957610aab8183612cb6565b38610e36565b610e73919350823d8411610ab957610aab8183612cb6565b9138610cfe565b6040513d85823e3d90fd5b503461025b57604036600319011261025b5760043560243567ffffffffffffffff8111610b4957610523610ec0610f13923690600401612b90565b939080938592610edb6001600160a01b0389541633146132ea565b610ee76103d682612cf0565b0390207fd94fae538c4428e7bd1e4fa66b93ad367b2c5bbbc9d0dae73a21526257361ff48980a2612cf0565b90613391565b503461025b57606036600319011261025b57610f33612e65565b6044356001600160a01b0381168103610fa35760209260ff926102e06102ee60409485519283918983019560243587919092605293696d616e6167652d6f6e6560b01b8452600a8401526bffffffffffffffffffffffff19809260601b16602a84015260601b16603e8201520190565b600080fd5b503461025b57606036600319011261025b57600435610fc5612e7b565b60443591821515809303610fa357604051696d616e6167652d6f6e6560b01b60208201908152602a82018390526bffffffffffffffffffffffff1933606090811b8216604a85015285901b16605e8301529061102481607281016102e0565b519020845260046020527ff0ddb3b04746704017f9aa8bd728fcc2c1d11675041205350018915f5e4750a060206001600160a01b03604051943386521693a480f35b503461025b57604036600319011261025b57611080612e65565b6001600160a01b03611090612f5e565b9160405160208101906110dd816102e085338690603292691b585b9859d94b585b1b60b21b83526bffffffffffffffffffffffff19809260601b16600a84015260601b16601e8201520190565b51902084526004602052604051921515835216907f17307eab39ab6107e8899845ad3d59bd9653f200f220920489ca2b5937696c3160203392a380f35b503461025b57602036600319011261025b5760ff60406020926004358152600484522054166040519015158152f35b503461025b5761115836612f6d565b939192600193808511611c2657813560f81c9060405194610560860186811067ffffffffffffffff821117611c1057604052602a865260005b6105408110611bff57508287019283881161049057828411610490576111bf909895979836908a8701612f09565b6111c887613046565b526111d286613046565b506111dc86613046565b5194855b8385101561179d576001600160f81b031985870135161561132b57600185019461120c8682878a6136c7565b611215916136df565b60f81c0160010194856112299186896136c7565b369061123492612f09565b61123e8b8a613053565b526112498a89613053565b506112548a89613053565b516040518851988160209a8b92818480850192019161127292612e1d565b8101938285017f2e000000000000000000000000000000000000000000000000000000000000009052805194859160219687958684019201916112b492612e1d565b0103600181018352016112c79082612cb6565b976112d28c8b613053565b519060405193828593519081848087019201916112ee92612e1d565b830190828201602f60f81b90528051809386840192019161130e92612e1d565b0103600181018352016113219082612cb6565b98600101986111e0565b92508686896000198c0161133f8185613053565b5160208151910120604051602081019188835260408201526040815261136481612c7e565b519020918694826060935b611b8557505085600411611b50576001600160e01b03198082351691828952600297886020526113a260408b2054612d3d565b156117e2575050508652846020526113bc60408720612d77565b915b8151156117b157506040514360001901977f0000000000000000000000000000000000000000000000000000000000000000979193929190602085018561140a8689338f408f8761370b565b039561141e601f1997888101835282612cb6565b5190209783511561179d5760208401516001600160f81b0319935083167fe500000000000000000000000000000000000000000000000000000000000000036117615760405161146d81612c9a565b600781527f2f69706e732f66000000000000000000000000000000000000000000000000006020820152925b845160011981019190821161174b578160011b82810484148315171561174b576114c2906131c3565b956114cb6131f5565b9060005b8481106116c857505050505050936001600160a01b039961164d6116999561163d6115ca8c61098c9d9c9b986115c5603c6116599a6116ac9e6040519482611521879451809260208088019101612e1d565b83016115368251809360208085019101612e1d565b017f2f2e77656c6c2d6b6e6f776e2f000000000000000000000000000000000000006020820152611571825180936020602d85019101612e1d565b01602f60f81b602d82015288519061159082602e830160208d01612e1d565b017f2e6a736f6e3f743d7b646174617d000000000000000000000000000000000000602e82015203601c810184520182612cb6565b613067565b966040519b8c60207fffffffffffffffff000000000000000000000000000000000000000000000000603c67ffffffffffffffff814204160260c01b1691015260088d526116178d612c9a565b6040519b8c9660208801526040870152606086015260a0608086015260c0850190612e40565b90848483030160a0850152612e40565b03908101865285612cb6565b6040519788977f556f183000000000000000000000000000000000000000000000000000000000895216600488015260a0602488015260a4870190612e91565b6003199384878303016044880152612e40565b9163c55a5d5960e01b6064860152848303016084850152612e40565b85810180821161174b576116dc908361322e565b5190846116ec8360fc1c8661322e565b51168160011b9282840489148315171561174b57600f611721918d611716878b9660001a9261322e565b5360f81c168661322e565b5116916001810180911161174b576117406117469360001a918c61322e565b53612fb4565b6114cf565b634e487b7160e01b600052601160045260246000fd5b60405161176d81612c9a565b600781527f2f697066732f6600000000000000000000000000000000000000000000000000602082015292611499565b602483634e487b7160e01b81526032600452fd5b602490604051907fca1c65c10000000000000000000000000000000000000000000000000000000082526004820152fd5b9091927f59d1d43c00000000000000000000000000000000000000000000000000000000811460001461185d57508091925060241161185957810190602081830360231901126118595760248101359067ffffffffffffffff82116118555761184f929101602401612f40565b916113be565b8880fd5b8780fd5b7ff1cb7e060000000000000000000000000000000000000000000000000000000081036119015750809192506024116118595760209082018290036023190112610fa35760246118ae910135613762565b61184f602960405180937f5f616464726573732f000000000000000000000000000000000000000000000060208301526118f18151809260208686019101612e1d565b8101036009810184520182612cb6565b7f124a319c0000000000000000000000000000000000000000000000000000000081036119bd5750806024116118555760209082018290036023190112610fa35760240135908116809103610fa35761196a906040519060208201526004815261068081612c9a565b61184f602d60405180937f5f696e746572666163652f30780000000000000000000000000000000000000060208301526119ad8151809260208686019101612e1d565b810103600d810184520182612cb6565b919250907f2203ab56000000000000000000000000000000000000000000000000000000008103611a625750806024116118595760209082018290036023190112610fa3576024611a0f910135613762565b61184f602560405180937f5f6162692f0000000000000000000000000000000000000000000000000000006020830152611a528151809260208686019101612e1d565b8101036005810184520182612cb6565b7fa8fa5682000000000000000000000000000000000000000000000000000000008103611b545750806024116118595760409082018290036023190112611b505760448101359061ffff8216809203611859576028611ae1611adb61184f93602460405191013560208201526020815261068081612c9a565b93613762565b926040519384917f5f646e732f3078000000000000000000000000000000000000000000000000006020840152611b22815180926020602787019101612e1d565b8201602f60f81b6027820152611b418251809360208785019101612e1d565b01036008810184520182612cb6565b8680fd5b602490604051907f0c9addbc0000000000000000000000000000000000000000000000000000000082526004820152fd5b6000190193611b948583613053565b51602081519101206040519060208201928352604082015260408152611bb981612c7e565b51902093848952600380602052611bd360408b2054612d3d565b611bdf575b508061136f565b9193509550838852602052611bf660408820612d77565b91858496611bd8565b806060602080938a01015201611191565b634e487b7160e01b600052604160045260246000fd5b8380fd5b503461025b578060031936011261025b576001600160a01b036020915416604051908152f35b503461025b57604036600319011261025b57611c6a612e65565b611c72612f5e565b906001600160a01b0390611c8a8285541633146132ea565b611c96813b1515613a2c565b16908183526005602052611cb981604085209060ff801983541691151516179055565b1515907f8ea51d3bcf70e647a0bb1312a2a0fa7fbc0c51fb47325275912a75c257c082638380a380f35b503461025b57604036600319011261025b5760043567ffffffffffffffff811161049057611d15903690600401612f40565b8051906024803580840391848311611e485760019183831b60029682868304891491141715611e3357611d47906131c3565b94611d506131f5565b9160005b868110611d7157604051602080825281906103389082018b612e40565b818101808211611e1e57611d85908461322e565b516001600160f81b031980611d9d8360fc1c8861322e565b51169183891b928484048d1485151715611e0957611dd091600f9160001a611dc5868f61322e565b5360f81c168761322e565b5116878201809211611df45790611740611def939260001a918b61322e565b611d54565b86634e487b7160e01b60005260116004526000fd5b88634e487b7160e01b60005260116004526000fd5b85634e487b7160e01b60005260116004526000fd5b82634e487b7160e01b60005260116004526000fd5b634e487b7160e01b60005260116004526000fd5b503461025b578060031936011261025b57600190815491611e7c83612cd8565b92611e8a6040519485612cb6565b8084528183526020927fb10e2d527612073b26eecdfd717e6a320cf44b4afac2b0732d9fcbe2b7fa0cf6848087015b848410611ed357604051828152806103388185018b612e91565b85918291611ee085612d77565b8152019201920191908590611eb9565b503461025b57611eff36612c23565b91611f156001600160a01b0386541633146132ea565b828103611fd457845b818110611f29578580f35b80611f446103d6611f3e611fcf94868a613698565b35612cf0565b0390207fd94fae538c4428e7bd1e4fa66b93ad367b2c5bbbc9d0dae73a21526257361ff48880a2611f88611f79828787613499565b90610f13611f3e85888c613698565b611f93818686613499565b908160405192839283378101600081520390207f7a9f387a9d3844b91ba19679387fe32e833e4311fec98471b6df53b9855e3f478880a2612fb4565b611f1e565b606460405162461bcd60e51b815260206004820152601160248201527f42616420696e707574206c656e677468730000000000000000000000000000006044820152fd5b503461025b57604036600319011261025b57806001600160a01b038061203c612e65565b1690825416813b15610269576040517f42842e0e0000000000000000000000000000000000000000000000000000000081526001600160a01b037f000000000000000000000000000000000000000000000000000000000000000081166004830152909116602480830191909152356044820152919082908183816064810103925af1801561025e576120cd575080f35b61043b90612c6a565b503461025b578060031936011261025b57808080806001600160a01b038154167f00000000000000000000000000000000000000000000000000000000000000003190828215612136575bf11561212a5780f35b604051903d90823e3d90fd5b506108fc612121565b503461025b57602036600319011261025b576004356001548110156104905761216790612cf0565b91909161217a5761033861032483612d77565b80634e487b7160e01b6024925280600452fd5b503461025b5761219c36612bbe565b6040516302571be360e01b81526004810184905260209493906001600160a01b0386826024817f000000000000000000000000000000000000000000000000000000000000000085165afa918215612525578692612530575b50868183168088526005825260ff6040892054166124d3575b50508116331415908161246a575b81612405575b506123e55781600411611c265782357fe5010172000000000000000000000000000000000000000000000000000000006001600160e01b0319821614908115612391575b501561234d57835260038452604083209167ffffffffffffffff82116123395761229a826122948554612d3d565b8561334c565b8394601f83116001146122d65750938394829394926122cb575b50508160011b916000199060031b1c191617905580f35b0135905038806122b4565b90601f198316958486528286209286905b88821061232157505083600195969710612307575b505050811b01905580f35b0135600019600384901b60f8161c191690553880806122fc565b806001849682949587013581550195019201906122e7565b602484634e487b7160e01b81526041600452fd5b6064856040519062461bcd60e51b82526004820152600e60248201527f495046532f49504e535f4f4e4c590000000000000000000000000000000000006044820152fd5b905082600311610b45577fffffff0000000000000000000000000000000000000000000000000000000000167fe3010100000000000000000000000000000000000000000000000000000000001438612266565b60405163a78e4aa560e01b81526004810191909152336024820152604490fd5b9050604051612452816102e08982019433908690603292691b585b9859d94b585b1b60b21b83526bffffffffffffffffffffffff19809260601b16600a84015260601b16601e8201520190565b51902084526004855260ff6040852054161538612222565b604051696d616e6167652d6f6e6560b01b888201908152600a81018590526bffffffffffffffffffffffff19606084811b8216602a84015233901b16603e8201529192506124bb81605284016102e0565b51902085526004865260ff604086205416159061221c565b6024929350604051928380926331a9108f60e11b82528760048301525afa908115612525578691612508575b5090863861220e565b61251f9150873d8911610ab957610aab8183612cb6565b386124ff565b6040513d88823e3d90fd5b612548919250873d8911610ab957610aab8183612cb6565b90386121f5565b503461025b57602080600319360112610490576004359067ffffffffffffffff8211610b495736602383011215610b495781600401359061258f82612cd8565b9261259d6040519485612cb6565b8284528184016024809460051b83010191368311611b50578401905b82821061268557505050506125d96001600160a01b0384541633146132ea565b81519060016125ea838254116134db565b845b8381106125f7578580f35b61260d6103d66126078388613053565b51612cf0565b0390207fd94fae538c4428e7bd1e4fa66b93ad367b2c5bbbc9d0dae73a21526257361ff48780a281546000198101908111612672579061266061265261266d93612cf0565b5061042d612607848a613053565b612668613612565b612fb4565b6125ec565b8387634e487b7160e01b81526011600452fd5b813581529083019083016125b9565b503461025b57602036600319011261025b5760043567ffffffffffffffff8111610490576126c6903690600401612bf2565b6126db6001600160a01b0384541633146132ea565b825b8181106126e8578380f35b806127006126fa612746938587613499565b90613470565b61270b818486613499565b9081604051928392833781018781520390207f7a9f387a9d3844b91ba19679387fe32e833e4311fec98471b6df53b9855e3f478680a2612fb4565b6126dd565b503461025b578060031936011261025b5760206040516001600160a01b037f0000000000000000000000000000000000000000000000000000000000000000168152f35b503461025b5761279e36612c23565b6001600160a01b03929192916127b88387541633146132ea565b81810361287f57855b8181106127cc578680f35b806127ee6127e66127e161287a94868b613698565b613a77565b3b1515613a2c565b6128306128046127ff83878a613698565b613a8b565b866128136127e185888d613698565b168a52600560205260408a209060ff801983541691151516179055565b61283e6127e182858a613698565b8561284d6127ff84888b613698565b151591167f8ea51d3bcf70e647a0bb1312a2a0fa7fbc0c51fb47325275912a75c257c082638a80a3612fb4565b6127c1565b606460405162461bcd60e51b815260206004820152600a60248201527f4241445f4c454e475448000000000000000000000000000000000000000000006044820152fd5b503461025b576128d236612bbe565b929190602093808511611c265760408103612a4c57848201359085601f19820110612a39575b50907f7fffffffffffffffffffffffffffffffffffffffffffffffffffffffffffffff82169160ff1c601b8101809111612a255760ff165b7f7fffffffffffffffffffffffffffffff5d576e7357a4501ddfe92f46681b20a083116129e05792849260809260ff88966040519485521686840152356040830152606082015282805260015afa1561212a57516001600160a01b0316801561299b57604051908152f35b6064826040519063151a7bff60e11b82526004820152600c60248201527f5a45524f5f4144445245535300000000000000000000000000000000000000006044820152fd5b6064866040519063151a7bff60e11b82526004820152600f60248201527f494e56414c49445f535f56414c554500000000000000000000000000000000006044820152fd5b602485634e487b7160e01b81526011600452fd5b600019908603860160031b1b16386128f8565b9060418203612a7a5781604011611c2657612a728582013592603f1901604083016136df565b60f81c612930565b6064856040519063151a7bff60e11b82526004820152600e60248201527f4241445f5349475f4c454e4754480000000000000000000000000000000000006044820152fd5b905034610490576020366003190112610490576004356001600160e01b03198116809103610b4957602092507f9061b923000000000000000000000000000000000000000000000000000000008114908115612b66575b8115612b55575b8115612b2b575b5015158152f35b7f01ffc9a70000000000000000000000000000000000000000000000000000000091501438612b24565b63c55a5d5960e01b81149150612b1d565b7f304e6ade0000000000000000000000000000000000000000000000000000000081149150612b16565b9181601f84011215610fa35782359167ffffffffffffffff8311610fa35760208381860195010111610fa357565b906040600319830112610fa357600435916024359067ffffffffffffffff8211610fa357612bee91600401612b90565b9091565b9181601f84011215610fa35782359167ffffffffffffffff8311610fa3576020808501948460051b010111610fa357565b6040600319820112610fa35767ffffffffffffffff91600435838111610fa35782612c5091600401612bf2565b93909392602435918211610fa357612bee91600401612bf2565b67ffffffffffffffff8111611c1057604052565b6060810190811067ffffffffffffffff821117611c1057604052565b6040810190811067ffffffffffffffff821117611c1057604052565b90601f8019910116810190811067ffffffffffffffff821117611c1057604052565b67ffffffffffffffff8111611c105760051b60200190565b600154811015612d275760016000527fb10e2d527612073b26eecdfd717e6a320cf44b4afac2b0732d9fcbe2b7fa0cf60190600090565b634e487b7160e01b600052603260045260246000fd5b90600182811c92168015612d6d575b6020831014612d5757565b634e487b7160e01b600052602260045260246000fd5b91607f1691612d4c565b9060405191826000825492612d8b84612d3d565b908184526001948581169081600014612dfa5750600114612db7575b5050612db592500383612cb6565b565b9093915060005260209081600020936000915b818310612de2575050612db593508201013880612da7565b85548884018501529485019487945091830191612dca565b915050612db594506020925060ff191682840152151560051b8201013880612da7565b60005b838110612e305750506000910152565b8181015183820152602001612e20565b90602091612e5981518092818552858086019101612e1d565b601f01601f1916010190565b600435906001600160a01b0382168203610fa357565b602435906001600160a01b0382168203610fa357565b908082519081815260208091019281808460051b8301019501936000915b848310612ebf5750505050505090565b9091929394958480612edd600193601f198682030187528a51612e40565b9801930193019194939290612eaf565b67ffffffffffffffff8111611c1057601f01601f191660200190565b929192612f1582612eed565b91612f236040519384612cb6565b829481845281830111610fa3578281602093846000960137010152565b9080601f83011215610fa357816020612f5b93359101612f09565b90565b602435908115158203610fa357565b6040600319820112610fa35767ffffffffffffffff91600435838111610fa35782612f9a91600401612b90565b93909392602435918211610fa357612bee91600401612b90565b600019811461174b5760010190565b600092918154612fd281612d3d565b9260019180831690811561302b5750600114612fef575b50505050565b90919293945060005260209081600020906000915b85831061301a5750505050019038808080612fe9565b805485840152918301918101613004565b60ff1916845250505081151590910201915038808080612fe9565b805115612d275760200190565b8051821015612d275760209160051b010190565b9190916001548060011c936001850180951161174b57600585116131ba575b613091859295612cd8565b926040936130a185519182612cb6565b838152601f1996876130b286612cd8565b0160005b8181106131a757505081976000903360601b958315925b8881106130e05750505050505050505050565b83908a51926020938481019182528a8d8201526034815261310081612c7e565b51902091613191576131546131718c8861318c95069561311f87612cf0565b5091519384927f68747470733a2f2f000000000000000000000000000000000000000000000000838501526028840190612fc3565b6131648d82815194859201612e1d565b0103868101835282612cb6565b61317b8289613053565b526131868188613053565b50612fb4565b6130cd565b634e487b7160e01b600052601260045260246000fd5b60606020828601810191909152016130b6565b60059450613086565b906131cd82612eed565b6131da6040519182612cb6565b82815280926131eb601f1991612eed565b0190602036910137565b6040519061320282612c9a565b601082527f30313233343536373839616263646566000000000000000000000000000000006020830152565b908151811015612d27570160200190565b8051600290600181811b82158382048514171561174b5761325f906131c3565b936132686131f5565b9060005b84811061327c5750505050505090565b613286818361322e565b51906001600160f81b03198061329f8460fc1c8761322e565b51169282871b938385048a148415171561174b576132c791600f9160001a611716878e61322e565b51169185810180911161174b576117406132e59360001a918a61322e565b61326c565b156132f157565b606460405162461bcd60e51b815260206004820152600860248201527f4f6e6c79204465760000000000000000000000000000000000000000000000006044820152fd5b818110613340575050565b60008155600101613335565b9190601f811161335b57505050565b612db5926000526020600020906020601f840160051c83019310613387575b601f0160051c0190613335565b909150819061337a565b9193929061345a5767ffffffffffffffff8111611c10576133bc816133b68454612d3d565b8461334c565b6000601f82116001146133f657819293946000926133eb575b50508160011b916000199060031b1c1916179055565b0135905038806133d5565b601f198216948382526020918281209281905b88821061344257505083600195969710613428575b505050811b019055565b0135600019600384901b60f8161c1916905538808061341e565b80600184968294958701358155019501920190613409565b634e487b7160e01b600052600060045260246000fd5b906001549168010000000000000000831015611c1057610f13836001612db59501600155612cf0565b9190811015612d275760051b81013590601e1981360301821215610fa357019081359167ffffffffffffffff8311610fa3576020018236038113610fa3579190565b156134e257565b606460405162461bcd60e51b815260206004820152600c60248201527f4c617374204761746577617900000000000000000000000000000000000000006044820152fd5b908082146135ff576135388154612d3d565b9067ffffffffffffffff8211611c1057819061355e826135588654612d3d565b8661334c565b600090601f8311600114613594576000926135895750508160011b916000199060031b1c1916179055565b0154905038806133d5565b81526020808220858352818320935090601f1985169083905b8282106135e65750509084600195949392106135cd57505050811b019055565b015460001960f88460031b161c1916905538808061341e565b84958192958501548155600180910196019401906135ad565b5050565b919061345a57612db591613526565b6001548015613682576000190161362881612cf0565b61345a576136368154612d3d565b9081613644575b5050600155565b81601f6000931160011461365c5750555b388061363d565b90808391825261367b601f60208420940160051c840160018501613335565b5555613655565b634e487b7160e01b600052603160045260246000fd5b9190811015612d275760051b0190565b90816020910312610fa357516001600160a01b0381168103610fa35790565b90939293848311610fa3578411610fa3578101920390565b6001600160f81b031990358181169392600181106136fc57505050565b60010360031b82901b16169150565b919260489594936bffffffffffffffffffffffff19809360601b168452601484015260601b1660348201526137498251809360208785019101612e1d565b0161375d8251809360208685019101612e1d565b010190565b80156137cc576000818181805b6137b9575061377d816131c3565b935b6137895750505090565b6000190190600a9060308282060160f81b6001600160f81b031916841a6137b0848761322e565b5304908161377f565b91506001600a910191048084929161376f565b506040516137d981612c9a565b600181527f3000000000000000000000000000000000000000000000000000000000000000602082015290565b604080516020926bffffffffffffffffffffffff199060601b168382015260149182825261383382612c9a565b80519161383f83612c7e565b60288352848301938236863782519161385783612c9a565b601083527f3031323334353637383941424344454600000000000000000000000000000000878401526138886131f5565b926138928261323f565b85516138ba8a82816138ad8183019687815193849201612e1d565b8101038084520182612cb6565b51902060005b84811061391d5750505050505092612f5b9261390d6022937f3078000000000000000000000000000000000000000000000000000000000000965196879485015251809285850190612e1d565b8101036002810184520182612cb6565b613927818561322e565b5160fc1c600f9081613939848861322e565b5160f81c16908c841015612d275784841a9160076001600160f81b0319600493828787871c1611600014613a1a57613971908a61322e565b5116945b60019487861b9688880460021489151715613a0557908f6139a6896001600160f81b03199796959460001a9261322e565b531611156139f3576139b8908861322e565b5116915b83018093116139de5750906117406139d9939260001a918b61322e565b6138c0565b601190634e487b7160e01b6000525260246000fd5b6139fd908b61322e565b5116916139bc565b601186634e487b7160e01b6000525260246000fd5b613a24908d61322e565b511694613975565b15613a3357565b606460405162461bcd60e51b815260206004820152600d60248201527f4f6e6c7920436f6e7472616374000000000000000000000000000000000000006044820152fd5b356001600160a01b0381168103610fa35790565b358015158103610fa3579056fea26469706673582212208e5795fc17dacb745ed478fb130ef961e7ba274364c0952275d966038e9e29c164736f6c63430008130033",
    "linkReferences": {}
  },
  "methodIdentifiers": {
    "ENS()": "1d2e2cc4",
    "Gateways(uint256)": "356a277a",
    "__callback(bytes,bytes)": "c55a5d59",
    "addGateway(string)": "d63a4801",
    "addGateways(string[])": "21d6e7dd",
    "approve(bytes32,address,bool)": "a4b91a01",
    "approved(bytes32,address)": "b984b2cd",
    "bytesToString(bytes,uint256)": "82adc208",
    "contenthash(bytes32)": "bc1c58d1",
    "funcToFile(bytes4)": "e190ea65",
    "immolate()": "bf1e9c85",
    "isApprovedFor(address,bytes32,address)": "a9784b3e",
    "isApprovedForAll(address,address)": "e985e9c5",
    "isWrapper(address)": "e0aa2797",
    "listAllGateways()": "814b7456",
    "manager(bytes32)": "9885e3b4",
    "owner()": "8da5cb5b",
    "randomGateways(string,uint256)": "e8d76b1e",
    "removeGateway(uint256)": "e5dac703",
    "removeGateways(uint256[])": "30121570",
    "replaceGateway(uint256,string)": "acc0f7b1",
    "replaceGateways(uint256[],string[])": "5d1219d5",
    "resolve(bytes,bytes)": "9061b923",
    "safeWithdraw(address,uint256)": "5058c460",
    "setApprovalForAll(address,bool)": "a22cb465",
    "setContenthash(bytes32,bytes)": "304e6ade",
    "signedBy(bytes32,bytes)": "06dcdc63",
    "supportsInterface(bytes4)": "01ffc9a7",
    "toChecksumAddress(address)": "cf135352",
    "uintToString(uint256)": "e9395679",
    "updateWrapper(address,bool)": "8384976f",
    "updateWrappers(address[],bool[])": "084ac40a",
    "withdraw()": "3ccfd60b",
    "withdraw(address,uint256)": "f3fef3a3"
  },
  "id": 23
}