{
  "abi": [
    {
      "inputs": [],
      "stateMutability": "nonpayable",
      "type": "constructor"
    },
    {
      "inputs": [
        {
          "internalType": "bytes1",
          "name": "_type",
          "type": "bytes1"
        }
      ],
      "name": "ContenthashNotImplemented",
      "type": "error"
    },
    {
      "inputs": [
        {
          "internalType": "string",
          "name": "_error",
          "type": "string"
        }
      ],
      "name": "InvalidSignature",
      "type": "error"
    },
    {
      "inputs": [
        {
          "internalType": "address",
          "name": "_from",
          "type": "address"
        },
        {
          "internalType": "string[]",
          "name": "_gateways",
          "type": "string[]"
        },
        {
          "internalType": "bytes",
          "name": "_data",
          "type": "bytes"
        },
        {
          "internalType": "bytes4",
          "name": "_callbackFunction",
          "type": "bytes4"
        },
        {
          "internalType": "bytes",
          "name": "_extradata",
          "type": "bytes"
        }
      ],
      "name": "OffchainLookup",
      "type": "error"
    },
    {
      "inputs": [
        {
          "internalType": "bytes4",
          "name": "func",
          "type": "bytes4"
        }
      ],
      "name": "ResolverFunctionNotImplemented",
      "type": "error"
    },
    {
      "anonymous": false,
      "inputs": [
        {
          "indexed": true,
          "internalType": "string",
          "name": "domain",
          "type": "string"
        }
      ],
      "name": "AddGateway",
      "type": "event"
    },
    {
      "anonymous": false,
      "inputs": [
        {
          "indexed": true,
          "internalType": "string",
          "name": "domain",
          "type": "string"
        }
      ],
      "name": "RemoveGateway",
      "type": "event"
    },
    {
      "inputs": [
        {
          "internalType": "bytes32",
          "name": "_node",
          "type": "bytes32"
        },
        {
          "internalType": "string",
          "name": "_domain",
          "type": "string"
        },
        {
          "internalType": "bytes",
          "name": "_ipns",
          "type": "bytes"
        },
        {
          "internalType": "string",
          "name": "_path",
          "type": "string"
        }
      ],
      "name": "CCIPRead",
      "outputs": [],
      "stateMutability": "view",
      "type": "function"
    },
    {
      "inputs": [],
      "name": "DefaultContenthash",
      "outputs": [
        {
          "internalType": "bytes",
          "name": "",
          "type": "bytes"
        }
      ],
      "stateMutability": "view",
      "type": "function"
    },
    {
      "inputs": [],
      "name": "ENS",
      "outputs": [
        {
          "internalType": "contract iENS",
          "name": "",
          "type": "address"
        }
      ],
      "stateMutability": "view",
      "type": "function"
    },
    {
      "inputs": [
        {
          "internalType": "uint256",
          "name": "",
          "type": "uint256"
        }
      ],
      "name": "Gateways",
      "outputs": [
        {
          "internalType": "string",
          "name": "",
          "type": "string"
        }
      ],
      "stateMutability": "view",
      "type": "function"
    },
    {
      "inputs": [],
      "name": "WRAPPER",
      "outputs": [
        {
          "internalType": "contract iToken",
          "name": "",
          "type": "address"
        }
      ],
      "stateMutability": "view",
      "type": "function"
    },
    {
      "inputs": [
        {
          "internalType": "bytes",
          "name": "response",
          "type": "bytes"
        },
        {
          "internalType": "bytes",
          "name": "extradata",
          "type": "bytes"
        }
      ],
      "name": "__callback",
      "outputs": [
        {
          "internalType": "bytes",
          "name": "result",
          "type": "bytes"
        }
      ],
      "stateMutability": "view",
      "type": "function"
    },
    {
      "inputs": [
        {
          "internalType": "string",
          "name": "_domain",
          "type": "string"
        }
      ],
      "name": "addGateway",
      "outputs": [],
      "stateMutability": "nonpayable",
      "type": "function"
    },
    {
      "inputs": [
        {
          "internalType": "string[]",
          "name": "_domains",
          "type": "string[]"
        }
      ],
      "name": "addGateways",
      "outputs": [],
      "stateMutability": "nonpayable",
      "type": "function"
    },
    {
      "inputs": [
        {
          "internalType": "bytes32",
          "name": "node",
          "type": "bytes32"
        },
        {
          "internalType": "address",
          "name": "_signer",
          "type": "address"
        },
        {
          "internalType": "bool",
          "name": "_approved",
          "type": "bool"
        }
      ],
      "name": "approve",
      "outputs": [],
      "stateMutability": "nonpayable",
      "type": "function"
    },
    {
      "inputs": [
        {
          "internalType": "bytes32",
          "name": "node",
          "type": "bytes32"
        },
        {
          "internalType": "address",
          "name": "_signer",
          "type": "address"
        }
      ],
      "name": "approved",
      "outputs": [
        {
          "internalType": "bool",
          "name": "",
          "type": "bool"
        }
      ],
      "stateMutability": "view",
      "type": "function"
    },
    {
      "inputs": [
        {
          "internalType": "bytes",
          "name": "_buffer",
          "type": "bytes"
        },
        {
          "internalType": "uint256",
          "name": "index",
          "type": "uint256"
        }
      ],
      "name": "bytesToString",
      "outputs": [
        {
          "internalType": "string",
          "name": "",
          "type": "string"
        }
      ],
      "stateMutability": "pure",
      "type": "function"
    },
    {
      "inputs": [
        {
          "internalType": "bytes32",
          "name": "",
          "type": "bytes32"
        }
      ],
      "name": "contenthash",
      "outputs": [
        {
          "internalType": "bytes",
          "name": "",
          "type": "bytes"
        }
      ],
      "stateMutability": "view",
      "type": "function"
    },
    {
      "inputs": [
        {
          "internalType": "bytes4",
          "name": "",
          "type": "bytes4"
        }
      ],
      "name": "funcToFile",
      "outputs": [
        {
          "internalType": "string",
          "name": "",
          "type": "string"
        }
      ],
      "stateMutability": "view",
      "type": "function"
    },
    {
      "inputs": [],
      "name": "immolate",
      "outputs": [],
      "stateMutability": "nonpayable",
      "type": "function"
    },
    {
      "inputs": [],
      "name": "listGateways",
      "outputs": [
        {
          "internalType": "string[]",
          "name": "list",
          "type": "string[]"
        }
      ],
      "stateMutability": "view",
      "type": "function"
    },
    {
      "inputs": [],
      "name": "owner",
      "outputs": [
        {
          "internalType": "address payable",
          "name": "",
          "type": "address"
        }
      ],
      "stateMutability": "view",
      "type": "function"
    },
    {
      "inputs": [
        {
          "internalType": "bytes",
          "name": "_ipns",
          "type": "bytes"
        },
        {
          "internalType": "string",
          "name": "_path",
          "type": "string"
        },
        {
          "internalType": "uint256",
          "name": "k",
          "type": "uint256"
        }
      ],
      "name": "randomGateways",
      "outputs": [
        {
          "internalType": "string[]",
          "name": "gateways",
          "type": "string[]"
        }
      ],
      "stateMutability": "view",
      "type": "function"
    },
    {
      "inputs": [
        {
          "internalType": "uint256",
          "name": "_index",
          "type": "uint256"
        }
      ],
      "name": "removeGateway",
      "outputs": [],
      "stateMutability": "nonpayable",
      "type": "function"
    },
    {
      "inputs": [
        {
          "internalType": "uint256[]",
          "name": "_indexes",
          "type": "uint256[]"
        }
      ],
      "name": "removeGateways",
      "outputs": [],
      "stateMutability": "nonpayable",
      "type": "function"
    },
    {
      "inputs": [
        {
          "internalType": "uint256",
          "name": "_index",
          "type": "uint256"
        },
        {
          "internalType": "string",
          "name": "_domain",
          "type": "string"
        }
      ],
      "name": "replaceGateway",
      "outputs": [],
      "stateMutability": "nonpayable",
      "type": "function"
    },
    {
      "inputs": [
        {
          "internalType": "uint256[]",
          "name": "_indexes",
          "type": "uint256[]"
        },
        {
          "internalType": "string[]",
          "name": "_domains",
          "type": "string[]"
        }
      ],
      "name": "replaceGateways",
      "outputs": [],
      "stateMutability": "nonpayable",
      "type": "function"
    },
    {
      "inputs": [
        {
          "internalType": "bytes",
          "name": "name",
          "type": "bytes"
        },
        {
          "internalType": "bytes",
          "name": "data",
          "type": "bytes"
        }
      ],
      "name": "resolve",
      "outputs": [
        {
          "internalType": "bytes",
          "name": "",
          "type": "bytes"
        }
      ],
      "stateMutability": "view",
      "type": "function"
    },
    {
      "inputs": [],
      "name": "roothash",
      "outputs": [
        {
          "internalType": "bytes32",
          "name": "",
          "type": "bytes32"
        }
      ],
      "stateMutability": "view",
      "type": "function"
    },
    {
      "inputs": [
        {
          "internalType": "address",
          "name": "_token",
          "type": "address"
        },
        {
          "internalType": "uint256",
          "name": "_id",
          "type": "uint256"
        }
      ],
      "name": "safeWithdraw",
      "outputs": [],
      "stateMutability": "nonpayable",
      "type": "function"
    },
    {
      "inputs": [
        {
          "internalType": "bytes32",
          "name": "node",
          "type": "bytes32"
        },
        {
          "internalType": "bytes",
          "name": "_contenthash",
          "type": "bytes"
        }
      ],
      "name": "setContenthash",
      "outputs": [],
      "stateMutability": "nonpayable",
      "type": "function"
    },
    {
      "inputs": [
        {
          "internalType": "bytes32",
          "name": "digest",
          "type": "bytes32"
        },
        {
          "internalType": "bytes",
          "name": "signature",
          "type": "bytes"
        }
      ],
      "name": "signedBy",
      "outputs": [
        {
          "internalType": "address",
          "name": "_addr",
          "type": "address"
        }
      ],
      "stateMutability": "pure",
      "type": "function"
    },
    {
      "inputs": [
        {
          "internalType": "bytes4",
          "name": "interfaceID",
          "type": "bytes4"
        }
      ],
      "name": "supportsInterface",
      "outputs": [
        {
          "internalType": "bool",
          "name": "",
          "type": "bool"
        }
      ],
      "stateMutability": "pure",
      "type": "function"
    },
    {
      "inputs": [
        {
          "internalType": "uint256",
          "name": "value",
          "type": "uint256"
        }
      ],
      "name": "uintToString",
      "outputs": [
        {
          "internalType": "string",
          "name": "",
          "type": "string"
        }
      ],
      "stateMutability": "pure",
      "type": "function"
    },
    {
      "inputs": [],
      "name": "withdraw",
      "outputs": [],
      "stateMutability": "nonpayable",
      "type": "function"
    },
    {
      "inputs": [
        {
          "internalType": "address",
          "name": "_token",
          "type": "address"
        },
        {
          "internalType": "uint256",
          "name": "_balance",
          "type": "uint256"
        }
      ],
      "name": "withdraw",
      "outputs": [],
      "stateMutability": "nonpayable",
      "type": "function"
    }
  ],
  "bytecode": {
    "object": "0x61010034620006df57306080526001600160401b039060a0810182811182821017620006c9576040918183526200003682620006e4565b60029182815261743160f01b60c083015281528251916200005783620006e4565b808352602092613a1960f11b848201528383015283516200007881620006e4565b81815261743360f01b848201528483015283516200009681620006e4565b818152611d0d60f21b8482015260608301528351620000b581620006e4565b81815261743560f01b8482015260808301528054916005928383558084106200064d575b509460009582875284872087915b8583106200051a5750506e0c2e074ec69a0dfb2997ba6c7d2e1e60a0525073d4416b13d2b3a9abae7acd5d6c2bbdbe2568640160c05284518481018781527f4f5b812789fc606be1b3b16908db13fc7a9adf7ca72641f84d75b47069d3d7f0828801528682529160608201908111828210176200050657865251902060e0526200017360035462000700565b90601f8211620004e1575b505050605560035560038352808320907fe50101720024080112203c5aba6c9b5055a5fa12281c486188ed8ae2b6ef394b825560019182690f6606c0345e92d45cd760b21b910155631d9dabef60e11b845260048181809352848620620001f1620001ea825462000700565b8262000756565b7f5f616464726573732f3630000000000000000000000000000000000000000016905563c869023360e01b865281815284862080546200023690620001ea9062000700565b600c657075626b657960d01b01905563691f343160e01b865281815284862080546200026790620001ea9062000700565b6008636e616d6560e01b01905563bc1c58d160e01b865281815284862080546200029690620001ea9062000700565b7f636f6e74656e74686173680000000000000000000000000000000000000000169055635c98042b60e01b8652528284208054620002d990620001ea9062000700565b7f5f646e737265636f72642f7a6f6e656861736800000000000000000000000026905583546001600160a01b031916331784558154680100000000000000009081811015620004bc578084620003329201855562000783565b620004cf57806200034a620001ea6009935462000700565b7f647765622e6c696e6b00000000000000000000000000000000000000000000129055845168647765622e6c696e6b60b81b8152207f7a9f387a9d3844b91ba19679387fe32e833e4311fec98471b6df53b9855e3f479390848780a2805491821015620004bc578181019055620003c19062000783565b919091620004aa575080620003dd620001ea6007935462000700565b600e66697066732e696f60c81b019055825166697066732e696f60c81b81522091519280a2613a589081620007b682396080518181816102660152818161080401528181610ab10152818161124d015281816117b0015281816120bb015261213b015260a05181818161085c01528181610e130152818161104d0152818161224e0152612851015260c05181818161041c015281816108990152818161094901528181610bf101528181610c8901528181610e4c015281816110800152612282015260e051816127570152f35b634e487b7160e01b8552849052602484fd5b634e487b7160e01b865260418352602486fd5b634e487b7160e01b8652858352602486fd5b620004fd9260038752601f8588209301901c820191016200073d565b3880806200017e565b634e487b7160e01b88526041600452602488fd5b8051805190858211620006395790889162000536855462000700565b908c601f9285848211620005ff575b5050508c849284116001146200059357926001959281928796959262000587575b5050600019600383901b1c191690841b1785555b01920192019190620000e7565b01519050388062000566565b9190601f198416878452858420935b818110620005e65750916001969391858897969410620005cc575b505050831b830185556200057a565b015160001960f88460031b161c19169055388080620005bd565b8284015185558d966001909501949384019301620005a2565b828962000626945220848d818801901c8201928888106200062f575b018d1c01906200073d565b8c388562000545565b925081926200061b565b634e487b7160e01b8b52604160045260248bfd5b60008381528486822092830192015b8281106200066c575050620000d9565b80826200067c6001935462000700565b806200068c575b5050016200065c565b601f8082118514620006a557505081555b823862000683565b620006bf908484528b842092018a1c82018583016200073d565b818355556200069d565b634e487b7160e01b600052604160045260246000fd5b600080fd5b604081019081106001600160401b03821117620006c957604052565b90600182811c9216801562000732575b60208310146200071c57565b634e487b7160e01b600052602260045260246000fd5b91607f169162000710565b81811062000749575050565b600081556001016200073d565b90601f811162000764575050565b6200078191600052601f6020600020910160051c8101906200073d565b565b6001548110156200079f57600160005260206000200190600090565b634e487b7160e01b600052603260045260246000fdfe608080604052600436101561001357600080fd5b600090813560e01c90816301ffc9a714612a5d5750806306dcdc63146128755780631d2e2cc41461283157806321d6e7dd1461277a578063251c94221461273f57806330121570146125bf578063304e6ade146121d0578063356a277a146121825780633ccfd60b146121195780635058c4601461205b5780635d1219d514611ef557806369be8bb014611ed957806382adc20814611d945780638da5cb5b14611d6e5780639061b9231461139c578063a058c0ea146111d3578063a4b91a0114610ffc578063acc0f7b114610f68578063b984b2cd14610dce578063bc1c58d114610da3578063bf1e9c8514610d3a578063c55a5d5914610580578063d4a964f11461050d578063d63a480114610482578063e190ea6514610440578063e1eb13c1146103fc578063e5dac7031461030d578063e9395679146102d9578063f3fef3a3146102055763ffb80c8d1461016b57600080fd5b3461020257806003193601126102025760019081549161018a83612c33565b926101986040519485612c11565b8084528183526020927fb10e2d527612073b26eecdfd717e6a320cf44b4afac2b0732d9fcbe2b7fa0cf6848087015b8484106101e557604051828152806101e18185018b612f60565b0390f35b859182916101f285612cd2565b81520192019201919085906101c7565b80fd5b503461020257604036600319011261020257806001600160a01b0380610229612dc0565b169082541690803b156102d5576040517f23b872dd0000000000000000000000000000000000000000000000000000000081526001600160a01b037f000000000000000000000000000000000000000000000000000000000000000081166004830152909216602480840191909152356044830152829082908183816064810103925af180156102ca576102ba5750f35b6102c390612ba9565b6102025780f35b6040513d84823e3d90fd5b5050fd5b5034610202576020366003190112610202576101e16102f960043561397e565b604051918291602083526020830190612d9b565b5034610202576020366003190112610202576004356103376001600160a01b0383541633146134a0565b60015461034660018211613691565b61035f61035283612c4b565b5060405191828092612fcd565b0390207fd94fae538c4428e7bd1e4fa66b93ad367b2c5bbbc9d0dae73a21526257361ff48480a2600182018083116103e85781116103a4575b826103a16137c8565b80f35b60001981019081116103d457906103c76103c06103cd93612c4b565b5091612c4b565b906137b9565b3880610398565b602483634e487b7160e01b81526011600452fd5b602484634e487b7160e01b81526011600452fd5b503461020257806003193601126102025760206040516001600160a01b037f0000000000000000000000000000000000000000000000000000000000000000168152f35b5034610202576020366003190112610202576004356001600160e01b0319811680910361047e576040826102f9926101e19452600460205220612cd2565b5080fd5b50346102025760203660031901126102025760043567ffffffffffffffff811161047e576104b4903690600401612b16565b906104ca6001600160a01b0384541633146134a0565b6104d48282613668565b8160405192839283378101600081520390207f7a9f387a9d3844b91ba19679387fe32e833e4311fec98471b6df53b9855e3f478280a280f35b50346102025760603660031901126102025767ffffffffffffffff60043581811161057c57610540903690600401612efb565b91602435918211610202576101e16105688461055f3660048701612efb565b60443591613080565b604051918291602083526020830190612f60565b8280fd5b50346102025761058f36612f19565b929392810192909160a08385031261047e5767ffffffffffffffff6040840135818111610d2057856105c2918601612efb565b946060850135828111610d1c57906105db918601612efb565b9180600411610d205786356001600160e01b03191663c55a5d5960e01b03610d245786019060408783036003190112610d20576004870135818111610d1c57826004610629928a0101612efb565b966024810135918211610d1c5760209260046107f8959361064b930101612efb565b90610655886133be565b9061074460636040518094878201947f52657175657374696e67207369676e617475726520666f7220454e53206f666686527f2d636861696e207265636f72640a0a446f6d61696e3a2000000000000000000060408401528c6106c1815180928c605788019101612d78565b83017f0a5265636f72643a20000000000000000000000000000000000000000000000060578201526106fc825180938c606085019101612d78565b017f3a307800000000000000000000000000000000000000000000000000000000006060820152610735825180938b8785019101612d78565b01036043810185520183612c11565b6107b4603a610753845161397e565b936040519384916107a5898401977f19457468657265756d205369676e6564204d6573736167653a0a0000000000008952610796815180928d8989019101612d78565b84019151809386840190612d78565b0103601a810184520182612c11565b51902060405193849283927f06dcdc630000000000000000000000000000000000000000000000000000000084526004840152604060248401526044830190612d9b565b03816001600160a01b037f0000000000000000000000000000000000000000000000000000000000000000165afa9081156102ca578291610cfd575b506040516302571be360e01b8152602084013560048201526020816024816001600160a01b037f0000000000000000000000000000000000000000000000000000000000000000165afa908115610c56578391610cde575b50806001600160a01b03807f000000000000000000000000000000000000000000000000000000000000000016911614610c61575b6040517f6d616e6167652d7375620000000000000000000000000000000000000000000060208201526020850135602a8201526bffffffffffffffffffffffff198260601b16604a8201526bffffffffffffffffffffffff198360601b16605e8201526052815261093181612bbd565b60208151910120835260066020526001600160a01b037f0000000000000000000000000000000000000000000000000000000000000000166001600160a01b0360408520541614610bc9575b604051696d616e6167652d6f6e6560b01b6020808301918252860135602a8301526bffffffffffffffffffffffff19606084811b8216604a85015285901b16605e830152906109d981607281015b03601f198101835282612c11565b519020835260066020526001600160a01b03604084205416906001600160a01b038316918214928315610b50575b508215610b3d575b505015610af9575b8135906003820190818311610ae557504311159283610a95575b50505015610a51576101e190604051918291602083526020830190612d9b565b606460405162461bcd60e51b815260206004820152601860248201527f494e56414c49445f434845434b53554d2f54494d454f555400000000000000006044820152fd5b6080929350610ad66109cb9160405192839160208301953390407f00000000000000000000000000000000000000000000000000000000000000008861393c565b51902091013514388080610a31565b80634e487b7160e01b602492526011600452fd5b606460405162461bcd60e51b815260206004820152601b60248201527f4f4e4c595f4f574e45522f4d414e414745525f43414e5f5349474e00000000006044820152fd5b6001600160a01b03161490503880610a0f565b9092506040516020810191691b585b9859d94b585b1b60b21b83526bffffffffffffffffffffffff198560601b16602a8301526bffffffffffffffffffffffff199060601b16603e82015260328152610ba881612bd9565b519020835260066020526001600160a01b0360408420541681149138610a07565b506040516331a9108f60e11b8152602084013560048201526020816024816001600160a01b037f0000000000000000000000000000000000000000000000000000000000000000165afa908115610c56578391610c27575b5061097d565b610c49915060203d602011610c4f575b610c418183612c11565b81019061385e565b38610c21565b503d610c37565b6040513d85823e3d90fd5b506040516331a9108f60e11b8152602084013560048201526020816024816001600160a01b037f0000000000000000000000000000000000000000000000000000000000000000165afa908115610c56578391610cbf575b506108c1565b610cd8915060203d602011610c4f57610c418183612c11565b38610cb9565b610cf7915060203d602011610c4f57610c418183612c11565b3861088c565b610d16915060203d602011610c4f57610c418183612c11565b38610834565b8480fd5b8380fd5b9050610d34929591503691612ec4565b92610a17565b50346102025780600319360112610202576001600160a01b03905416803303610d5f57ff5b606460405162461bcd60e51b815260206004820152600960248201527f4e4f545f4f574e455200000000000000000000000000000000000000000000006044820152fd5b5034610202576020366003190112610202576102f960406101e1926004358152600560205220612cd2565b503461020257604036600319011261020257600435610deb612dd6565b906040516302571be360e01b81528160048201526020936001600160a01b03928583602481877f0000000000000000000000000000000000000000000000000000000000000000165afa9283156102ca57908291859394610f49575b5085877f000000000000000000000000000000000000000000000000000000000000000085168686168114610ee5575b5050610ece604094956109cb86519384928c84019687919092605293696d616e6167652d6f6e6560b01b8452600a8401526bffffffffffffffffffffffff19809260601b16602a84015260601b16603e8201520190565b519020815260068652205416906040519216148152f35b91509193506024929450604051928380926331a9108f60e11b82528660048301525afa908115610c56579185610ece8593604095889791610f2c575b509594899150610e77565b610f4391508a3d8c11610c4f57610c418183612c11565b38610f21565b610f61919450873d8911610c4f57610c418183612c11565b9238610e47565b50346102025760403660031901126102025760043560243567ffffffffffffffff811161057c576104d4610fa3610ff6923690600401612b16565b939080938592610fbe6001600160a01b0389541633146134a0565b610fca61035282612c4b565b0390207fd94fae538c4428e7bd1e4fa66b93ad367b2c5bbbc9d0dae73a21526257361ff48980a2612c4b565b90613589565b503461020257606036600319011261020257600435611019612dd6565b6044358015158103610d2057604051926302571be360e01b84528060048501526020906001600160a01b03938286602481887f0000000000000000000000000000000000000000000000000000000000000000165afa9586156111a95787966111b4575b507f000000000000000000000000000000000000000000000000000000000000000085168686168114611156575b50338587160361115257600693156111485761111281965b6109cb6040519384928784019687919092605293696d616e6167652d6f6e6560b01b8452600a8401526bffffffffffffffffffffffff19809260601b16602a84015260601b16603e8201520190565b5190208552526040832091167fffffffffffffffffffffffff000000000000000000000000000000000000000082541617905580f35b61111287966110c3565b8680fd5b60249196508390604051928380926331a9108f60e11b82528660048301525afa9081156111a957879161118c575b5094386110ab565b6111a39150833d8511610c4f57610c418183612c11565b38611184565b6040513d89823e3d90fd5b6111cc919650833d8511610c4f57610c418183612c11565b943861107d565b5034610202576080366003190112610202576004356024359167ffffffffffffffff9283811161047e5761120b903690600401612efb565b60443584811161057c57611223903690600401612efb565b9160643585811161047e5761123c903690600401612efb565b90600019430190438211610ae557507f00000000000000000000000000000000000000000000000000000000000000009460405160208101924083526bffffffffffffffffffffffff198760601b1660408201523360601b60548201528160688201526068815260a08101818110898211176113865761138296611350946112db936112d093604052519020958691613080565b97603c4204166138c1565b927fffffffffffffffff0000000000000000000000000000000000000000000000006040519460c01b1660208501526008845261131784612bf5565b61133c60405195869343602086015260408501526080606085015260a0840190612d9b565b90608083015203601f198101845283612c11565b6040519485947f556f1830000000000000000000000000000000000000000000000000000000008652600486016138dd565b0390fd5b634e487b7160e01b600052604160045260246000fd5b5034610202576113ab36612f19565b6001949193949383851161057c5760f8928635841c936040519361056085019067ffffffffffffffff918681108382111761138657604052602a865260005b6105408110611d5d575086890196878a11611d4957888811610d1c5761141b909a99949598979a3690868c01612ec4565b6114248761305f565b5261142e8661305f565b506114388661305f565b5194855b888c1015611d35576001600160f81b03198c8c013516156115b65761147a6114748c8e8c9d9e9f61146c90613050565b9c8d9261387d565b90613895565b851c8901988981116115a057898d918c6114939361387d565b369061149e92612ec4565b6114a8878a61306c565b526114b3868961306c565b506114be868961306c565b516040518851988160209a8b9281848085019201916114dc92612d78565b8101938285017f2e0000000000000000000000000000000000000000000000000000000000000090528051948591602196879586840192019161151e92612d78565b0103600181018352016115319082612c11565b9761153c888b61306c565b5190604051938285935190818480870192019161155892612d78565b830190828201602f60f81b90528051809386840192019161157892612d78565b01036001810183520161158b9082612c11565b9461159590613050565b9998979a999461143c565b634e487b7160e01b600052601160045260246000fd5b86888792878d87600411611152576001600160e01b031980823516916115dc899861392f565b99896115e88c8961306c565b51978c89519960209a8b809201206040518281019186835260408201526040815261161281612bd9565b5190209160609f5b611cb95750505050508a5115611ca9575b838a526004875261163f60408b2054612c98565b1561191b5750505086526004835261165960408720612cd2565b905b87518060011b6002918082048314901517156115a05761167a9061338c565b916040519061168882612bf5565b601082526f181899199a1a9b1b9c1cb0b131b232b360811b878301528a5191835b83811061188f5750505050506035611787916040519485917f6600000000000000000000000000000000000000000000000000000000000000888401526116f9815180928a602187019101612d78565b82017f2f2e77656c6c2d6b6e6f776e2f000000000000000000000000000000000000006021820152611734825180938a602e85019101612d78565b01602f60f81b602e82015284519061175282602f83018a8901612d78565b017f2e6a736f6e3f0000000000000000000000000000000000000000000000000000602f820152036015810185520183612c11565b600019430195438711610ae5575091839161187d6113509461186d6113829998976118136118087f00000000000000000000000000000000000000000000000000000000000000009d8e8d6117e96040519c8d928d840194339140908661393c565b039a6117fd601f199c8d8101835282612c11565b519020978891613080565b9d603c4204166138c1565b987fffffffffffffffff0000000000000000000000000000000000000000000000006040519a60c01b16878b015260088a5261184e8a612bf5565b6040519a8b97880152604087015260a0606087015260c0860190612d9b565b9085858303016080860152612d9b565b9060a083015203908101845283612c11565b808d6118b26118a86001600160f81b0319948593612fbc565b5160fc1c85612fbc565b5116918160011b928284048814831517156115a0578f6118e784600f928c6118e1896118f19760001a92612fbc565b53612fbc565b51871c1685612fbc565b511691600181018091116115a0576119106119169360001a9189612fbc565b53613050565b6116a9565b9091927f59d1d43c00000000000000000000000000000000000000000000000000000000811460001461198d57508091925060241161198957810190846023198284030112611989576024810135908a82116119855761197f929101602401612efb565b9061165b565b8880fd5b8780fd5b7ff1cb7e06000000000000000000000000000000000000000000000000000000008103611a32575080919250602411611989578101819003602319018413611a2d5760246119dc91013561397e565b61197f602960405180937f5f616464726573732f000000000000000000000000000000000000000000000088830152611a1d815180928a8686019101612d78565b8101036009810184520182612c11565b600080fd5b7f124a319c000000000000000000000000000000000000000000000000000000008103611aee575080602411611985578101819003602319018513611a2d5760240135908116809103611a2d57611a9d90604051908582015260048152611a9881612bf5565b6133be565b61197f602d60405180937f5f696e746572666163652f30780000000000000000000000000000000000000088830152611ade815180928a8686019101612d78565b810103600d810184520182612c11565b919250907f2203ab56000000000000000000000000000000000000000000000000000000008103611b8f575080602411611989578101819003602319018413611a2d576024611b3e91013561397e565b61197f602560405180937f5f6162692f00000000000000000000000000000000000000000000000000000088830152611b7f815180928a8686019101612d78565b8101036005810184520182612c11565b7fa8fa5682000000000000000000000000000000000000000000000000000000008103611c7857508060241161198957604090820182900360231901126111525760448101359061ffff8216809203611989576028611c0c611c0661197f93602460405191013589820152888152611a9881612bf5565b9361397e565b926040519384917f5f646e732f30780000000000000000000000000000000000000000000000000089840152611c4b815180928b602787019101612d78565b8201602f60f81b6027820152611c69825180938b8785019101612d78565b01036008810184520182612c11565b602490604051907f0c9addbc0000000000000000000000000000000000000000000000000000000082526004820152fd5b9950611cb3612dec565b9961162b565b6040611cc7611d059261392f565b93611cd2858761306c565b5184815191012082519085820192835283820152828152611cf281612bd9565b5190209586815260058094522054612c98565b611d16575b50808a908e949261161a565b919d509a50818c528852611d2c60408c20612cd2565b9b8a829b611d0a565b602482634e487b7160e01b81526032600452fd5b602485634e487b7160e01b81526011600452fd5b806060602080938a010152016113ea565b50346102025780600319360112610202576001600160a01b036020915416604051908152f35b50346102025760403660031901126102025760043567ffffffffffffffff811161047e57611dc6903690600401612efb565b80519060019082821b6002938082048514901517156115a057611de89061338c565b91604051611df581612bf5565b601081526f181899199a1a9b1b9c1cb0b131b232b360811b602082015282519260249182355b858110611e3857604051602080825281906101e19082018a612d9b565b6001600160f81b031980611e4f6118a88487612fbc565b51169082871b918383048b1484151715611ec45760001a611e70838b612fbc565b53611e8b600f611e808588612fbc565b5160f81c1685612fbc565b5116868201809211611eaf5790611910611eaa939260001a918a612fbc565b611e1b565b85634e487b7160e01b60005260116004526000fd5b86634e487b7160e01b60005260116004526000fd5b50346102025780600319360112610202576101e16102f9612dec565b50346102025760403660031901126102025767ffffffffffffffff60043581811161057c57611f28903690600401612b78565b9091602435908111610d2057611f42903690600401612b78565b91611f586001600160a01b0386541633146134a0565b82810361201757845b818110611f6c578580f35b80611f87610352611f8161201294868a61384e565b35612c4b565b0390207fd94fae538c4428e7bd1e4fa66b93ad367b2c5bbbc9d0dae73a21526257361ff48880a2611fcb611fbc8287876134eb565b90610ff6611f8185888c61384e565b611fd68186866134eb565b908160405192839283378101600081520390207f7a9f387a9d3844b91ba19679387fe32e833e4311fec98471b6df53b9855e3f478880a2613050565b611f61565b606460405162461bcd60e51b815260206004820152601160248201527f42616420696e707574206c656e677468730000000000000000000000000000006044820152fd5b503461020257604036600319011261020257806001600160a01b038061207f612dc0565b1690825416813b156102d5576040517f42842e0e0000000000000000000000000000000000000000000000000000000081526001600160a01b037f000000000000000000000000000000000000000000000000000000000000000081166004830152909116602480830191909152356044820152919082908183816064810103925af180156102ca57612110575080f35b6103a190612ba9565b5034610202578060031936011261020257808080806001600160a01b038154167f00000000000000000000000000000000000000000000000000000000000000003190828215612179575bf11561216d5780f35b604051903d90823e3d90fd5b506108fc612164565b50346102025760203660031901126102025760043560015481101561047e576121aa90612c4b565b9190916121bd576101e16102f983612cd2565b80634e487b7160e01b6024925280600452fd5b5034610202576121df36612b44565b8060049493941161057c5781357fe5010172000000000000000000000000000000000000000000000000000000006001600160e01b031982161490811561256b575b501561252757604051936302571be360e01b85528060048601526020946001600160a01b038682602481847f0000000000000000000000000000000000000000000000000000000000000000165afa9182156124fd578692612508575b50867f0000000000000000000000000000000000000000000000000000000000000000821683831681146124ab575b50508554916040519288840190696d616e6167652d6f6e6560b01b825285602a8601526bffffffffffffffffffffffff199060601b169081604a8601523360601b9485605e8201526052815261230281612bbd565b51902088526006895282604089205416331493841561245e575b50508215612451575b50501561240d57835260058452604083209167ffffffffffffffff82116123f95761235a826123548554612c98565b85613544565b8394601f831160011461239657509383948293949261238b575b50508160011b916000199060031b1c191617905580f35b013590503880612374565b90601f198316958486528286209286905b8882106123e1575050836001959697106123c7575b505050811b01905580f35b0135600019600384901b60f8161c191690553880806123bc565b806001849682949587013581550195019201906123a7565b602484634e487b7160e01b81526041600452fd5b6064856040519062461bcd60e51b82526004820152601260248201527f4f4e4c595f4f574e45522f4d414e4147455200000000000000000000000000006044820152fd5b9091501633143880612325565b909193506040519089820192691b585b9859d94b585b1b60b21b8452602a830152603e8201526032815261249181612bd9565b51902086526006875280604087205416331491388061231c565b6024929350604051928380926331a9108f60e11b82528760048301525afa9081156124fd5786916124e0575b509086386122ad565b6124f79150873d8911610c4f57610c418183612c11565b386124d7565b6040513d88823e3d90fd5b612520919250873d8911610c4f57610c418183612c11565b903861227e565b606460405162461bcd60e51b815260206004820152600e60248201527f495046532f49504e535f4f4e4c590000000000000000000000000000000000006044820152fd5b905081600311610d20577fffffff0000000000000000000000000000000000000000000000000000000000167fe3010100000000000000000000000000000000000000000000000000000000001438612221565b50346102025760208060031936011261047e576004359067ffffffffffffffff821161057c573660238301121561057c578160040135906125ff82612c33565b9261260d6040519485612c11565b8284528184016024809460051b83010191368311611152578401905b82821061273057505050506126496001600160a01b0384541633146134a0565b81519060019061265b83835411613691565b845b838110612668578580f35b61267e610352612678838861306c565b51612c4b565b0390207fd94fae538c4428e7bd1e4fa66b93ad367b2c5bbbc9d0dae73a21526257361ff48780a282546126b1828761306c565b5184810180911161271d5781116126da575b506126d5906126d06137c8565b613050565b61265d565b600019810190811161270a57906127046126f66126d593612c4b565b506103c7612678848a61306c565b906126c3565b8287634e487b7160e01b81526011600452fd5b8388634e487b7160e01b81526011600452fd5b81358152908301908301612629565b503461020257806003193601126102025760206040517f00000000000000000000000000000000000000000000000000000000000000008152f35b50346102025760203660031901126102025760043567ffffffffffffffff811161047e576127ac903690600401612b78565b6127c16001600160a01b0384541633146134a0565b825b8181106127ce578380f35b806127e66127e061282c9385876134eb565b90613668565b6127f18184866134eb565b9081604051928392833781018781520390207f7a9f387a9d3844b91ba19679387fe32e833e4311fec98471b6df53b9855e3f478680a2613050565b6127c3565b503461020257806003193601126102025760206040516001600160a01b037f0000000000000000000000000000000000000000000000000000000000000000168152f35b50346102025761288436612b44565b929190602093808511610d2057604081036129ea57848201359085601f198201106129d7575b50907f7fffffffffffffffffffffffffffffffffffffffffffffffffffffffffffffff82169160ff1c601b8101809111611d495760ff165b7f7fffffffffffffffffffffffffffffff5d576e7357a4501ddfe92f46681b20a083116129925792849260809260ff88966040519485521686840152356040830152606082015282805260015afa1561216d57516001600160a01b0316801561294d57604051908152f35b6064826040519063151a7bff60e11b82526004820152600d60248201527f4241445f5349474e4154555245000000000000000000000000000000000000006044820152fd5b6064866040519063151a7bff60e11b82526004820152600f60248201527f494e56414c49445f535f56414c554500000000000000000000000000000000006044820152fd5b600019908603860160031b1b16386128aa565b9060418203612a185781604011610d2057612a108582013592603f190160408301613895565b60f81c6128e2565b6064856040519063151a7bff60e11b82526004820152600a60248201527f4241445f4c454e475448000000000000000000000000000000000000000000006044820152fd5b90503461047e57602036600319011261047e576004356001600160e01b0319811680910361057c57602092507f9061b923000000000000000000000000000000000000000000000000000000008114908115612aec575b8115612ac2575b5015158152f35b7f01ffc9a70000000000000000000000000000000000000000000000000000000091501438612abb565b7f304e6ade0000000000000000000000000000000000000000000000000000000081149150612ab4565b9181601f84011215611a2d5782359167ffffffffffffffff8311611a2d5760208381860195010111611a2d57565b906040600319830112611a2d57600435916024359067ffffffffffffffff8211611a2d57612b7491600401612b16565b9091565b9181601f84011215611a2d5782359167ffffffffffffffff8311611a2d576020808501948460051b010111611a2d57565b67ffffffffffffffff811161138657604052565b6080810190811067ffffffffffffffff82111761138657604052565b6060810190811067ffffffffffffffff82111761138657604052565b6040810190811067ffffffffffffffff82111761138657604052565b90601f8019910116810190811067ffffffffffffffff82111761138657604052565b67ffffffffffffffff81116113865760051b60200190565b600154811015612c825760016000527fb10e2d527612073b26eecdfd717e6a320cf44b4afac2b0732d9fcbe2b7fa0cf60190600090565b634e487b7160e01b600052603260045260246000fd5b90600182811c92168015612cc8575b6020831014612cb257565b634e487b7160e01b600052602260045260246000fd5b91607f1691612ca7565b9060405191826000825492612ce684612c98565b908184526001948581169081600014612d555750600114612d12575b5050612d1092500383612c11565b565b9093915060005260209081600020936000915b818310612d3d575050612d1093508201013880612d02565b85548884018501529485019487945091830191612d25565b915050612d1094506020925060ff191682840152151560051b8201013880612d02565b60005b838110612d8b5750506000910152565b8181015183820152602001612d7b565b90602091612db481518092818552858086019101612d78565b601f01601f1916010190565b600435906001600160a01b0382168203611a2d57565b602435906001600160a01b0382168203611a2d57565b6040519060008260035491612e0083612c98565b80835292600190818116908115612e865750600114612e27575b50612d1092500383612c11565b6003600090815291507fc2575a0e9e593c00f959f8c92f12db2869c3395a3b0502d05e2516446f71f85b5b848310612e6b5750612d10935050810160200138612e1a565b81935090816020925483858a01015201910190918592612e52565b905060209250612d1094915060ff191682840152151560051b82010138612e1a565b67ffffffffffffffff811161138657601f01601f191660200190565b929192612ed082612ea8565b91612ede6040519384612c11565b829481845281830111611a2d578281602093846000960137010152565b9080601f83011215611a2d57816020612f1693359101612ec4565b90565b6040600319820112611a2d5767ffffffffffffffff91600435838111611a2d5782612f4691600401612b16565b93909392602435918211611a2d57612b7491600401612b16565b908082519081815260208091019281808460051b8301019501936000915b848310612f8e5750505050505090565b9091929394958480612fac600193601f198682030187528a51612d9b565b9801930193019194939290612f7e565b908151811015612c82570160200190565b600092918154612fdc81612c98565b926001918083169081156130355750600114612ff9575b50505050565b90919293945060005260209081600020906000915b8583106130245750505050019038808080612ff3565b80548584015291830191810161300e565b60ff1916845250505081151590910201915038808080612ff3565b60001981146115a05760010190565b805115612c825760200190565b8051821015612c825760209160051b010190565b9092916001548060011c94600186018096116115a05760058611613383575b6130a886612c33565b9160406130b781519485612c11565b878452601f196130c689612c33565b0160005b8181106133725750508397865115612c8257602096878101906001600160f81b0319907fe50000000000000000000000000000000000000000000000000000000000000082845116146000146132c657505050815161312881612bf5565b600681527f2f69706e732f000000000000000000000000000000000000000000000000000088820152959094955b6000953360601b948015916002968754955b828b1061317e5750505050505050505050505050565b84908d8951908101918252838a8201526034815261319b81612bd9565b519020906132b057839006916131b083612c4b565b509a87811015612c82578d8d9c8b600052818d8c519384938185017f68747470733a2f2f0000000000000000000000000000000000000000000000009052602885016131fb91612fcd565b808d8051938491019161320d92612d78565b0181819251938491019161322092612d78565b61324d91017f405787fa12a823e0f2b7631cc41b3ba8828b3321ca811111fa75cd3aa3bb5ace8501612fcd565b7f3d7b646174617d00000000000000000000000000000000000000000000000000815203601819810182526007016132859082612c11565b819d6132918f93613050565b9e61329b9161306c565b526132a6908c61306c565b50919a999a613168565b634e487b7160e01b600052601260045260246000fd5b805115612c8257825182167fe3000000000000000000000000000000000000000000000000000000000000000361333757505050815161330581612bf5565b600681527f2f697066732f00000000000000000000000000000000000000000000000000008882015295909495613156565b9084915115612c825760249251169051907f0c8486780000000000000000000000000000000000000000000000000000000082526004820152fd5b8060606020809389010152016130ca565b6005955061309f565b9061339682612ea8565b6133a36040519182612c11565b82815280926133b4601f1991612ea8565b0190602036910137565b805160019181831b6002928082048414901517156115a0576133df9061338c565b926040516133ec81612bf5565b601081526f181899199a1a9b1b9c1cb0b131b232b360811b602082015282519260005b84811061341f5750505050505090565b6001600160f81b031990816134416134378386612fbc565b5160fc1c86612fbc565b51169181861b928284048914831517156115a05760001a613462848b612fbc565b5361347d600f6134728487612fbc565b5160f81c1686612fbc565b5116918581018091116115a05761191061349b9360001a918a612fbc565b61340f565b156134a757565b606460405162461bcd60e51b815260206004820152600860248201527f4f6e6c79204465760000000000000000000000000000000000000000000000006044820152fd5b9190811015612c825760051b81013590601e1981360301821215611a2d57019081359167ffffffffffffffff8311611a2d576020018236038113611a2d579190565b818110613538575050565b6000815560010161352d565b9190601f811161355357505050565b612d10926000526020600020906020601f840160051c8301931061357f575b601f0160051c019061352d565b9091508190613572565b919392906136525767ffffffffffffffff8111611386576135b4816135ae8454612c98565b84613544565b6000601f82116001146135ee57819293946000926135e3575b50508160011b916000199060031b1c1916179055565b0135905038806135cd565b601f198216948382526020918281209281905b88821061363a57505083600195969710613620575b505050811b019055565b0135600019600384901b60f8161c19169055388080613616565b80600184968294958701358155019501920190613601565b634e487b7160e01b600052600060045260246000fd5b90600154916801000000000000000083101561138657610ff6836001612d109501600155612c4b565b1561369857565b606460405162461bcd60e51b815260206004820152600c60248201527f4c617374204761746577617900000000000000000000000000000000000000006044820152fd5b908082146137b5576136ee8154612c98565b9067ffffffffffffffff82116113865781906137148261370e8654612c98565b86613544565b600090601f831160011461374a5760009261373f5750508160011b916000199060031b1c1916179055565b0154905038806135cd565b81526020808220858352818320935090601f1985169083905b82821061379c57505090846001959493921061378357505050811b019055565b015460001960f88460031b161c19169055388080613616565b8495819295850154815560018091019601940190613763565b5050565b919061365257612d10916136dc565b600154801561383857600019016137de81612c4b565b613652576137ec8154612c98565b90816137fa575b5050600155565b81601f600093116001146138125750555b38806137f3565b908083918252613831601f60208420940160051c84016001850161352d565b555561380b565b634e487b7160e01b600052603160045260246000fd5b9190811015612c825760051b0190565b90816020910312611a2d57516001600160a01b0381168103611a2d5790565b90939293848311611a2d578411611a2d578101920390565b6001600160f81b031990358181169392600181106138b257505050565b60010360031b82901b16169150565b90603c67ffffffffffffffff809316029182169182036115a057565b92613906612f1695936001600160a01b036139149416865260a0602087015260a0860190612f60565b908482036040860152612d9b565b9163c55a5d5960e01b60608201526080818403910152612d9b565b80156115a0576000190190565b9192604894936bffffffffffffffffffffffff19809360601b168452601484015260601b1660348201526139798251809360208685019101612d78565b010190565b80156139e8576000818181805b6139d557506139998161338c565b935b6139a55750505090565b6000190190600a9060308282060160f81b6001600160f81b031916841a6139cc8487612fbc565b5304908161399b565b91506001600a910191048084929161398b565b506040516139f581612bf5565b600181527f300000000000000000000000000000000000000000000000000000000000000060208201529056fea2646970667358221220786864a1d107b3042b7d7f9ac458b8b1be18b56609fc26e16b9a3bec1533993d64736f6c63430008120033",
    "linkReferences": {}
  },
  "methodIdentifiers": {
    "CCIPRead(bytes32,string,bytes,string)": "a058c0ea",
    "DefaultContenthash()": "69be8bb0",
    "ENS()": "1d2e2cc4",
    "Gateways(uint256)": "356a277a",
    "WRAPPER()": "e1eb13c1",
    "__callback(bytes,bytes)": "c55a5d59",
    "addGateway(string)": "d63a4801",
    "addGateways(string[])": "21d6e7dd",
    "approve(bytes32,address,bool)": "a4b91a01",
    "approved(bytes32,address)": "b984b2cd",
    "bytesToString(bytes,uint256)": "82adc208",
    "contenthash(bytes32)": "bc1c58d1",
    "funcToFile(bytes4)": "e190ea65",
    "immolate()": "bf1e9c85",
    "listGateways()": "ffb80c8d",
    "owner()": "8da5cb5b",
    "randomGateways(bytes,string,uint256)": "d4a964f1",
    "removeGateway(uint256)": "e5dac703",
    "removeGateways(uint256[])": "30121570",
    "replaceGateway(uint256,string)": "acc0f7b1",
    "replaceGateways(uint256[],string[])": "5d1219d5",
    "resolve(bytes,bytes)": "9061b923",
    "roothash()": "251c9422",
    "safeWithdraw(address,uint256)": "5058c460",
    "setContenthash(bytes32,bytes)": "304e6ade",
    "signedBy(bytes32,bytes)": "06dcdc63",
    "supportsInterface(bytes4)": "01ffc9a7",
    "uintToString(uint256)": "e9395679",
    "withdraw()": "3ccfd60b",
    "withdraw(address,uint256)": "f3fef3a3"
  },
  "id": 22
}