{
  "abi": [
    {
      "inputs": [],
      "stateMutability": "nonpayable",
      "type": "constructor"
    },
    {
      "inputs": [
        {
          "internalType": "bytes1",
          "name": "_type",
          "type": "bytes1"
        }
      ],
      "name": "ContenthashNotImplemented",
      "type": "error"
    },
    {
      "inputs": [
        {
          "internalType": "bytes32",
          "name": "_node",
          "type": "bytes32"
        }
      ],
      "name": "ContenthashNotSet",
      "type": "error"
    },
    {
      "inputs": [
        {
          "internalType": "string",
          "name": "_message",
          "type": "string"
        }
      ],
      "name": "InvalidSignature",
      "type": "error"
    },
    {
      "inputs": [
        {
          "internalType": "bytes32",
          "name": "_node",
          "type": "bytes32"
        },
        {
          "internalType": "address",
          "name": "_addr",
          "type": "address"
        }
      ],
      "name": "NotAuthorized",
      "type": "error"
    },
    {
      "inputs": [
        {
          "internalType": "address",
          "name": "_addr",
          "type": "address"
        },
        {
          "internalType": "string[]",
          "name": "_gateways",
          "type": "string[]"
        },
        {
          "internalType": "bytes",
          "name": "_data",
          "type": "bytes"
        },
        {
          "internalType": "bytes4",
          "name": "_callbackFunction",
          "type": "bytes4"
        },
        {
          "internalType": "bytes",
          "name": "_extradata",
          "type": "bytes"
        }
      ],
      "name": "OffchainLookup",
      "type": "error"
    },
    {
      "inputs": [
        {
          "internalType": "bytes4",
          "name": "func",
          "type": "bytes4"
        }
      ],
      "name": "ResolverFunctionNotImplemented",
      "type": "error"
    },
    {
      "anonymous": false,
      "inputs": [
        {
          "indexed": true,
          "internalType": "string",
          "name": "domain",
          "type": "string"
        }
      ],
      "name": "AddGateway",
      "type": "event"
    },
    {
      "anonymous": false,
      "inputs": [
        {
          "indexed": true,
          "internalType": "address",
          "name": "owner",
          "type": "address"
        },
        {
          "indexed": true,
          "internalType": "address",
          "name": "operator",
          "type": "address"
        },
        {
          "indexed": false,
          "internalType": "bool",
          "name": "approved",
          "type": "bool"
        }
      ],
      "name": "ApprovalForAll",
      "type": "event"
    },
    {
      "anonymous": false,
      "inputs": [
        {
          "indexed": false,
          "internalType": "address",
          "name": "owner",
          "type": "address"
        },
        {
          "indexed": true,
          "internalType": "bytes32",
          "name": "node",
          "type": "bytes32"
        },
        {
          "indexed": true,
          "internalType": "address",
          "name": "delegate",
          "type": "address"
        },
        {
          "indexed": true,
          "internalType": "bool",
          "name": "approved",
          "type": "bool"
        }
      ],
      "name": "Approved",
      "type": "event"
    },
    {
      "anonymous": false,
      "inputs": [
        {
          "indexed": true,
          "internalType": "bytes32",
          "name": "_node",
          "type": "bytes32"
        },
        {
          "indexed": false,
          "internalType": "bytes",
          "name": "_contenthash",
          "type": "bytes"
        }
      ],
      "name": "ContenthashChanged",
      "type": "event"
    },
    {
      "anonymous": false,
      "inputs": [
        {
          "indexed": true,
          "internalType": "string",
          "name": "domain",
          "type": "string"
        }
      ],
      "name": "RemoveGateway",
      "type": "event"
    },
    {
      "anonymous": false,
      "inputs": [
        {
          "indexed": true,
          "internalType": "address",
          "name": "_new",
          "type": "address"
        },
        {
          "indexed": true,
          "internalType": "bool",
          "name": "_ok",
          "type": "bool"
        }
      ],
      "name": "UpdateWrapper",
      "type": "event"
    },
    {
      "inputs": [],
      "name": "ENS",
      "outputs": [
        {
          "internalType": "contract iENS",
          "name": "",
          "type": "address"
        }
      ],
      "stateMutability": "view",
      "type": "function"
    },
    {
      "inputs": [
        {
          "internalType": "uint256",
          "name": "",
          "type": "uint256"
        }
      ],
      "name": "Gateways",
      "outputs": [
        {
          "internalType": "string",
          "name": "",
          "type": "string"
        }
      ],
      "stateMutability": "view",
      "type": "function"
    },
    {
      "inputs": [
        {
          "internalType": "bytes",
          "name": "response",
          "type": "bytes"
        },
        {
          "internalType": "bytes",
          "name": "extradata",
          "type": "bytes"
        }
      ],
      "name": "__callback",
      "outputs": [
        {
          "internalType": "bytes",
          "name": "result",
          "type": "bytes"
        }
      ],
      "stateMutability": "view",
      "type": "function"
    },
    {
      "inputs": [
        {
          "internalType": "string",
          "name": "_domain",
          "type": "string"
        }
      ],
      "name": "addGateway",
      "outputs": [],
      "stateMutability": "nonpayable",
      "type": "function"
    },
    {
      "inputs": [
        {
          "internalType": "string[]",
          "name": "_domains",
          "type": "string[]"
        }
      ],
      "name": "addGateways",
      "outputs": [],
      "stateMutability": "nonpayable",
      "type": "function"
    },
    {
      "inputs": [
        {
          "internalType": "bytes32",
          "name": "_node",
          "type": "bytes32"
        },
        {
          "internalType": "address",
          "name": "_signer",
          "type": "address"
        },
        {
          "internalType": "bool",
          "name": "_approved",
          "type": "bool"
        }
      ],
      "name": "approve",
      "outputs": [],
      "stateMutability": "nonpayable",
      "type": "function"
    },
    {
      "inputs": [
        {
          "internalType": "bytes32",
          "name": "_node",
          "type": "bytes32"
        },
        {
          "internalType": "address",
          "name": "_signer",
          "type": "address"
        }
      ],
      "name": "approved",
      "outputs": [
        {
          "internalType": "bool",
          "name": "",
          "type": "bool"
        }
      ],
      "stateMutability": "view",
      "type": "function"
    },
    {
      "inputs": [
        {
          "internalType": "bytes",
          "name": "_buffer",
          "type": "bytes"
        },
        {
          "internalType": "uint256",
          "name": "_start",
          "type": "uint256"
        }
      ],
      "name": "bytesToString",
      "outputs": [
        {
          "internalType": "string",
          "name": "",
          "type": "string"
        }
      ],
      "stateMutability": "pure",
      "type": "function"
    },
    {
      "inputs": [
        {
          "internalType": "bytes32",
          "name": "",
          "type": "bytes32"
        }
      ],
      "name": "contenthash",
      "outputs": [
        {
          "internalType": "bytes",
          "name": "",
          "type": "bytes"
        }
      ],
      "stateMutability": "view",
      "type": "function"
    },
    {
      "inputs": [
        {
          "internalType": "bytes32",
          "name": "_node",
          "type": "bytes32"
        },
        {
          "internalType": "address",
          "name": "_manager",
          "type": "address"
        },
        {
          "internalType": "bytes",
          "name": "_ipns",
          "type": "bytes"
        }
      ],
      "name": "fastSetup",
      "outputs": [],
      "stateMutability": "nonpayable",
      "type": "function"
    },
    {
      "inputs": [
        {
          "internalType": "bytes4",
          "name": "",
          "type": "bytes4"
        }
      ],
      "name": "funcToFile",
      "outputs": [
        {
          "internalType": "string",
          "name": "",
          "type": "string"
        }
      ],
      "stateMutability": "view",
      "type": "function"
    },
    {
      "inputs": [],
      "name": "immolate",
      "outputs": [],
      "stateMutability": "nonpayable",
      "type": "function"
    },
    {
      "inputs": [
        {
          "internalType": "address",
          "name": "_owner",
          "type": "address"
        },
        {
          "internalType": "bytes32",
          "name": "_node",
          "type": "bytes32"
        },
        {
          "internalType": "address",
          "name": "_signer",
          "type": "address"
        }
      ],
      "name": "isApprovedFor",
      "outputs": [
        {
          "internalType": "bool",
          "name": "",
          "type": "bool"
        }
      ],
      "stateMutability": "view",
      "type": "function"
    },
    {
      "inputs": [
        {
          "internalType": "address",
          "name": "_owner",
          "type": "address"
        },
        {
          "internalType": "address",
          "name": "_signer",
          "type": "address"
        }
      ],
      "name": "isApprovedForAll",
      "outputs": [
        {
          "internalType": "bool",
          "name": "",
          "type": "bool"
        }
      ],
      "stateMutability": "view",
      "type": "function"
    },
    {
      "inputs": [
        {
          "internalType": "address",
          "name": "",
          "type": "address"
        }
      ],
      "name": "isWrapper",
      "outputs": [
        {
          "internalType": "bool",
          "name": "",
          "type": "bool"
        }
      ],
      "stateMutability": "view",
      "type": "function"
    },
    {
      "inputs": [],
      "name": "listAllGateways",
      "outputs": [
        {
          "internalType": "string[]",
          "name": "list",
          "type": "string[]"
        }
      ],
      "stateMutability": "view",
      "type": "function"
    },
    {
      "inputs": [
        {
          "internalType": "bytes32",
          "name": "",
          "type": "bytes32"
        }
      ],
      "name": "manager",
      "outputs": [
        {
          "internalType": "bool",
          "name": "",
          "type": "bool"
        }
      ],
      "stateMutability": "view",
      "type": "function"
    },
    {
      "inputs": [],
      "name": "owner",
      "outputs": [
        {
          "internalType": "address payable",
          "name": "",
          "type": "address"
        }
      ],
      "stateMutability": "view",
      "type": "function"
    },
    {
      "inputs": [
        {
          "internalType": "string",
          "name": "_path",
          "type": "string"
        },
        {
          "internalType": "uint256",
          "name": "k",
          "type": "uint256"
        }
      ],
      "name": "randomGateways",
      "outputs": [
        {
          "internalType": "string[]",
          "name": "gateways",
          "type": "string[]"
        }
      ],
      "stateMutability": "view",
      "type": "function"
    },
    {
      "inputs": [
        {
          "internalType": "uint256",
          "name": "_index",
          "type": "uint256"
        }
      ],
      "name": "removeGateway",
      "outputs": [],
      "stateMutability": "nonpayable",
      "type": "function"
    },
    {
      "inputs": [
        {
          "internalType": "uint256[]",
          "name": "_indexes",
          "type": "uint256[]"
        }
      ],
      "name": "removeGateways",
      "outputs": [],
      "stateMutability": "nonpayable",
      "type": "function"
    },
    {
      "inputs": [
        {
          "internalType": "uint256",
          "name": "_index",
          "type": "uint256"
        },
        {
          "internalType": "string",
          "name": "_domain",
          "type": "string"
        }
      ],
      "name": "replaceGateway",
      "outputs": [],
      "stateMutability": "nonpayable",
      "type": "function"
    },
    {
      "inputs": [
        {
          "internalType": "uint256[]",
          "name": "_indexes",
          "type": "uint256[]"
        },
        {
          "internalType": "string[]",
          "name": "_domains",
          "type": "string[]"
        }
      ],
      "name": "replaceGateways",
      "outputs": [],
      "stateMutability": "nonpayable",
      "type": "function"
    },
    {
      "inputs": [
        {
          "internalType": "bytes",
          "name": "name",
          "type": "bytes"
        },
        {
          "internalType": "bytes",
          "name": "data",
          "type": "bytes"
        }
      ],
      "name": "resolve",
      "outputs": [
        {
          "internalType": "bytes",
          "name": "",
          "type": "bytes"
        }
      ],
      "stateMutability": "view",
      "type": "function"
    },
    {
      "inputs": [
        {
          "internalType": "address",
          "name": "_token",
          "type": "address"
        },
        {
          "internalType": "uint256",
          "name": "_id",
          "type": "uint256"
        }
      ],
      "name": "safeWithdraw",
      "outputs": [],
      "stateMutability": "nonpayable",
      "type": "function"
    },
    {
      "inputs": [
        {
          "internalType": "address",
          "name": "_signer",
          "type": "address"
        },
        {
          "internalType": "bool",
          "name": "_approved",
          "type": "bool"
        }
      ],
      "name": "setApprovalForAll",
      "outputs": [],
      "stateMutability": "nonpayable",
      "type": "function"
    },
    {
      "inputs": [
        {
          "internalType": "bytes32",
          "name": "_node",
          "type": "bytes32"
        },
        {
          "internalType": "bytes",
          "name": "_contenthash",
          "type": "bytes"
        }
      ],
      "name": "setContenthash",
      "outputs": [],
      "stateMutability": "nonpayable",
      "type": "function"
    },
    {
      "inputs": [
        {
          "internalType": "bytes32",
          "name": "digest",
          "type": "bytes32"
        },
        {
          "internalType": "bytes",
          "name": "signature",
          "type": "bytes"
        }
      ],
      "name": "signedBy",
      "outputs": [
        {
          "internalType": "address",
          "name": "_addr",
          "type": "address"
        }
      ],
      "stateMutability": "pure",
      "type": "function"
    },
    {
      "inputs": [
        {
          "internalType": "bytes4",
          "name": "interfaceID",
          "type": "bytes4"
        }
      ],
      "name": "supportsInterface",
      "outputs": [
        {
          "internalType": "bool",
          "name": "",
          "type": "bool"
        }
      ],
      "stateMutability": "pure",
      "type": "function"
    },
    {
      "inputs": [
        {
          "internalType": "address",
          "name": "_addr",
          "type": "address"
        }
      ],
      "name": "toChecksumAddress",
      "outputs": [
        {
          "internalType": "string",
          "name": "",
          "type": "string"
        }
      ],
      "stateMutability": "pure",
      "type": "function"
    },
    {
      "inputs": [
        {
          "internalType": "uint256",
          "name": "value",
          "type": "uint256"
        }
      ],
      "name": "uintToString",
      "outputs": [
        {
          "internalType": "string",
          "name": "",
          "type": "string"
        }
      ],
      "stateMutability": "pure",
      "type": "function"
    },
    {
      "inputs": [
        {
          "internalType": "address",
          "name": "_addr",
          "type": "address"
        },
        {
          "internalType": "bool",
          "name": "_set",
          "type": "bool"
        }
      ],
      "name": "updateWrapper",
      "outputs": [],
      "stateMutability": "nonpayable",
      "type": "function"
    },
    {
      "inputs": [
        {
          "internalType": "address[]",
          "name": "_addrs",
          "type": "address[]"
        },
        {
          "internalType": "bool[]",
          "name": "_sets",
          "type": "bool[]"
        }
      ],
      "name": "updateWrappers",
      "outputs": [],
      "stateMutability": "nonpayable",
      "type": "function"
    },
    {
      "inputs": [],
      "name": "withdraw",
      "outputs": [],
      "stateMutability": "nonpayable",
      "type": "function"
    },
    {
      "inputs": [
        {
          "internalType": "address",
          "name": "_token",
          "type": "address"
        },
        {
          "internalType": "uint256",
          "name": "_balance",
          "type": "uint256"
        }
      ],
      "name": "withdraw",
      "outputs": [],
      "stateMutability": "nonpayable",
      "type": "function"
    }
  ],
  "bytecode": {
    "object": "0x604060c08152346200036757306080526e0c2e074ec69a0dfb2997ba6c7d2e1e60a052600090631d9dabef60e11b825260209060028252808320620000506200004982546200036c565b82620003a9565b7f5f616464726573732f3630000000000000000000000000000000000000000016905563c869023360e01b8352600282528083208054620000969062000049906200036c565b600c657075626b657960d01b01905563691f343160e01b8352600282528083208054620000c89062000049906200036c565b6008636e616d6560e01b01905563bc1c58d160e01b8352600282528083208054620000f89062000049906200036c565b7f636f6e74656e74686173680000000000000000000000000000000000000000169055635c98042b60e01b83526002825280832080546200013e9062000049906200036c565b7f5f646e732f7a6f6e65686173680000000000000000000000000000000000001a905582546001600160a01b031916331783556001805468010000000000000000949193919085811015620003535780856200019d92018655620003e3565b6200033f5780620001b562000049600993546200036c565b7f647765622e6c696e6b00000000000000000000000000000000000000000000129055835168647765622e6c696e6b60b81b8152207f7a9f387a9d3844b91ba19679387fe32e833e4311fec98471b6df53b9855e3f479590868380a2845490811015620003535780856200022c92018655620003e3565b6200033f57806200024462000049600793546200036c565b600e66697066732e696f60c81b019055835166697066732e696f60c81b8152208351958280a2600573d4416b13d2b3a9abae7acd5d6c2bbdbe25686401928383525282812060ff19908582825416179055847f8ea51d3bcf70e647a0bb1312a2a0fa7fbc0c51fb47325275912a75c257c0826393848480a38473114d4603199df73e7d157787f8778e21fcd130669485845283209182541617905580a3613f979081620004168239608051818181610204015281816108e301528181610c3c0152818161147e0152818161253301526125b5015260a05181818161093801528181610d5b0152818161206d015281816126800152612bab0152f35b634e487b7160e01b82526004829052602482fd5b634e487b7160e01b82526041600452602482fd5b600080fd5b90600182811c921680156200039e575b60208310146200038857565b634e487b7160e01b600052602260045260246000fd5b91607f16916200037c565b601f8211620003b6575050565b6000908152601f60208220920160051c8201915b828110620003d757505050565b818155600101620003ca565b600154811015620003ff57600160005260206000200190600090565b634e487b7160e01b600052603260045260246000fdfe6080604081815260048036101561001557600080fd5b600092833560e01c90816301ffc9a714612f135750806306dcdc6314612d03578063084ac40a14612bcf5780631d2e2cc414612b8b57806321d6e7dd14612ad45780633012157014612980578063304e6ade14612649578063356a277a146125fb5780633ccfd60b146125925780635058c460146124d25780635d1219d5146123a65780636d41a51714612004578063814b745614611f7157806382adc20814611dfb5780638384976f14611d6a5780638da5cb5b14611d445780639061b923146111d65780639885e3b4146111ab578063a22cb465146110fa578063a4b91a011461103e578063a9784b3e14610fad578063acc0f7b114610f0d578063b984b2cd14610d17578063bc1c58d114610cee578063bf1e9c8514610c83578063c55a5d5914610595578063cf1353521461056e578063d63a4801146104e3578063e0aa2797146104a7578063e190ea651461046c578063e5dac703146103a5578063e8d76b1e14610351578063e939567914610319578063e985e9c5146102825763f3fef3a3146101a457600080fd5b82913461027e578060031936011261027e576001600160a01b0391826101c86132ce565b169284541690833b1561027a5782517f23b872dd0000000000000000000000000000000000000000000000000000000081526001600160a01b037f00000000000000000000000000000000000000000000000000000000000000008116928201928352909216602082015260243560408201529092849184919082908490829060600103925af1908115610271575061025e5750f35b610267906130bd565b61026e5780f35b80fd5b513d84823e3d90fd5b8480fd5b5050fd5b50346103155781600319360112610315578160209360ff926102a26132ce565b6102f46103026102b06132e4565b86519283918b8301958690603292691b585b9859d94b585b1b60b21b83526bffffffffffffffffffffffff19809260601b16600a84015260601b16601e8201520190565b03601f19810183528261311f565b5190208252855220541690519015158152f35b8280fd5b50913461026e57602036600319011261026e575061033a61034d9235613c2b565b90519182916020835260208301906132a9565b0390f35b50913461026e578160031936011261026e5782359067ffffffffffffffff821161026e575061038961034d93610392923691016133a9565b602435906134e6565b90519182916020835260208301906132fa565b50829034610468576020366003190112610468578035906103d16001600160a01b038454163314613774565b6103f9600154946103e46001871161395f565b6103ed84613159565b50905191828092613442565b0390207fd94fae538c4428e7bd1e4fa66b93ad367b2c5bbbc9d0dae73a21526257361ff48480a26000198401938411610455575061044461043d61044a9394613159565b5091613159565b90613a87565b610452613a96565b80f35b826011602492634e487b7160e01b835252fd5b5080fd5b503461031557602036600319011261031557356001600160e01b0319811680910361031557818361033a9261034d95526002602052206131e0565b5050346104685760203660031901126104685760ff816020936001600160a01b036104d06132ce565b1681526005855220541690519015158152f35b50346103155760203660031901126103155780359067ffffffffffffffff821161056a5761051391369101612fe3565b809261052a6001600160a01b038654163314613774565b61053482846138f4565b5192839283378101600081520390207f7a9f387a9d3844b91ba19679387fe32e833e4311fec98471b6df53b9855e3f478280a280f35b8380fd5b5050346104685760203660031901126104685761034d9061033a6105906132ce565b613ccf565b509034610315576105a5366133d6565b8195929395019560a08288031261026e57813590602096878401359560608501359367ffffffffffffffff9485811161027a578b6105e49188016133a9565b9a6080870135868111610b9957906105fd9188016133a9565b9560038201808311610c70578a904311159283610c22575b50505015610be0578086116103155763c55a5d5960e01b6001600160e01b031983351603610b9d57810193606082860360031901126103155785820135946001600160a01b039485871680970361027a576024840135818111610b99578289610680928701016133a9565b936044810135918211610b99578b93928b9261069e92018a016133a9565b9b8c848151910120825190858201528481526106b981613103565b6106c2906136be565b6106cb89613ccf565b908351948593878501957f52657175657374696e67207369676e617475726520666f72206f66662d636861875285017f696e20454e53207265636f72640a0000000000000000000000000000000000009052604e85017f0a454e5320446f6d61696e3a200000000000000000000000000000000000000090528051908189605b880192019161075992613286565b8401605b81017f0a5265636f726420547970653a20000000000000000000000000000000000000905281519182896069840192019161079792613286565b01606981017f0a5265636f726420486173683a2030780000000000000000000000000000000090528151918288607984019201916107d492613286565b01607981017f0a5369676e65642042793a206569703135353a313a000000000000000000000090528151918287608e840192019161081192613286565b0103606e81018352608e01610826908361311f565b815161083190613c2b565b918a51918291858301947f19457468657265756d205369676e6564204d6573736167653a0a00000000000086528051908188603a870192019161087392613286565b830190519182603a830161088692613286565b0103601a81018252603a0161089b908261311f565b5190208851809381927f06dcdc63000000000000000000000000000000000000000000000000000000008352898301528a6024830152604482016108de916132a9565b0381867f0000000000000000000000000000000000000000000000000000000000000000165afa908115610b10579083918391610b7c575b50168303610b39578551916302571be360e01b835285858401528783602481847f0000000000000000000000000000000000000000000000000000000000000000165afa928315610b1057908291889394610b1a575b50888185168084526005825260ff8585205416610aaa575b505083168414159283610a44575b836109e3575b5050506109b55750505061034d90519282849384528301906132a9565b835163a78e4aa560e01b81529182019283526001600160a01b031660208301529081906040010390fd5b0390fd5b60ff93508251610a30816102f4888d8301958690603292691b585b9859d94b585b1b60b21b83526bffffffffffffffffffffffff19809260601b16600a84015260601b16601e8201520190565b519020815284885220541615843880610998565b8251696d616e6167652d6f6e6560b01b8a8201908152600a81018990526bffffffffffffffffffffffff19606084811b8216602a84015288901b16603e820152919450610a9481605284016102f4565b519020815284885260ff82822054161592610992565b909194506024929351928380926331a9108f60e11b82528a8a8301525afa908115610b1057908291889391610ae3575b50928838610984565b610b039150893d8b11610b09575b610afb818361311f565b810190613b2c565b38610ada565b503d610af1565b87513d84823e3d90fd5b610b32919450893d8b11610b0957610afb818361311f565b923861096c565b6064848888519163151a7bff60e11b8352820152600a60248201527f4241445f5349474e4552000000000000000000000000000000000000000000006044820152fd5b610b939150893d8b11610b0957610afb818361311f565b38610916565b8580fd5b6064868a8a519163151a7bff60e11b8352820152600a60248201527f4241445f505245464958000000000000000000000000000000000000000000006044820152fd5b6064868a8a519162461bcd60e51b8352820152601860248201527f494e56414c49445f434845434b53554d2f54494d454f555400000000000000006044820152fd5b909192508c610c618d6102f48b86519485938401963390407f000000000000000000000000000000000000000000000000000000000000000089613bd4565b51902091013514388981610615565b60248660118b634e487b7160e01b835252fd5b50823461026e578060031936011261026e576001600160a01b0390541691823303610cab5782ff5b906020606492519162461bcd60e51b8352820152600960248201527f4e4f545f4f574e455200000000000000000000000000000000000000000000006044820152fd5b5034610315576020366003190112610315578161034d9361033a923581526003602052206131e0565b50919034610468578060031936011261046857823590610d356132e4565b928151946302571be360e01b865283818701526020956001600160a01b038782602481847f0000000000000000000000000000000000000000000000000000000000000000165afa918215610ee4578492610eee575b50878183168086526005825260ff8787205416610e94575b505080871690821614948515610e2a575b508415610dc7575b868585519015158152f35b60ff94506102f4610e17859786519283918b8301958690603292691b585b9859d94b585b1b60b21b83526bffffffffffffffffffffffff19809260601b16600a84015260601b16601e8201520190565b5190208252855220541681388080610dbc565b9094508351610e7e816102f489898c84019687919092605293696d616e6167652d6f6e6560b01b8452600a8401526bffffffffffffffffffffffff19809260601b16602a84015260601b16603e8201520190565b519020825280865260ff83832054169338610db4565b60249293508651928380926331a9108f60e11b82528a888301525afa908115610ee4578491610ec7575b50908738610da3565b610ede9150883d8a11610b0957610afb818361311f565b38610ebe565b85513d86823e3d90fd5b610f06919250883d8a11610b0957610afb818361311f565b9038610d8b565b50346103155781600319360112610315578035906024359267ffffffffffffffff841161027a57610f4761053492610fa795369101612fe3565b81819682959396610f636001600160a01b038b54163314613774565b610f7b610f6f82613159565b50875191828092613442565b0390207fd94fae538c4428e7bd1e4fa66b93ad367b2c5bbbc9d0dae73a21526257361ff48b80a2613159565b9061381b565b50913461026e57606036600319011261026e57610fc86132ce565b90604435906001600160a01b03821682036110395760209460ff936102f4610302879586519283918b83019560243587919092605293696d616e6167652d6f6e6560b01b8452600a8401526bffffffffffffffffffffffff19809260601b16602a84015260601b16603e8201520190565b600080fd5b503461031557606036600319011261031557803561105a6132e4565b9160443593841515809503611039576001600160a01b03817ff0ddb3b04746704017f9aa8bd728fcc2c1d11675041205350018915f5e4750a09360209351848101906110e8816102f48b338c87919092605293696d616e6167652d6f6e6560b01b8452600a8401526bffffffffffffffffffffffff19809260601b16602a84015260601b16603e8201520190565b5190208952835251943386521693a480f35b5090346103155780600319360112610315576001600160a01b039061111d6132ce565b906111266133c7565b9381516020810190611172816102f487338690603292691b585b9859d94b585b1b60b21b83526bffffffffffffffffffffffff19809260601b16600a84015260601b16601e8201520190565b519020865260205251921515835216907f17307eab39ab6107e8899845ad3d59bd9653f200f220920489ca2b5937696c3160203392a380f35b503461031557602036600319011261031557816020938260ff93358252855220541690519015158152f35b509034610315576111e6366133d6565b929095919460019580871161056a57823560f81c918651986105608a019067ffffffffffffffff918b811083821117611d2f578952602a8b528a60005b6105408110611d1d575050848a0194858b11611d1957848611611d1957611254909b9a9799989b3690898901613372565b61125d8b6134c5565b526112678a6134c5565b506112718a6134c5565b519a8b5b85871015611d06576001600160f81b03198789013516156113c6578b899a9b9c9d88888b600183019b6112a9928d92613b4b565b6112b291613b80565b60f81c0160010198896112c6918a8d613b4b565b36906112d192613372565b6112db8c846134d2565b526112e68b836134d2565b506112f18b836134d2565b51918d518251602093818580850192019161130b92613286565b8101938385017f2e0000000000000000000000000000000000000000000000000000000000000090528181516021968793828886840192019161134d92613286565b010360018101835201611360908261311f565b9b61136a916134d2565b51908d51938285935190818480870192019161138592613286565b830190828201602f60f81b9052805180938684019201916113a592613286565b0103600181018352016113b8908261311f565b979b9a999860010197611275565b918b908a8e8b96948e600019809901976113e089886134d2565b5192835160208095012086518581019185835288820152878152611403816130e7565b5190209683988c8c60609d5b611c965750505060249782891161027a578d8201358103611c55578b5115611c275750818d1161056a57908592916001600160e01b031991868383351693848852600282526114608b8920546131a6565b156118ca575050505083526002845261147a8684206131e0565b925b7f00000000000000000000000000000000000000000000000000000000000000009b43019a8c8c6114ba878b519a8b938b8501953391409087613bd4565b03976114ce601f19998a810183528261311f565b519020928151156118b857818701516001600160f81b0319935083167fe5000000000000000000000000000000000000000000000000000000000000000361187e57885161151b81613103565b600781527f2f69706e732f660000000000000000000000000000000000000000000000000088820152915b80516001198101908111611868578060011b8181046002148215171561185157906115748795949392613642565b9561157d613674565b9260005b83811061176a5750505050508951938285935190818b8087019201916115a692613286565b8301815191828b8084019201916115bc92613286565b018881017f2f2e77656c6c2d6b6e6f776e2f000000000000000000000000000000000000009052815191828a602d84019201916115f892613286565b01602d8101602f60f81b9052865190602e8101828a8a019161161992613286565b01602e81017f2e6a736f6e3f743d7b646174617d000000000000000000000000000000000000905203601c81018352603c01611655908361311f565b61165e916134e6565b9786519942603c900416603c0260c01b7fffffffffffffffff00000000000000000000000000000000000000000000000016858b015260088a526116a18a613103565b86519a8b958601528685015260608401526080830160a0905260c083016116c7916132a9565b838382030160a08401526116da916132a9565b0390810186526116ea908661311f565b519586957f556f18300000000000000000000000000000000000000000000000000000000087526001600160a01b031690860152840160a0905260a48401611731916132fa565b906003199182858203016044860152611749916132a9565b906064840163c55a5d5960e01b90528382030160848401526109df916132a9565b9091929394959650600281018082116118375761178790836136ad565b51836117968260fc1c886136ad565b5116908260011b918383046002148415171561181b57600f86928c6117c2866117cd9560001a926136ad565b5360f81c16886136ad565b51166001820180921161180057906117ed6117f3939260001a918b6136ad565b5361341d565b9088969594939291611581565b5050505050508f60118c91634e487b7160e01b600052526000fd5b505050505050508f60118c91634e487b7160e01b600052526000fd5b50505050508f60118c91634e487b7160e01b600052526000fd5b50508f60118c91634e487b7160e01b600052526000fd5b508f60118c91634e487b7160e01b600052526000fd5b885161188981613103565b600781527f2f697066732f66000000000000000000000000000000000000000000000000008882015291611546565b634e487b7160e01b835260328f528983fd5b949550919390927f59d1d43c00000000000000000000000000000000000000000000000000000000810361192d5750505081019084602319828403011261056a5787810135908a821161027a5791886119279288959401016133a9565b9261147c565b9394939192917ff1cb7e060000000000000000000000000000000000000000000000000000000081036119c757505083018390036023190112611039576119778786930135613c2b565b6119276029885180937f5f616464726573732f0000000000000000000000000000000000000000000000898301526119b7815180928b8686019101613286565b810103600981018452018261311f565b90949291907f124a319c000000000000000000000000000000000000000000000000000000008103611a7c5750820182900360231901126110395787013591821680920361103957611a2c8592875190868201528d8152611a2781613103565b6136be565b611927602d885180937f5f696e746572666163652f30780000000000000000000000000000000000000089830152611a6c815180928b8686019101613286565b810103600d81018452018261311f565b92945090917f2203ab56000000000000000000000000000000000000000000000000000000008103611b1457508301839003602319011261103957611ac48786930135613c2b565b6119276025885180937f5f6162692f00000000000000000000000000000000000000000000000000000089830152611b04815180928b8686019101613286565b810103600581018452018261311f565b9293929091507fa8fa5682000000000000000000000000000000000000000000000000000000008103611bf9575081018190036023190186136103155760448101359061ffff821680920361056a57906119276028611b8e611b888996958c8c519101358a820152898152611a2781613103565b93613c2b565b9289519384917f5f646e732f3078000000000000000000000000000000000000000000000000008a840152611bcc815180928c602787019101613286565b8201602f60f81b6027820152611bea825180938c8785019101613286565b0103600881018452018261311f565b8d89918951917f0c9addbc000000000000000000000000000000000000000000000000000000008352820152fd5b8d89918951917fca1c65c1000000000000000000000000000000000000000000000000000000008352820152fd5b60648e600c8b898c519362461bcd60e51b85528401528201527f4241445f4e414d454841534800000000000000000000000000000000000000006044820152fd5b0198611ca28a836134d2565b518781519101208951908882019283528a820152898152611cc2816130e7565b519020988986526003808852611cda8a8820546131a6565b611ce8575b50808e9161140f565b919c5099508885528552611cfd8785206131e0565b9a89899a611cdf565b60248b603287634e487b7160e01b835252fd5b8780fd5b60606020828194010152018b90611223565b604184634e487b7160e01b6000525260246000fd5b5050346104685781600319360112610468576001600160a01b0360209254169051908152f35b505034610468578060031936011261046857611d846132ce565b611dd1611d8f6133c7565b80926001600160a01b0390611da8828854163314613774565b611db4813b1515613ef5565b1693848652600560205285209060ff801983541691151516179055565b1515907f8ea51d3bcf70e647a0bb1312a2a0fa7fbc0c51fb47325275912a75c257c082638380a380f35b50913461026e578160031936011261026e5782359067ffffffffffffffff821161026e5750611e2d90369084016133a9565b90602492833583519481860392868411611f5e5760019284841b600298828783048b1491141715611f4a57611e6190613642565b96611e6a613674565b9160005b878110611e8a5788516020808252819061034d9082018d6132a9565b818101808211611f3657611e9f8c91856136ad565b516001600160f81b03199081611eb88260fc1c896136ad565b5116848b1b938585041485151715611f2257611eea918e611edf86600f9460001a926136ad565b5360f81c16876136ad565b5116888201809211611f0e57906117ed611f09939260001a918d6136ad565b611e6e565b87601188634e487b7160e01b600052526000fd5b8960118a634e487b7160e01b600052526000fd5b86601187634e487b7160e01b600052526000fd5b83601184634e487b7160e01b600052526000fd5b601190634e487b7160e01b600052526000fd5b82843461026e578060031936011261026e57600191825492611f9284613141565b93611f9f8351958661311f565b8085528184526020937fb10e2d527612073b26eecdfd717e6a320cf44b4afac2b0732d9fcbe2b7fa0cf6858088015b848410611fe75786518281528061034d8185018c6132fa565b85918291611ff4856131e0565b8152019201920191908690611fce565b509190346104685760603660031901126104685782356120226132e4565b9167ffffffffffffffff90604435828111610b99576120449036908801612fe3565b8297919751906302571be360e01b825285838301526020986001600160a01b03958a846024818a7f0000000000000000000000000000000000000000000000000000000000000000165afa93841561237d578a94612387575b508a878516808c526005825260ff888d20541661232d575b5050868416331415806122d0575b6122af57878a5260038b52858a2090831161229c576120ec836120e683546131a6565b836137d6565b89601f84116001146121ee57838b9c9795938a937ff0ddb3b04746704017f9aa8bd728fcc2c1d11675041205350018915f5e4750a09a98967fe379c1624ed7e714cc0937528a32359d69d5281337765313dba4e081b72d75789460019f916121e3575b50600019600385901b1c1916838f1b1790555b612170875192839283613bac565b0390a282516121c4816102f48b898301958c87919092605293696d616e6167652d6f6e6560b01b8452600a8401526bffffffffffffffffffffffff19809260601b16602a84015260601b16603e8201520190565b51902089528352808820805460ff19168817905551338152941693a480f35b90508201353861214f565b818b528b8b2090601f1985168c5b8181106122855750938a937fe379c1624ed7e714cc0937528a32359d69d5281337765313dba4e081b72d75789360019e9f9a989693887ff0ddb3b04746704017f9aa8bd728fcc2c1d11675041205350018915f5e4750a09d9b99951061226b575b50508d83811b019055612162565b830135600019600386901b60f8161c19169055388061225d565b91928e6001819286890135815501940192016121fc565b60248a604187634e487b7160e01b835252fd5b855163a78e4aa560e01b815280860189815233602082015281906040010390fd5b508551691b585b9859d94b585b1b60b21b8c82019081526bffffffffffffffffffffffff19606087811b8216600a84015233901b16601e8201529061231881603284016102f4565b5190208a52848b5260ff868b205416156120c3565b60249295508751928380926331a9108f60e11b82528c8a8301525afa90811561237d578a91612360575b50928a386120b5565b61237791508b3d8d11610b0957610afb818361311f565b38612357565b86513d8c823e3d90fd5b61239f9194508b3d8d11610b0957610afb818361311f565b923861209d565b509034610315576123b636613076565b92946123d06001600160a01b038894939454163314613774565b83820361248f5750855b8181106123e5578680f35b80612400610f6f6123fa61248a94868b613b1c565b35613159565b0390207fd94fae538c4428e7bd1e4fa66b93ad367b2c5bbbc9d0dae73a21526257361ff48980a261244461243582878761391d565b90610fa76123fa85888d613b1c565b61244f81868661391d565b9081885192839283378101600081520390207f7a9f387a9d3844b91ba19679387fe32e833e4311fec98471b6df53b9855e3f478980a261341d565b6123da565b606490602086519162461bcd60e51b8352820152601160248201527f42616420696e707574206c656e677468730000000000000000000000000000006044820152fd5b509034610315578060031936011261031557826001600160a01b0392836124f76132ce565b169382541693803b156103155783517f42842e0e0000000000000000000000000000000000000000000000000000000081526001600160a01b037f0000000000000000000000000000000000000000000000000000000000000000811693820193845290951660208301526024356040830152849182908490829060600103925af19081156102715750612589575080f35b610452906130bd565b505034610468578160031936011261046857818080806001600160a01b038154167f000000000000000000000000000000000000000000000000000000000000000031908282156125f2575bf1156125e8575080f35b51903d90823e3d90fd5b506108fc6125de565b50913461026e57602036600319011261026e5782356001548110156104685761262390613159565b9390936126375761034d8361033a866131e0565b9080602492634e487b7160e01b825252fd5b508290346104685761265a36613011565b919285516302571be360e01b815284828201526020906001600160a01b038282602481847f0000000000000000000000000000000000000000000000000000000000000000165afa918215612957578892612961575b5082818316808a526005825260ff8b8b205416612907575b5050811633141590816128a1575b8161283f575b5061281d57848652600381528686209167ffffffffffffffff851161280a57506127108461270a84546131a6565b846137d6565b8590601f851160011461277e57509561276d918487987fe379c1624ed7e714cc0937528a32359d69d5281337765313dba4e081b72d7578979891612773575b508560011b906000198760031b1c19161790555b5192839283613bac565b0390a280f35b90508401358961274f565b90601f1985168388528288209288905b8282106127f25750509161276d9391867fe379c1624ed7e714cc0937528a32359d69d5281337765313dba4e081b72d757898999a94106127d8575b5050600185811b019055612763565b850135600019600388901b60f8161c1916905588806127c9565b80600185968294968a0135815501950193019061278e565b866041602492634e487b7160e01b835252fd5b50855163a78e4aa560e01b815290810184815233602082015281906040010390fd5b9050875161288b816102f48582019433908690603292691b585b9859d94b585b1b60b21b83526bffffffffffffffffffffffff19809260601b16600a84015260601b16601e8201520190565b519020865281815260ff878720541615886126dc565b8851696d616e6167652d6f6e6560b01b848201908152600a81018990526bffffffffffffffffffffffff19606084811b8216602a84015233901b16603e8201529192506128f181605284016102f4565b519020875282825260ff888820541615906126d6565b60249293508a51928380926331a9108f60e11b82528b898301525afa90811561295757889161293a575b5090828a6126c8565b6129519150833d8511610b0957610afb818361311f565b89612931565b89513d8a823e3d90fd5b612979919250833d8511610b0957610afb818361311f565b90896126b0565b509034610315576020918260031936011261056a5780359267ffffffffffffffff841161027a573660238501121561027a5783820135906129c082613141565b946129cd8551968761311f565b8286528186016024809460051b83010191368311612ad0578401905b828210612ac15750505050612a096001600160a01b038654163314613774565b835192600190612a1b8583541161395f565b865b858110612a28578780f35b612a4a612a3e612a38838a6134d2565b51613159565b50835191828092613442565b0390207fd94fae538c4428e7bd1e4fa66b93ad367b2c5bbbc9d0dae73a21526257361ff48980a282546000198101908111612aaf5790612a9d612a8f612aaa93613159565b50610444612a38848c6134d2565b612aa5613a96565b61341d565b612a1d565b8489601188634e487b7160e01b835252fd5b813581529083019083016129e9565b8880fd5b50346103155760203660031901126103155780359067ffffffffffffffff821161056a57612b0491369101613045565b612b1c6001600160a01b038594939454163314613774565b835b818110612b29578480f35b80612b41612b3b612b8693858861391d565b906138f4565b612b4c81848761391d565b90818651928392833781018881520390207f7a9f387a9d3844b91ba19679387fe32e833e4311fec98471b6df53b9855e3f478780a261341d565b612b1e565b505034610468578160031936011261046857602090516001600160a01b037f0000000000000000000000000000000000000000000000000000000000000000168152f35b503461031557612bde36613076565b919093926001600160a01b0393612bf9858954163314613774565b838303612cc05750865b828110612c0e578780f35b80612c30612c28612c23612cbb948787613b1c565b613f40565b3b1515613ef5565b612c71612c46612c4183888b613b1c565b613f54565b87612c55612c23858989613b1c565b168b526005602052898b209060ff801983541691151516179055565b612c7f612c23828686613b1c565b86612c8e612c4184898c613b1c565b151591167f8ea51d3bcf70e647a0bb1312a2a0fa7fbc0c51fb47325275912a75c257c082638b80a361341d565b612c03565b606490602088519162461bcd60e51b8352820152600a60248201527f4241445f4c454e475448000000000000000000000000000000000000000000006044820152fd5b50903461031557612d1336613011565b94919060209580871161056a57808503612e7957612d3790601f1901828801613b63565b907f7fffffffffffffffffffffffffffffffffffffffffffffffffffffffffffffff82169160ff1c601b8101809111612e665760ff165b7f7fffffffffffffffffffffffffffffff5d576e7357a4501ddfe92f46681b20a08311612e2357855193845260ff1683880152358285015260608201528180528490829060809060015afa15612e1857516001600160a01b0316918215612dd6575051908152f35b83606492519163151a7bff60e11b8352820152600c60248201527f5a45524f5f4144445245535300000000000000000000000000000000000000006044820152fd5b9051903d90823e3d90fd5b6064878988519163151a7bff60e11b8352820152600f60248201527f494e56414c49445f535f56414c554500000000000000000000000000000000006044820152fd5b602485601189634e487b7160e01b835252fd5b9060418203612ea55781851161056a57612e9d8782013592603f1901868301613b80565b60f81c612d6e565b60608203612ed05781851161056a5760ff612eca8883013593603f1901878401613b63565b16612d6e565b6064868887519163151a7bff60e11b8352820152600e60248201527f4241445f5349475f4c454e4754480000000000000000000000000000000000006044820152fd5b9250503461031557602036600319011261031557356001600160e01b0319811680910361031557602092507f9061b923000000000000000000000000000000000000000000000000000000008114908115612fb9575b8115612fa8575b8115612f7e575b5015158152f35b7f01ffc9a70000000000000000000000000000000000000000000000000000000091501438612f77565b63c55a5d5960e01b81149150612f70565b7f304e6ade0000000000000000000000000000000000000000000000000000000081149150612f69565b9181601f840112156110395782359167ffffffffffffffff8311611039576020838186019501011161103957565b90604060031983011261103957600435916024359067ffffffffffffffff82116110395761304191600401612fe3565b9091565b9181601f840112156110395782359167ffffffffffffffff8311611039576020808501948460051b01011161103957565b60406003198201126110395767ffffffffffffffff9160043583811161103957826130a391600401613045565b939093926024359182116110395761304191600401613045565b67ffffffffffffffff81116130d157604052565b634e487b7160e01b600052604160045260246000fd5b6060810190811067ffffffffffffffff8211176130d157604052565b6040810190811067ffffffffffffffff8211176130d157604052565b90601f8019910116810190811067ffffffffffffffff8211176130d157604052565b67ffffffffffffffff81116130d15760051b60200190565b6001548110156131905760016000527fb10e2d527612073b26eecdfd717e6a320cf44b4afac2b0732d9fcbe2b7fa0cf60190600090565b634e487b7160e01b600052603260045260246000fd5b90600182811c921680156131d6575b60208310146131c057565b634e487b7160e01b600052602260045260246000fd5b91607f16916131b5565b90604051918260008254926131f4846131a6565b9081845260019485811690816000146132635750600114613220575b505061321e9250038361311f565b565b9093915060005260209081600020936000915b81831061324b57505061321e93508201013880613210565b85548884018501529485019487945091830191613233565b91505061321e94506020925060ff191682840152151560051b8201013880613210565b60005b8381106132995750506000910152565b8181015183820152602001613289565b906020916132c281518092818552858086019101613286565b601f01601f1916010190565b600435906001600160a01b038216820361103957565b602435906001600160a01b038216820361103957565b908082519081815260208091019281808460051b8301019501936000915b8483106133285750505050505090565b9091929394958480613346600193601f198682030187528a516132a9565b9801930193019194939290613318565b67ffffffffffffffff81116130d157601f01601f191660200190565b92919261337e82613356565b9161338c604051938461311f565b829481845281830111611039578281602093846000960137010152565b9080601f83011215611039578160206133c493359101613372565b90565b60243590811515820361103957565b60406003198201126110395767ffffffffffffffff91600435838111611039578261340391600401612fe3565b939093926024359182116110395761304191600401612fe3565b600019811461342c5760010190565b634e487b7160e01b600052601160045260246000fd5b600092918154613451816131a6565b926001918083169081156134aa575060011461346e575b50505050565b90919293945060005260209081600020906000915b8583106134995750505050019038808080613468565b805485840152918301918101613483565b60ff1916845250505081151590910201915038808080613468565b8051156131905760200190565b80518210156131905760209160051b010190565b9190916001548060011c936001850180951161342c5760058511613639575b939061351082613141565b926040936135208551918261311f565b838152601f19928361353186613141565b0160005b81811061362657505081976000943360601b958315925b88821061355f5750505050505050505050565b83918a51916020928381019182528a8d8201526034815261357f816130e7565b51902092613610576135d26135ef8c61360a9461359d8a8806613159565b5091519384927f68747470733a2f2f000000000000000000000000000000000000000000000000838501526028840190613442565b6135e28d82815194859201613286565b010386810183528261311f565b6135f982896134d2565b5261360481886134d2565b5061341d565b9061354c565b634e487b7160e01b600052601260045260246000fd5b6060602082860181019190915201613535565b60059450613505565b9061364c82613356565b613659604051918261311f565b828152809261366a601f1991613356565b0190602036910137565b6040519061368182613103565b601082527f30313233343536373839616263646566000000000000000000000000000000006020830152565b908151811015613190570160200190565b8051600290600181811b82158382048514171561342c576136de90613642565b936136e7613674565b9060005b8481106136fb5750505050505090565b61370581836136ad565b51906001600160f81b03198061371e8460fc1c876136ad565b51169282871b938385048a148415171561342c5761375191600f9160001a613746878e6136ad565b5360f81c16866136ad565b51169185810180911161342c576117ed61376f9360001a918a6136ad565b6136eb565b1561377b57565b606460405162461bcd60e51b815260206004820152600860248201527f4f6e6c79204465760000000000000000000000000000000000000000000000006044820152fd5b8181106137ca575050565b600081556001016137bf565b9190601f81116137e557505050565b61321e926000526020600020906020601f840160051c83019310613811575b601f0160051c01906137bf565b9091508190613804565b919392906138de5767ffffffffffffffff81116130d1576138408161270a84546131a6565b6000601f821160011461387a578192939460009261386f575b50508160011b916000199060031b1c1916179055565b013590503880613859565b601f198216948382526020918281209281905b8882106138c6575050836001959697106138ac575b505050811b019055565b0135600019600384901b60f8161c191690553880806138a2565b8060018496829495870135815501950192019061388d565b634e487b7160e01b600052600060045260246000fd5b9060015491680100000000000000008310156130d157610fa783600161321e9501600155613159565b91908110156131905760051b81013590601e198136030182121561103957019081359167ffffffffffffffff8311611039576020018236038113611039579190565b1561396657565b606460405162461bcd60e51b815260206004820152600c60248201527f4c617374204761746577617900000000000000000000000000000000000000006044820152fd5b90808214613a83576139bc81546131a6565b9067ffffffffffffffff82116130d15781906139e2826139dc86546131a6565b866137d6565b600090601f8311600114613a1857600092613a0d5750508160011b916000199060031b1c1916179055565b015490503880613859565b81526020808220858352818320935090601f1985169083905b828210613a6a575050908460019594939210613a5157505050811b019055565b015460001960f88460031b161c191690553880806138a2565b8495819295850154815560018091019601940190613a31565b5050565b91906138de5761321e916139aa565b6001548015613b065760001901613aac81613159565b6138de57613aba81546131a6565b9081613ac8575b5050600155565b81601f60009311600114613ae05750555b3880613ac1565b908083918252613aff601f60208420940160051c8401600185016137bf565b5555613ad9565b634e487b7160e01b600052603160045260246000fd5b91908110156131905760051b0190565b9081602091031261103957516001600160a01b03811681036110395790565b90939293848311611039578411611039578101920390565b359060208110613b71575090565b6000199060200360031b1b1690565b6001600160f81b03199035818116939260018110613b9d57505050565b60010360031b82901b16169150565b90918060409360208452816020850152848401376000828201840152601f01601f1916010190565b919260489594936bffffffffffffffffffffffff19809360601b168452601484015260601b166034820152613c128251809360208785019101613286565b01613c268251809360208685019101613286565b010190565b8015613c95576000818181805b613c825750613c4681613642565b935b613c525750505090565b6000190190600a9060308282060160f81b6001600160f81b031916841a613c7984876136ad565b53049081613c48565b91506001600a9101910480849291613c38565b50604051613ca281613103565b600181527f3000000000000000000000000000000000000000000000000000000000000000602082015290565b604080516020926bffffffffffffffffffffffff199060601b1683820152601491828252613cfc82613103565b805191613d08836130e7565b602883528483019382368637825191613d2083613103565b601083527f303132333435363738394142434445460000000000000000000000000000000087840152613d51613674565b92613d5b826136be565b8551613d838a8281613d768183019687815193849201613286565b810103808452018261311f565b51902060005b848110613de657505050505050926133c492613dd66022937f3078000000000000000000000000000000000000000000000000000000000000965196879485015251809285850190613286565b810103600281018452018261311f565b613df081856136ad565b5160fc1c600f9081613e0284886136ad565b5160f81c16908c8410156131905784841a9160076001600160f81b0319600493828787871c1611600014613ee357613e3a908a6136ad565b5116945b60019487861b9688880460021489151715613ece57908f613e6f896001600160f81b03199796959460001a926136ad565b53161115613ebc57613e8190886136ad565b5116915b8301809311613ea75750906117ed613ea2939260001a918b6136ad565b613d89565b601190634e487b7160e01b6000525260246000fd5b613ec6908b6136ad565b511691613e85565b601186634e487b7160e01b6000525260246000fd5b613eed908d6136ad565b511694613e3e565b15613efc57565b606460405162461bcd60e51b815260206004820152600d60248201527f4f6e6c7920436f6e7472616374000000000000000000000000000000000000006044820152fd5b356001600160a01b03811681036110395790565b358015158103611039579056fea2646970667358221220bf657c801c41a4a23025a83436c4a2f2915a8e3f134a72cd68b9f73555c3ac4764736f6c63430008130033",
    "linkReferences": {}
  },
  "methodIdentifiers": {
    "ENS()": "1d2e2cc4",
    "Gateways(uint256)": "356a277a",
    "__callback(bytes,bytes)": "c55a5d59",
    "addGateway(string)": "d63a4801",
    "addGateways(string[])": "21d6e7dd",
    "approve(bytes32,address,bool)": "a4b91a01",
    "approved(bytes32,address)": "b984b2cd",
    "bytesToString(bytes,uint256)": "82adc208",
    "contenthash(bytes32)": "bc1c58d1",
    "fastSetup(bytes32,address,bytes)": "6d41a517",
    "funcToFile(bytes4)": "e190ea65",
    "immolate()": "bf1e9c85",
    "isApprovedFor(address,bytes32,address)": "a9784b3e",
    "isApprovedForAll(address,address)": "e985e9c5",
    "isWrapper(address)": "e0aa2797",
    "listAllGateways()": "814b7456",
    "manager(bytes32)": "9885e3b4",
    "owner()": "8da5cb5b",
    "randomGateways(string,uint256)": "e8d76b1e",
    "removeGateway(uint256)": "e5dac703",
    "removeGateways(uint256[])": "30121570",
    "replaceGateway(uint256,string)": "acc0f7b1",
    "replaceGateways(uint256[],string[])": "5d1219d5",
    "resolve(bytes,bytes)": "9061b923",
    "safeWithdraw(address,uint256)": "5058c460",
    "setApprovalForAll(address,bool)": "a22cb465",
    "setContenthash(bytes32,bytes)": "304e6ade",
    "signedBy(bytes32,bytes)": "06dcdc63",
    "supportsInterface(bytes4)": "01ffc9a7",
    "toChecksumAddress(address)": "cf135352",
    "uintToString(uint256)": "e9395679",
    "updateWrapper(address,bool)": "8384976f",
    "updateWrappers(address[],bool[])": "084ac40a",
    "withdraw()": "3ccfd60b",
    "withdraw(address,uint256)": "f3fef3a3"
  },
  "id": 22
}